:020000040800F2
:1000000000800220F9CA000849CB000849CB00084B
:1000100049CB000849CB000849CB0008000000008C
:1000200000000000000000000000000049CB0008B4
:1000300049CB00080000000049CB000835A80008A3
:1000400049CB000849CB000849CB000849CB000840
:1000500049CB000849CB000849CB000849CB000830
:1000600049CB000849CB000849CB000849CB000820
:1000700049CB000849CB000849CB000849CB000810
:1000800049CB000849CB000849CB000849CB000800
:1000900049CB000849CB000849CB000849CB0008F0
:1000A00049CB000849CB000849CB000849CB0008E0
:1000B00049CB000849CB00080000000049CB0008EC
:1000C00049CB000849CB000849CB000849CB0008C0
:1000D00049CB000849CB000843A8000849CB0008D9
:1000E00049CB000849A800080000000000000000FB
:1000F0000000000000000000000000000000000000
:100100000000000049CB00080000000049CB0008B7
:1001100049CB00080000000049CB000800000000A7
:1001200049CB000849CB000849CB000849CB00085F
:1001300049CB000849CB000849CB0008000000006B
:1001400049CB000855A8000849CB000849CB000856
:1001500049CB000849CB000849CB000849CB00082F
:1001600049CB000849CB000849CB0008000000003B
:100170000000000049CB0008000000000000000063
:1001800049CB000849CB000849CB000849CB0008FF
:0401900049CB00084F
:1001A00010B5054C237833B9044B13B10448AFF3B1
:1001B00000800123237010BD6002002000000000B9
:1001C000B4F4000808B5034B1BB103490348AFF36F
:1001D000008008BD0000000064020020B4F40008A4
:1001E00010F8012B11F8013B012A28BF9A42F7D0E1
:1001F000D01A7047034613F8012B002AFBD1181AB6
:1002000001387047000000000000000000000000FE
:1002100001F0FF01102A2BDB10F0070F08D010F8B7
:10022000013B013A8B422DD010F0070F42B3F6D1BB
:10023000F0B441EA012141EA014122F007047FF0D4
:1002400000070023F0E80256083C85EA010586EA2B
:10025000010685FA47F5A3FA87F586FA47F6A5FA67
:1002600087F68EB9EED1F0BC01F0FF0102F0070273
:1002700032B110F8013B013A83EA010313B1F8D11E
:100280000020704701387047002D06BF35460338FF
:10029000073815F0010F07D1013015F4807F02BF38
:1002A000013015F4C03F0130F0BC0138704700BF89
:1002B00081F0004102E000BF83F0004330B54FEA17
:1002C00041044FEA430594EA050F08BF90EA020F84
:1002D0001FBF54EA000C55EA020C7FEA645C7FEA17
:1002E000655C00F0E2804FEA5454D4EB5555B8BF3A
:1002F0006D420CDD2C4480EA020281EA030382EAAB
:10030000000083EA010180EA020281EA0303362D3C
:1003100088BF30BD11F0004F4FEA01314FF4801C0F
:100320004CEA113102D0404261EB410113F0004F21
:100330004FEA03334CEA133302D0524263EB4303D8
:1003400094EA050F00F0A780A4F10104D5F1200E76
:100350000DDB02FA0EFC22FA05F2801841F10001D1
:1003600003FA0EF2801843FA05F359410EE0A5F1A5
:1003700020050EF1200E012A03FA0EFC28BF4CF0D6
:10038000020C43FA05F3C01851EBE37101F000458C
:1003900007D54FF0000EDCF1000C7EEB00006EEB99
:1003A0000101B1F5801F1BD3B1F5001F0CD3490823
:1003B0005FEA30004FEA3C0C04F101044FEA44527A
:1003C00012F5800F80F09A80BCF1004F08BF5FEA01
:1003D000500C50F1000041EB045141EA050130BDE1
:1003E0005FEA4C0C404141EB010111F4801FA4F184
:1003F0000104E9D191F0000F04BF01460020B1FAD9
:1004000081F308BF2033A3F10B03B3F120020CDA10
:100410000C3208DD02F1140CC2F10C0201FA0CF0EE
:1004200021FA02F10CE002F11402D8BFC2F1200C53
:1004300001FA02F120FA0CFCDCBF41EA0C01904009
:10044000E41AA2BF01EB0451294330BD6FEA040452
:100450001F3C1CDA0C340EDC04F11404C4F120023D
:1004600020FA04F001FA02F340EA030021FA04F34F
:1004700045EA030130BDC4F10C04C4F1200220FAA6
:1004800002F001FA04F340EA0300294630BD21FAE4
:1004900004F0294630BD94F0000F83F4801306BFAA
:1004A00081F480110134013D4EE77FEA645C18BF9E
:1004B0007FEA655C29D094EA050F08BF90EA020F35
:1004C00005D054EA000C04BF1946104630BD91EA2D
:1004D000030F1EBF0021002030BD5FEA545C05D130
:1004E0004000494128BF41F0004130BD14F580046F
:1004F0003CBF01F5801130BD01F0004545F0FE41E3
:1005000041F470014FF0000030BD7FEA645C1ABF17
:10051000194610467FEA655C1CBF0B46024650EA4E
:10052000013406BF52EA033591EA030F41F400217A
:1005300030BD00BF90F0000F04BF0021704730B500
:100540004FF4806404F132044FF000054FF00001D5
:1005500050E700BF90F0000F04BF0021704730B596
:100560004FF4806404F1320410F0004548BF40426B
:100570004FF000013EE700BF42004FEAE2014FEAC0
:1005800031014FEA02701FBF12F07F4393F07F4F9B
:1005900081F06051704732F07F4208BF704793F09E
:1005A0007F4F04BF41F40021704730B54FF46074B1
:1005B00001F0004521F000411CE700BF50EA0102B4
:1005C00008BF704730B54FF000050AE050EA01025D
:1005D00008BF704730B511F0004502D5404261EBCD
:1005E00041014FF4806404F132045FEA915C3FF40E
:1005F000D8AE4FF003025FEADC0C18BF03325FEAAB
:10060000DC0C18BF033202EBDC02C2F1200300FA5B
:1006100003FC20FA02F001FA03FE40EA0E0021FA80
:1006200002F11444BDE600BF70B54FF0FF0C4CF46E
:10063000E06C1CEA11541DBF1CEA135594EA0C0F20
:1006400095EA0C0F00F0DEF82C4481EA030621EA5B
:100650004C5123EA4C5350EA013518BF52EA033596
:1006600041F4801143F4801338D0A0FB02CE4FF048
:100670000005E1FB02E506F00042E0FB03E54FF078
:100680000006E1FB03569CF0000F18BF4EF0010E70
:10069000A4F1FF04B6F5007F64F5407404D25FEA6C
:1006A0004E0E6D4146EB060642EAC62141EA55511F
:1006B0004FEAC52040EA5E504FEACE2EB4F1FD0C61
:1006C00088BFBCF5E06F1ED8BEF1004F08BF5FEADF
:1006D000500E50F1000041EB045170BD06F0004691
:1006E00046EA010140EA020081EA0301B4EB5C043E
:1006F000C2BFD4EB0C0541EA045170BD41F4801136
:100700004FF0000E013C00F3AB8014F1360FDEBF5A
:10071000002001F0004170BDC4F10004203C35DA36
:100720000C341BDC04F11404C4F1200500FA05F3B9
:1007300020FA04F001FA05F240EA020001F000425A
:1007400021F0004110EBD37021FA04F642EB0601D0
:100750005EEA430E08BF20EAD37070BDC4F10C04FA
:10076000C4F1200500FA04F320FA05F001FA04F2BE
:1007700040EA020001F0004110EBD37041F10001AA
:100780005EEA430E08BF20EAD37070BDC4F12005B5
:1007900000FA05F24EEA020E20FA04F301FA05F21D
:1007A00043EA020321FA04F001F0004121FA04F2C5
:1007B00020EA020000EBD3705EEA430E08BF20EA95
:1007C000D37070BD94F0000F0FD101F000464000CF
:1007D00041EB010111F4801F08BF013CF7D041EA51
:1007E000060195F0000F18BF704703F00046520055
:1007F00043EB030313F4801F08BF013DF7D043EA26
:100800000603704794EA0C0F0CEA135518BF95EADB
:100810000C0F0CD050EA410618BF52EA4306D1D162
:1008200081EA030101F000414FF0000070BD50EA81
:10083000410606BF1046194652EA430619D094EA0B
:100840000C0F02D150EA013613D195EA0C0F05D1F5
:1008500052EA03361CBF104619460AD181EA030149
:1008600001F0004141F0FE4141F470014FF0000001
:1008700070BD41F0FE4141F4780170BD70B54FF09C
:10088000FF0C4CF4E06C1CEA11541DBF1CEA13551C
:1008900094EA0C0F95EA0C0F00F0A7F8A4EB0504FE
:1008A00081EA030E52EA03354FEA013100F08880F5
:1008B0004FEA03334FF0805545EA131343EA1263BE
:1008C0004FEA022245EA111545EA10654FEA002673
:1008D0000EF000419D4208BF964244F1FD0404F52C
:1008E000407402D25B084FEA3202B61A65EB030588
:1008F0005B084FEA32024FF480104FF4002CB6EB45
:10090000020E75EB030E22BFB61A754640EA0C00C4
:100910005B084FEA3202B6EB020E75EB030E22BF04
:10092000B61A754640EA5C005B084FEA3202B6EB45
:10093000020E75EB030E22BFB61A754640EA9C0004
:100940005B084FEA3202B6EB020E75EB030E22BFD4
:10095000B61A754640EADC0055EA060E18D04FEA92
:10096000051545EA16754FEA06164FEAC30343EA32
:1009700052734FEAC2025FEA1C1CC0D111F4801FFF
:100980000BD141EA00014FF000004FF0004CB6E7F8
:1009900011F4801F04BF01430020B4F1FD0C88BF97
:1009A000BCF5E06F3FF6AFAEB5EB030C04BFB6EBA2
:1009B000020C5FEA500C50F1000041EB045170BD95
:1009C0000EF0004E4EEA113114EB5C04C2BFD4EBC2
:1009D0000C0541EA045170BD41F480114FF0000E46
:1009E000013C90E645EA060E8DE60CEA135594EAC2
:1009F0000C0F08BF95EA0C0F3FF43BAF94EA0C0FC5
:100A00000AD150EA01347FF434AF95EA0C0F7FF439
:100A100025AF104619462CE795EA0C0F06D152EA8D
:100A200003353FF4FDAE1046194622E750EA410671
:100A300018BF52EA43067FF4C5AE50EA41047FF482
:100A40000DAF52EA43057FF4EBAE12E74A0011D234
:100A500012F5001211D20DD56FF47873B3EB625218
:100A60000ED44FEAC12343F0004343EA505323FA24
:100A700002F070474FF00000704750EA013002D199
:100A80004FF0FF3070474FF0000070474FEA4102CF
:100A9000B2F1E04324BFB3F5001CDCF1FE5C0DD9DC
:100AA00001F0004C4FEAC0024CEA5070B2F1004F26
:100AB00040EB830008BF20F00100704711F0804F29
:100AC00021D113F13872BCBF01F00040704741F4EE
:100AD00080114FEA5252C2F11802C2F1200C10FAF2
:100AE0000CF320FA02F018BF40F001004FEAC123D6
:100AF0004FEAD32303FA0CFC40EA0C0023FA02F37A
:100B00004FEA4303CCE77FEA625307D150EA01334F
:100B10001EBF4FF0FE4040F44000704701F000401F
:100B200040F0FE4040F40000704700BF53B94AB99E
:100B3000002908BF00281CBF4FF0FF314FF0FF30E5
:100B400000F072B9ADF1080C6DE904CE00F006F8C2
:100B5000DDF804E0DDE9022304B070472DE9F04739
:100B6000089E04468846002B4BD18A42154667D919
:100B7000B2FA82F24AB1C2F1200701FA02F320FA76
:100B800007F7954047EA030894404FEA154E230CB7
:100B9000B8FBFEF71FFA85FC0EFB178843EA0843F3
:100BA00007FB0CF1994209D9EB1807F1FF3080F0EF
:100BB0001B81994240F21881023F2B445B1AA4B278
:100BC000B3FBFEF00EFB103344EA034400FB0CFCC5
:100BD000A44509D92C1900F1FF3380F00781A44501
:100BE00040F2048102382C4440EA0740A4EB0C0494
:100BF00000271EB1D4400023C6E900433946BDE8B2
:100C0000F0878B4209D9002E00F0EB800027C6E95F
:100C1000000138463946BDE8F087B3FA83F7002F64
:100C200047D18B4202D3824200F2FA80841A61EBF0
:100C3000030301209846002EE0D0C6E90048DDE716
:100C400002B9FFDEB2FA82F2002A40F08F80491B1F
:100C50004FEA154E1FFA85F80127B1FBFEFC230C65
:100C60000EFB1C1143EA014308FB0CF1994207D922
:100C7000EB180CF1FF3002D2994200F2CD8084468D
:100C8000591AA3B2B1FBFEF00EFB101443EA044460
:100C900008FB00F8A04507D92C1900F1FF3302D258
:100CA000A04500F2B6801846A4EB080440EA0C40C8
:100CB0009FE7C7F1200CBB4022FA0CFE4EEA030E60
:100CC00001FA07F420FA0CF521FA0CF34FEA1E485A
:100CD0002543B3FBF8F92C0C08FB19331FFA8EFAE5
:100CE00044EA034309FB0AF49C4202FA07F200FAC1
:100CF00007F10BD91EEB030309F1FF3080F0878069
:100D00009C4240F28480A9F1020973441B1BADB2DE
:100D1000B3FBF8F008FB103345EA034400FB0AFA82
:100D2000A24508D91EEB040400F1FF336BD2A245A3
:100D300069D90238744440EA0940A0FB0289A4EB57
:100D40000A044C45C2464B4654D351D0002E69D0BC
:100D5000B1EB0A0564EB030404FA0CFCFD40FC4013
:100D60004CEA0505C6E90054002747E7C2F1200315
:100D700020FA03F7954001FA02F021FA03F34FEA53
:100D8000154E3843010CB3FBFEF71FFA85F80EFB36
:100D9000173341EA034107FB08F38B4204FA02F4DC
:100DA00007D9691807F1FF3C2FD28B422DD9023F9A
:100DB0002944CB1A81B2B3FBFEF00EFB103341EA9B
:100DC000034100FB08F38B4207D9691800F1FF3C8F
:100DD00017D28B4215D902382944C91A40EA07476D
:100DE0003BE73746304609E70746E7E61846FBE6A5
:100DF0004145ABD2B8EB020A69EB0E02013813464B
:100E0000A4E76046E9E7184695E76746D1E78146DB
:100E10007CE702382C4447E7ACF1020C2B442FE767
:100E2000384608E73746E9E6704700BF10B5084B7B
:100E3000044618684FF47A73B0FBF3F000F0A4FD99
:100E4000002221464FF0FF3000F05EFD002010BD73
:100E500024000020074A08B5136843F48073136028
:100E6000032000F03FFD0020FFF7E0FF09F09CFCAD
:100E7000002008BD00200240024A136801331360BD
:100E8000704700BFE8030020014B1868704700BF9F
:100E9000E803002038B50446FFF7F6FF631C05465B
:100EA00018BF0134FFF7F0FF401BA042FAD338BD52
:100EB00070B54FF0007696FAA6F6B6FA86F301F012
:100EC0000076DE40143001F0F8714FF0F87393FAB9
:100ED000A3F5B5FA85F593FAA3F3072421FA05F5EE
:100EE00004FA05F5B3FA83F350F82640D94024EA12
:100EF000050402FA01F1214340F8261070BD0000FC
:100F000037B5002301930446002800F0B980C56D71
:100F100025B908F087FE256684F8585023689A683A
:100F2000900041BF9A6822F0204222F03F029A606E
:100F30009A68D1007BD59A68D20040F18F8000205A
:100F4000E26DD50600F198809A68510700F194800F
:100F5000E26D22F4817242F00202E2659A6802F0C8
:100F60000302012A02D11A68D20706D445496568EE
:100F70008A6822F47C122A438A60E568A26B616A5F
:100F80002A43A5682A43E569012942EA453242EA33
:100F9000014202BFA16A01F1FF3142EA4142E16A26
:100FA00021B1256B01F4707129430A43DD6836498C
:100FB00029400A43DA609A6812F00C0F20D1626B64
:100FC000A569D968520042EA8532256D21F4804135
:100FD0002A4321F006010A43DA60E26B012A47D175
:100FE000D4E910252A43A56C196942F001022A436D
:100FF000E56C21F4FF612A4321F004010A431A61E0
:101000002269012A05BF196B226A1A6B02F1FF32AD
:1010100006BF21F00F010A4322F00F021A63E36DAD
:1010200023F0030343F00103E36503B030BD9A6886
:10103000164922F0104222F03F0242F080529A609C
:10104000134A1268B2FBF1F10A224A430192019A53
:10105000002A3FF470AF019A013AF7E7E26D42F0DF
:101060001002E265226E42F001022266012067E76B
:101070001A6922F00102C2E7E36D43F01003E36551
:101080000120D2E70003045007C0F0FF80841E0057
:1010900024000020F8B54569082D04460E460AD004
:1010A0000368DB68DD0705D5C36D43F02003C36526
:1010B0000120F8BD0425FFF7E7FE074623681A68FC
:1010C00015421DD0E26D42F40072E265DA6812F456
:1010D000406F0FD1E2696AB91A6811070AD5E26D4B
:1010E00022F48072E265E26DD2045EBFE26D42F0EE
:1010F0000102E265082DD86814D11D600020D8E7F0
:10110000701CDCD046B9E36D43F00403E3650023B3
:1011100084F858300320CCE7FFF7B6FEC01BB0427E
:10112000CCD9F0E710F48040E8D10C221A60C0E777
:101130000368186C704700002DE9F3410023019308
:1011400090F85830012B05460C4600F09B81012396
:1011500080F8583000688268510700F18D8163681B
:10116000052B09D8023B032B00F28580DFE803F052
:10117000027C7E800C23636061684FF4407393FAB5
:10118000A3F3B3FA83F301F44076DE4000F13007B5
:1011900001F01F011F2303FA01F257F8263023EA5A
:1011A00002032268C2F384628A40134347F8263060
:1011B000826812F00C0224D1A3682168B3F1004FB9
:1011C0005BD1FFF775FE2A68536943F00043536112
:1011D000266928682368C168042E00F1600254D093
:1011E000C1F3C1014800616903F0F843814043F055
:1011F0000043194352F82600AA4B0340194342F812
:1012000026102868836803F00303012B03D10368C9
:10121000DA0700F1C1802368D0F8B020E168C3F399
:1012200012073A43C0F8B0209F4A914240F0B48080
:10123000002F40F09180C3F3846601360122092E0D
:101240004FEA866102FA06F240F29A800A43002FC2
:1012500040F0C480C3F3846303EB4303A3F11B0199
:10126000090541F0007193E0122384E7182382E717
:101270004FF480737FE706237DE71A46FFF718FED9
:101280002A68536923F00043A1E7D0F860C0466E96
:10129000C3F3120ECCF3846800F1680700F16C010F
:1012A000BEF1000F37D1C3F3846EF04540F0EC80FF
:1012B0002CF0004303662368C3F3120EC6F3846C5C
:1012C000BEF1000F2FD1C3F38463634540F0DF808C
:1012D00026F00046466623689068C3F3120CC0F3FC
:1012E0008466BCF1000F28D1C3F38463B34240F09D
:1012F000D38020F0004038602368D268C3F3120620
:10130000C2F384601EBBC3F38463834204BF22F034
:1013100000420A6075E793FAA3FEBEFA8EFEF0451E
:10132000C6D0C6F3846C93FAA3F3B3FA83F3634590
:10133000CED090682368C0F3846693FAA3F3B3FA1F
:1013400083F3B342D5D0D2682368C2F3846093FAA2
:10135000A3F3B3FA83F3D8E793FAA3F2B2FA82F2D3
:101360000132092A2CD893FAA3F2B2FA82F201329E
:10137000910693FAA3F2B2FA82F2561C0122B2400D
:101380000A43C7B9C3F38463013303EB430319056D
:101390001143A268FFF78CFD2368444A934222D18F
:1013A000434A93681B024BD50020002385F8583030
:1013B00002B0BDE8F08193FAA3F3B3FA83F3E3E755
:1013C00093FAA3F2B2FA82F20132910693FAA3F2EF
:1013D000B2FA82F2561C0122B24037E793FAA3F325
:1013E000B3FA83F338E7334A934213D1304A906813
:1013F00010F08070D8D129682F4B9942D4D19168D0
:10140000936801F0E07123F0E0730B4343F08073C5
:101410009360CAE7294A9342C6D1254A906810F4DE
:101420008000C1D12968244B9942BDD1916893684D
:1014300001F0E07123F0E0730B4343F48003E7E72E
:1014400029681D4B9942AFD19168936801F0E07112
:1014500023F0E0730B4343F400039360184B194AE5
:101460001B68B3FBF2F2782353430193019B002BDB
:101470009AD0019B013BF8E7EA6D42F02002EA6551
:10148000184692E7022093E7C6F3846C1BE7906846
:101490002368C0F3846627E7D2682368C2F38460B8
:1014A00031E700BF00F0FF0300007F40000052C79B
:1014B00000030450000084CB0000045001000080B1
:1014C0002400002080841E00C06D704703689A6865
:1014D00012F00C0F70B5044601D1002070BDDA681F
:1014E00090012AD5E269012A27D1A269012A24D1D3
:1014F000224A1968490614D540221A6001219A68C7
:1015000052070AD59A68960707D49A6822F00042D3
:1015100022F03F0242F010029A6001290FD1042507
:101520001DE0013AE5D1E36D43F01003E365236E5E
:1015300043F0010323660120D0E70229DFD19A6836
:10154000100706D59A6892075EBF9A6842F020029B
:101550009A60022910D003290CBF0C250425FFF73F
:1015600093FC064623689B682B42B6D0FFF78CFCA1
:10157000801B0528F6D9D6E70825F0E7010040A32F
:1015800073B5002302680193936803F00303012BF2
:10159000044605D11368D80702D5002002B070BDFB
:1015A00091681C4B194209D0E36D43F01003E365C9
:1015B000236E43F0010323660120EFE7936823F0D5
:1015C000004323F03F0343F001039360124B134A9F
:1015D0001B68B3FBF2F20A2353430193019BABB99F
:1015E000FFF752FC0E4E054622681368DB07D4D481
:1015F0009368D9075FBF9368334043F0010393605A
:10160000FFF742FC401B0228EED9CDE7019B013BCE
:10161000E3E700BF3F0000802400002080841E001C
:10162000C0FFFF7F38B503689D6815F004050446C8
:101630003AD190F85830012B36D0012380F8583039
:10164000FFF79EFF00282CD1E36D23F4706323F095
:10165000010343F48073E365E36D23F48013E365D2
:10166000E36DDA0448BF236E226852BF206623F080
:10167000060323661C231360002384F85830D368C4
:101680009B0141BFE36D23F4405343F48053E36572
:10169000936823F0004323F03F0343F00403936077
:1016A00038BD84F85850FBE70220F9E7026838B5E6
:1016B0000446906800F00300012801D0002038BDE6
:1016C0001368D907FAD5936803F00D03012B1FD1D6
:1016D000936823F0004323F03F0343F00203936039
:1016E00003231360FFF7D0FB054623689B68DB07E5
:1016F000E4D5FFF7C9FB401B0228F6D9E36D43F0A0
:101700001003E365236E43F0010323660120D6E74F
:10171000E36D43F01003E365236E43F0010323669A
:10172000CDE7000010B50446002800F08C80C36DA2
:1017300043F002030321C365FFF7C8FE2268D368A4
:1017400043F40013D3602046FFF7B0FF23683F48FF
:10175000596840F2FF72014059601A60996821F09F
:10176000A0419960996841F000519960D96801F0F1
:101770008021D960D96841F00041D9601A690240DE
:101780001A615A69324802F080425A619A6902F03D
:1017900078429A611A6A02F0F0221A625A6A02F0DA
:1017A000FF225A629A6A02F0FF229A62196B294A52
:1017B0000A401A63596B014059639A6B02409A635D
:1017C000DA6B22F4FB6222F00702DA63196E224A16
:1017D00011401966596E11405966996E114099660B
:1017E000D96E0A40DA66D3F8A0201C490A40C3F833
:1017F000A020D3F8A4200A40C3F8A420D3F8B02036
:101800000A40C3F8B020D3F8B42022F07F12C3F806
:10181000B4209A6802F00302012A02D11B68DB0798
:1018200006D40F4A936823F0FF7323F48033936048
:10183000204608F01BFA0020C4E91900206684F84D
:101840005800E06510BD0120FCE700BF00F8FFFF75
:10185000200882E0300882E000F0FF030000F8FF7B
:101860000003045038B590F85830012B04460D465B
:1018700035D0012380F85830FFF718FFE36D58BBCF
:1018800023F4885323F0020343F00203E365236843
:101890009A6822F080422A439A609A6842F0004295
:1018A0009A604FF491229968002909DBE36D23F0D7
:1018B000030343F00103E365002384F858300AE092
:1018C000013AF0D1E36D84F8582023F0120343F07D
:1018D0001003E365012038BD43F01003EBE702205D
:1018E000F9E70000074AD36823F4E0631B041B0CEC
:1018F00043F0BF63000243F4003300F4E0600343AD
:10190000D360704700ED00E0174B70B5DC68C4F39E
:101910000224C4F10705042D04F1040328BF0425A3
:101920004FF0FF36062B06FA05F38CBF033C00246C
:1019300021EA0303A34006FA04F422EA040400287F
:1019400043EA0403A8BF00F160404FEA0313BCBFA1
:1019500000F00F00054ADBB2AABF00F56140135446
:1019600080F8003370BD00BF00ED00E014ED00E032
:101970004209012300F01F0003FA00F0014B43F875
:101980002200704700E100E00138B0F1807F0AD208
:10199000064B074A5860F02182F8231000200722E6
:1019A00098601A6070470120704700BF10E000E0A7
:1019B00000ED00E0044B1A6804280CBF42F004025A
:1019C00022F004021A60704710E000E0704708B58A
:1019D000FFF7FCFF08BDF0B5960805680B4601EB64
:1019E0008607BB4208D112F003021ED0012A14D18F
:1019F00011F826302B7018E05C7893F800C02404AE
:101A000044EA0C6493F803C044EA0C0493F802C05F
:101A100044EA0C242C600433E3E7022A08D111F8CD
:101A200026205B7843EA02232B8003681868F0BD08
:101A30005A7811F8261042EA01222A809B78D9E7C9
:101A4000006870B5002355089D4206D1D30744BFF6
:101A500031F825300380006870BD01EB830431F854
:101A60002360648844EA064404600133ECE7000024
:101A700010B5044608B9012010BD437F03F0FF02F2
:101A800013B9027708F022F9022363772379E3B9C7
:101A90002368134A5A619A6822F018029A606279A0
:101AA0002368D2B94FF0FF321A619A68616922F057
:101AB00060020A439A609A68A16922F080020A4390
:101AC0009A60012363770020D6E7D4E9021220460A
:101AD00000F032F80028E2D0CDE72269E4E700BF49
:101AE000B71DC104F8B5037F012B04464FF0020374
:101AF00020D04377036A0127022B077715D0032BE9
:101B000004D0BB4214D1FFF766FF05E0036801EB88
:101B10008206B14205D11868012363770023237739
:101B2000F8BD51F8042B1A60F3E7FFF789FFF3E7DC
:101B30000020F1E71846F3E710B51F2313F1FF3338
:101B400006D321FA03F4E407F8D5082A14D002D802
:101B50003AB101200DE0102A0CD0182AF9D1062B39
:101B6000F7D800684161836823F018031A43826044
:101B7000002010BD072BF3E70F2BF1E7064B5A6946
:101B8000002ABFBF054A9A6002F188329A60BABF44
:101B90005869C00F002070470020024023016745AC
:101BA000034A536943F0004353610020704700BF6C
:101BB00000200240064B5A69520041BF054ADA60D4
:101BC00002F1443200204CBFDA600120704700BFB0
:101BD000002002403B2A190870B50546FFF754F96A
:101BE0001A4C06462369DB031ED42369A06923F03F
:101BF0007F4323F47D0323F4705323F0050300F0A7
:101C00000040184319D0124A53680343536010F040
:101C100040431EBFA2691343A36130F0404001D08E
:101C20000A4B186101200EE06A1CDBD0FFF72CF98B
:101C3000801BA842D6D3032005E0236913F00103DB
:101C400002D00123236170BD1846FCE7002002404A
:101C5000000000208D4B1A78012A2DE9F047064636
:101C6000984600F0118101271F700023C8F8043046
:101C700003683B4000F00681D0E901A9C5684CF239
:101C80005030FFF7A9FFD8B9814CBAF1000F40F0EE
:101C9000EC80E36A03F0FF2343EA090343EA0543C8
:101CA000E362636943F4003363614CF25030FFF741
:101CB00093FF6369071C23F40033636118BF012796
:101CC00033689D0719D54CF250303569FFF784FF12
:101CD00090B96F4C236A23F0FF032B43236263699F
:101CE00043F4003363614CF25030FFF775FF6369D2
:101CF00023F40033636100B1012733685C0778D5B2
:101D00004CF25030D6E90554FFF766FF00286FD13A
:101D100015F001030EBF1A4604F4E0624FF4E063CD
:101D2000A80742BF04F480510A4343F48053690773
:101D300042BF04F400510A4343F40053E80442BF95
:101D400004F480410A4343F48043290742BF04F46A
:101D500080310A4343F48033E80642BF04F4003183
:101D60000A4343F40033A90642BF04F480210A4326
:101D700043F48023680642BF04F400210A4343F47D
:101D80000023A90542BF04F400010A4343F4000301
:101D9000680542BF04F080710A4343F0807329054F
:101DA00042BF04F000710A4343F00073A80442BF2D
:101DB00004F080610A4343F08063690444BF04F087
:101DC00000642243324C216A48BF43F0006321EA99
:101DD00003031A432262636943F4003363614CF2E4
:101DE0005030FFF7F9FE636923F40033636100B1FB
:101DF000012733681A0732D5D6E90894A1452ED0B9
:101E00004CF25030F569FFF7E7FE38BBEB0710D511
:101E10001F4B596AA0F5004009F17849014041EA99
:101E2000D90159629A6A04F17844024042EAD40224
:101E30009A62174CA36A05F0004523F000432B4338
:101E4000A362636943F4003363614CF25030FFF7DF
:101E5000C3FE636923F40033636100B101270023EB
:101E600088F800303846BDE8F087BAF1010F7FF4FA
:101E700018AF236B03F0FF2343EA090343EA05434A
:101E800023630EE71F461BE70227EBE70000002055
:101E9000002002402DE9F74FD1F80080DFF874915F
:101EA0005A4A002338FA03F402D103B0BDE8F08F98
:101EB000012404FA03FA1AEA080500F09C804C6831
:101EC00024F0100BBBF1020F14D14FEAD30C00EB3E
:101ED0008C0C03F0070EDCF820604FEA8E0E0F2703
:101EE00007FA0EF726EA07070E6906FA0EF63E43D2
:101EF000CCF820604FEA430E0327066807FA0EF776
:101F0000FF4304F0030C3E400CFA0EFC0BF1FF3BC8
:101F10004CEA0606BBF1010F066011D8866806EA96
:101F2000070BCE6806FA0EFC4CEA0B068660466884
:101F300026EA0A0AC4F300169E4046EA0A064660EC
:101F4000C66837408E6806FA0EF63743E600C7606B
:101F500051D5D9F8606046F00106C9F86060D9F83B
:101F6000606023F0030707F1804706F0010607F5DC
:101F70008037019603F0030E019EBE684FEA8E0E75
:101F80004FF00F0C0CFA0EFCB0F1904F26EA0C0C3F
:101F900033D01F4EB04232D006F58066B04230D00A
:101FA00006F58066B0422ED006F58066B04214BFBA
:101FB0000726042606FA0EF646EA0C06BE601668E8
:101FC000EF4314F4803F0CBF3E402E43166056682A
:101FD00014F4003F0CBF3E402E435660966814F444
:101FE000801F0CBF3E402E439660D668A40254BFAB
:101FF0003E402E43D660013354E70026DAE701263F
:10200000D8E70226D6E70326D4E700BF0004014044
:1020100000040048001002402DE9F04F374CDFF873
:10202000E49000234FF0010E4FF003084FF00F0C27
:1020300031FA03F201D1BDE8F08F0EFA03FA1AEA81
:10204000010551D006685A0008FA02F2DF0816436B
:1020500000EB8707066003F00706D7F820B0B6004C
:102060000CFA06F62BEA06063E628668D243164054
:102070008660466826EA0A064660C6683240C26044
:1020800023F0030202F1804202F5803203F00307DD
:102090009668BF000CFA07FBB0F1904F0BEA060AF6
:1020A00024D0174EB04223D006F58066B04221D02E
:1020B00006F58066B0421FD048450CBF04260726AF
:1020C000BE40564510D1966826EA0B0696602268F7
:1020D000ED432A40226062682A406260A2682A407A
:1020E000A260E2681540E5600133A1E70026E7E75A
:1020F0000126E5E70226E3E70326E1E700040140C5
:1021000000040048001000480369194214BF012070
:10211000002070470AB1816170478162704743694E
:1021200059404161704703689A69910744BF002292
:102130009A629A69D2075EBF9A6942F001029A6177
:102140007047000030B5039D046845EA024213431E
:10215000C1F309021A43044B606843EA555320EA6D
:1021600003000243626030BDFF63FF03036870B584
:102170000446986910F010000D46164616D170BD41
:10218000691C14D0FEF780FE801BA84200D86DB9F0
:10219000636C43F020036364202384F84130002300
:1021A00084F8423084F840300120E8E723689969D8
:1021B0008A06E5D510222025DA612046DD61FFF789
:1021C000B2FF2268536823F0FF7323F48B3323F4A8
:1021D000FF7323F001035360636C43F004036364F3
:1021E00084F84150DBE770B504460D461646236877
:1021F0009B695B070ED4324629462046FFF7B6FF9F
:10220000F0B923689A6991061CD59A69520703D5DB
:10221000228D0AB1002070BD2021D9615A6822F0B8
:10222000FF7222F48B3222F4FF7222F001025A6014
:102230000023636484F8411084F8423084F840300D
:102240000120E8E7FEF720FE801BA84201D8002D00
:10225000CDD1636C43F020036364202384F84130C4
:102260000023EBE770B504460D46164623689B69CC
:102270009B0601D5002070BD324629462046FFF757
:1022800075FF90B9FEF700FE801BA84201D8002D13
:10229000ECD1636C43F020036364202384F8413065
:1022A000002384F8423084F840300120E3E72DE930
:1022B000F041069F0446884616461D4622689369EB
:1022C00038EA03030CBF01230023B34201D00020EE
:1022D00015E06B1CF3D0FEF7D7FDC01BA84201D858
:1022E000002DEBD1636C43F020036364202384F85A
:1022F0004130002384F8423084F840300120BDE8AA
:10230000F08170B504460D46164623689B699B070D
:1023100001D5002070BD324629462046FFF726FF32
:10232000A0B96A1CF1D0FEF7AFFD801BA84201D80E
:10233000002DEAD1636C43F020036364202384F80A
:102340004130002384F8423084F840300120E1E736
:10235000F7B5099E1F46164B009305461446002309
:10236000FAB2FFF7EFFE324608992846FFF7C9FF99
:1023700010B1012003B0F0BD012F2B680CD1E4B2E5
:102380009C62089B0096002240212846FFF78FFFA1
:10239000003018BF0120EDE7220A9A620899324600
:1023A0002846FFF7AEFF0028E3D12B68E7E700BF20
:1023B0000020008010B5044608B96064FFDE90F884
:1023C000413003F0FF021BB980F8402007F082FF84
:1023D000242384F8413023681A6822F001021A602D
:1023E000626822F070621A619A6822F400429A6070
:1023F000D4E90221012924D142F400429A605A68AA
:1024000042F0007242F400425A60DA6822F400425C
:10241000DA60D4E904210A43A16942EA0122DA60C0
:10242000D4E907210A431A601A6842F001021A60CF
:1024300000202023606484F84130206384F8420047
:1024400010BD42F4044202299A6004BF4FF40062B6
:102450005A60D4E710B5044608B96064FFDE02682C
:10246000242380F84130136823F00103136007F040
:1024700079FF0020606484F8400084F84100206304
:1024800084F8420010BD00002DE9F743984690F80B
:102490004130202B04460E46914640F0828090F851
:1024A0004030012B7DD0012780F84070FEF7ECFC16
:1024B0001923054600903A464FF400412046FFF7A5
:1024C000F6FE18B1012003B0BDE8F083212384F8A3
:1024D0004130102384F842306064A4F82A80638D70
:1024E000C4F82490FF2B60632F4B26D9FF2222854E
:1024F00000934FF0807331462046FFF723FE638D33
:102500000A999BB22A462046FBB9FFF7ABFE00288A
:10251000D8D123682021D9615A6822F0FF7222F4B1
:102520008B3222F4FF7222F001025A6084F84110CB
:1025300084F8400084F84200C5E7628D009392B2AF
:1025400022854FF00073D2B2D5E7FFF7DAFE0028FC
:10255000B8D1636A5A1C626222681B789362638DE9
:10256000228D013B9BB26385638D013A92B29BB28F
:102570002285002BC3D0002AC1D100950A9B80215F
:102580002046FFF794FE00289CD1638DFF2B03D9D2
:10259000FF2222850090ACE7628D009092B22285E6
:1025A000CFE702208FE700BF002000802DE9F7432E
:1025B000984690F84130202B04460E46914640F054
:1025C000828090F84030012B7DD0012780F8407048
:1025D000FEF75AFC1923054600903A464FF4004195
:1025E0002046FFF764FE18B1012003B0BDE8F08378
:1025F000222384F84130102384F842306064A4F828
:102600002A80638DC4F82490FF2B60632F4B26D95A
:10261000FF22228500934FF0807331462046FFF75A
:1026200091FD638D0A999BB22A462046FBB9FFF7BC
:1026300019FE0028D8D123682021D9615A6822F0D8
:10264000FF7222F48B3222F4FF7222F001025A60F0
:1026500084F8411084F8400084F84200C5E7628D98
:10266000009392B222854FF00073D2B2D5E7FFF704
:10267000BAFD0028B8D123685A6A636A591C61629E
:102680001A70638D228D013B9BB26385638D013A85
:1026900092B29BB22285002BC3D0002AC1D10095F3
:1026A0000A9B80212046FFF702FE00289CD1638D03
:1026B000FF2B03D9FF2222850090ACE7628D0090AA
:1026C00092B22285CFE702208FE700BF002400806E
:1026D0002DE9F04F9B4690F8413085B0202B044601
:1026E0000F460392BDF83CA0DDF8408040F0A58085
:1026F0000E9B13B1BAF1000F06D14FF4007363645F
:10270000012005B0BDE8F08F90F84030012B00F0BB
:102710009480012580F84050FEF7B6FB1923009005
:1027200006462A464FF400412046FFF7C0FD814689
:102730000028E5D1222384F84130402384F8423038
:102740000E9B606463626063A4F82AA0CDE90086F2
:102750005B46039A39462046FFF7FAFD10B184F82C
:102760004090CDE7638DFF2B354B56D9FF22009368
:1027700022854FF0807339462046FFF7E3FC009630
:102780004346002204212046FFF791FD0028B7D1DF
:1027900023685A6A636A591C61621A70638D228DBC
:1027A000013B9BB26385638D013A92B29BB2228555
:1027B000A3B19AB90096434680212046FFF777FDE2
:1027C00000289DD1638DFF2B2FD9FF2222850090F9
:1027D0004FF0807339462046FFF7B4FC638D9BB2FF
:1027E000002BCCD1324641462046FFF73BFD002866
:1027F00086D123682021D9615A6822F0FF7222F421
:102800008B3222F4FF7222F001025A6084F84110E8
:1028100084F8400084F8420073E7628D009392B21E
:1028200022854FF00073D2B2A5E7628D009092B27C
:1028300022854FF00073D2B2CCE7022061E700BFDF
:102840000024008090F84120D2B2202A10B51DD17A
:1028500090F84030012B19D0242380F841300368D0
:102860001C6824F001041C601C6824F480541C6063
:102870001C6821431960196841F0010119600023A7
:1028800080F8412080F84030184610BD0220FCE757
:1028900010B590F84140E4B2202C1CD190F84030A3
:1028A000012B18D0242380F8413003681A6822F0E5
:1028B00001021A601A6822F4706242EA012119606A
:1028C0001A6842F001021A60002380F8414080F843
:1028D0004030184610BD0220FCE738B5044600B36E
:1028E00003684CF6CC421A6045F255521A604268B1
:1028F0005A6082689A60FEF7C7FA05462368D8686E
:1029000040B9E268196991420ABF4AF6AA221A61DF
:102910001A6038BDFEF7B8FA401B3028EED9032004
:10292000F7E70120F5E7000070B50446002846D01F
:1029300090F8363003F0FF021BB980F8352007F01D
:10294000B9FD02232068656884F83630C268616981
:102950001C4E012D4FF6FF7308BF22F01E02994254
:102960001CBF22F4604222F0C0021640A26845EA71
:102970000203226A1343626A1343A26A012D43EAE7
:10298000020308BFD4E9032543EA060304BF2A4330
:1029900013434FF6FF72914204D0A2691143E269DA
:1029A00011430B43084AC3609042E36A04BF226BA1
:1029B00013430362012384F83630002070BD0120E8
:1029C000FCE700BFFEF119FF007C0040022310B5B8
:1029D00080F836300368DC6844F40024DC609C68CE
:1029E00044F001049C601C6944F001041C6199617D
:1029F0005A611A6942F004021A61012380F83630E4
:102A0000002010BD022380F8363003681A6922F0D6
:102A100001021A61DA6822F40022DA609A6822F070
:102A200001029A60012380F8363000207047704719
:102A300070477047704770477047704703681A685F
:102A4000D10710B5044606D59A68D20703D50122EE
:102A50005A60FFF7ECFF23681A68900707D59A6859
:102A6000910704D502225A602046FFF7E1FF236850
:102A70001A68520707D59A68500704D504225A608D
:102A80002046FFF7D6FF23681A68110707D59A6812
:102A9000120704D508225A602046FFF7CBFF2368AF
:102AA0001A68D00607D59A68D10604D510225A6054
:102AB0002046FFF7C0FF23681A68920607D59A6878
:102AC000900604D520225A602046FFF7B5FF236800
:102AD0001A68510607D59A68520604D540225A60F2
:102AE0002046FFF7AAFF10BD024A136843F4807323
:102AF0001360704700700040024B186800F4C0601B
:102B0000704700BF00700040164B1A68B0F5007F98
:102B100002F4C0621AD1B2F5007F13D01A681249CC
:102B200022F4C06242F400721A60104A1268B2FBCA
:102B3000F1F132224A4312B15969490504D45B6963
:102B40005B050DD400207047013AF4E7B2F5806FC1
:102B50001FBF1A6822F4C06242F480621A60F1E773
:102B6000032070470070004040420F002400002006
:102B70000B4A136823F0070343F002031360094B69
:102B80001A69012842F004021A6105D130BF1A699E
:102B900022F004021A61704740BF20BF20BFF6E751
:102BA0000070004000ED00E037B51E4DAB6DDA005F
:102BB000044618D5FFF7A0FFB0F5007F23D1802C85
:102BC00029D9A02C8CBF02200120174A136823F0BA
:102BD000070303431360136803F00703181A18BFB1
:102BE000012003B030BDAB6D43F08053AB65AB6DDE
:102BF00003F080530193019BFFF77EFFAB6D23F041
:102C00008053AB65D8E7802C07D808D0A4F17003B7
:102C100058425841D9E70020D7E70320D5E70220E2
:102C2000D3E700BF00100240002002402F4B9A68FB
:102C300012F00C0F10B509D09A6802F00C020C2AA1
:102C40002DD1DA6802F00302012A28D11A68284936
:102C5000120755BFD3F894201A68C2F30322C2F3B7
:102C6000031251F82220996811F00C0F0CBF104686
:102C70000020996801F00C010C2930D1DC68D8687B
:102C8000C0F30210411C04F00300022819D00328ED
:102C900026D0B2FBF1F2D868C0F3062017E09A689C
:102CA00002F00C02042A07D09A6802F00C02082AEB
:102CB00004D110480022DCE70F48FBE70020024661
:102CC000D7E7DA680C48C2F30622B0FBF1F0DB6804
:102CD000C3F34163013350435B00B0FBF3F010BD1D
:102CE000DA680448C2F30622EFE700BF0010024092
:102CF0003CFA000800127A000024F4002DE9F341A8
:102D0000054608B901208DE00368D80638D5AB4CDC
:102D1000A36813F00C0F61D12368990702D5AB6942
:102D2000002BEFD02368286A1A0756BFD4F89430D6
:102D300023681B0903F0F00398423AD9FFF734FFE8
:102D40000028DFD1236843F00803236023682A6A40
:102D500023F0F003134323606368EA6923F47F439D
:102D600043EA02236360FFF761FFA368944AC3F359
:102D70000313D35CD840934B18600020FEF756F83D
:102D80002B68D80761D42B68990700F1A9802B68BC
:102D90001A0700F1E7802B685B0700F115812B68AB
:102DA0009A0600F17C81AA6A002A40F0A3810020E3
:102DB00038E0236843F008032360236823F0F0031E
:102DC000034323606368EA6923F47F4343EA0223F1
:102DD0006360FFF7E9FE0028C5D093E7AB6923B332
:102DE000236843F001032360FEF74EF8064623688C
:102DF0009B0711D5236843F00803236023682A6AE0
:102E000023F0F003134323606368EA6923F47F43EC
:102E100043EA02236360B3E7FEF736F8801B02281B
:102E2000E5D9032002B0BDE8F081236823F0010357
:102E30002360FEF729F8064623689F07A0D5FEF712
:102E400023F8801B0228F7D9EBE75C4CA36803F05A
:102E50000C03082B09D0A36803F00C030C2B0BD137
:102E6000E36803F00303032B06D123689A038AD592
:102E70006B68002B87D145E76B68B3F5803F10D1B5
:102E8000236843F480332360FDF7FEFF0646236882
:102E90009B033FF578AFFDF7F7FF801B6428F6D959
:102EA000BFE7B3F5A02F04D1236843F48023236048
:102EB000E6E7226822F480322260226822F480222F
:102EC0002260002BE0D1FDF7DFFF064623689F0359
:102ED0007FF559AFFDF7D8FF801B6428F6D9A0E72E
:102EE000364CA36803F00C03042B09D0A36803F04D
:102EF0000C030C2B13D1E36803F00303022B0ED158
:102F000023685E0503D5EB68002B3FF4FBAE6368D6
:102F10002A6923F0FE4343EA0263636037E7EB6804
:102F20007BB1236843F480732360FDF7ADFF064651
:102F300023685805EBD4FDF7A7FF801B0228F7D9BB
:102F40006FE7236823F480732360FDF79DFF064637
:102F5000236859057FF51BAFFDF796FF801B0228FC
:102F6000F6D95EE76B69154C9BB1D4F8943043F009
:102F70000103C4F89430FDF787FF0646D4F8943077
:102F80009F073FF508AFFDF77FFF801B0228F5D9AB
:102F900047E7D4F8943023F00103C4F89430FDF7E8
:102FA00073FF0646D4F8943098077FF5F4AEFDF72A
:102FB0006BFF801B0228F5D933E700BF00100240E9
:102FC00024FA000824000020794CA36DD90027D4EE
:102FD000A36D43F08053A365A36D03F08053019369
:102FE000019B0127734E3368DA051BD5AB68012BB3
:102FF00029D1D4F8903043F00103C4F89030FDF7A4
:1030000043FF41F288380646D4F89030980740D5FF
:10301000002F3FF4C4AEA36D23F08053A365BEE63A
:103020000027DFE7336843F480733360FDF72CFF3C
:1030300080463368DB05D9D4FDF726FFA0EB0800F6
:103040000228F6D9EDE6052B06D1D4F8903043F0EE
:103050000403C4F89030CCE7D4F8902022F00102A9
:10306000C4F89020D4F8902022F00402C4F89020F4
:10307000002BC4D1FDF708FF41F288380646D4F88A
:1030800090309907C4D5FDF7FFFE801B4045F6D967
:10309000C7E6FDF7F9FE801B4045B5D9C1E66B6A6E
:1030A000434C9BB1D4F8983043F00103C4F89830F6
:1030B000FDF7EAFE0646D4F898309B073FF573AE5D
:1030C000FDF7E2FE801B0228F5D9AAE6D4F8983075
:1030D00023F00103C4F89830FDF7D6FE0646D4F875
:1030E00098309F077FF55FAEFDF7CEFE801B02286C
:1030F000F5D996E62E4CA36803F00C030C2B3FF495
:1031000001AE2368022A23F08073236036D1FDF7D5
:10311000BBFE0646236898012AD4D5E90D23DB06B9
:1031200043EA0223EA6A13432A6B013A43EA021391
:10313000EA6B5208013A43EA42532A6C5208013AB8
:1031400043EA4263E360236843F080732360E368EB
:1031500043F08073E360FDF797FE0546236899010D
:103160003FF525AEFDF790FE401B0228F6D958E644
:10317000FDF78AFE801B0228CCD952E623681A018B
:103180005EBFE36823F00303E360E36823F0887322
:1031900023F48033E360FDF777FE054623689B0147
:1031A0007FF505AEFDF770FE401B0228F6D938E624
:1031B00000100240007000402DE9F0410E46044628
:1031C00010B90120BDE8F0813F4A136803F00703FE
:1031D0008B4227D32368D9072FD421688A0758D474
:1031E000394A136803F00703B3425AD811F0040FA9
:1031F000364D61D10B0706D5AB68226923F46053C5
:1032000043EAC203AB60FFF711FDAB68304AC3F37A
:103210000313D35CD8402F4B18600020FDF706FE47
:103220000020CFE7136823F007030B4313601368F4
:1032300003F007038B42C4D1CCE76268234D032A15
:103240002B681AD113F0007FBBD0AB6823F00303C7
:103250001343AB60FDF718FE41F288380746AB68B0
:10326000626803F00C03B3EB820FB6D0FDF70CFEDF
:10327000C01B4045F3D90320A4E7022A02D113F46E
:10328000003FE1E712B913F0020FDDE713F4806F9E
:10329000DAE70E4AA068936823F0F00303439360D3
:1032A0009EE7136823F0070333431360136803F0AA
:1032B0000703B34285D199E7AB68E26823F4E06382
:1032C0001343AB6096E700BF0020024000100240AD
:1032D00024FA000824000020014B1868704700BF42
:1032E00024000020044B054A9B68C3F30223D35CEF
:1032F000034A1068D84070470010024034FA0008B2
:1033000024000020044B054A9B68C3F3C223D35C0E
:10331000034A1068D84070470010024034FA000891
:1033200024000020F8B5434BDA6812F0030F05467D
:103330000E4600681C4628D0DA6802F0030282427A
:103340003AD1002A38D0DB686A68C3F3021301332C
:10335000934231D1236823F080632360FDF794FD0D
:10336000074623681A0130D4AB681802A6B3012EB1
:103370004CD12A6921695208531E21F4C00222F45B
:10338000FE42024342EA43522FE0022810D00328B3
:1033900014D0012810D11B689F071CD5E3686A6808
:1033A00023F07303013A184340EA0210E060D1E7CA
:1033B0001B6813F4806FF1D101200CE01A689103AF
:1033C000ECD41B6813F4802FF5E7FDF75DFDC01BFF
:1033D0000228C6D90320F8BD2369EA6840EAC26220
:1033E00023F0784020F4FE4002432261236843F03A
:1033F00080632360FDF748FD064623681B0112D554
:103400002369AA69134323610020E4E76B692269F9
:103410005B08591E22F0C06323F4FE43034343EAD2
:1034200041632361E2E7FDF72FFD801B0228E4D909
:10343000D0E700BF001002402DE9F743056815F4FE
:10344000006504460ED0C16CB1F5000F52D0B1F545
:10345000400F54D000295DD10430FFF763FF0546CB
:1034600000284CD023689E0364D5B74EB36DD800B6
:1034700052D4B36D43F08053B365B36D03F0805302
:103480000193019B0127DFF8C482D8F8003043F490
:103490008073C8F80030FDF7F7FC8146D8F800309B
:1034A000D9053BD5002D40D1D6F8903013F44073A8
:1034B00014D0626E9A4211D0D6F89030D6F890208F
:1034C00042F48032C6F89020D6F8902023F440735E
:1034D00022F48032C6F89020C6F89030DA0700F166
:1034E0000181D6F89030626E23F440731343C6F81E
:1034F00090301AE0944AD36843F48033D360924A00
:10350000E16CD2F8883023F440030B43C2F88830D2
:103510000025A7E70125A5E70027B4E7FDF7B4FCE0
:10352000A0EB09000228B9D903251FB1B36D23F020
:103530008053B3652368DF0708D58349206AD1F833
:10354000882022F003020243C1F888209E0708D594
:103550007D49606AD1F8882022F00C020243C1F84C
:103560008820580708D57849A06AD1F8882022F029
:1035700030020243C1F88820190708D57249E06A71
:10358000D1F8882022F0C0020243C1F888209A06B0
:1035900008D56D49206BD1F8882022F4406202439F
:1035A000C1F888209F0508D56749606CD1F888204C
:1035B00022F440220243C1F888205E0508D5624902
:1035C000A06CD1F8882022F440120243C1F8882070
:1035D000580608D55C49606BD1F8882022F4405227
:1035E0000243C1F88820190608D55749A06BD1F8C5
:1035F000882022F440420243C1F88820DA0508D529
:103600005149E06BD1F8882022F440320243C1F8DE
:103610008820DF0208D54C49206CD1F89C2022F08C
:1036200003020243C1F89C209E040FD5464A216D37
:10363000D2F8883023F040630B43B1F1006FC2F839
:10364000883060D1D36843F48013D36023681803B3
:103650000FD53D4A616DD2F8883023F040630B43AB
:10366000B1F1006FC2F8883058D1D36843F48013A9
:10367000D360236859030FD5334AA16DD2F888303F
:1036800023F040630B43B1F1006FC2F8883050D192
:10369000D36843F48013D36023685A0412D52A49AF
:1036A000E26DD1F8883023F040531343B2F1805FCC
:1036B000C1F8883006D10221201DFFF733FE002813
:1036C00018BF05462368DB0308D51F4A216ED2F8D0
:1036D000883023F000430B43C2F88830284603B0FB
:1036E000BDE8F083FDF7D0FB41F288398046D6F87B
:1036F00090309B073FF5F5AEFDF7C6FBA0EB080049
:103700004845F4D910E7B1F1806F9FD10121201D08
:10371000FFF708FE002818BF054697E7B1F1806F54
:10372000A7D10121201DFFF7FDFD002818BF054688
:103730009FE7B1F1806FAFD10121201DFFF7F2FDAE
:10374000002818BF0546A7E700100240007000409F
:103750001A4B4FF4802210B504465A6123689A68C8
:10376000D20402D5DA68D00509D49A68910402D54A
:10377000DA68920503D4012384F8213010BD9A68D9
:10378000D1040AD5DA68D20507D5DA68D2B262F474
:10379000C072DA60204607F063F8226893689804E4
:1037A000DCD5D3689905D9D5D368DBB263F420732F
:1037B000D360204607F060F8D0E700BF0004014066
:1037C000026838B5D36823F0A003D3600446FDF740
:1037D0005BFB05462368DB689B0601D5002038BDEE
:1037E000FDF752FB401BB0F57A7FF3D90320F6E7D3
:1037F00038B50368DA685206044601D5002038BDA2
:103800004FF0FF32DA60FDF73FFB05462368DB68C7
:103810005B06F3D4FDF738FB401BB0F57A7FF5D992
:103820000320ECE738B50446D8B190F8213003F016
:10383000FF021BB980F8202006F0DCFE022384F88A
:1038400021302368CA225A6253225A622046FFF767
:10385000CFFF2368054630B1FF225A62042384F863
:103860002130012531E09A68206922F4E00222F03B
:1038700040029A60626899680243A06902430A4361
:103880009A60E2681A611A69A16842EA01421A6103
:10389000DA6822F08002DA609B689B0605D4204635
:1038A000FFF78EFF08B12368D6E723686069DA6CFA
:1038B00022F00302DA64E269D96C02430A43DA6453
:1038C000FF225A62012384F82130284638BD0023A4
:1038D000092803D840EA0310C0B270470A38013300
:1038E000C0B2F5E790F82030012B2DE9F0410646F3
:1038F0000F464FF0020532D00123016880F82030D6
:1039000080F8215038787D78BC788B6852BB13F0F2
:10391000400308BFFB70FFF7DAFF80462846FFF739
:10392000D6FF02462046FFF7D2FFFB7840EA03406D
:1039300040EA084040EA0224CA234B6253234B6208
:103940003046FFF755FF33680546C0B1FF225A6283
:10395000042386F82130002386F8203001252846EC
:10396000BDE8F08113F040034FEA052508BFFB7066
:1039700045EA00402043FC7840EA0444DCE704F0D8
:103980007F3424F0FE441C609A6822F480229A60FE
:10399000D7E90320996802430A439A60DA6822F063
:1039A0008002DA609B689B060CD43046FFF708FF64
:1039B00040B13368FF225A62042386F8213086F82A
:1039C0002050CBE73368FF225A62012386F821306A
:1039D000002386F82030C2E7F8B590F82030012B9C
:1039E00006464FF0020534D0012380F8203080F8DD
:1039F00021500D784C788F78C8786D03002A4DD10E
:103A0000E20603D524F010040A344C70FFF75FFF80
:103A100002464878FFF75BFF04463846FFF757FF3A
:103A2000284340EA02403368CA225A6253225A624B
:103A300040EA04243046FFF7DBFE3368054650B108
:103A4000FF225A62042386F82130002386F82030B2
:103A500001252846F8BD24F07F4424F0C0045C60B2
:103A6000DA6822F08002DA609B689B060CD430464C
:103A7000FFF7A6FE40B13368FF225A62042386F89E
:103A8000213086F82050E3E73368FF225A62012391
:103A900086F82130002386F82030DAE745EA004036
:103AA0003843C0E790F82030012B2DE9F047064657
:103AB0004FF0020000F088800123376886F820303C
:103AC00086F82100087891F801A08C7891F8208080
:103AD000CD69BB68002A57D113F0400308BFCB70F3
:103AE000FFF7F5FE81465046FFF7F1FE02462046FD
:103AF000FFF7EDFE82464046FFF7E9FE4B69CC78C2
:103B00001D4345EA044444EA0A0444EA094444EAF9
:103B1000022444EA00648B694D681D43CA237B621A
:103B200053237B624B6AB3F5807FBB684ED123F48D
:103B30008073BB60FB68DBB263F4C073FB60FDF7AE
:103B4000A3F980463368DF6817F001072DD0DC61E8
:103B50005D649A6842F480729A609A6842F4805276
:103B60009A602B4B1A6842F480221A609A6842F4D9
:103B700080229A603368FF225A620020012386F86F
:103B8000213086F820001FE013F0400308BFCB70FF
:103B90004B691D432C4344EA0044C87844EA0A2494
:103BA00044EA004444EA0864B5E7FDF76DF9A0EB88
:103BB0000800B0F57A7FC5D93368FF2203205A6226
:103BC00086F8210086F82070BDE8F08723F40073A2
:103BD000BB60FB68DBB263F42073FB60FDF754F954
:103BE00080463368DF6817F0020709D01C629D64C5
:103BF0009A6842F400729A609A6842F40052AFE701
:103C0000FDF742F9A0EB0800B0F57A7FE9D9D3E7D8
:103C100000040140030903EB830300F00F0000EBF5
:103C20004300C0B270470368986A486018691B680F
:103C300003F07F3323F0FE4370B5C0F30E001D0C7C
:103C40008860C3F3062605F03F00DCB205F04005AE
:103C500008704E708C70CD7052B9FFF7DBFF0870A2
:103C60003046FFF7D7FF48702046FFF7D3FF887034
:103C7000002070BD38B503685B6823F07F4323F0F4
:103C8000C003180CC3F30425DCB2C3F34233C8707D
:103C90004D708C700B7052B9FFF7BCFFC87028468E
:103CA000FFF7B8FF48702046FFF7B4FF8870002088
:103CB00038BD90F82030012B70B504464FF002005B
:103CC00030D0012384F82030236884F82100CA22F0
:103CD0005A6253225A629A6822F480629A609A6801
:103CE00022F480429A60FDF7CFF806462268D56834
:103CF00015F0040508D0FF2353620020012384F847
:103D0000213084F820000DE0FDF7BEF8801BB0F5EF
:103D10007A7FEBD92368FF2203205A6284F82100BE
:103D200084F8205070BD00002DE9F04F87B00446A4
:103D30000D4690469946109FFDF7A6F806462DB908
:103D4000A36B43F00063A363012010E094F83400F8
:103D5000C0B2012840F0E880E26D08EB09030021C1
:103D60009342A16306D9A36B43F00073A36307B02A
:103D7000BDE8F08F032384F834302068636CC1629F
:103D8000012B4FF4007118BF4FEA482801F099F950
:103D900048B12368664A9A63A36B1843A063012065
:103DA00084F83400E3E74FF0FF3300934FEA4923F0
:103DB0000193049090234FF0010A4FF0020B6946E3
:103DC0002068CDF814A0CDE9023B01F068F9D14597
:103DD00013D9C4F830B04146206801F0A2F9002898
:103DE0003ED02368524A9A63A36B1843A063012014
:103DF000002384F834002363B9E7C4F830A04146B7
:103E0000206801F076F9EAE71A0416D505F10408EE
:103E100005F1240A206801F01DF9030A08F8040CD2
:103E200008F8033C030C000E08F8023C08F8010CEB
:103E300008F10408D045EDD12035FDF725F8801BA9
:103E4000B8420DD323683A4A9A63A36B43F0004308
:103E5000A363012384F8343000232363032086E71F
:103E60002068436B13F4957F436BCDD0DB0509D5F8
:103E7000B9F1010F06D9636C032B03D001F09AF955
:103E80000028AED12368596B11F0080106D0284AEA
:103E90009A63A36B43F00803A363A8E75A6B12F07D
:103EA00002020AD0224A9A63A36B012043F0020364
:103EB000A36384F83400216359E7596B890625D53B
:103EC0001B499963A36B012043F02003A36384F88B
:103ED000340022634BE701F0BDF8030A05F8040C37
:103EE00005F8033C030C000E05F8023C05F8010C34
:103EF000FCF7CAFF801BB84205F1040507D323680D
:103F00000B4A9A63A36B43F00043C5E7043520686E
:103F1000436B13F40013DED140F23A528263012264
:103F200084F83420184622E7A36B43F000530AE7D5
:103F3000FF0540002DE9F04389B004460E461746C0
:103F40009846109DFCF7A0FF81462EB9A36B43F065
:103F50000063A363012010E094F83400C0B201288C
:103F600040F0B680E26D07EB080300219342A163A5
:103F700006D9A36B43F00073A36309B0BDE8F083D7
:103F8000032384F834302068636CC162012B4FF442
:103F9000007118BF7F0201F094F848B123684E4ABF
:103FA0009A63A36B1843A063012084F83400E4E70C
:103FB0004FF0FF3302934FEA482303939023CDE958
:103FC00004300690012302A92068079301F067F8E6
:103FD000B8F1010F13D9202323633946206801F07B
:103FE000D0F8002831D023683B4A9A63A36B18436A
:103FF000A0630120002384F834002363BDE710236D
:1040000023633946206801F0A4F8EAE75A040AD588
:1040100006F1200756F8043B2068019301A901F03E
:104020001CF8B742F6D1FCF72FFFA0EB0900A8421D
:104030000BD32368284A9A63A36BA363012384F8F4
:10404000343000232363032097E72068436B13F485
:104050008D7F436BDAD0DB0509D5B8F1010F06D9A6
:10406000636C032B03D001F0A5F80028BBD12368B3
:10407000596B11F0080106D0174A9A63A36B43F0FD
:104080000803A363B5E75A6B12F002020AD0124A82
:104090009A63A36B012043F00203A36384F8340006
:1040A00021636AE7586B10F010000AD00A4999633F
:1040B000A36B012043F01003A36384F83400226350
:1040C0005BE740F23A529A63012384F8343054E7B4
:1040D000A36B43F000533CE7FF054000436E9A0F8B
:1040E0000A70C3F383624A70C3F301628A70C3F338
:1040F0000742CA70C3F30722DBB20A714B71836EA9
:104100001A0DCA80C3F303420A72C3F3C0324A7263
:10411000C3F380328A72C3F34032CA72C3F30032EF
:104120000A7300224A73426C10B5002A6BD1C26E2A
:1041300040F6FC7404EA830343EA92730B61C2F312
:10414000C2630B75C2F302634B75C2F342538B75A6
:10415000C2F38243C2F3C232CB750A760B690A7E80
:1041600002F0070202320133934043650A7A02F0FB
:104170000F040122A2408265520A5343C3654FF4E3
:1041800000730366C36EC3F380324A76C3F3C6126C
:1041900003F07F038A76CB76036FDA0F0A77C3F3D7
:1041A00041724A77C3F382628A77C3F38352CA7734
:1041B000C3F3405281F820200020C3F3004281F86D
:1041C000210081F82220C3F3C03281F82320C3F3F9
:1041D000803281F82420C3F3403281F82520C3F3D4
:1041E000003281F82620C3F3812281F82720C3F30F
:1041F0000122C3F3460381F8282081F829300123E6
:1042000081F82A3010BD012A0FD1B0F86E201B04AE
:1042100003F47C1313430B610B6901339B02436569
:10422000C3654FF400738365ABE70368054A9A637F
:10423000836B43F080538363012380F83430184646
:10424000E0E700BFFF05400070B5002398B0CDE95E
:104250000933CDE907330B9376230C930AAB04465D
:1042600093E807008DE8070007AB0ECB206800F04D
:10427000D5FE18B10125284618B070BD20684368E6
:1042800023F48073436000F0EDFE05460028F1D171
:104290002268536843F4807353600220FCF7FAFDF0
:1042A0002068069500F0B8FF064670B9206800F057
:1042B000DBFF002873D0A6644FF6FF75069B5A1CDF
:1042C000AB42069208D14FF08076012584F8345035
:1042D000A16B0E43A663CEE70021206801F000F831
:1042E000014610B14FF08056EFE7206801F010F85A
:1042F00001460028F6D1206800F0CEFE0028DDDA65
:104300000023636420680123ADF8163000F0AEFE90
:10431000002800F09580636C032B19D0206801F011
:1043200010F8002864D10146206800F0B5FE042191
:104330006067206800F0B0FE0821A067206800F0E8
:10434000ABFE0C21E067206800F0A6FEC4F88000F8
:10435000636C032B45D1636C032B50D1042120687F
:1043600000F09AFE000DE0640DA92046FFF7B6FEAE
:104370000546002861D1226D03461204206800F032
:1043800033FF002834D104F1100393E807008DE8CF
:104390000700231D0ECB206800F040FE6BE70123D1
:1043A000A3644FF6FF75069B5A1CAB4206928AD057
:1043B0000021206800F094FF0646002885D14FF0C8
:1043C0008041206800F0A4FF064600287FF47DAFFE
:1043D0000146206800F060FEC30FE4D042008FD594
:1043E0008FE70DF11601206800F0D6FF0028B2D04B
:1043F000012584F83450A16B0843A0633BE7BDF866
:10440000161021652068090400F0B0FF0028EFD1E4
:104410000146206800F040FE04216066206800F03C
:104420003BFE0821A066206800F036FE0C21E06605
:10443000206800F031FE206790E74FF08050D7E70A
:104440004FF08060D4E710B5044608B9012010BDD4
:1044500090F8343003F0FF0213B9027703F05EFDE9
:10446000032384F834302046FFF7EEFE0028EDD118
:104470000123A063206384F83430E8E7436C0B60C9
:10448000836C4B60C36C8B60036DCB60436D0B61C1
:10449000836D4B61C36D8B61036ECB6100207047F0
:1044A000016D10B509040446006800F0C3FF014621
:1044B00028B9206800F0F0FDC0F3432010BDA36BC5
:1044C0001943A1630020F7E738B50546B0B12423AE
:1044D00080F8713003681A68002422F001021A6023
:1044E0001C605C609C6006F079FA6C6785F870402F
:1044F00085F87140204685F8724038BD0120FCE700
:104500000268C169F8B50446836800691568034309
:1045100060690343AF480B4328400343136053686B
:10452000E06823F4405303435360AB4BA0699A42C5
:104530001CBF236A1843936823F4306303439360DA
:10454000A64B9A4219D103F55843A54AD3F88830AF
:1045500003F00303B1F5004FD35C40F02281082B38
:1045600000F2B080DFE813F00401AB00F200AE000F
:10457000FE00AE00AE00AE00DD009A4B9A4207D1BD
:1045800003F5E633984AD3F8883003F00C03E1E7EB
:10459000964B9A4223D103F5E433D3F8883003F0E5
:1045A0003003102B00F0C8800AD87BB98A4B9A429E
:1045B00040F0DB80FEF796FE0023D0BB02463EE0D3
:1045C000202B00F0B380302B00F0A580824B9A4264
:1045D00034D0B1F5004F75D0012200237EE0844B2A
:1045E0009A420ED103F5E233D3F8883003F0C003CA
:1045F000402B00F0A180D8D9802B00F09780C02BF1
:10460000E2E7754B9A42E4D103F5C833D3F888301A
:1046100003F44063B3F5806F00F08E80C5D9B3F525
:10462000006F00F08380B3F5406FCDE708234FF4AF
:104630000040626802EB4201814205D90122002359
:10464000C4E918331046F8BDB0EB023FF6D8082B8A
:1046500032D8DFE803F0053112312531313128003D
:10466000FEF740FE62684FF4807156080027E1FBB8
:10467000006700233046394607E05E4E55080027A4
:1046800070194FF0000347F10001FCF74FFA0022C8
:10469000594BA0F540719942D0D82368D860CEE735
:1046A000FEF7C4FADEE75008002610F500004FF0D0
:1046B000000346F10001E8E701220020E8E7FEF7E9
:1046C00021FE57E0012200235CE0FEF70BFE62684A
:1046D00000EB5203B3FBF2F39BB20022A3F11000F4
:1046E0004FF6EF718842A9D82168CB60A7E7FEF7A3
:1046F00009FEECE76068430803F5740303F5105303
:10470000B3FBF0F3E8E7FEF791FAE0E760684308EF
:1047100003F50043F4E7304B9A4287D0B1F5004FE0
:10472000F4D16068430803F5803315E02A4B9A42C0
:1047300009D1022331487CE7274B9A420FD1FEF77B
:1047400075FA042339E7B1F5004FD3D16068430807
:1047500003F1F47303F59043B3FBF0F310E0B1F50C
:10476000004FD0D1FEF762FA04E0B1F5004FACD1B2
:10477000FEF7B8FD61684A0802EB4003B3FBF1F3B2
:104780009BB20022A3F110004FF6EF7188423FF672
:1047900055AF23F00F012068C3F342030B43C360FE
:1047A0004DE7082B3FF64AAF01A252F823F000BFB5
:1047B000CB460008EF460008F54600083D460008D5
:1047C000074700083D4600083D4600083D460008F2
:1047D0000D470008F369FFEF0080004000380140FA
:1047E000E8F4000800440040ECF4000800480040F1
:1047F000004C0040000024F4FFFC0F000024F400F3
:10480000436ADA0710B506D50168846A4A6822F45B
:10481000003222434A609C0706D50168C46A4A6890
:1048200022F4803222434A60590706D50168046B9E
:104830004A6822F4802222434A601A0706D501689A
:10484000446B4A6822F4004222434A60DC0606D5E3
:104850000168846B8A6822F4805222438A60990638
:1048600006D50168C46B8A6822F4005222438A602C
:104870005A060FD50168046C4A6822F4801222435C
:10488000B4F5801F4A6005D14A68446C22F4C00226
:1048900022434A601B0606D50268816C536823F4E4
:1048A00000230B43536010BD2DE9F041069D0446E3
:1048B0000F46164698462168CA6937EA02030CBFBC
:1048C00001220022B24201D0002014E06B1CF3D080
:1048D0009DB923681A6822F4D0721A609A6822F08F
:1048E00001029A60202384F8713084F8723000232A
:1048F00084F870300320BDE8F081FCF7C5FAA0EB26
:104900000800A842D7D9E4E72DE9F3411F4690F803
:104910007130202B04460D4690464AD1002946D0DE
:10492000002A44D090F87030012B42D0012380F847
:10493000703000234367212380F87130FCF7A4FA1C
:10494000A4F850800646A4F85280B4F8522000978C
:1049500092B2334652B940212046FFF7A5FF58B91D
:10496000202384F8713084F8700006E00022802152
:104970002046FFF799FF18B1032002B0BDE8F0818F
:10498000A3682268B3F5805F0DD123695BB935F860
:10499000023BC3F308031385B4F85230013B9BB2CA
:1049A000A4F85230D1E72B7813850135F4E70120C4
:1049B000E3E70220E1E773B5044600264667FCF70B
:1049C00063FA23681B681A07054617D423681B6817
:1049D0005B070AD56FF07E43009300222B464FF40D
:1049E00080012046FFF760FFA0B92023002084F853
:1049F000713084F8700084F872300CE06FF07E4300
:104A00000093324603464FF400112046FFF74CFF57
:104A10000028DBD0032002B070BD10B5044660B39F
:104A200090F8713003F0FF021BB980F8702005F098
:104A3000B1FF2268242384F87130136823F0010346
:104A400013602046FFF75CFD012816D0636A13B19E
:104A50002046FFF7D5FE23685A6822F490425A6038
:104A60009A6822F02A029A601A6842F001022046EF
:104A70001A60BDE81040FFF79EBF012010BD2DE970
:104A8000F04F0A6892FAA2F44D68B4FA84F405F182
:104A9000FF3C4FF0010803264FF00F0E32FA04F3EB
:104AA0000CD1BCF1010F06D84368C96823EA0203A0
:104AB0004A431A4342600120BDE8F08F08FA04F32C
:104AC000134066D0D0F800A093FAA3F9B9FA89F997
:104AD00093FAA3F7B7FA87F74FEA490906FA09F9F3
:104AE0007F002AEA090905FA07F749EA0707BCF136
:104AF000010F076016D8876893FAA3F9B9FA89F904
:104B000093FAA3FA4FEA490906FA09F927EA0909CB
:104B1000BAFA8AFA8F684FEA4A0A07FA0AF749EAA4
:104B200007078760C76893FAA3F9B9FA89F993FA76
:104B3000A3FA4FEA490906FA09F927EA0909BAFA74
:104B40008AFA0F694FEA4A0A07FA0AF749EA070799
:104B5000022DC7601DD193FAA3F7B7FA87F7072F85
:104B6000D1F8149017DCD0F820A093FAA3FBBBFA7D
:104B70008BFB93FAA3F7B7FA87F74FEA8B030EFA8A
:104B800003F3BF002AEA030309FA07F943EA09031A
:104B90000362013482E7476A1B0A93FAA3FABAFA5E
:104BA0008AFA93FAA3F3B3FA83F34FEA8A0A0EFA66
:104BB0000AFA9B0027EA0A0709FA03F947EA0907F4
:104BC0004762E6E7024B1868C0F38020704700BFD9
:104BD00000100240024BD3F89000C0F34000704731
:104BE00000100240024B1868C0F3C000704700BFBD
:104BF00000100240034B044A9B68C3F30313D35CC9
:104C0000D84070470010024024FA0008034B044AC1
:104C10009B68C3F30223D35CD84070470010024066
:104C200034FA0008034B044A9B68C3F3C223D35CE5
:104C3000D84070470010024034FA00081E4AD3687A
:104C400003F00303022B10B534D0032B0BD01B4908
:104C5000FFF7C8FF0446F0B9FFF7C4FFB0B113680F
:104C600051F8240000E01648D468D168D368C4F332
:104C70000212C3F3416301320133B0FBF2F0C1F31E
:104C8000062250435B00B0FBF3F010BDD2F8944015
:104C9000C4F30324E4E7FFF7A5FF28B11368C3F3C7
:104CA000031351F82300DFE7D2F894301B0903F017
:104CB000F003F6E70348D7E7001002403CFA00088B
:104CC00000127A000024F4001B4A936803F00C03DE
:104CD00010B50C2B0ED8DFE803F00D0D0D0D2D0DCA
:104CE0000D0D070D0D0D0900144810BDBDE8104055
:104CF000FFF7A4BFFFF776FF114C014658B9FFF745
:104D000071FF18B1136854F82100EEE7D2F894103F
:104D1000C1F30321F7E7FFF765FF28B11368C3F379
:104D2000031354F82300E0E7D2F894301B0903F092
:104D3000F003F6E70348D8E70010024000127A00BB
:104D40003CFA00080024F400032808B528D12B4BB6
:104D50002B4AD3F8883003F0030343F440339342E3
:104D600009D0B3F1031F0CD0013A934210D1BDE832
:104D70000840FFF7A9BFFFF725FF00283BD100201F
:104D800008BDFFF727FF0028F9D04FF40040F7E7F0
:104D9000FFF79AFFFFF72EFFBDE80840FFF742BF7D
:104DA0000C2817D1154B174AD3F8883003F00C03A1
:104DB00043F440239342DED0B3F10C1FE1D0043A18
:104DC0009342D4D0FFF780FFFFF714FFBDE80840FF
:104DD000FFF71CBF3028D2D1084B0B4AD3F88830DC
:104DE00003F0300343F440139342C4D0B3F1301FB7
:104DF000C7D0103AE4E70548C2E700BF0010024000
:104E00000200030008000C00200030000024F40021
:104E1000C02808B501D0002008BD144B144AD3F8AF
:104E2000883003F0C00343F44003934209D0B3F148
:104E3000C01F0CD0403A934210D1BDE80840FFF7A4
:104E400043BFFFF7BFFE0028E5D00A48E4E7FFF7BD
:104E5000C1FE0028DFD04FF40040DDE7FFF734FF4C
:104E6000FFF7C8FEBDE80840FFF7D0BE00100240C3
:104E70008000C0000024F400114B4FF4FA521B686C
:104E8000B3FBF2F241F28833534313F1FF3313D3F0
:104E9000426B12F0450FF8D0436B5B0703D5042338
:104EA000836318467047436B13F0010301D001235D
:104EB000F6E7C5228263F4E74FF00043F1E700BF55
:104EC000240000200E4B4FF4FA521B68B3FBF2F2A1
:104ED00041F28833534313F1FF330DD3426B12F089
:104EE000450FF8D0436B13F0040315BF0423C5220C
:104EF00083638263184670474FF00040704700BFDD
:104F000024000020434B10B51B684FF4FA54B3FB48
:104F1000F4F35A43002A48D0436B13F0450F02F1D3
:104F2000FF32F7D0436B5B0703D504238363184636
:104F300010BD436BDC0703D5012383630120F7E732
:104F40000369DBB29942F9D1C523836343693248CF
:104F500018400028ECD0002B2ADB5A002BD49C00F0
:104F60002BD4D9002BD41A012CD45C012DD4D90117
:104F70002ED41A022FD45C0230D4990231D4DA0232
:104F800032D45C0333D4990334D4DA0335D41C040B
:104F900036D4590437D49A0438D413F0080F14BF08
:104FA0004FF400004FF48030C2E74FF00040BFE7FD
:104FB0004FF00070BCE74020BAE78020B8E74FF41C
:104FC0008070B5E74FF40070B2E74FF48060AFE750
:104FD0004FF40060ACE74FF48050A9E74FF4005065
:104FE000A6E74FF48040A3E74FF40040A0E74FF45A
:104FF00000309DE74FF480209AE74FF4002097E7B8
:105000004FF4801094E74FF4001091E74FF48000C4
:105010008EE700BF2400002008E0FFFD84B010B53B
:1050200003AC84E80E000B46049942680B430599D3
:105030000B4306990B4307990B430899BDE81040B1
:1050400022F4FD420B4322F07F021343436004B07D
:1050500000207047D0F8800070470B68C0F880309F
:10506000002070470323036000207047006800F0B1
:10507000030070470B688360C3684A6823F47F634A
:1050800023F00F0313438A681343CA6813430A6962
:105090001343C360002070471430405870470B68BA
:1050A00043624B688362C36A8A6823F0F703134341
:1050B000CA6813430A6913434A691343C362002051
:1050C000704730B587B01024402305460191CDE9E3
:1050D000024300224FF4806301A9CDE90423FFF7C6
:1050E000C9FF41F2883221462846FFF70BFF07B07F
:1050F00030BD30B587B01124402305460191CDE97C
:10510000024300224FF4806301A9CDE90423FFF795
:10511000B1FF41F2883221462846FFF7F3FE07B07F
:1051200030BD30B587B01224402305460191CDE94A
:10513000024300224FF4806301A9CDE90423FFF765
:1051400099FF41F2883221462846FFF7DBFE07B07F
:1051500030BD30B587B01824402305460191CDE914
:10516000024300224FF4806301A9CDE90423FFF735
:1051700081FF41F2883221462846FFF7C3FE07B07F
:1051800030BD30B587B01924402305460191CDE9E3
:10519000024300224FF4806301A9CDE90423FFF705
:1051A00069FF41F2883221462846FFF7ABFE07B07F
:1051B00030BD000030B5002387B00C244022CDE97B
:1051C00003230546CDE9013401A94FF4806305931B
:1051D000FFF750FF034A21462846FFF793FE07B02A
:1051E00030BD00BF00E1F50530B587B0072440238E
:1051F00005460192CDE9024300224FF4806301A9E4
:10520000CDE90423FFF736FF41F2883221462846D4
:10521000FFF778FE07B030BD10B5002386B0CDE9AA
:105220000133CDE9033301A94FF4806305930446AC
:10523000FFF720FF0B4B4FF4FA521B68B3FBF2F25F
:1052400041F28833534313F1FF3307D3626B1206E5
:10525000F9D5C523A363002006B010BD4FF0004070
:10526000FAE700BF2400002010B54FF4D57286B0D5
:105270000823CDE9012340210023CDE903134FF496
:10528000806301A905930446FFF7F4FE134B4FF426
:10529000FA521B68B3FBF2F241F28833534313F125
:1052A000FF3318D3626B12F0450FF8D0636B5B07C6
:1052B00003D50420A06306B010BD626B12F001029A
:1052C00001D00120F6E7606B10F04000F3D04023DE
:1052D000A3631046EFE74FF00040ECE72400002006
:1052E00030B587B03724402305460191CDE902430C
:1052F00000224FF4806301A9CDE90423FFF7BAFE31
:1053000041F2883221462846FFF7FCFD07B030BD48
:1053100010B541F0004186B0292241F480114023AC
:10532000CDE9022301914FF480630021CDE90413FC
:10533000044601A9FFF79EFE2046FFF7C3FD06B015
:1053400010BD10B5002386B00222CDE90132C02283
:10535000CDE9032304464FF4806301A90593FFF7C9
:1053600089FE2046FFF788FD06B010BD10B586B057
:105370000922C023CDE9022301914FF4806300216B
:10538000CDE90413044601A9FFF774FE2046FFF798
:1053900073FD06B010BD000030B5002387B00322B6
:1053A000CDE901324022CDE903230D464FF480635D
:1053B00001A905930446FFF75DFE1D4B4FF4FA5219
:1053C0001B68B3FBF2F241F28833534313F1FF330E
:1053D00026D3626B12F0450FF8D0636B580703D5E4
:1053E0000420A06307B030BD636BD90701D501204D
:1053F000F7E72369DBB2032B15D1C523A3636369E8
:1054000013F4604002D11B0C2B80EBE75A040CD440
:1054100013F4004F14BF4FF480504FF48030E1E795
:105420004FF00040DEE70120DCE74FF40050D9E701
:105430002400002030B587B00D244023054601919B
:10544000CDE9024300224FF4806301A9CDE9042392
:10545000FFF710FE41F2883221462846FFF752FD41
:1054600007B030BD38B50368DB0704460D4601D5EB
:10547000002038BDEA686B68016813432A6913434A
:10548000AA691343214A0A40134303604368AA6888
:1054900023F440531343436083686A6923F44073E1
:1054A000134383601A4B98421AD10320FFF74CFC38
:1054B0000028DDD02A68002ADAD0A969B1F5004FAA
:1054C0004FEA52031DD103EB40004FF6F073B0FBDF
:1054D000F2F00340C0F342001843E0600120C8E747
:1054E0000C4B984201D10C20E0E70B4B984201D1C4
:1054F0003020DBE7094B9842BAD1C020FFF788FC87
:10550000D6E71844B0FBF2F080B2E6E7F369FFEFAC
:10551000003801400044004000480040004C00407A
:10552000034B1A1803EB8003107A5B685B6818471B
:10553000A4020020064B1A5C42B901221A541A1820
:1055400003EB8003107A5B681B68184700207047E4
:10555000A402002030B4054C251804EB80046068D8
:105560008468287AA44630BC604700BFA4020020AB
:1055700030B4054C251804EB80046068C468287AB0
:10558000A44630BC604700BFA4020020054B10B405
:105590001C1803EB8003207A5B685DF8044B1B69E1
:1055A000184700BFA402002042884378007843EAED
:1055B000022340EA032070470B0A017043700B0C72
:1055C000090E8370C1707047024400F8011B9042BD
:1055D000FBD17047154BF0B500252A461C461E68C6
:1055E000A6B10768BE4212D15F688668B7420ED185
:1055F0009F684669B7420AD1B1B904EB0212938998
:10560000B3F5807F14BF00201020F0BD01250132CA
:10561000022A03F11003E2D10DB10020F0BD0229EE
:105620000CBF00201220F0BD1020F0BD8002002031
:105630001C4AF0B50568002316461468AC4207D131
:1056400057688468A74203D197684469A7421DD070
:105650000133022B02F11002EFD1336813B1336929
:10566000EBB901231C0132193551846840699060FF
:1056700000205460908179B906EB031292890132BF
:1056800092B206EB0316581CB281F0BD0029F3D08C
:1056900006EB0312928912B94FF48072F1E70020F1
:1056A000F0BD00BF80020020013801280ED8094A51
:1056B0000301D118898921F4807080B208B1481E95
:1056C00080B2D118888118B9D05070470220704735
:1056D000002070478002002043690239023B994252
:1056E0003DBF4389806A01FB030000207047C36A05
:1056F00002680433490A5289B1FBF2F1186830B1EB
:10570000814202D3091A0833F8E758680844704701
:1057100003685A1C02601A7890B2A0F16103192B39
:1057200002D8203880B270477F2882BF024B9B1876
:1057300013F8800C704700BFF9F40008F0B585B08D
:1057400004AC054644F80C1D1E46114621B92B78C1
:105750005BB956B1012006E02046FFF7D9FF0139B9
:105760000028F3D1002005B0F0BD04AC019B44F843
:10577000043D0295029B1B783F2B01D02A2B1DD1A3
:1057800000231A460299481C02900C7849783F2C55
:105790000CBF013201233F29F4D02A29F2D003990A
:1057A000FFF7CCFF0028D5D1039B197801A8FFF79C
:1057B000AFFF002ED6D00029D7D1D3E702A8FFF73C
:1057C000A7FF07462046FFF7A3FF87420146EDD11A
:1057D000002FCFD1BEE7026810B552B111460B467B
:1057E00011F8014B202C0CD93A2CF8D1511C8B42CA
:1057F00002D04FF0FF3010BD1278302AF9D10133BA
:105800000360002010BD38B50D46044618B90023CA
:105810002B60092038BD0368002BF8D01A78002AC5
:10582000F5D0D98882889142F1D15878FFF778FE77
:1058300010F00100EBD123682B6038BD01380A4419
:1058400011F8013B00F8013F9142F9D17047CA7E3F
:105850008B7E032843EA022301BF487D0A7D42EA8A
:10586000002243EA024318467047C2F307238A76B0
:10587000CB760378032B01BF120C0A75120A4A7506
:105880007047F8B5046A0023651E18462E2615F8E1
:10589000012F202A00F101000AD0052A08BFE522C5
:1058A000092802BFCF1801337E72CF1801337A72F4
:1058B0000B28ECD10B4400225A72E37A0B7204F1EC
:1058C0001C00FFF771FE086004F11600FFF76CFE84
:1058D000C880000C8880F8BDF8B5C56A00F13007B3
:1058E000044601232A4639464078FFF741FEA0B915
:1058F000236AA269E070EB1A934201D30020F8BD3D
:10590000A678012EFAD9A36960781D442A4601239E
:105910003946FFF72DFE013EF3E70120F8BDC378BD
:105920000BB1FFF7D9BF18467047F8B50446FFF72B
:10593000F6FF0546002842D12378032B37D127797B
:10594000012F34D104F1300601464FF40072304685
:10595000FFF73AFE552384F82E32AA2384F82F321B
:1059600052234122722184F8303084F8313061238F
:1059700084F8323084F8332084F8162284F8173201
:1059800084F8141284F8151204F506702169FFF7E3
:1059900013FEE16804F50770FFF70EFEE269607818
:1059A0000132E2623B463146FFF7E2FD25710022FB
:1059B00011466078FFF7EAFD003018BF0120F8BDFE
:1059C000C36A8B4270B506460D4612D0FFF7A7FF9B
:1059D000044660B92A46012306F130017078FFF7CA
:1059E000B9FD00281CBF4FF0FF350124F5622046A9
:1059F00070BD0024FBE70000002310B5C3704FF01A
:105A0000FF33C3620446FFF7DBFF30BB94F82F225D
:105A100094F82E3243EA02234AF6552293421ED1CD
:105A200094F83030E92B05D0236B104A03F0FF13B4
:105A3000934216D104F16600FFF7B6FD0C4B20F03F
:105A40007F4098420FD004F18200FFF7ADFD094B73
:105A5000984214BF0220002010BD042010BD032076
:105A600010BD022010BD002010BD00BFEB00900053
:105A700046415400464154332DE9F043002385B09C
:105A80000B600F461546FFF7A6FE061EC0F24081CA
:105A9000A34B53F82640002C00F03C813C60237857
:105AA00005F0FE0573B16078FFF73AFDC10709D430
:105AB000002D00F0318110F0040000D00A2005B064
:105AC000BDE8F0830023F0B223706070FFF732FD71
:105AD000C20700F123810DB14307EFD40021204616
