:020000040800F2
:100000000080022081CB0008D1CB0008D1CB0008B2
:10001000D1CB0008D1CB0008D1CB000800000000F4
:10002000000000000000000000000000D1CB00082C
:10003000D1CB000800000000D1CB000895A4000837
:10004000D1CB0008D1CB0008D1CB0008D1CB000820
:10005000D1CB0008D1CB0008D1CB0008D1CB000810
:10006000D1CB0008D1CB0008D1CB0008D1CB000800
:10007000D1CB0008D1CB0008D1CB0008D1CB0008F0
:10008000D1CB0008D1CB0008D1CB0008D1CB0008E0
:10009000D1CB0008D1CB0008D1CB0008D1CB0008D0
:1000A000D1CB0008D1CB0008D1CB0008D1CB0008C0
:1000B000D1CB0008D1CB000800000000D1CB000854
:1000C000D1CB0008D1CB0008D1CB0008D1CB0008A0
:1000D000D1CB0008D1CB0008A3A40008D1CB0008E5
:1000E000D1CB0008A9A40008000000000000000017
:1000F0000000000000000000000000000000000000
:1001000000000000D1CB000800000000D1CB0008A7
:10011000D1CB000800000000D1CB00080000000097
:10012000D1CB0008D1CB0008D1CB0008D1CB00083F
:10013000D1CB0008D1CB0008D1CB000800000000D3
:10014000D1CB0008B5A40008D1CB0008D1CB000862
:10015000D1CB0008D1CB0008D1CB0008D1CB00080F
:10016000D1CB0008D1CB0008D1CB000800000000A3
:1001700000000000D1CB00080000000000000000DB
:10018000D1CB0008D1CB0008D1CB0008D1CB0008DF
:04019000D1CB0008C7
:1001A00010B5054C237833B9044B13B10448AFF3B1
:1001B00000800123237010BD4802002000000000D1
:1001C00024F5000808B5034B1BB103490348AFF3FE
:1001D000008008BD000000004C02002024F500084B
:1001E00010F8012B11F8013B012A28BF9A42F7D0E1
:1001F000D01A7047034613F8012B002AFBD1181AB6
:1002000001387047000000000000000000000000FE
:1002100001F0FF01102A2BDB10F0070F08D010F8B7
:10022000013B013A8B422DD010F0070F42B3F6D1BB
:10023000F0B441EA012141EA014122F007047FF0D4
:1002400000070023F0E80256083C85EA010586EA2B
:10025000010685FA47F5A3FA87F586FA47F6A5FA67
:1002600087F68EB9EED1F0BC01F0FF0102F0070273
:1002700032B110F8013B013A83EA010313B1F8D11E
:100280000020704701387047002D06BF35460338FF
:10029000073815F0010F07D1013015F4807F02BF38
:1002A000013015F4C03F0130F0BC0138704700BF89
:1002B00081F0004102E000BF83F0004330B54FEA17
:1002C00041044FEA430594EA050F08BF90EA020F84
:1002D0001FBF54EA000C55EA020C7FEA645C7FEA17
:1002E000655C00F0E2804FEA5454D4EB5555B8BF3A
:1002F0006D420CDD2C4480EA020281EA030382EAAB
:10030000000083EA010180EA020281EA0303362D3C
:1003100088BF30BD11F0004F4FEA01314FF4801C0F
:100320004CEA113102D0404261EB410113F0004F21
:100330004FEA03334CEA133302D0524263EB4303D8
:1003400094EA050F00F0A780A4F10104D5F1200E76
:100350000DDB02FA0EFC22FA05F2801841F10001D1
:1003600003FA0EF2801843FA05F359410EE0A5F1A5
:1003700020050EF1200E012A03FA0EFC28BF4CF0D6
:10038000020C43FA05F3C01851EBE37101F000458C
:1003900007D54FF0000EDCF1000C7EEB00006EEB99
:1003A0000101B1F5801F1BD3B1F5001F0CD3490823
:1003B0005FEA30004FEA3C0C04F101044FEA44527A
:1003C00012F5800F80F09A80BCF1004F08BF5FEA01
:1003D000500C50F1000041EB045141EA050130BDE1
:1003E0005FEA4C0C404141EB010111F4801FA4F184
:1003F0000104E9D191F0000F04BF01460020B1FAD9
:1004000081F308BF2033A3F10B03B3F120020CDA10
:100410000C3208DD02F1140CC2F10C0201FA0CF0EE
:1004200021FA02F10CE002F11402D8BFC2F1200C53
:1004300001FA02F120FA0CFCDCBF41EA0C01904009
:10044000E41AA2BF01EB0451294330BD6FEA040452
:100450001F3C1CDA0C340EDC04F11404C4F120023D
:1004600020FA04F001FA02F340EA030021FA04F34F
:1004700045EA030130BDC4F10C04C4F1200220FAA6
:1004800002F001FA04F340EA0300294630BD21FAE4
:1004900004F0294630BD94F0000F83F4801306BFAA
:1004A00081F480110134013D4EE77FEA645C18BF9E
:1004B0007FEA655C29D094EA050F08BF90EA020F35
:1004C00005D054EA000C04BF1946104630BD91EA2D
:1004D000030F1EBF0021002030BD5FEA545C05D130
:1004E0004000494128BF41F0004130BD14F580046F
:1004F0003CBF01F5801130BD01F0004545F0FE41E3
:1005000041F470014FF0000030BD7FEA645C1ABF17
:10051000194610467FEA655C1CBF0B46024650EA4E
:10052000013406BF52EA033591EA030F41F400217A
:1005300030BD00BF90F0000F04BF0021704730B500
:100540004FF4806404F132044FF000054FF00001D5
:1005500050E700BF90F0000F04BF0021704730B596
:100560004FF4806404F1320410F0004548BF40426B
:100570004FF000013EE700BF42004FEAE2014FEAC0
:1005800031014FEA02701FBF12F07F4393F07F4F9B
:1005900081F06051704792F0000F14BF93F07F4FCD
:1005A000704730B54FF4607401F0004521F0004110
:1005B00020E700BF50EA010208BF704730B54FF096
:1005C00000050AE050EA010208BF704730B511F09B
:1005D000004502D5404261EB41014FF4806404F1D3
:1005E00032045FEA915C3FF4DCAE4FF003025FEA55
:1005F000DC0C18BF03325FEADC0C18BF033202EBDD
:10060000DC02C2F1200300FA03FC20FA02F001FA36
:1006100003FE40EA0E0021FA02F11444C1E600BFD5
:1006200070B54FF0FF0C4CF4E06C1CEA11541DBF88
:100630001CEA135594EA0C0F95EA0C0F00F0DEF853
:100640002C4481EA030621EA4C5123EA4C5350EA38
:10065000013518BF52EA033541F4801143F4801389
:1006600038D0A0FB02CE4FF00005E1FB02E506F01A
:100670000042E0FB03E54FF00006E1FB03569CF06F
:10068000000F18BF4EF0010EA4F1FF04B6F5007F75
:1006900064F5407404D25FEA4E0E6D4146EB0606E7
:1006A00042EAC62141EA55514FEAC52040EA5E5070
:1006B0004FEACE2EB4F1FD0C88BFBCF5E06F1ED81A
:1006C000BEF1004F08BF5FEA500E50F1000041EB51
:1006D000045170BD06F0004646EA010140EA0200FE
:1006E00081EA0301B4EB5C04C2BFD4EB0C0541EA20
:1006F000045170BD41F480114FF0000E013C00F335
:10070000AB8014F1360FDEBF002001F0004170BD58
:10071000C4F10004203C35DA0C341BDC04F1140471
:10072000C4F1200500FA05F320FA04F001FA05F2FD
:1007300040EA020001F0004221F0004110EBD370CA
:1007400021FA04F642EB06015EEA430E08BF20EAF6
:10075000D37070BDC4F10C04C4F1200500FA04F399
:1007600020FA05F001FA04F240EA020001F000412B
:1007700010EBD37041F100015EEA430E08BF20EA9E
:10078000D37070BDC4F1200500FA05F24EEA020EE6
:1007900020FA04F301FA05F243EA020321FA04F015
:1007A00001F0004121FA04F220EA020000EBD370CC
:1007B0005EEA430E08BF20EAD37070BD94F0000FCC
:1007C0000FD101F00046400041EB010111F4801F00
:1007D00008BF013CF7D041EA060195F0000F18BFB1
:1007E000704703F00046520043EB030313F4801FED
:1007F00008BF013DF7D043EA0603704794EA0C0FA7
:100800000CEA135518BF95EA0C0F0CD050EA4106BC
:1008100018BF52EA4306D1D181EA030101F0004139
:100820004FF0000070BD50EA410606BF1046194661
:1008300052EA430619D094EA0C0F02D150EA01366D
:1008400013D195EA0C0F05D152EA03361CBF1046AE
:1008500019460AD181EA030101F0004141F0FE414D
:1008600041F470014FF0000070BD41F0FE4141F4D1
:10087000780170BD70B54FF0FF0C4CF4E06C1CEAD1
:1008800011541DBF1CEA135594EA0C0F95EA0C0F86
:1008900000F0A7F8A4EB050481EA030E52EA033541
:1008A0004FEA013100F088804FEA03334FF0805562
:1008B00045EA131343EA12634FEA022245EA11158F
:1008C00045EA10654FEA00260EF000419D4208BF40
:1008D000964244F1FD0404F5407402D25B084FEAED
:1008E0003202B61A65EB03055B084FEA32024FF499
:1008F00080104FF4002CB6EB020E75EB030E22BFF6
:10090000B61A754640EA0C005B084FEA3202B6EBB5
:10091000020E75EB030E22BFB61A754640EA5C0064
:100920005B084FEA3202B6EB020E75EB030E22BFF4
:10093000B61A754640EA9C005B084FEA3202B6EBF5
:10094000020E75EB030E22BFB61A754640EADC00B4
:1009500055EA060E18D04FEA051545EA16754FEA16
:1009600006164FEAC30343EA52734FEAC2025FEA34
:100970001C1CC0D111F4801F0BD141EA00014FF0C3
:1009800000004FF0004CB6E711F4801F04BF014394
:100990000020B4F1FD0C88BFBCF5E06F3FF6AFAEB0
:1009A000B5EB030C04BFB6EB020C5FEA500C50F140
:1009B000000041EB045170BD0EF0004E4EEA1131C3
:1009C00014EB5C04C2BFD4EB0C0541EA045170BDCA
:1009D00041F480114FF0000E013C90E645EA060E0E
:1009E0008DE60CEA135594EA0C0F08BF95EA0C0F3C
:1009F0003FF43BAF94EA0C0F0AD150EA01347FF484
:100A000034AF95EA0C0F7FF425AF104619462CE75A
:100A100095EA0C0F06D152EA03353FF4FDAE1046BD
:100A2000194622E750EA410618BF52EA43067FF40E
:100A3000C5AE50EA41047FF40DAF52EA43057FF49E
:100A4000EBAE12E74A0011D212F5001211D20DD509
:100A50006FF47873B3EB62520ED44FEAC12343F0C4
:100A6000004343EA505323FA02F070474FF000006E
:100A7000704750EA013002D14FF0FF3070474FF01D
:100A8000000070474FEA4102B2F1E04324BFB3F5E2
:100A9000001CDCF1FE5C0DD901F0004C4FEAC002F5
:100AA0004CEA5070B2F1004F40EB830008BF20F0D9
:100AB0000100704711F0804F21D113F13872BCBF93
:100AC00001F00040704741F480114FEA5252C2F1E8
:100AD0001802C2F1200C10FA0CF320FA02F018BF31
:100AE00040F001004FEAC1234FEAD32303FA0CFC84
:100AF00040EA0C0023FA02F34FEA4303CCE77FEA13
:100B0000625307D150EA01331EBF4FF0FE4040F45C
:100B10004000704701F0004040F0FE4040F400000B
:100B2000704700BF53B94AB9002908BF00281CBF4D
:100B30004FF0FF314FF0FF3000F07AB9ADF1080C03
:100B40006DE904CE00F006F8DDF804E0DDE90223EB
:100B500004B070472DE9F0478C460D460446089EC8
:100B6000002B51D18A4217466DD9B2FA82FEBEF1EE
:100B7000000F0BD0CEF1200C01FA0EF520FA0CFC80
:100B800002FA0EF74CEA050C00FA0EF44FEA174A87
:100B9000250CBCFBFAF81FFA87F90AFB18CC45EACA
:100BA0000C4508FB09F3AB420AD9ED1908F1FF32F5
:100BB00080F02381AB4240F22081A8F102083D443D
:100BC000ED1AA4B2B5FBFAF00AFB105544EA05444D
:100BD00000FB09F9A14509D9E41900F1FF3380F0C0
:100BE0000A81A14540F2078102383C44A4EB090484
:100BF00040EA08400021002E61D024FA0EF40023C0
:100C000034607360BDE8F0878B4207D9002E54D062
:100C1000002186E821000846BDE8F087B3FA83F199
:100C2000002940F08E80AB4202D3824200F2FA806B
:100C3000841A65EB03050120AC46002E3FD086E800
:100C40001010BDE8F08712B90127B7FBF2F7B7FA29
:100C500087FEBEF1000F34D1EB1B3A0C1FFA87FC64
:100C60000121B3FBF2F8250C02FB183345EA0345DA
:100C70000CFB08F3AB4207D9ED1908F1FF3002D2A3
:100C8000AB4200F2D1808046ED1AA3B2B5FBF2F080
:100C900002FB105543EA05440CFB00FCA44507D9B0
:100CA000E41900F1FF3302D2A44500F2B8801846DF
:100CB000A4EB0C0440EA08409DE731463046BDE80D
:100CC000F087CEF1200405FA0EF307FA0EF720FAAA
:100CD00004F83A0C25FA04F448EA0308B4FBF2F1EC
:100CE0004FEA184502FB11441FFA87FC45EA044508
:100CF00001FB0CF3AB4200FA0EF409D9ED1901F136
:100D0000FF3080F08A80AB4240F2878002393D4458
:100D1000EB1A1FFA88F5B3FBF2F002FB103345EA39
:100D2000034500FB0CF3AB4207D9ED1900F1FF3886
:100D30006FD2AB426DD902383D44EB1A40EA014113
:100D40008FE7C1F1200722FA07F88B4005FA01F47A
:100D500048EA030320FA07FE4FEA134CFD404EEA2F
:100D6000040EB5FBFCF94FEA1E440CFB19551FFAA3
:100D700083F844EA054509FB08F4AC4202FA01F2A3
:100D800000FA01FA08D9ED1809F1FF3043D2AC425C
:100D900041D9A9F102091D442D1B1FFA8EFEB5FB96
:100DA000FCF00CFB10554EEA054400FB08F8A0458A
:100DB00007D9E41800F1FF3529D2A04527D9023818
:100DC0001C4440EA0940A4EB0804A0FB02894C45FE
:100DD000C6464D4615D312D056B1BAEB0E0364EB9E
:100DE000050404FA07F7CB401F43CC40376074601A
:100DF0000021BDE8F0871846F8E69046E0E6C245D7
:100E0000EAD2B8EB020E69EB03050138E4E72846A5
:100E1000D7E7404691E78146BEE7014678E70238CA
:100E20003C4445E7084608E7A8F102083D442BE7A3
:100E3000704700BF10B5084B044618684FF47A732A
:100E4000B0FBF3F000F0D0FD002221464FF0FF3060
:100E500000F08AFD002010BD24000020074A08B5DC
:100E6000136843F480731360032000F06BFD0020CF
:100E7000FFF7E0FF09F0C8FA002008BD002002409B
:100E8000024A136801331360704700BFD00300208B
:100E9000014B1868704700BFD003002038B50446E6
:100EA000FFF7F6FF631C054618BF0134FFF7F0FF9C
:100EB000401B8442FAD838BD70B54FF0007696FAE0
:100EC000A6F6B6FA86F301F00076DE40143001F0A3
:100ED000F8714FF0F87393FAA3F5B5FA85F593FA24
:100EE000A3F3072421FA05F504FA05F5B3FA83F311
:100EF00050F82640D94024EA050402FA01F12143C2
:100F000040F8261070BD000037B500230193044659
:100F1000002800F0B480C56D25B908F0B3FC256643
:100F200084F8585023689A68900041BF9A6822F06C
:100F3000204222F03F029A609A68D10076D59A68E2
:100F4000D20040F18A800020E26DD50600F1938046
:100F50009A68510700F18F80E26D22F4817242F0AD
:100F60000202E2659A6802F00302012A40F08980D9
:100F70001A68D20740F18580E568A26B616A2A434E
:100F8000A5682A43E569012942EA453242EA01425D
:100F900002BFA16A01F1FF3142EA4142E16A21B197
:100FA000256B01F4707129430A43DD6839492940F2
:100FB0000A43DA609A6812F00C0F20D1626BA569BF
:100FC000D968520042EA8532256D21F480412A43D6
:100FD00021F006010A43DA60E26B012A47D1656C11
:100FE000226C19692A43A56C42F001022A43E56C80
:100FF00021F4FF612A4321F004010A431A612269A6
:10100000012A05BF196B226A1A6B02F1FF3206BF73
:1010100021F00F010A4322F00F021A63E36D23F05F
:10102000030343F00103E36503B030BD9A681A4936
:1010300022F0104222F03F0242F080529A60174A9A
:101040001268B2FBF1F10A224A430192019A002A86
:101050003FF475AF019A013AF7E7E26D42F01002F2
:10106000E265226E42F00102226601206CE71A69F5
:1010700022F00102C2E7E36D43F01003E3650120B3
:10108000D2E7074965688A6822F47C122A438A609D
:1010900072E700BF07C0F0FF80841E00240000201C
:1010A00000030450F8B54569082D04460E460AD0E1
:1010B0000368DB68DD0705D5C36D43F02003C36516
:1010C0000120F8BD0425FFF7E3FE074623681A68F0
:1010D00015421DD0E26D42F40072E265DA6812F446
:1010E000406F0FD1E2696AB91A6811070AD5E26D3B
:1010F00022F48072E265E26DD2045EBFE26D42F0DE
:101100000102E265082DD86814D11D600020F8BDE9
:10111000701CDCD046B9E36D43F00403E3650023A3
:1011200084F858300320F8BDFFF7B2FEC01B86429A
:10113000CCD2F0E710F48040E8D10C221A60F8BD60
:101140000368186C70470000F7B50023019390F80E
:101150005830012B05460C4600F08881012380F8A9
:10116000583000688268510700F17A816368052B66
:1011700008D8023B032B6ED8DFE803F00266686AEA
:101180000C23636061684FF4407393FAA3F3B3FADE
:1011900083F301F44076DE4000F1300701F01F01D7
:1011A0001F2303FA01F257F8263023EA02032268CC
:1011B000C2F384628A40134347F82630826812F0F3
:1011C0000C0226D1A368B3F1004F46D12168FFF786
:1011D00073FE2A68536943F0004353612669D5F8CA
:1011E00000E02368DEF80C10042E0EF160023DD002
:1011F000C1F3C1014800616903F0F843814043F045
:101200000043194352F82600BD4B0340194342F8EE
:1012100026102868836803F00303012B40F028811F
:101220000368DA0740F124812368B64A934240F00C
:10123000C780B54A93681B0240F1F4800020002368
:1012400085F8583003B0F0BD12239AE7182398E7C9
:101250004FF4807395E7062393E71A462168FFF75A
:101260002BFE2A68536923F00043B6E7DEF86010CE
:10127000C3F31200C1F384670EF1640600283AD16B
:10128000C3F38460874240F0278121F00041CEF80B
:1012900060102368DEF86410C3F31207C1F38460A2
:1012A0009FBBC3F38463834240F01B8121F0004164
:1012B000316023689168C3F3120702F10806C1F395
:1012C000846077BBC3F38463834240F0118121F0D3
:1012D00000413160236802F10C00D268C3F31206AA
:1012E000C2F384614EBBC3F384638B4204BF22F01C
:1012F000004202608DE793FAA3F0B0FA80F08742D3
:10130000C3D0DEF86410C1F3846093FAA3F3B3FA98
:1013100083F38342CAD09168236802F10806C1F3BF
:10132000846093FAA3F3B3FA83F38342CFD002F13C
:101330000C00D2682368C2F3846193FAA3F3B3FA72
:1013400083F3D2E793FAA3F2B2FA82F20132092AC6
:101350000DD993FAA3F2B2FA82F20132960693FA09
:10136000A3F1B1FA81F14A1C0121914016E093FAF0
:10137000A3F2B2FA82F20132920693FAA3F1B1FA21
:1013800081F14E1C0121B14097E093FAA3F1B1FA2B
:1013900081F1013198E0164601FA0EF141EA0602A8
:1013A0004FB9C3F3846303EB4303A3F11B010905A6
:1013B00041F000718BE093FAA3F3B3FA83F3F2E701
:1013C000524A934215D1504A906810F080707FF4D1
:1013D00035AF29684E4B99427FF430AF91689368DE
:1013E00001F0E07123F0E0730B4343F080739360EE
:1013F00025E7484A93427FF421AF434A906810F4AE
:1014000080007FF41BAF2968414B99427FF416AFEF
:101410009168936801F0E07123F0E0730B4343F4AB
:101420008003E4E729683A4B99427FF407AF91685B
:10143000936801F0E07123F0E0730B4343F4000381
:101440009360354B354A1B68B3FBF2F27823534364
:101450000193019B002B3FF4F1AE019B013BF7E7A9
:10146000EA6D42F02002EA651846E8E60220E9E665
:10147000E1682B4AD0F8B060236801F0200E02FA30
:101480000EF2C3F3120772403A407240C0F8B02027
:10149000244A91427FF4C8AE002F7FF453AFC3F3C8
:1014A000846101F1010EBEF1090F4FF001014FEA15
:1014B0008E623FF670AF01FA0EF10A43002F7FF4FF
:1014C00064AFC3F38463591C01EB41010905114367
:1014D000A268FFF7F1FCA7E6DEF86410C1F38460B0
:1014E000DFE69168236802F10806C1F38460E9E64B
:1014F00002F10C00D2682368C2F38461F3E600BFF6
:1015000000F0FF03000052C700030450000084CB2A
:1015100000000450010000802400002080841E0090
:10152000FFFF070000007F40C06D704703689A68A6
:1015300012F00C0F70B5044601D1002070BDDA68BE
:1015400090012AD5E269012A27D1A269012A24D172
:10155000224A1968490614D540221A6001219A6866
:1015600056070AD59A68950707D49A6822F0004270
:1015700022F03F0242F010029A6001290FD10425A7
:101580001EE0013AE5D1E36D43F01003E365236EFD
:1015900043F001032366012070BD0229DFD19A6860
:1015A000100706D59A6892075EBF9A6842F020023B
:1015B0009A60022903D00329E1D10C2500E0082517
:1015C000FFF766FC064623689B681D42B5D0FFF70F
:1015D0005FFC801B0528F6D9D5E700BF010040A3BA
:1015E00073B5002302680193936803F00303012B92
:1015F000044608D11368D80705D5002002B070BD95
:10160000019B013B12E091681A4B194227D1936864
:1016100023F0004323F03F0343F001039360164B94
:10162000164A1B68B3FBF2F20A2353430193019B52
:10163000002BE5D1FFF72CFC114E054622681368FC
:10164000DB07DAD49368D9075FBF9368334043F070
:1016500001039360FFF71CFC401B0228EED9E36DE9
:1016600043F01003E365236E43F00103236601207A
:10167000C4E700BF3F0000802400002080841E00DB
:10168000C0FFFF7F38B503689D6815F00405044668
:101690003AD190F85830012B36D0012380F85830D9
:1016A000FFF79EFF00282CD1E36D23F4706323F035
:1016B000010343F48073E365E36D23F48013E36572
:1016C000E36DDA0448BF236E226852BF206623F020
:1016D000060323661C231360002384F85830D36864
:1016E0009B0141BFE36D23F4405343F48053E36512
:1016F000936823F0004323F03F0343F00403936017
:1017000038BD84F8585038BD022038BD026838B55D
:101710000446906800F00300012801D0002038BD85
:101720001368D907FAD5936803F00D03012B1FD175
:10173000936823F0004323F03F0343F002039360D8
:1017400003231360FFF7A4FB054623689B68DB07B0
:10175000E4D5FFF79DFB401B0228F6D9E36D43F06B
:101760001003E365236E43F001032366012038BDB7
:10177000E36D43F01003E365236E43F0010323663A
:1017800038BD000010B50446002800F08580C36D08
:1017900043F002030321C365FFF7C8FE2268D36844
:1017A00043F40013D3602046FFF7B0FF23683F489F
:1017B000596840F2FF72014059601A60996821F03F
:1017C000A0419960996841F000519960D96801F091
:1017D0008021D960D96841F00041D9601A6902407E
:1017E0001A615A69324802F080425A619A6902F0DD
:1017F00078429A611A6A02F0F0221A625A6A02F07A
:10180000FF225A629A6A02F0FF229A62196B294AF1
:101810000A401A63596B014059639A6B02409A63FC
:10182000DA6B22F4FB6222F00702DA63196E224AB5
:1018300011401966596E11405966996E11409966AA
:10184000D96E0A40DA66D3F8A0201C490A40C3F8D2
:10185000A020D3F8A4200A40C3F8A420D3F8B020D5
:101860000A40C3F8B020D3F8B42022F07F12C3F8A6
:10187000B4209A6802F00302012A0FD11B68DB072B
:101880000CD5204608F022F8002020666066A0668D
:10189000E06584F8580010BD012010BD084A936827
:1018A00023F0FF7323F480339360EAE700F8FFFF2F
:1018B000200882E0300882E000F0FF030000F8FF1B
:1018C0000003045038B590F85830012B04460D46FB
:1018D00035D0012380F85830FFF718FFE36D58BB6F
:1018E00023F4885323F0020343F00203E3652368E3
:1018F0009A6822F080422A439A609A6842F0004235
:101900009A604FF491229968002909DBE36D23F076
:10191000030343F00103E365002384F8583038BD26
:10192000013AF0D1E36D84F8582023F0120343F01C
:101930001003E365012038BD43F01003EBE70220FC
:1019400038BD0000074AD36823F4E0631B041B0C76
:1019500043F0BF63000243F4003300F4E06003434C
:10196000D360704700ED00E0174B30B5DC68C4F37E
:101970000224C4F10703251D042B28BF0423062DD0
:101980004FF0010505FA03F303F1FF338CBF033C6D
:1019900000241940A14005FA04F4013C224000282B
:1019A00042EA01024FEA0212AFBF00F1604000F0CC
:1019B0000F00064BD2B2A5BF00F56140D2B21A5457
:1019C00080F8002330BD00BF00ED00E014ED00E022
:1019D0004209012300F01F0003FA00F0014B43F815
:1019E0002200704700E100E00138B0F1807F0AD2A8
:1019F000064B074A5860F02182F823100020072286
:101A000098601A6070470120704700BF10E000E046
:101A100000ED00E0044B1A6804280CBF42F00402F9
:101A200022F004021A60704710E000E0704708B529
:101A3000FFF7FCFF08BDF0B596080B4601EB8607E3
:101A4000BB4205680AD112F0030204D0012A11F842
:101A5000261014D1297003681868F0BD5C7893F8DB
:101A600000E0240444EA0E6493F803E044EA0E0420
:101A700093F802E044EA0E242C600433E0E7022AE3
:101A80005A7842EA01222A801CBF9B782B70E2E739
:101A9000F0B5002357080C46BB4204F10404056866
:101AA00006D1D20744BF31F823302B802868F0BD1F
:101AB00034F804EC34F8026C46EA0E462E6001332A
:101AC000EAE7000010B5044608B9012010BD437FC5
:101AD00003F0FF0213B9027707F028FF02236377B0
:101AE0002379E3B92368134A5A619A6822F01802ED
:101AF0009A6062792368D2B94FF0FF321A619A680E
:101B0000616922F060020A439A609A68A16922F032
:101B100080020A439A6001236377002010BDE268C7
:101B2000A168204600F032F80028E2D0CDE7226913
:101B3000E4E700BFB71DC104F8B5037F012B0446DD
:101B40004FF0020320D04377036A0127022B077767
:101B500015D0032B04D0BB4214D1FFF76CFF05E076
:101B600001EB8206B142236805D11868012363772F
:101B700000232377F8BD51F8042B1A60F2E7FFF732
:101B800087FFF3E70020F1E71846F8BD10B51F23E3
:101B900013F1FF3306D321FA03F4E407F8D5082A3A
:101BA00014D009D872B900684161836823F0180322
:101BB0001A438260002010BD102A05D0182A01D1D6
:101BC000062BF0D9012010BD072BFAE70F2BF8E701
:101BD000064B5A69002ABFBF054A9A6002F1883253
:101BE0009A60BABF5869C00F0020704700200240B9
:101BF00023016745034A536943F0004353610020C2
:101C0000704700BF00200240064B5A69520041BF96
:101C1000054ADA6002F1443200204CBFDA6001204C
:101C2000704700BF002002403B2A190870B50546E6
:101C3000FFF72EF91A4C06462369DB031ED42369ED
:101C4000A06923F07F4323F47D0323F4705323F032
:101C5000050300F00040184319D0124A53680343AB
:101C6000536010F040431EBFA2691343A36130F0DC
:101C7000404001D00A4B1861012070BD6A1CDBD0C6
:101C8000FFF706F9801B8542D6D8032070BD236973
:101C900013F0010302D00123236170BD184670BD0B
:101CA00000200240000000208F4B1A78012A2DE905
:101CB000F0470646984600F0148101271F70002364
:101CC000C8F8043003683B4000F00981D0F804A054
:101CD000D0F80890C5684CF25030FFF7A7FFD8B98C
:101CE000824CBAF1000F40F0ED80E36A03F0FF236D
:101CF00043EA090343EA0543E362636943F40033BB
:101D000063614CF25030FFF791FF6369071C23F4C5
:101D10000033636118BF012733689D0719D54CF262
:101D200050303569FFF782FF90B9704C236A23F079
:101D3000FF032B432362636943F4003363614CF276
:101D40005030FFF773FF636923F40033636100B120
:101D5000012733685C0778D54CF250307569B46957
:101D6000FFF764FF00286FD115F001030EBF1A467C
:101D700004F4E0624FF4E063A80742BF04F480512A
:101D80000A4343F48053690742BF04F400510A43F5
:101D900043F40053E80442BF04F480410A4343F48F
:101DA0008043290742BF04F480310A4343F480335F
:101DB000E80642BF04F400310A4343F40033A906A5
:101DC00042BF04F480210A4343F48023680642BFE3
:101DD00004F400210A4343F40023A90542BF04F49C
:101DE00000010A4343F40003680542BF04F0807118
:101DF0000A4343F08073290542BF04F000710A438F
:101E000043F00073A80442BF04F080610A4343F02A
:101E10008063690444BF04F000642243334C216AA8
:101E200048BF43F0006321EA03031A432262636957
:101E300043F4003363614CF25030FFF7F7FE6369FF
:101E400023F40033636100B1012733681A0733D5E7
:101E5000D6F82090746AA1452ED04CF25030F56926
:101E6000FFF7E4FE38BBEB0710D5204B596AA0F50D
:101E7000004009F17849014041EAD90159629A6A62
:101E800004F17844024042EAD4029A62174CA36AF1
:101E900005F0004523F000432B43A362636943F43C
:101EA000003363614CF25030FFF7C0FE636923F4E6
:101EB0000033636100B10127002388F80030384601
:101EC000BDE8F087BAF1010F7FF417AF236B03F081
:101ED000FF2343EA090343EA054323630DE71F4653
:101EE0001AE70227EBE700BF0000002000200240B5
:101EF0002DE9F74FD1F80080DFF874915A4A00239A
:101F000038FA03F402D103B0BDE8F08F012404FADB
:101F100003FA18EA0A0500F09C804C6824F0100BC4
:101F2000BBF1020F14D14FEAD30E00EB8E0E03F07B
:101F3000070CDEF820604FEA8C0C0F2707FA0CF72D
:101F400026EA07070E6906FA0CF63E43CEF8206033
:101F50004FEA430C0327066807FA0CF7FF4304F027
:101F6000030E3E400EFA0CFE0BF1FF3B4EEA060656
:101F7000BBF1010F066011D8866806EA070BCE6830
:101F800006FA0CFE4EEA0B068660466826EA0A0A46
:101F9000C4F300169E4046EA0A064660C66837400B
:101FA0008E6806FA0CF63743E600C76051D5D9F8BB
:101FB000606046F00106C9F86060D9F8606023F0FF
:101FC000030707F1804706F0010607F58037019601
:101FD00003F0030C019EBE684FEA8C0C4FF00F0E0D
:101FE0000EFA0CFEB0F1904F26EA0E0E33D01F4EC3
:101FF000B04232D006F58066B04230D006F5806639
:10200000B0422ED006F58066B04214BF07260426E3
:1020100006FA0CF646EA0E06BE601668EF4314F4A4
:10202000803F0CBF3E402E431660566814F4003FBC
:102030000CBF3E402E435660966814F4801F0CBFC0
:102040003E402E439660D668A40254BF3E402E43C5
:10205000D660013354E70026DAE70126D8E70226E6
:10206000D6E70326D4E700BF00040140000400487F
:10207000001002402DE9F04F374CDFF8E4900023C8
:102080004FF0010C4FF003084FF00F0E31FA03F23E
:1020900001D1BDE8F08F0CFA03FA11EA0A0551D01C
:1020A00006685A0008FA02F2DF08164300EB8707B9
:1020B000066003F00706D7F820B0B6000EFA06F661
:1020C0002BEA06063E628668D24316408660466862
:1020D00026EA0A064660C6683240C26023F0030260
:1020E00002F1804202F5803203F003079668BF00D8
:1020F0000EFA07FBB0F1904F06EA0B0A24D0174EF8
:10210000B04223D006F58066B04221D006F5806645
:10211000B0421FD048450CBF04260726BE40B2453A
:1021200010D1966826EA0B0696602268ED432A4095
:10213000226062682A406260A2682A40A260E26867
:102140001540E5600133A1E70026E7E70126E5E752
:102150000226E3E70326E1E700040140000400480B
:10216000001000480369194214BF01200020704785
:102170000AB181617047816270474369594041618A
:10218000704703689A69910744BF00229A629A696E
:10219000D2075EBF9A6942F001029A61704730B57A
:1021A000039C05682343640D04F4806444F07F7449
:1021B00044F458346868C1F3090144F47F74194346
:1021C00044F0030441EA024120EA04042143696027
:1021D00030BD2DE9F041069F0446884616461D464F
:1021E0002268936938EA03030CBF01230023B3423A
:1021F00002D00020BDE8F0816B1CF2D0FEF748FE53
:10220000C01B854201D3002DEAD1636C43F020034B
:102210006364202384F84130002384F8423084F83A
:1022200040300120BDE8F081036870B5044698692C
:1022300010F010000D46164616D170BD691C14D062
:10224000FEF726FE801B854200D36DB9636C43F018
:1022500020036364202384F84130002384F8423053
:1022600084F84030012070BD236899698A06E5D55D
:1022700010222025DA612046DD61FFF782FF226807
:10228000536823F0FF7323F48B3323F4FF7323F09D
:1022900001035360636C43F00403636484F84150AA
:1022A000DBE770B504460D46164623689B699B071D
:1022B00001D5002070BD324629462046FFF7B4FF05
:1022C000A0B96A1CF1D0FEF7E3FD801B854201D363
:1022D000002DEAD1636C43F020036364202384F86B
:1022E0004130002384F8423084F84030012070BD32
:1022F000F7B5099E1F46164B00930546144600236A
:10230000FAB2FFF74CFF324608992846FFF7C9FF9B
:1023100010B1012003B0F0BD012F2B680CD1E4B245
:102320009C62089B0096002240212846FFF751FF3F
:10233000003018BF0120EDE7220A9A620899324660
:102340002846FFF7AEFF0028E3D12B68E7E700BF80
:102350000020008070B504460D46164623689B6930
:102360009B0601D5002070BD324629462046FFF766
:102370005BFF90B9FEF78CFD801B854201D3002DD9
:10238000ECD1636C43F020036364202384F8413074
:10239000002384F8423084F84030012070BD70B5CD
:1023A00004460D46164623689B695B070ED43246E9
:1023B00029462046FFF738FFF0B923689A6991064D
:1023C0001CD59A69520703D5228D0AB1002070BD31
:1023D0002021D9615A6822F0FF7222F48B3222F454
:1023E000FF7222F001025A600023636484F84110F6
:1023F00084F8423084F84030012070BDFEF748FD7B
:10240000801B854201D3002DCDD1636C43F02003A6
:102410006364202384F841300023EBE710B50446C1
:1024200008B96064FFDE90F8413003F0FF021BB989
:1024300080F8402007F07EFD242384F84130236893
:10244000E1681A6822F001021A60626822F0706284
:102450001A619A68012922F400429A60A26824D184
:1024600042F400429A605A68616942F0007242F494
:1024700000425A60DA6822F40042DA6022690A43B4
:10248000A16942EA0122DA60216AE2690A431A601C
:102490001A6842F001021A6000202023606484F868
:1024A0004130206384F8420010BD42F40442022906
:1024B0009A6004BF4FF400625A60D4E710B5044636
:1024C00008B96064FFDE0268242380F84130136895
:1024D00023F00103136007F075FD0020606484F8A9
:1024E000400084F84100206384F8420010BD0000E1
:1024F0002DE9F743984690F84130202B04460E46CC
:10250000914640F0848090F84030012B7FD0012725
:1025100080F84070FEF7BCFC1923054600903A464F
:102520004FF400412046FFF754FE18B1012003B0DC
:10253000BDE8F083212384F84130102384F8423031
:102540006064A4F82A80638DC4F824909BB2FF2BAA
:102550006063304B26D9FF22228500934FF08073B1
:1025600031462046FFF71BFE638D0A999BB22A462F
:102570002046FBB9FFF7EEFE0028D7D123682021C3
:10258000D9615A6822F0FF7222F48B3222F4FF7272
:1025900022F001025A6084F8411084F8400084F867
:1025A0004200C4E7628D009392B222854FF000731F
:1025B000D2B2D5E7FFF775FE0028B7D1636A22686B
:1025C000591C61621B789362638D228D013B9BB223
:1025D0006385638D013A92B29BB22285002BC3D0F2
:1025E000002AC1D100950A9B80212046FFF7F1FD0A
:1025F00000289BD1638D9BB2FF2B03D9FF2222853C
:102600000090ABE7628D009092B22285CEE7022067
:102610008DE700BF002000802DE9F743984690F831
:102620004130202B04460E46914640F0848090F8BD
:102630004030012B7FD0012780F84070FEF728FC46
:102640001923054600903A464FF400412046FFF713
:10265000C0FD18B1012003B0BDE8F083222384F847
:102660004130102384F842306064A4F82A80638DDE
:10267000C4F824909BB2FF2B6063304B26D9FF2215
:10268000228500934FF0807331462046FFF787FD87
:10269000638D0A999BB22A462046FBB9FFF75AFE82
:1026A0000028D7D123682021D9615A6822F0FF720F
:1026B00022F48B3222F4FF7222F001025A6084F875
:1026C000411084F8400084F84200C4E7628D009312
:1026D00092B222854FF00073D2B2D5E7FFF75FFECA
:1026E0000028B7D1636A5A1C62622268526A1A7063
:1026F000638D228D013B9BB26385638D013A92B25B
:102700009BB22285002BC3D0002AC1D100950A9B21
:1027100080212046FFF75DFD00289BD1638D9BB291
:10272000FF2B03D9FF2222850090ABE7628D00903A
:1027300092B22285CEE702208DE700BF0024008000
:102740002DE9F04F9B4690F8413085B0202B044690
:102750000F460392BDF83CA0DDF8408040F0A88011
:102760000E9B13B1BAF1000F06D14FF400736364EE
:10277000012005B0BDE8F08F90F84030012B00F04B
:102780009780012580F84050FEF782FB19230090C6
:1027900006462A464FF400412046FFF71AFD8146BF
:1027A0000028E5D1222384F84130402384F84230C8
:1027B0000E9B606463626063A4F82AA00196CDF862
:1027C00000805B46039A39462046FFF791FD10B121
:1027D00084F84090CCE7638D9BB2FF2B354B57D9E3
:1027E000FF22009322854FF0807339462046FFF781
:1027F000D6FC00964346002204212046FFF7E9FC60
:102800000028B5D1636A5A1C62622268526A1A7043
:10281000638D228D013B9BB26385638D013A92B239
:102820009BB22285ABB1A2B90096434680212046D7
:10283000FFF7CFFC00289BD1638D9BB2FF2B2FD9D4
:10284000FF22228500904FF0807339462046FFF723
:10285000A6FC638D9BB2002BCBD13246414620466D
:10286000FFF778FD002883D123682021D9615A68B9
:1028700022F0FF7222F48B3222F4FF7222F0010266
:102880005A6084F8411084F8400084F8420070E7F0
:10289000628D009392B222854FF00073D2B2A4E70A
:1028A000628D009092B222854FF00073D2B2CCE7D5
:1028B00002205EE70024008090F84120D2B2202A56
:1028C00010B51DD190F84030012B19D0242380F889
:1028D000413003681C6824F001041C601C6824F467
:1028E00080541C601C6821431960196841F0010183
:1028F0001960002380F8412080F84030184610BD50
:10290000022010BD10B590F84140E4B2202C1CD13B
:1029100090F84030012B18D0242380F84130036810
:102920001A6822F001021A601A6822F4706242EA00
:10293000012119601A6842F001021A60002380F830
:10294000414080F84030184610BD022010BD38B517
:10295000044600B303684CF6CC421A6045F2555267
:102960001A6042685A6082689A60FEF791FA0546DA
:102970002368D86840B9E268196991420ABF4AF6EB
:10298000AA221A611A6038BDFEF782FA401B30286D
:10299000EED9032038BD012038BD000070B50446D3
:1029A000002847D090F8363003F0FF021BB980F8BA
:1029B000352007F0AFFB02232068656884F83630C5
:1029C000C26861691C4E012D4FF6FF7308BF22F0EB
:1029D0001E0299421CBF22F4604222F0C00216403F
:1029E000A26845EA0203226A1343626A1343A26A99
:1029F000012D43EA020304BF2569E26843EA0603A6
:102A000004BF2A4313434FF6FF72914204D0A269D8
:102A10001143E26911430B43C360084B984208BF5E
:102A2000226BE36A08BF13430362012384F8363044
:102A3000002070BD012070BDFEF119FF007C004038
:102A4000022310B580F836300368DC6844F40024B3
:102A5000DC609C6844F001049C601C6944F0010443
:102A60001C6199615A611A6942F004021A610123DA
:102A700080F83630002010BD022380F8363003681D
:102A80001A6922F001021A61DA6822F40022DA607F
:102A90009A6822F001029A60012380F83630002003
:102AA000704770477047704770477047704770476E
:102AB00003681A68D10710B5044606D59A68D2078C
:102AC00003D501225A60FFF7ECFF23681A689007CC
:102AD00007D59A68910704D502225A602046FFF76D
:102AE000E1FF23681A68520707D59A68500704D592
:102AF00004225A602046FFF7D6FF23681A681107A0
:102B000007D59A68120704D508225A602046FFF7B5
:102B1000CBFF23681A68D00607D59A68D10604D57A
:102B200010225A602046FFF7C0FF23681A689206F9
:102B300007D59A68900604D520225A602046FFF7F0
:102B4000B5FF23681A68510607D59A68520604D55E
:102B500040225A602046FFF7AAFF10BD024A1368C0
:102B600043F480731360704700700040024B186894
:102B700000F4C060704700BF00700040164B1A6838
:102B8000B0F5007F02F4C0621AD1B2F5007F13D015
:102B90001A68124922F4C06242F400721A60104AA4
:102BA0001268B2FBF1F132224A4312B15969490568
:102BB00004D45B695B050DD400207047013AF4E74B
:102BC000B2F5806F1FBF1A6822F4C06242F48062BF
:102BD0001A60F1E7032070470070004040420F0088
:102BE000240000200B4A136823F0070343F002037C
:102BF0001360094B1A69012842F004021A6105D1D9
:102C000030BF1A6922F004021A61704740BF20BF2A
:102C100020BFF6E70070004000ED00E037B51E4D24
:102C2000AB6DDA00044618D5FFF7A0FFB0F5007FC2
:102C300023D1802C29D9A02C8CBF02200120174A37
:102C4000136823F0070303431360136803F00703BB
:102C5000181A18BF012003B030BDAB6D43F080538C
:102C6000AB65AB6D03F080530193019BFFF77EFFD3
:102C7000AB6D23F08053AB65D8E7802C07D808D024
:102C8000A4F1700358425841D9E70020D7E7032048
:102C9000D5E70220D3E700BF001002400020024029
:102CA0002F4B9A6812F00C0F10B509D09A6802F0F9
:102CB0000C020C2A2DD1DA6802F00302012A28D175
:102CC0001A682849120755BFD3F894201A68C2F32E
:102CD0000322C2F3031251F82220996811F00C0F5D
:102CE0000CBF10460020996801F00C010C2930D16E
:102CF000DC68D868C0F30210411C04F0030002280D
:102D000019D0032826D0B2FBF1F2D868C0F3062010
:102D100017E09A6802F00C02042A07D09A6802F0C1
:102D20000C02082A04D110480022DCE70F48FBE718
:102D300000200246D7E7DA680C48C2F30622B0FB4F
:102D4000F1F0DB68C3F34163013350435B00B0FB38
:102D5000F3F010BDDA680448C2F30622EFE700BFC3
:102D60000010024038FA000800127A000024F40033
:102D70002DE9F341054608B901208DE00368D80626
:102D800038D5AB4CA36813F00C0F61D123689907B9
:102D900002D5AB69002BEFD02368286A1A0756BF0B
:102DA000D4F8943023681B0903F0F00383423AD22D
:102DB000FFF734FF0028DFD1236843F008032360C6
:102DC00023682A6A23F0F003134323606368EA69E7
:102DD00023F47F4343EA02236360FFF761FFA368A4
:102DE000944AC3F30313D35CD840934B186000207C
:102DF000FEF720F82B68D80761D42B68990700F1FB
:102E0000A9802B681A0700F1E7802B685B0700F1A7
:102E100015812B689A0600F17C81AA6A002A40F08D
:102E2000A381002038E0236843F00803236023686F
:102E300023F0F003034323606368EA6923F47F43CC
:102E400043EA02236360FFF7E9FE0028C5D093E759
:102E5000AB6923B3236843F001032360FEF718F83E
:102E6000064623689B0711D5236843F008032360B7
:102E700023682A6A23F0F003134323606368EA6936
:102E800023F47F4343EA02236360B3E7FEF700F8CD
:102E9000801B0228E5D9032002B0BDE8F081236839
:102EA00023F001032360FDF7F3FF064623689F0725
:102EB000A0D5FDF7EDFF801B0228F7D9EBE75C4CAE
:102EC000A36803F00C03082B09D0A36803F00C03DC
:102ED0000C2B0BD1E36803F00303032B06D123680B
:102EE0009A038AD56B68002B87D145E76B68B3F5E9
:102EF000803F10D1236843F480332360FDF7C8FF7F
:102F0000064623689B033FF578AFFDF7C1FF801BA2
:102F10006428F6D9BFE7B3F5A02F04D1236843F4A2
:102F200080232360E6E7226822F480322260226850
:102F300022F480222260002BE0D1FDF7A9FF064693
:102F400023689F037FF559AFFDF7A2FF801B64281C
:102F5000F6D9A0E7364CA36803F00C03042B09D084
:102F6000A36803F00C030C2B13D1E36803F00303F5
:102F7000022B0ED123685E0503D5EB68002B3FF4CE
:102F8000FBAE63682A6923F0FE4343EA0263636091
:102F900037E7EB687BB1236843F480732360FDF768
:102FA00077FF064623685805EBD4FDF771FF801BB9
:102FB0000228F7D96FE7236823F480732360FDF7B5
:102FC00067FF0646236859057FF51BAFFDF760FFD5
:102FD000801B0228F6D95EE76B69154C9BB1D4F8CB
:102FE000943043F00103C4F89430FDF751FF0646D6
:102FF000D4F894309F073FF508AFFDF749FF801BD9
:103000000228F5D947E7D4F8943023F00103C4F837
:103010009430FDF73DFF0646D4F8943098077FF5CD
:10302000F4AEFDF735FF801B0228F5D933E700BF6A
:10303000001002401FFA000824000020794CA36D04
:10304000D90027D4A36D43F08053A365A36D03F08B
:1030500080530193019B0127734E3368DA051BD51A
:10306000AB68012B29D1D4F8903043F00103C4F8A8
:103070009030FDF70DFF41F288380646D4F89030C5
:10308000980740D5002F3FF4C4AEA36D23F08053C2
:10309000A365BEE60027DFE7336843F4807333603F
:1030A000FDF7F6FE80463368DB05D9D4FDF7F0FE68
:1030B000A0EB08000228F6D9EDE6052B06D1D4F8DE
:1030C000903043F00403C4F89030CCE7D4F890205B
:1030D00022F00102C4F89020D4F8902022F00402DB
:1030E000C4F89020002BC4D1FDF7D2FE41F28838FD
:1030F0000646D4F890309907C4D5FDF7C9FE801B69
:103100004045F6D9C7E6FDF7C3FE801B4045B5D95B
:10311000C1E66B6A434C9BB1D4F8983043F001038D
:10312000C4F89830FDF7B4FE0646D4F898309B07F3
:103130003FF573AEFDF7ACFE801B0228F5D9AAE679
:10314000D4F8983023F00103C4F89830FDF7A0FEBE
:103150000646D4F898309F077FF55FAEFDF798FEDE
:10316000801B0228F5D996E62E4CA36803F00C03C9
:103170000C2B3FF401AE2368022A23F080732360F6
:1031800036D1FDF785FE0646236898012AD4AB6B3D
:103190006A6BDB0643EA0223EA6A13432A6B013AAD
:1031A00043EA0213EA6B5208013A43EA42532A6C9B
:1031B0005208013A43EA4263E360236843F08073B4
:1031C0002360E36843F08073E360FDF761FE05462A
:1031D000236899013FF525AEFDF75AFE401B0228F2
:1031E000F6D958E6FDF754FE801B0228CCD952E6EA
:1031F00023681A015EBFE36823F00303E360E3681A
:1032000023F0887323F48033E360FDF741FE054625
:1032100023689B017FF505AEFDF73AFE401B0228AF
:10322000F6D938E600100240007000402DE9F04168
:103230000E46044610B90120BDE8F081404A1368EB
:1032400003F007038B4228D32368D90730D42168C1
:103250008A075AD43A4A136803F007039E425CD3A4
:1032600011F0040F374D63D10B0706D5AB68226907
:1032700023F4605343EAC203AB60FFF711FDAB6870
:10328000314AC3F30313D35CD840304B186000209D
:10329000FDF7D0FD0020BDE8F081136823F007039F
:1032A0000B431360136803F007039942C3D1CBE7C4
:1032B0006268244D032A2B681BD113F0007FBAD01B
:1032C000AB6823F003031343AB60FDF7E1FD41F26C
:1032D00088380746AB68626803F00C03B3EB820FD3
:1032E000B5D0FDF7D5FDC01B4045F3D90320BDE89F
:1032F000F081022A02D113F4003FE0E712B913F083
:10330000020FDCE713F4806FD9E70E4AA0689368D8
:1033100023F0F003034393609CE7136823F0070353
:1033200033431360136803F007039E4283D197E78A
:10333000AB68E26823F4E0631343AB6094E700BF3B
:1033400000200240001002401FFA00082400002064
:10335000014B1868704700BF24000020044B054A49
:103360009B68C3F30223D35C034A1068D8407047BC
:10337000001002402FFA000824000020044B054AE8
:103380009B68C3F3C223D35C034A1068D8407047DC
:10339000001002402FFA000824000020F8B5444B2A
:1033A000DA6812F0030F05460E461C46006839D055
:1033B000DA6802F0030282424BD1002A49D0DB686E
:1033C0006A68C3F302130133934242D1236823F0A6
:1033D00080632360FDF75CFD074623681A0141D432
:1033E000AF68002E45D0012E4FD12269286922F402
:1033F000C002400822F4FE42013842EA072242EAB3
:1034000040522261236843F080632360FDF740FD52
:10341000064623681B0145D52369AA691343236126
:103420000020F8BD022810D0032814D0012810D1A4
:103430001B689F07F5D5E3686A6823F07303013AB8
:10344000184340EA0210E060C0E71B6813F4806F85
:10345000F1D10120F8BD1A689103ECD41B6813F474
:10346000802FF5E7FDF714FDC01B0228B5D9032016
:10347000F8BD2269E96822F07842C90641EA0723CB
:1034800022F4FE4213432361BCE72369686923F0F9
:10349000C063400823F4FE43013843EA072343EAAC
:1034A0004063F0E7FDF7F4FC801B0228B1D9DEE7AA
:1034B000001002402DE9F743056815F40065044645
:1034C0000ED0C16CB1F5000F5BD0B1F5400F5DD0EF
:1034D000002966D10430FFF761FF0546002855D06A
:1034E00023689E036DD5B74EB36DD8005BD4B36D22
:1034F00043F08053B365B36D03F080530193019B98
:103500000127DFF8C482D8F8003043F48073C8F88C
:103510000030FDF7BDFC8146D8F80030D90544D510
:10352000002D49D1D6F8903013F4407314D0626E58
:10353000934211D0D6F89030D6F8902042F48032E1
:10354000C6F89020D6F8902023F4407322F48032FD
:10355000C6F89020C6F89030DA0709D5FDF798FC38
:1035600041F288398046D6F890309B0740F10181BE
:10357000D6F89030626E23F440731343C6F890304F
:103580001AE0904AD36843F48033D3608D4AE16CEB
:10359000D2F8883023F440030B43C2F8883000256A
:1035A0009EE701259CE70027ABE7FDF771FCA0EB48
:1035B00009000228B0D903251FB1B36D23F0805351
:1035C000B3652368DF0708D57E49206AD1F88820D3
:1035D00022F003020243C1F888209E0708D57949EA
:1035E000606AD1F8882022F00C020243C1F88820DA
:1035F000580708D57349A06AD1F8882022F0300214
:103600000243C1F88820190708D56E49E06AD1F84D
:10361000882022F0C0020243C1F888209A0608D50B
:103620006849206BD1F8882022F440620243C1F837
:1036300088209F0508D56349606CD1F8882022F462
:1036400040220243C1F888205E0508D55D49A06C80
:10365000D1F8882022F440120243C1F8882058068D
:1036600008D55849606BD1F8882022F440520243B3
:10367000C1F88820190608D55249A06BD1F88820D6
:1036800022F440420243C1F88820DA0508D54D49AA
:10369000E06BD1F8882022F440320243C1F8882040
:1036A000DF0208D54749206CD1F89C2022F00302A4
:1036B0000243C1F89C209E040FD5424A216DD2F8E6
:1036C000883023F040630B43B1F1006FC2F88830BB
:1036D00057D1D36843F48013D360236818030FD500
:1036E000384A616DD2F8883023F040630B43B1F162
:1036F000006FC2F888304FD1D36843F48013D36091
:10370000236859030FD52F4AA16DD2F8883023F0D2
:1037100040630B43B1F1006FC2F8883047D1D368E2
:1037200043F48013D36023685A0412D52549E26D0F
:10373000D1F8883023F040531343B2F1805FC1F8D1
:10374000883006D10221201DFFF728FE002818BF6F
:1037500005462368DB0308D51A4A216ED2F8883063
:1037600023F000430B43C2F88830284603B0BDE87D
:10377000F083FDF78DFBA0EB080048457FF6F3AE24
:1037800019E7B1F1806FA8D10121201DFFF706FED6
:10379000002818BF0546A0E7B1F1806FB0D1012124
:1037A000201DFFF7FBFD002818BF0546A8E7B1F173
:1037B000806FB8D10121201DFFF7F0FD002818BF50
:1037C0000546B0E700100240007000401A4B4FF46D
:1037D000802210B504465A6123689A68D20402D543
:1037E000DA68D00509D49A68910402D5DA6892059E
:1037F00003D4012384F8213010BD9A68D1040AD57E
:10380000DA68D20507D5DA68D2B262F4C072DA603B
:10381000204606F055FE226893689804DCD5D368EC
:103820009905D9D5D368DBB263F42073D360204601
:1038300006F052FED0E700BF00040140026838B530
:10384000D36823F0A003D3600446FDF721FB0546AF
:103850002368DB689B0601D5002038BDFDF718FB07
:10386000401BB0F57A7FF3D9032038BD38B5036823
:10387000DA685206044601D5002038BD4FF0FF3209
:10388000DA60FDF705FB05462368DB685B06F3D4C9
:10389000FDF7FEFA401BB0F57A7FF5D9032038BD5D
:1038A00038B50446D8B190F8213003F0FF021BB9B7
:1038B00080F8202006F0CEFC022384F82130236813
:1038C000CA225A6253225A622046FFF7CFFF23686A
:1038D000054630B1FF225A62042384F821300125C5
:1038E00031E09A68206922F4E00222F040029A60F6
:1038F000626899680243A06902430A439A60E268D9
:103900001A611A69A16842EA01421A61DA6822F072
:103910008002DA609B689B0605D42046FFF78EFF85
:1039200008B12368D6E723686069DA6C22F00302E5
:10393000DA64E269D96C02430A43DA64FF225A620C
:10394000012384F82130284638BD0023092803D8F4
:1039500040EA0310C0B270470A380133C0B2F5E73D
:10396000F8B590F82030012B06460F464FF00205BF
:1039700033D0012380F82030036880F82150087884
:103980004D788C789B6852BB13F0400308BFCB7016
:10399000FFF7DBFF01462846FFF7D7FF0246204628
:1039A000FFF7D3FFFB7840EA034040EA014040EADA
:1039B00002243368CA225A6253225A623046FFF701
:1039C00055FF33680546B8B1FF225A62042386F8D2
:1039D0002130002386F8203001252846F8BD13F059
:1039E00040034FEA052508BFCB7045EA004020435D
:1039F000CC7840EA0444DCE704F07F3424F0FE4451
:103A00001C609A68386922F480229A60FA68996882
:103A100002430A439A60DA6822F08002DA609B6807
:103A20009B060CD43046FFF709FF40B13368FF22F4
:103A30005A62042386F8213086F82050CCE7336898
:103A4000FF225A62012386F82130002386F82030B5
:103A5000C3E7F8B590F82030012B05464FF0020679
:103A600034D0012380F8203080F821604B78C8786A
:103A70008E780C78002A4ED1DA0603D523F0100395
:103A80000A334B70FFF761FF07464878FFF75DFF89
:103A900002463046FFF759FF40EA443040EA07400B
:103AA00040EA02242B68CA225A6253225A622846EC
:103AB000FFF7DCFE2B68064650B1FF225A62042352
:103AC00085F82130002385F8203001263046F8BDE6
:103AD00024F07F4424F0C0045C60DA6822F08002A5
:103AE000DA609B689B060CD42846FFF7A7FE40B11E
:103AF0002B68FF225A62042385F8213085F8206064
:103B0000E3E72B68FF225A62012385F82130002366
:103B100085F82030DAE71B0243EA0040304340EAF0
:103B20004434BFE790F82030012B2DE9F0470446DC
:103B30004FF0020067D0012384F82030236884F816
:103B40002100087891F801908D7891F82080CE6955
:103B50004F699B68002A58D113F0400308BFCB700F
:103B6000FFF7F3FE82464846FFF7EFFE024628467F
:103B7000FFF7EBFE81464046FFF7E7FECD783E4378
:103B800046EA054545EA090545EA0A4545EA0225AA
:103B900045EA00658B694E681E432368CA225A6253
:103BA00053225A624A6AB2F5807F9A684FD122F452
:103BB00080729A60DA68D2B262F4C072DA60FDF79D
:103BC00067F980462368DF6817F001072ED0DD61B2
:103BD0005E649A6842F480729A609A6842F48052F5
:103BE0009A602C4B1A6842F480221A609A6842F458
:103BF00080229A602368FF225A620020012384F801
:103C0000213084F82000BDE8F08713F0400346EA35
:103C1000070608BFCB70354345EA0045C87845EA3A
:103C2000092545EA004545EA0865B3E7FDF730F99F
:103C3000A0EB0800B0F57A7FC4D92368FF220320E7
:103C40005A6284F8210084F82070BDE8F08722F4DD
:103C500000729A60DA68D2B262F42072DA60FDF71C
:103C600017F980462368DF6817F0020709D01D6244
:103C70009E649A6842F400729A609A6842F4005214
:103C8000AEE7FDF705F9A0EB0800B0F57A7FE9D9BA
:103C9000D3E700BF00040140030903EB830300F0F6
:103CA0000F0000EB4300C0B270470368986A486099
:103CB00070B518691D6805F07F3323F0FE43C0F32B
:103CC0000E001E0C8860C3F3062406F03F0005F0CA
:103CD0007F0506F0400608704C708D70CE7052B9AA
:103CE000FFF7DAFF08702046FFF7D6FF4870284636
:103CF000FFF7D2FF8870002070BD38B503685C689C
:103D000024F07F4323F0C003180CC3F3042504F010
:103D10003F04C3F34233C8704D708C700B7052B9BE
:103D2000FFF7BAFFC8702846FFF7B6FF4870204675
:103D3000FFF7B2FF8870002038BD90F82030012BCB
:103D400070B504464FF0020021D0012384F82030E2
:103D5000236884F82100CA225A6253225A629A6860
:103D600022F480629A609A6822F480429A60FDF799
:103D70008FF806462268D56815F0040508D0FF23A1
:103D800053620020012384F8213084F8200070BDA4
:103D9000FDF77EF8801BB0F57A7FEBD92368FF2210
:103DA00003205A6284F8210084F8205070BD00007E
:103DB0002DE9F04F87B004460D4690469946109F76
:103DC000FDF766F806462DB9A36B43F00063A363C5
:103DD000012010E094F83400C0B2012840F0E980DE
:103DE000E26D08EB090300219342A16306D9A36B9E
:103DF00043F00073A36307B0BDE8F08F032384F89A
:103E000034302068636CC162012B4FF4007118BF1D
:103E10004FEA482801F097F948B12368674A9A6346
:103E2000A36B1843A063012084F83400E3E74FF04C
:103E3000FF3300934FEA49230193049090234FF0FE
:103E4000010A4FF0020B694620680293CDF80CB0CE
:103E5000CDF814A001F065F9D14513D9C4F830B0FC
:103E60004146206801F09FF900283ED02368534A5C
:103E70009A63A36B1843A0630120002384F83400E5
:103E80002363B8E7C4F830A04146206801F073F915
:103E9000EAE71A0416D505F1040805F1240A20689A
:103EA00001F01AF9030A08F8040C08F8033C030CA3
:103EB000000E08F8023C08F8010C08F10408D0458F
:103EC000EDD12035FCF7E4FF801BB8420DD3236809
:103ED0003A4A9A63A36B43F00043A363012384F837
:103EE000343000232363032085E72068436B13F4F9
:103EF000957F436BCDD0DB0509D5B9F1010F06D90C
:103F0000636C032B03D001F097F90028AED123682E
:103F1000596B11F0080106D0284A9A63A36B43F04D
:103F20000803A363A8E75A6B12F002020AD0234ADF
:103F30009A63A36B012043F00203A36384F8340067
:103F4000216358E7596B890625D51C499963A36BF2
:103F5000012043F02003A36384F8340022634AE77E
:103F600001F0BAF8030A05F8040C05F8033C030C49
:103F7000000E05F8023C05F8010CFCF789FF801BD8
:103F8000874205F1040507D823680C4A9A63A36B9E
:103F900043F00043C5E704352068436B13F4001376
:103FA000DED140F23A528263012284F8342018466E
:103FB00021E7A36B43F0005309E700BFFF05400072
:103FC0002DE9F04389B004460E4691461F46109DE8
:103FD000FCF75EFF80462EB9A36B43F00063A3633A
:103FE000012010E094F83400C0B2012840F0B48001
:103FF000E26D09EB070300219342A16306D9A36B8D
:1040000043F00073A36309B0BDE8F083032384F891
:1040100034302068636CC162012B4FF4007118BF0B
:104020004FEA492901F08FF848B123684C4A9A6356
:10403000A36B1843A063012084F83400E3E74FF03A
:10404000FF3302937B020393902304930590069021
:10405000012302A92068079301F063F8012F13D907
:10406000202323634946206801F0CDF8002831D091
:1040700023683B4A9A63A36B1843A0630120002383
:1040800084F834002363BEE7102323634946206885
:1040900001F0A1F8EAE75A040AD506F1200956F81A
:1040A000043B2068019301A901F019F8B145F6D14C
:1040B000FCF7EEFEA0EB0800A8420BD32368284AC9
:1040C0009A63A36BA363012384F834300023236332
:1040D000032098E72068436B13F48D7F436BDAD09D
:1040E000DB0508D5012F06D9636C032B03D001F043
:1040F000A3F80028BCD12368596B11F0080106D041
:10410000174A9A63A36B43F00803A363B6E75A6B9D
:1041100012F002020AD0124A9A63A36B012043F004
:104120000203A36384F8340021636CE7586B10F03A
:1041300010000AD00A499963A36B012043F01003D1
:10414000A36384F8340022635DE740F23A529A6335
:10415000012384F8343056E7A36B43F000533EE765
:10416000FF054000436E9A0F0A70C3F383624A70E2
:10417000C3F301628A70C3F30742CA70C3F3072214
:10418000DBB20A714B71836E1A0DCA80C3F303420E
:104190000A72C3F3C0324A72C3F380328A72C3F325
:1041A0004032CA72C3F300320A7300224A73426C6F
:1041B00010B5002A6BD1C26E40F6FC7404EA83038A
:1041C00043EA92730B61C2F3C2630B75C2F30263DD
:1041D0004B75C2F342538B75C2F38243C2F3C232B2
:1041E000CB750A760B690A7E02F0070202320133B0
:1041F000934043650A7A02F00F040122A2408265CF
:10420000520A5343C3654FF400730366C36EC3F38E
:1042100080324A76C3F3C61203F07F038A76CB76E8
:10422000036FDA0F0A77C3F341724A77C3F38262EE
:104230008A77C3F38352CA77C3F3405281F82020B0
:104240000020C3F3004281F8210081F82220C3F34B
:10425000C03281F82320C3F3803281F82420C3F3D5
:10426000403281F82520C3F3003281F82620C3F3C1
:10427000812281F82720C3F30122C3F3460381F88A
:10428000282081F82930012381F82A3010BD012A25
:104290000FD1B0F86E201B0403F47C1313430B61A1
:1042A0000B6901339B024365C3654FF4007383655B
:1042B000ABE70368054A9A63836B43F080538363DB
:1042C000012380F83430184610BD00BFFF054000C0
:1042D00070B598B000230793089309930A930B9342
:1042E00076230C930AAB044693E807008DE8070099
:1042F00007AB0ECB206800F0D3FE18B1012528468D
:1043000018B070BD2068436823F48073436000F0E8
:10431000EBFE05460028F1D12268536843F4807310
:1043200053600220FCF7BAFD2068069500F0B6FF46
:10433000064670B9206800F0D9FF002873D0A66443
:104340004FF6FF75069B5A1CAB42069208D14FF000
:104350008076012584F83450A16B0E43A663CEE726
:104360000021206800F0FEFF014610B14FF080569A
:10437000EFE7206801F00EF801460028F6D120682A
:1043800000F0CCFE0028DDDA0023636420680123FE
:10439000ADF8163000F0ACFE002800F09580636C9C
:1043A000032B19D0206801F00EF8002864D10146D3
:1043B000206800F0B3FE04216067206800F0AEFEC4
:1043C0000821A067206800F0A9FE0C21E0672068A2
:1043D00000F0A4FEC4F88000636C032B45D1636C2D
:1043E000032B50D10421206800F098FE000DE064FA
:1043F0000DA92046FFF7B6FE0546002861D1226DC3
:1044000003461204206800F031FF002834D104F183
:10441000100393E807008DE80700231D0ECB2068EA
:1044200000F03EFE6BE70123A3644FF6FF75069B89
:104430005A1CAB4206928AD00021206800F092FFFD
:104440000646002885D14FF08041206800F0A2FF89
:10445000064600287FF47DAF0146206800F05EFE2E
:10446000C30FE4D042008FD58FE70DF1160120680D
:1044700000F0D4FF0028B2D0012584F83450A16B9D
:104480000843A0633BE7BDF81610216520680904C6
:1044900000F0AEFF0028EFD10146206800F03EFE9C
:1044A00004216066206800F039FE0821A0662068BB
:1044B00000F034FE0C21E066206800F02FFE20673B
:1044C00090E74FF08050D7E74FF08060D4E710B509
:1044D000044608B9012010BD90F8343003F0FF0203
:1044E00013B9027703F05CFD032384F834302046CF
:1044F000FFF7EEFE0028EDD10123A063206384F8CE
:10450000343010BD436C0B60836C4B60C36C8B60AC
:10451000036DCB60436D0B61836D4B61C36D8B612C
:10452000036ECB6100207047016D10B5090404468D
:10453000006800F0C1FF014628B9206800F0EEFDD8
:10454000C0F3432010BDA36B1943A1630020F7E71C
:1045500038B50546B0B1242380F8713003681A6875
:10456000002422F001021A601C605C609C6006F06E
:1045700065F86C6785F8704085F87140204685F8CD
:10458000724038BD012038BD0268C169F8B50446E3
:10459000836800691568034360690343AF480B43B0
:1045A0002840034313605368E06823F440530343F7
:1045B0005360AB4BA0699A421CBF236A18439368AF
:1045C00023F4306303439360A64B9A4218D103F55A
:1045D0005843A54AD3F8883003F00303B1F5004FE0
:1045E000D35C40F02381082B77D8DFE813F000017B
:1045F000B300E20076001C017600760076003600FB
:104600009A4B9A4207D103F5E633994AD3F888309A
:1046100003F00C03E2E7974B9A4223D103F5E4330E
:10462000D3F8883003F03003102B00F0F9800BD85A
:10463000002B00F0D980B1F5004F4FF001024FF090
:10464000000300F0DE8091E0202B00F0AF80302BE3
:10465000F1D1B1F5004F40F0A1806068430803F547
:104660008033ACE0844B9A421CD103F5E233D3F89B
:10467000883003F0C003402B00F0AF8006D8002B39
:1046800000F0A080764B9A42D5D126E0802B00F036
:104690008A80C02BF6D1724B9A42DAD14FF4004097
:1046A000082315E06E4B9A42C5D103F5C833D3F801
:1046B000883003F44063B3F5806F00F08E80DED95C
:1046C000B3F5006F6FD0B3F5406FE3E76B4802239B
:1046D000626802EB4201814205D901220023236670
:1046E00063661046F8BDB0EB023FF6D8082B2ED813
:1046F000DFE803F0052D1C2D242D2D2D2700FEF7BE
:104700002DFE62684FF4807156080027E1FB0067B8
:10471000002330463946FCF705FA0022584BA0F535
:1047200040719942D9D82368D860D7E755485508D1
:1047300000230021401941F10001ECE7FEF7B0FA37
:10474000DFE750080021002310F50000F3E7012205
:104750000020E3E7FEF712FE4BE0FEF7FFFD626884
:1047600000EB5203B3FBF2F39BB20022A3F1100063
:104770004FF6EF718842B0D82168CB60AEE7FEF704
:10478000FDFDECE76068430803F5740303F510537F
:10479000B3FBF0F3E8E7FEF783FAE0E7606843086D
:1047A00003F50043F4E72E4B9A428FD0B1F5004F4A
:1047B000E8D16068430803F1F47303F59043B3FB59
:1047C000F0F31CE0264B9A420ED1FEF7C7FD002302
:1047D00000287FF47DAF024680E7214B9A421FD12B
:1047E000FEF75EFA0423F3E7B1F5004FB5D1FEF70B
:1047F000B5FD61684A0802EB4003B3FBF1F39BB2DD
:104800000022A3F110004FF6EF7188423FF665AF2A
:1048100023F00F012068C3F342030B43C3605DE73D
:10482000B1F5004FB7D1FEF73BFAE2E7082B3FF6B0
:1048300054AF01A252F823F05B4700087F470008FD
:1048400085470008DB46000897470008DB4600085C
:10485000DB460008DB4600089D470008F369FFEFD0
:10486000008000400038014058F500080044004036
:104870005CF5000800480040004C00400024F400B3
:10488000FFFC0F00000024F4436ADA0710B506D5D8
:104890000168846A4A6822F4003222434A609C0715
:1048A00006D50168C46A4A6822F4803222434A600D
:1048B000590706D50168046B4A6822F48022224316
:1048C0004A601A0706D50168446B4A6822F4004220
:1048D00022434A60DC0606D50168846B8A6822F4AC
:1048E000805222438A60990606D50168C46B8A68A3
:1048F00022F4005222438A605A060FD50168046CE4
:104900004A6822F480122243B4F5801F4A6005D120
:104910004A68446C22F4C00222434A601B0606D552
:104920000268816C536823F400230B43536010BD6D
:104930002DE9F041069D04460F461646984621682B
:10494000CA6937EA02030CBF01220022B24202D038
:104950000020BDE8F0816B1CF2D09DB923681A6875
:1049600022F4D0721A609A6822F001029A60202321
:1049700084F8713084F87230002384F8703003209A
:10498000BDE8F081FCF784FAA0EB08008542D6D29E
:10499000E4E72DE9F3411F4690F87130202B0446DF
:1049A0000D4690464AD1002946D0002A44D090F8BE
:1049B0007030012B42D0012380F870300023436710
:1049C000212380F87130FCF763FAA4F85080064682
:1049D000A4F85280B4F85220009792B2334652B9EC
:1049E00040212046FFF7A4FF58B9202384F87130F6
:1049F00084F8700006E0002280212046FFF798FF2F
:104A000018B1032002B0BDE8F081A3682268B3F5B5
:104A1000805F0DD123695BB935F8023BC3F308030E
:104A20001385B4F85230013B9BB2A4F85230D1E761
:104A30002B7813850135F4E70120E3E70220E1E755
:104A400073B5044600264667FCF722FA23681B6804
:104A50001A07054617D423681B685B070AD56FF051
:104A60007E43009300222B464FF480012046FFF73F
:104A70005FFFA0B92023002084F8713084F8700013
:104A800084F872300CE06FF07E43009332460346A8
:104A90004FF400112046FFF74BFF0028DBD0032026
:104AA00002B070BD10B5044660B390F8713003F0E9
:104AB000FF021BB980F8702005F09CFD22682423BA
:104AC00084F87130136823F0010313602046FFF768
:104AD0005BFD012816D0636A13B12046FFF7D4FEB0
:104AE00023685A6822F490425A609A6822F02A0297
:104AF0009A601A6842F0010220461A60BDE8104030
:104B0000FFF79EBF012010BD2DE9F0430A6892FA1D
:104B1000A2F44FF0010EB4FA84F403250F2732FA01
:104B200004F30DD14B68013B012B06D84368C968DB
:104B300023EA02034A431A4342600120BDE8F0839E
:104B40000EFA04F3134069D0D1F80480D0F8009035
:104B500093FAA3FCBCFA8CFC93FAA3F6B6FA86F699
:104B60004FEA4C0C05FA0CFC760029EA0C0C08FA0A
:104B700006F64CEA0606066008F1FF36012E16D846
:104B8000866893FAA3FCBCFA8CFC93FAA3F94FEA6B
:104B90004C0C05FA0CFC26EA0C0CB9FA89F98E6863
:104BA0004FEA490906FA09F64CEA06068660C66825
:104BB00093FAA3FCBCFA8CFC93FAA3F94FEA4C0CD1
:104BC00005FA0CFC26EA0C0CB9FA89F90E694FEAD1
:104BD000490906FA09F64CEA0606B8F1020FC66062
:104BE0001CD193FAA3F6B6FA86F6072ED1F814C0B4
:104BF00016DCD0F8208093FAA3F6B6FA86F693FA7C
:104C0000A3F3B3FA83F3B60007FA06F69B0028EA8B
:104C100006060CFA03FC46EA0C06066201347EE73F
:104C2000D0F824801B0A93FAA3F6B6FA86F693FA14
:104C3000A3F3B3FA83F3B60007FA06F69B0028EA5B
:104C400006060CFA03F333434362E7E7024B1868A6
:104C5000C0F38020704700BF00100240024BD3F821
:104C60009000C0F34000704700100240024B1868EB
:104C7000C0F3C000704700BF00100240034B044A5D
:104C80009B68C3F30313D35CD84070470010024005
:104C90001FFA0008034B044A9B68C3F30223D35C4A
:104CA000D8407047001002402FFA0008034B044A16
:104CB0009B68C3F3C223D35CD84070470010024006
:104CC0002FFA00081E4AD36803F00303022B10B525
:104CD00034D0032B0BD01B49FFF7C8FF0446F0B9B3
:104CE000FFF7C4FFB0B1136851F8240000E0164884
:104CF000D468D168D368C4F30212C3F341630132AC
:104D00000133B0FBF2F0C1F3062250435B00B0FB6D
:104D1000F3F010BDD2F89440C4F30324E4E7FFF7A6
:104D2000A5FF28B11368C3F3031351F82300DFE78D
:104D3000D2F894301B0903F0F003F6E70348D7E7F5
:104D40000010024038FA000800127A000024F40033
:104D50001B4A936803F00C0310B50C2B0ED8DFE848
:104D600003F00D0D0D0D2D0D0D0D070D0D0D090091
:104D7000144810BDBDE81040FFF7A4BFFFF776FF51
:104D8000114C014658B9FFF771FF18B1136854F878
:104D9000210010BDD2F89410C1F30321F7E7FFF70B
:104DA00065FF28B11368C3F3031354F8230010BD43
:104DB000D2F894301B0903F0F003F6E7034810BD66
:104DC0000010024000127A0038FA00080024F400B3
:104DD000032808B529D12A4B2A4AD3F8883003F092
:104DE000030343F44033934209D0B3F1031F0DD0C2
:104DF000013A934211D1BDE80840FFF7A9BFFFF780
:104E000025FF08B9002008BD1F4808BDFFF726FF91
:104E10000028F7D04FF4004008BDFFF799FFFFF7D7
:104E20002DFFBDE80840FFF741BF0C2817D1144BF8
:104E3000164AD3F8883003F00C0343F4402393421E
:104E4000DDD0B3F10C1FE1D0043A9342D3D0FFF789
:104E50007FFFFFF713FFBDE80840FFF71BBF3028B7
:104E6000D0D1074B0A4AD3F8883003F0300343F41B
:104E700040139342C3D0B3F1301FC7D0103AE4E7D8
:104E800000100240020003000024F40008000C009F
:104E900020003000C02808B501D0002008BD144B08
:104EA000144AD3F8883003F0C00343F4400393421C
:104EB00009D0B3F1C01F0CD0403A934210D1BDE8E5
:104EC0000840FFF745BFFFF7C1FE0028E5D00A48BC
:104ED00008BDFFF7C3FE0028DFD04FF4004008BD37
:104EE000FFF736FFFFF7CAFEBDE80840FFF7D2BE66
:104EF000001002408000C0000024F400114B4FF469
:104F0000FA521B68B3FBF2F241F28833534313F1B8
:104F1000FF3313D3426B12F0450FF8D0436B5B079E
:104F200003D50423836318467047436B13F00103D2
:104F300001D00123F6E7C5228263F4E74FF0004376
:104F4000F1E700BF240000200E4B4FF4FA521B681B
:104F5000B3FBF2F241F28833534313F1FF330DD325
:104F6000426B12F0450FF8D0436B13F0040315BFEA
:104F70000423C52283638263184670474FF00040C4
:104F8000704700BF24000020434B10B51B684FF44E
:104F9000FA54B3FBF4F35A43002A48D0436B13F09E
:104FA000450F02F1FF32F7D0436B5B0703D50423B3
:104FB0008363184610BD436BDC0703D5012383636D
:104FC000012010BD0369DBB29942F9D1C523836387
:104FD00043693248184000285CD0002B2ADB5A0075
:104FE0002BD49C002BD4D9002BD41A012CD45C01D7
:104FF0002DD4D9012ED41A022FD45C0230D49902B8
:1050000031D4DA0232D45C0333D4990334D4DA03D2
:1050100035D41C0436D4590437D49A0438D413F048
:10502000080F14BF4FF400004FF4803010BD4FF054
:10503000004010BD4FF0007010BD402010BD80201A
:1050400010BD4FF4807010BD4FF4007010BD4FF4D0
:10505000806010BD4FF4006010BD4FF4805010BD53
:105060004FF4005010BD4FF4804010BD4FF400408D
:1050700010BD4FF4003010BD4FF4802010BD4FF430
:10508000002010BD4FF4801010BD4FF4001010BD73
:105090004FF4800010BD00BF2400002008E0FFFD99
:1050A00084B010B503AC84E80E000499039B4268F9
:1050B0000B4305990B4306990B4307990B4308993A
:1050C000BDE8104022F4FD420B4322F07F0213435F
:1050D000436004B000207047D0F8800070470B6830
:1050E000C0F8803000207047032303600020704721
:1050F000006800F0030070470B688360C3684A686B
:1051000023F47F6323F00F0313438A681343CA68B1
:1051100013430A691343C36000207047143040589A
:1051200070470B6843624B688362C36A8A6823F0E6
:10513000F7031343CA6813430A6913434A691343C5
:10514000C3620020704730B587B04023039300232B
:10515000054601911024049301A94FF4806305933F
:105160000294FFF7C9FF41F2883221462846FFF733
:105170000BFF07B030BD30B587B040230393002349
:10518000054601911124049301A94FF4806305930E
:105190000294FFF7B1FF41F2883221462846FFF71B
:1051A000F3FE07B030BD30B587B040230393002332
:1051B000054601911224049301A94FF480630593DD
:1051C0000294FFF799FF41F2883221462846FFF703
:1051D000DBFE07B030BD30B587B04023039300231A
:1051E000054601911824049301A94FF480630593A7
:1051F0000294FFF781FF41F2883221462846FFF7EB
:10520000C3FE07B030BD30B587B040230393002301
:10521000054601911924049301A94FF48063059375
:105220000294FFF769FF41F2883221462846FFF7D2
:10523000ABFE07B030BD000030B587B00023054697
:1052400001930C244022049301A94FF4806303923C
:1052500005930294FFF750FF034A21462846FFF7C3
:1052600093FE07B030BD00BF00E1F50530B587B053
:1052700040230393002305460724049301A94FF418
:105280008063019205930294FFF736FF41F2883262
:1052900021462846FFF778FE07B030BD10B586B02E
:1052A0000023019302930393049301A94FF48063B5
:1052B00005930446FFF720FF0B4B4FF4FA521B688F
:1052C000B3FBF2F241F28833534313F1FF3307D3B8
:1052D000626B1206F9D5C523A363002006B010BD8A
:1052E0004FF00040FAE700BF2400002010B586B060
:1052F0004FF4D573019308230293402303930023B3
:10530000049301A94FF4806305930446FFF7F4FE6C
:10531000134B4FF4FA521B68B3FBF2F241F288339D
:10532000534313F1FF3318D3626B12F0450FF8D0DB
:10533000636B5B0703D50420A06306B010BD626BEE
:1053400012F0010201D00120F6E7606B10F040007E
:10535000F3D04023A3631046EFE74FF00040ECE7A3
:105360002400002030B587B0402303930023054676
:1053700001913724049301A94FF4806305930294AB
:10538000FFF7BAFE41F2883221462846FFF7FCFDBE
:1053900007B030BD10B586B02923029341F000411B
:1053A0004023039341F480110023044601910493A8
:1053B00001A94FF480630593FFF79EFE2046FFF797
:1053C000C3FD06B010BD10B586B00023022204460E
:1053D000019302920493C0224FF4806301A90392C7
:1053E0000593FFF789FE2046FFF788FD06B010BD44
:1053F00010B586B009230293C0230393002304460B
:105400000191049301A94FF480630593FFF774FEA3
:105410002046FFF773FD06B010BD000030B587B021
:105420000023032201930292049340224FF48063ED
:105430000D4601A9039205930446FFF75DFE1D4B3F
:105440004FF4FA521B68B3FBF2F241F28833534334
:1054500013F1FF3326D3626B12F0450FF8D0636B64
:10546000580703D50420A06307B030BD636BD9078C
:1054700001D50120F7E72369DBB2032B15D1C52342
:10548000A363636913F4604002D11B0C2B80EBE72C
:105490005A040CD413F4004F14BF4FF480504FF44F
:1054A0008030E1E74FF00040DEE70120DCE74FF419
:1054B0000050D9E72400002030B587B04023039383
:1054C0000023054601910D24049301A94FF4806344
:1054D00005930294FFF710FE41F2883221462846D8
:1054E000FFF752FD07B030BD38B50368DB0704464F
:1054F0000D4601D5002038BDEA686B68016813438A
:105500002A691343AA691343214A0A4013430360DB
:105510004368AA6823F440531343436083686A696D
:1055200023F44073134383601A4B98421AD103202B
:10553000FFF74EFC0028DDD02A68002ADAD0AB69DC
:10554000B3F5004F4FEA52031DD103EB4003B3FB09
:10555000F2F34FF6F0721A40C3F342031343E360D1
:10556000012038BD0C4B984201D10C20E0E70B4BD9
:10557000984201D13020DBE7094B9842BAD1C020D4
:10558000FFF788FCD6E70344B3FBF2F39BB2E6E7F0
:10559000F369FFEF0038014000440040004800403C
:1055A000004C0040034B1A1803EB8003107A5B6831
:1055B0005B6818478C020020064B1A5C42B9012236
:1055C0001A541A1803EB8003107A5B681B6818479B
:1055D000002070478C02002030B4054C251804EBE5
:1055E000800460688468287AA44630BC604700BFA5
:1055F0008C02002030B4054C251804EB8004606850
:10560000C468287AA44630BC604700BF8C020020E2
:10561000054B10B41C1803EB8003207A5B685DF81F
:10562000044B1B69184700BF8C0200204288437856
:10563000007843EA022340EA032070470B0A017016
:1056400043700B0C090E8370C1707047024400F860
:10565000011B9042FBD17047154BF0B500252A463F
:105660001C461E68A6B10768BE4212D15F688668F4
:10567000B7420ED19F684669B7420AD1B1B904EB6F
:1056800002129389B3F5807F14BF00201020F0BD73
:1056900001250132022A03F11003E2D10DB10020ED
:1056A000F0BD02290CBF00201220F0BD1020F0BD7B
:1056B000680200201C4AF0B50568002316461468ED
:1056C000AC4207D157688468A74203D19768446900
:1056D000A7421DD00133022B02F11002EFD1336833
:1056E00013B13369EBB901231C01321935518468B8
:1056F0004069906000205460908179B906EB0312F4
:105700009289013292B206EB0316581CB281F0BDA9
:105710000029F3D006EB0312928912B94FF480727C
:10572000F1E70020F0BD00BF680200200138012829
:105730000ED8094A0301D118898921F4807080B2FA
:1057400008B1481E80B2D118888118B9D05070476E
:105750000220704700207047680200204369023928
:10576000023B99423DBF4389806A01FB0300002050
:105770007047C36A02680433490A5289B1FBF2F1E7
:10578000186830B1814202D3091A0833F8E7586823
:105790000844704703685A1C02601A7890B2A0F15E
:1057A0006103192B02D8203880B270477F2882BF4E
:1057B000024B9B1813F8800C704700BF69F5000876
:1057C000F0B585B004AC054644F80C1D1E461146E4
:1057D00021B92B785BB956B1012006E02046FFF7CE
:1057E000D9FF01390028F3D1002005B0F0BD04AC89
:1057F000019B44F8043D0295029B1B783F2B01D08E
:105800002A2B1DD100231A460299481C02900C78BD
:1058100049783F2C0CBF013201233F29F4D02A29BB
:10582000F2D00399FFF7CCFF0028D5D1039B19785C
:1058300001A8FFF7AFFF002ED6D00029D7D1D3E7BC
:1058400002A8FFF7A7FF07462046FFF7A3FF8742FE
:105850000146EDD1002FCFD1BEE7026810B552B19D
:1058600011460B4611F8014B202C0CD93A2CF8D1DB
:10587000511C8B4202D04FF0FF3010BD1278302AFD
:10588000F9D101330360002010BD38B50D46044640
:1058900018B900232B60092038BD0368002BF8D00D
:1058A0001A78002AF5D0D98882889142F1D15878A7
:1058B000FFF778FE10F00100EBD123682B6038BDB4
:1058C00001380A4411F8013B00F8013F9142F9D137
:1058D0007047CA7E8B7E032843EA022301BF487DBE
:1058E0000A7D42EA002243EA024318467047C2F3A7
:1058F00007238A76CB760378032B01BF120C0A7537
:10590000120A4A757047F8B5046A0023651E1846E6
:105910002E2615F8012F202A00F101000AD0052AB1
:1059200008BFE522092802BFCF1801337E72CF18C5
:1059300001337A720B28ECD10B4400225A72E37ABD
:105940000B7204F11C00FFF771FE086004F11600F1
:10595000FFF76CFEC880000C8880F8BDF8B5C56AFA
:1059600000F13007044601232A4639464078FFF704
:1059700041FEA0B9236AA269E070EB1A934201D3F9
:105980000020F8BDA678012EFAD9A36960781D44DD
:105990002A4601233946FFF72DFE013EF3E7012099
:1059A000F8BDC3780BB1FFF7D9BF18467047F8B5FB
:1059B0000446FFF7F6FF0546002842D12378032B63
:1059C00037D12779012F34D104F1300601464FF445
:1059D00000723046FFF73AFE552384F82E32AA2390
:1059E00084F82F3252234122722184F8303084F817
:1059F0003130612384F8323084F8332084F8162261
:105A000084F8173284F8141284F8151204F506701D
:105A10002169FFF713FEE16804F50770FFF70EFE3A
:105A2000E26960780132E2623B463146FFF7E2FD0F
:105A30002571002211466078FFF7EAFD003018BF9B
:105A40000120F8BDC36A8B4270B506460D4612D0E0
:105A5000FFF7A7FF044660B92A46012306F130018B
:105A60007078FFF7B9FD00281CBF4FF0FF35012407
:105A7000F562204670BD0024FBE70000002310B54E
:105A8000C3704FF0FF33C3620446FFF7DBFF30BB48
:105A900094F82F2294F82E3243EA02234AF6552234
:105AA00093421ED194F83030E92B05D0236B104A75
:105AB00003F0FF13934216D104F16600FFF7B6FD21
:105AC0000C4B20F07F4098420FD004F18200FFF78A
:105AD000ADFD094B984214BF0220002010BD0420E8
