:020000040800F2
:1000000000800220D51B0008C11A0008C31A00088E
:10001000C51A0008C71A0008C91A00080000000025
:10002000000000000000000000000000CB1A0008E3
:10003000CD1A000800000000CF1A0008D11A0008ED
:10004000251C0008251C0008251C0008251C00088C
:10005000251C0008251C0008251C0008251C00087C
:10006000251C0008251C0008D51A0008251C0008BE
:10007000251C0008251C0008251C0008251C00085C
:10008000251C0008251C0008251C0008251C00084C
:10009000251C0008251C0008251C0008E91A00087A
:1000A000251C0008251C0008251C0008251C00082C
:1000B000251C0008251C000800000000251C000865
:1000C000251C0008251C0008251C0008251C00080C
:1000D000251C0008151B0008171B0008251C00081C
:1000E000251C0008251C000800000000000000007E
:1000F0000000000000000000000000000000000000
:1001000000000000251C000800000000251C00085D
:10011000251C000800000000251C0008000000004D
:10012000251C0008251C0008251C0008251C0008AB
:10013000251C0008251C0008251C000800000000E4
:10014000251C0008191B0008251C0008251C000898
:10015000251C0008251C0008251C0008251C00087B
:10016000251C0008251C0008251C000800000000B4
:1001700000000000251C0008000000000000000036
:10018000251C0008251C0008251C0008251C00084B
:04019000251C000822
:1001A00010B5054C237833B9044B13B10448AFF3B1
:1001B00000800123237010BD7400002000000000A7
:1001C0007C2A000808B5034B1BB103490348AFF371
:1001D000008008BD00000000780000207C2A000894
:1001E00001F0FF01102A2BDB10F0070F08D010F8E8
:1001F000013B013A8B422DD010F0070F42B3F6D1EC
:10020000F0B441EA012141EA014122F007047FF004
:1002100000070023F0E80256083C85EA010586EA5B
:10022000010685FA47F5A3FA87F586FA47F6A5FA97
:1002300087F68EB9EED1F0BC01F0FF0102F00702A3
:1002400032B110F8013B013A83EA010313B1F8D14E
:100250000020704701387047002D06BF354603382F
:10026000073815F0010F07D1013015F4807F02BF68
:10027000013015F4C03F0130F0BC0138704700BFB9
:1002800038B50F4B0546186808B9012038BD0D4A2E
:100290004FF47A73B3FBF0F31068B0FBF3F000F0A7
:1002A00091F804460028F0D10F2DEED802462946D9
:1002B0004FF0FF3000F052F8034B20461D6038BD70
:1002C000000000200C0000200400002010B50320D6
:1002D00000F032F80020FFF7D3FF044618B901F010
:1002E000D7FB204610BD0124FBE70000034A044968
:1002F000136809680B441360704700BFA00000201A
:1003000000000020014B1868704700BFA0000020CB
:1003100038B50446FFF7F6FF631C1CBF054B1B688E
:10032000054618BFE418FFF7EDFF401B8442FAD8DA
:1003300038BD00BF00000020074AD36823F4E06303
:100340001B041B0C43F0BF63000243F4003300F4B2
:10035000E0600343D360704700ED00E0174B30B519
:10036000DC68C4F30224C4F10703251D042B28BF55
:100370000423062D4FF0010505FA03F303F1FF33C3
:100380008CBF033C00241940A14005FA04F4013C51
:100390002240002842EA01024FEA0212ADBF00F1FA
:1003A000604000F00F00064B00F56140B5BFD2B2CF
:1003B000D2B21A5480F8002330BD00BF00ED00E037
:1003C00014ED00E00138B0F1807F0AD2064B074AF5
:1003D0005860F02182F823100020072298601A60EC
:1003E00070470120704700BF10E000E000ED00E022
:1003F00043690B4214BF81628161704703689A6947
:10040000910744BF00229A629A69D2075EBF9A6937
:1004100042F001029A61704730B5039C056823439E
:10042000640D04F4806444F07F7444F458346868C4
:10043000C1F3090144F47F74194344F0030441EA11
:10044000024120EA04042143696030BD2DE9F041F6
:10045000069F0446884616461D462268936938EA78
:1004600003030CBF01230023B34202D00020BDE8E8
:10047000F0816B1CF2D0FFF745FFC01B854201D312
:10048000002DEAD1636C43F020036364202384F8D9
:100490004130002384F8423084F840300120BDE828
:1004A000F081036870B50446986910F010000D469D
:1004B000164616D170BD691C14D0FFF723FF801BB0
:1004C000854200D36DB9636C43F02003636420233D
:1004D00084F84130002384F8423084F84030012011
:1004E00070BD236899698A06E5D510222025DA6156
:1004F0002046DD61FFF782FF2268536823F0FF7317
:1005000023F48B3323F4FF7323F001035360636CF4
:1005100043F00403636484F84150DBE770B504469C
:100520000D46164623689B699B0701D5002070BDC8
:10053000324629462046FFF7B4FFA0B96A1CF1D025
:10054000FFF7E0FE801B854201D3002DEAD1636CEA
:1005500043F020036364202384F84130002384F8AF
:10056000423084F84030012070BD70B504460D461D
:10057000164623689B699B0601D5002070BD324654
:1005800029462046FFF78DFF90B9FFF7BBFE801B81
:10059000854201D3002DECD1636C43F020036364EA
:1005A000202384F84130002384F8423084F840301E
:1005B000012070BD70B504460D46164623689B6940
:1005C0005B070ED4324629462046FFF76AFFF0B992
:1005D00023689A6991061CD59A69520703D5228D22
:1005E0000AB1002070BD2021D9615A6822F0FF7243
:1005F00022F48B3222F4FF7222F001025A600023AF
:10060000636484F8411084F8423084F8403001205B
:1006100070BDFFF777FE801B854201D3002DCDD141
:10062000636C43F020036364202384F8413000238B
:10063000EBE700002DE9F743984690F84130202B76
:1006400004460E46914640F0848090F84030012BDD
:100650007FD0012780F84070FFF754FE192305462C
:1006600000903A464FF400412046FFF7EFFE18B1E4
:10067000012003B0BDE8F083212384F8413010232A
:1006800084F842306064A4F82A80638DC4F8249012
:100690009BB2FF2B6063304B26D9FF22228500934B
:1006A0004FF0807331462046FFF7B6FE638D0A99FE
:1006B0009BB22A462046FBB9FFF757FF0028D7D147
:1006C00023682021D9615A6822F0FF7222F48B320C
:1006D00022F4FF7222F001025A6084F8411084F87B
:1006E000400084F84200C4E7628D009392B22285F4
:1006F0004FF00073D2B2D5E7FFF710FF0028B7D153
:10070000636A226813F8011B91626362638D228D14
:10071000013B9BB26385638D013A92B29BB2228505
:10072000002BC3D0002AC1D100950A9B802120460E
:10073000FFF78CFE00289BD1638D9BB2FF2B03D962
:10074000FF2222850090ABE7628D009092B2228555
:10075000CEE702208DE700BF002000802DE9F7439F
:10076000984690F84130202B04460E46914640F0C2
:10077000868090F84030012B00F08180012780F8BE
:100780004070FFF7BFFD1923054600903A464FF42D
:1007900000412046FFF75AFE18B1012003B0BDE822
:1007A000F083222384F84130102384F842306064BF
:1007B000A4F82A80638DC4F824909BB2FF2B606359
:1007C000304B26D9FF22228500934FF080733146AB
:1007D0002046FFF721FE638D0A999BB22A462046E8
:1007E000FBB9FFF7C2FE0028D7D123682021D961C9
:1007F0005A6822F0FF7222F48B3222F4FF7222F048
:1008000001025A6084F8411084F8400084F84200E4
:10081000C4E7628D009392B222854FF00073D2B28A
:10082000D5E7FFF7C7FE0028B7D12268636A526A8E
:100830001A70636A228D01336362638D013B9BB240
:100840006385638D013A92B29BB22285002BC2D0A0
:10085000002AC0D100950A9B80212046FFF7F6FDB3
:1008600000289AD1638D9BB2FF2B03D9FF222285EA
:100870000090AAE7628D009092B22285CDE7022017
:100880008CE700BF002400807047704770477047B6
:1008900070477047704703681A68D10710B504465F
:1008A00006D59A68D20703D501225A60FFF7ECFFFC
:1008B00023681A68900707D59A68910704D5022221
:1008C0005A602046FFF7E1FF23681A68520707D5F0
:1008D0009A68500704D504225A602046FFF7D6FFD5
:1008E00023681A68110707D59A68120704D50822E9
:1008F0005A602046FFF7CBFF23681A68D00607D559
:100900009A68D10604D510225A602046FFF7C0FF2E
:1009100023681A68920607D59A68900604D52022A3
:100920005A602046FFF7B5FF23681A68510607D5BD
:100930009A68520604D540225A602046FFF7AAFF63
:1009400010BD0000024A136843F4807313607047BF
:1009500000700040024B186800F4C060704700BF90
:1009600000700040174B1A68B0F5007F02F4C062B7
:100970001CD1B2F5007F15D01A6822F4C06242F48F
:1009800000721A60104A116832224A430F49B2FBC2
:10099000F1F2194601325869400500D522B94B6978
:1009A0005B050DD400207047013AF4E7B2F5806F83
:1009B0001FBF1A6822F4C06242F480621A60F1E735
:1009C00003207047007000400C00002040420F00E0
:1009D0000B4A136823F0070343F002031360094B2B
:1009E0001A69012842F004021A6105D130BF1A6960
:1009F00022F004021A61704740BF20BF20BFF6E713
:100A00000070004000ED00E037B51E4DAB6DDA0020
:100A1000044618D5FFF79EFFB0F5007F23D1802C48
:100A200029D9A02C8CBF02200120174A136823F07B
:100A3000070303431360136803F00703181A18BF72
:100A4000012003B030BDAB6D43F08053AB65AB6D9F
:100A500003F080530193019BFFF77CFFAB6D23F004
:100A60008053AB65D8E7802C07D808D0A4F1700379
:100A700058425841D9E70020D7E70320D5E70220A4
:100A8000D3E700BF0010024000200240224B9A68CA
:100A9000D96812F00C0205D00C2A15D101F003011F
:100AA000012918D119681D48090755BFD3F89410BA
:100AB0001968C1F30321C1F3031150F821004AB3AF
:100AC0000C2A09D000207047042A22D0082A144892
:100AD00018BF002070470020DA6802F00302022AE3
:100AE00015D00F49032A08BF0846DA68D968DB68C1
:100AF000C3F34163C1F30621C2F302120133484339
:100B000001325B00B0FBF2F0B0FBF3F07047054838
:100B1000EBE70448704700BF00100240BC2A000801
:100B200000127A000024F4002DE9F743054608B9C5
:100B3000012047E09F4C0368A668E768DB0606F0E3
:100B40000C0607F0030775D51EB10C2E54D1012FEA
:100B500052D12368980702D5AB69002BE8D02368EF
:100B6000286A190756BFD4F8943023681B0903F08C
:100B7000F003834229D2FFF747FF0028D8D123682A
:100B800043F00803236023682A6A23F0F003134329
:100B900023606368EA6923F47F4343EA02236360C6
:100BA000FFF774FFA368844AC3F30313D35C03F015
:100BB0001F03D840814B1860814B1868FFF760FB1A
:100BC000002837D003B0BDE8F083236843F0080362
:100BD0002360236823F0F003034323606368EA691A
:100BE00023F47F4343EA02236360002ED8D1FFF74A
:100BF0000BFF0028D4D09BE7AB69002B3AD02368C9
:100C000043F001032360FFF77DFB804623689A07CA
:100C100028D5236843F00803236023682A6A23F059
:100C2000F003134323606368EA6923F47F4343EAD4
:100C3000022363602B68D8072DD42B6899076BD4E7
:100C40002B68180700F1A0802B68590700F1CE80AF
:100C50002B68980600F13781AB6A002B40F05D816C
:100C60000020AFE7FFF74EFBA0EB08000228CDD92C
:100C70000320A7E7236823F001032360FFF742FB6B
:100C8000804623689B07D5D5FFF73CFBA0EB080007
:100C90000228F6D9ECE7082E03D00C2E08D1032F3A
:100CA00006D123689A03C8D56B68002BC5D13FE7EE
:100CB0006B68B3F5803F10D1236843F48033236021
:100CC000FFF720FB804623689B03B6D4FFF71AFB8F
:100CD000A0EB08006428F6D9CAE7B3F5A02F04D129
:100CE000236843F480232360E6E7226822F48032FD
:100CF0002260226822F480222260002BE0D1FFF7DC
:100D000001FB80462368980397D5FFF7FBFAA0EB19
:100D100008006428F6D9ABE7042E03D00C2E10D1BE
:100D2000022F0ED12368590503D5EB68002B3FF441
:100D3000FFAE63682A6923F0FE4343EA02636360FF
:100D40007EE7EB687BB1236843F480732360FFF791
:100D5000D9FA074623685A05EBD4FFF7D3FAC01B2C
:100D60000228F7D984E7236823F480732360FFF710
:100D7000C9FA074623685B057FF562AFFFF7C2FA41
:100D8000C01B0228F6D973E76B69DBB1D4F8943045
:100D900043F00103C4F89430FFF7B4FA0746D4F8DF
:100DA00094309A073FF550AFFFF7ACFAC01B02280A
:100DB000F5D95DE700100240A92A00080C000020C8
:100DC00004000020D4F8943023F00103C4F89430D8
:100DD000FFF798FA0746D4F894309B077FF534AFB5
:100DE000FFF790FAC01B0228F5D941E7A36DDF0099
:100DF00029D4A36D43F08053A365A36D03F0805302
:100E00000193019B4FF001089A4F3B68D8051DD50F
:100E1000AB68012B2BD1D4F8903043F00103C4F818
:100E20009030FFF76FFA41F288390746D4F89030D6
:100E30009A0742D5B8F1000F3FF40AAFA36D23F033
:100E40008053A36504E74FF00008DDE73B6843F4F7
:100E500080733B60FFF756FA81463B68D905D7D4CB
:100E6000FFF750FAA0EB09000228F6D900E7052B9E
:100E700006D1D4F8903043F00403C4F89030CAE7A8
:100E8000D4F8902022F00102C4F89020D4F89020E9
:100E900022F00402C4F89020002BC2D1FFF732FAEE
:100EA00041F288390746D4F890309B07C2D5FFF746
:100EB00029FAC01B4845F6D9DAE6FFF723FAC01B2A
:100EC0004845B3D9D4E66B6A9BB1D4F8983043F067
:100ED0000103C4F89830FFF715FA0746D4F89830A4
:100EE00099073FF5B9AEFFF70DFAC01B0228F5D9F7
:100EF000BEE6D4F8983023F00103C4F89830FFF729
:100F000001FA0746D4F898309A077FF5A5AEFFF7A7
:100F1000F9F9C01B0228F5D9AAE6022B40F0888017
:100F2000E368EA6A03F00301914222D1296B03F0DE
:100F300070020139B2EB011F1BD1696B03F4FE4251
:100F4000B2EB012F15D1A96B03F07842B2EBC16F60
:100F50000FD1EA6B520803F4C001013AB1EB425FD2
:100F600007D12A6C520803F0C063013AB3EB426F19
:100F700045D00C2E3FF4DCAD23685B013FF5D8ADC6
:100F8000236823F080732360FFF7BCF906462368CB
:100F90009F012ED4E268384B1340EA6A13436A6B10
:100FA00043EA0223AA6B43EAC2632A6B013A43EA8B
:100FB0000213EA6B5208013A43EA42532A6C520880
:100FC000013A43EA4263E360236843F0807323609D
:100FD000E36843F08073E360FFF794F90546236804
:100FE0009E013FF53DAEFFF78DF9401B0228F6D973
:100FF0003EE6FFF787F9801B0228C8D938E6236848
:1010000098013FF52DAE236843F080732360E368B9
:1010100043F08073E360FFF775F905462368990193
:101020003FF51EAEFFF76EF9401B0228F6D91FE60A
:101030000C2E3FF47DAD236823F08073236023687A
:101040001A015EBFE36823F00303E360E36823F063
:10105000887323F48033E360FFF754F9054623686F
:101060009B017FF5FDADFFF74DF9401B0228F6D936
:10107000FEE500BF007000408C809D012DE9F0412D
:101080000E46044610B90120BDE8F081414A1368BC
:1010900003F007038B422AD32368D90732D421688F
:1010A0008A075CD43B4A136803F007039E425ED371
:1010B00011F0040F384D65D10B0706D5AB682269D6
:1010C00023F4605343EAC203AB60FFF7DFFCAB6875
:1010D000324AC3F30313BDE8F041D35C03F01F03AE
:1010E000D8402F4B18602F4B1868FFF7C9B813680A
:1010F00023F007030B431360136803F007039942BF
:10110000C1D1C9E76268244D032A2B681BD113F0B3
:10111000007FB8D0AB6823F003031343AB60FFF745
:10112000F1F841F288380746AB68626803F00C03B7
:10113000B3EB820FB3D0FFF7E5F8C01B4045F3D9FE
:101140000320BDE8F081022A02D113F4003FE0E75A
:1011500012B913F0020FDCE713F4806FD9E70E4ADF
:10116000A068936823F0F003034393609AE7136841
:1011700023F0070333431360136803F007039E4211
:1011800081D195E7AB68E26823F4E0631343AB6079
:1011900092E700BF0020024000100240A92A000888
:1011A0000C00002004000020F8B5444BDA6812F06F
:1011B000030F05460E461C46006839D0DA6802F077
:1011C000030282424BD1002A49D0DB686A68C3F32C
:1011D00002130133934242D1236823F080632360DA
:1011E000FFF790F8074623681A0141D4AF68002E34
:1011F00045D0012E4FD12269286922F4C00240084F
:1012000022F4FE42013842EA072242EA40522261B9
:10121000236843F080632360FFF774F80646236871
:101220001B0145D52369AA69134323610020F8BD3A
:10123000022810D0032814D0012810D11B689F0762
:10124000F5D5E3686A6823F07303013A184340EA6E
:101250000210E060C0E71B6813F4806FF1D1012039
:10126000F8BD1A689103ECD41B6813F4802FF5E7DE
:10127000FFF748F8C01B0228B5D90320F8BD226942
:10128000E96822F07842C90641EA072322F4FE42C7
:1012900013432361BCE72369686923F0C0634008F6
:1012A00023F4FE43013843EA072343EA4063F0E7AF
:1012B000FFF728F8801B0228B1D9DEE700100240B2
:1012C0002DE9F743056815F4006504460ED0C16C9E
:1012D000B1F5000F53D0B1F5400F55D000295ED1C4
:1012E0000430FFF761FF054600284DD023689E03B8
:1012F00063D5B84EB36DD80040F160810027DFF8A8
:10130000D882D8F8003043F48073C8F80030FEF774
:10131000F9FF8146D8F80030D90542D5002D47D1D4
:10132000D6F8903013F4407314D0626E934211D00B
:10133000D6F89030D6F8902042F48032C6F890204B
:10134000D6F8902023F4407322F48032C6F890201F
:10135000C6F89030DA0709D5FEF7D4FF41F2883994
:101360008046D6F890309B0740F1FF80D6F8903049
:10137000626E23F440731343C6F8903018E0954A28
:10138000D36843F48033D360924AE16CD2F888305A
:1013900023F440030B43C2F888300025A6E701255B
:1013A000A4E7FEF7AFFFA0EB09000228B2D903259E
:1013B0001FB1B36D23F08053B3652368DF0708D5F1
:1013C0008449206AD1F8882022F003020243C1F840
:1013D00088209E0708D57F49606AD1F8882022F0CE
:1013E0000C020243C1F88820580708D57949A06A41
:1013F000D1F8882022F030020243C1F88820190772
:1014000008D57449E06AD1F8882022F0C00202436E
:10141000C1F888209A0608D56E49206BD1F888203B
:1014200022F440620243C1F888209F0508D569492B
:10143000606CD1F8882022F440220243C1F8882051
:101440005E0508D56349A06CD1F8882022F44012CB
:101450000243C1F88820580608D55E49606BD1F870
:10146000882022F440520243C1F88820190608D58A
:101470005849A06BD1F8882022F440420243C1F8B9
:101480008820DA0508D55349E06BD1F8882022F48A
:1014900040320243C1F88820DF0208D54D49206C54
:1014A000D1F89C2022F003020243C1F89C209E0444
:1014B0000FD5484A216DD2F8883023F040630B43A2
:1014C000B1F1006FC2F8883057D1D36843F480136C
:1014D000D360236818030FD53E4A616DD2F8883077
:1014E00023F040630B43B1F1006FC2F888304FD155
:1014F000D36843F48013D360236859030FD5354A6A
:10150000A16DD2F8883023F040630B43B1F1006F36
:10151000C2F8883047D1D36843F48013D36023687E
:101520005A0412D52B49E26DD1F8883023F040538C
:101530001343B2F1805FC1F8883006D10221201D2B
:10154000FFF732FE002818BF05462368DB0308D5E5
:10155000204A216ED2F8883023F000430B43C2F8B2
:101560008830284603B0BDE8F083FEF7CBFEA0EB41
:10157000080048457FF6F5AE19E7B1F1806FA8D1B4
:101580000121201DFFF710FE002818BF0546A0E727
:10159000B1F1806FB0D10121201DFFF705FE0028B9
:1015A00018BF0546A8E7B1F1806FB8D10121201D11
:1015B000FFF7FAFD002818BF0546B0E7B36D43F00A
:1015C0008053B365B36D03F080530193019B0127F2
:1015D00095E600BF0010024000700040084B82B04A
:1015E0001B680193019B064B411C18BF013008B9D1
:1015F00002B070471A68D20348BF00F1FF30F6E727
:1016000010E000E0F7B505460E4666246427009713
:1016100001233246D6212846FFF70CF860B966242C
:101620006427009701233246D7212846FFF796F812
:1016300028B1013CF5D101E0013CE8D1012003B023
:10164000F0BD0000064B984207D0064A064B0749FA
:1016500088420CBF1846104670470548704700BFC7
:10166000345F00207C5E00206C5E00209C5E0020C9
:10167000725E0020F0B585B004AD282305F8043D66
:101680000E4607462946FFF7BDFF2923294638465F
:101690009DF80C408DF80C30FFF7B4FF9DF80C302E
:1016A00044EA032434802A23294638468DF80C3036
:1016B000FFF7A8FF2B23294638469DF80C408DF8EC
:1016C0000C30FFF79FFF9DF80C3044EA0324748030
:1016D0002C23294638468DF80C30FFF793FF2D2335
:1016E000294638469DF80C408DF80C30FFF78AFFEC
:1016F0009DF80C301A4844EA03241A4BD3ED006AD3
:10170000B6F9003007EE103AB8EEC77AB6F90230F3
:1017100027EE267A24B2FDEEC77A07EE103AB8EE2D
:10172000C77ACDED017A27EE267ABDF90410318013
:10173000FDEEC77ACDED017A07EE904AF8EEE77A32
:10174000BDF90420728067EEA67AFDEEE77ACDED52
:10175000017ABDF90430B38000F098FA05B0F0BD0D
:10176000942A0008785E0020F7B505460E466624E8
:10177000642700970123324632212846FEF75AFF9C
:1017800060B9662464270097012332463321284636
:10179000FEF7E4FF38B1013CF5D101E0013CE8D1AE
:1017A00000F03EF9012003B0F0BD0000064B984266
:1017B00007D0064A064B074988420CBF1846104618
:1017C00070470548704700BF345F0020965E0020D8
:1017D000845E00209C5E0020905E0020F0B585B005
:1017E00004AD282305F8043D0E4607462946FFF7B9
:1017F000BBFF2923294638469DF80C408DF80C3054
:10180000FFF7B2FF9DF80C3044EA032434802A230A
:10181000294638468DF80C30FFF7A6FF2B232946C2
:1018200038469DF80C408DF80C30FFF79DFF9DF871
:101830000C3044EA032474802C23294638468DF862
:101840000C30FFF791FF2D23294638469DF80C40B8
:101850008DF80C30FFF788FF9DF80C301A4844EAE9
:1018600003241A4BD3ED006AB6F9003007EE103AA4
:10187000B8EEC77AB6F9023027EE267A24B2FDEE2A
:10188000C77A07EE103AB8EEC77ACDED017A27EEA7
:10189000267ABDF904103180FDEEC77ACDED017ACC
:1018A00007EE904AF8EEE77ABDF90420728067EE01
:1018B000A67AFDEEE77ACDED017ABDF90430B3806A
:1018C00000F0E4F905B0F0BD942A00088C5E002019
:1018D000064B9A6D42F080529A659B6D82B003F080
:1018E00080530193019B02B0704700BF001002407B
:1018F00010B5B0B04422002105A800F0BFF91422B1
:101900000021684600F0BAF96822002116A800F00C
:10191000B5F9FFF717F82E4AD2F8903023F01803E4
:10192000C2F8903001220D23059307924FF48033C3
:101930000A9211920822069303240223129205A808
:1019400007220F931094139214931593FFF7ECF85A
:1019500008B100F09BF80F238DE818000121002446
:101960006846029403940494FFF788FB08B100F0E2
:101970008DF8184B16934FF080532D934FF48073CE
:101980002F934FF080632A932B9303231793012304
:1019900018930C23199307231A9302231B931C9368
:1019A00016A84FF088731E941F94249425942694AF
:1019B00027941D93FFF784FC08B100F067F84FF4FB
:1019C0000070FEF7CFFF08B100F060F830B010BD36
:1019D0000010024083631A0008B50120FEF7F8FFEB
:1019E000BDE80840FFF784BF0138012810B50DD9C4
:1019F00000F01AF9092303604FF0FF3010BDC469ED
:101A00002406FCD513F8014B048502E0034B18684B
:101A10000B465C1A9442F2DB002010BD0800002047
:101A20004FF400510148FEF7E3BC00BF0008004836
:101A300008B5FEF74BFCFFF75BFF4FF47A70FEF73B
:101A400067FCFFF745FFFFF7C7FF0D4D0D4C0E4E2E
:101A50002B7833B12046FFF7A9FE01462046FFF759
:101A6000BDFE337833B12046FFF7ECFD014620463A
:101A7000FFF700FEFFF7D4FF6420FFF7AFFDE7E7B5
:101A8000900000209C5E0020910000207047000024
:101A90000A4B1A6E42F001021A661A6E82B002F008
:101AA00001020092009A9A6D42F080529A659B6DF5
:101AB00003F080530193019B02B070470010024075
:101AC0007047FEE7FEE7FEE7FEE7704770477047A6
:101AD000FEF70CBC034B5A69D20644BF10225A6170
:101AE000704700BF00040140094B5A69900609D4B1
:101AF0005A69510609D45A69920502D54FF4007209
:101B00005A61704720225A61F2E740225A61F2E797
:101B100000040140704770470148FEF7BCBE00BF9B
:101B2000805F002070B50E4615460C46A31B9D42F3
:101B300001DC284670BDAFF3008004F8010BF5E727
:101B400008B50A4B1968024609B9094919601868AD
:101B5000694602448A4206D900F066F80C23036005
:101B60004FF0FF3008BD1A6008BD00BF9400002090
:101B7000BC5F00204FF0FF3070474FF400534B60C4
:101B80000020704701207047002070470F49D1F8AE
:101B9000883043F47003C1F888300D4B1A68002078
:101BA00042F001021A6098601A6822F0A85222F4EA
:101BB00010221A604FF48052DA601A6822F48022F0
:101BC0001A6098614FF000638B60704700ED00E091
:101BD00000100240DFF834D0002103E00C4B5B58CA
:101BE000435004310B480C4B42189A42F6D30B4A2F
:101BF00002E0002342F8043B094B9A42F9D3FFF775
:101C0000C5FF00F017F8FFF713FFFEE70080022082
:101C10008C2B0008000000207400002074000020BD
:101C2000BC5F0020FEE70000014B1868704700BF52
:101C30001000002070B50D4E0D4CA41BA410002503
:101C4000A54209D10B4E0C4C00F018FFA41BA410A8
:101C50000025A54205D170BD56F8253098470135BD
:101C6000EEE756F8253098470135F2E7842B000857
:101C7000842B0008842B0008882B000802440346AC
:101C8000934200D1704703F8011BF9E70FB40A4BE8
:101C900013B51C6824B1A36913B9204600F0C0F93C
:101CA00005AB049AA1680193204600F07DFB02B0C9
:101CB000BDE8104004B0704710000020F8B50E4693
:101CC0001446054618B183690BB900F0A9F9214BF8
:101CD0009C422AD16C68A369A360A3891A072ED5F8
:101CE000236963B323692068C01A6369F6B2984216
:101CF000374604DB2146284600F028F928BBA368B4
:101D0000013BA36023685A1C22601E706369013086
:101D1000984204D0A389DB0719D50A2E17D1214692
:101D2000284600F013F990B10FE00B4B9C4201D113
:101D3000AC68D0E7094B9C4208BFEC68CBE7214672
:101D4000284600F00DF80028CCD04FF0FF37384679
:101D5000F8BD00BF102B0008302B0008F02A000847
:101D6000324B70B51D6806460C4625B1AB6913B9F8
:101D7000284600F055F92E4B9C420FD16C68B4F9FF
:101D80000C309AB215072CD4D00611D40922326037
:101D900043F04003A3814FF0FF3070BD254B9C42C0
:101DA00001D1AC68EBE7244B9C4208BFEC68E6E746
:101DB000510712D5616B41B104F14403994202D03D
:101DC000304600F01BFA00236363A38923F0240349
:101DD000A3810023636023692360A38943F0080380
:101DE000A38123694BB9A38903F42073B3F5007F62
:101DF00003D02146304600F0C1F9A28912F0010358
:101E00000CD00023A36063695B42A361236953B9CB
:101E1000B4F90C3013F08000BAD170BD920758BFEE
:101E20006369A360F2E70020F7E700BF100000201D
:101E3000102B0008302B0008F02A00088A892DE9B1
:101E4000F041054610070C465AD44B68002B05DCC0
:101E50000B6C002B02DC0020BDE8F081E66A002E4E
:101E6000F9D0002312F480522F682B6033D0606DBC
:101E7000A3895A0705D56368C01A636B0BB1236C3D
:101E8000C01A00230246E66A216A2846B047431C6E
:101E9000A38906D129681D294BD82B4ACA40D607E9
:101EA00047D500226260D9042269226004D5421C11
:101EB00001D12B6803B96065616B2F600029CAD01E
:101EC00004F14403994202D0284600F097F900201B
:101ED0006063BDE8F081216A01232846B047411CB8
:101EE000C6D12B68002BC3D01D2B01D0162B01D1DE
:101EF0002F60B0E7A38943F04003A381BDE8F081E0
:101F00000F69002FA7D093070E6808BF4B690F60B9
:101F100018BF0023A6EB07088B60B8F1000F9ADD0D
:101F200043463A46216AA66A2846B047002807DC9D
:101F3000A38943F04003A3814FF0FF30BDE8F08157
:101F40000744A8EB0008E8E70100402038B50B691A
:101F500005460C46DBB118B183690BB900F060F897
:101F60000C4B9C4209D16C68B4F90C307BB1214612
:101F70002846BDE83840FFF761BF074B9C4201D1BE
:101F8000AC68F1E7054B9C4208BFEC68ECE7002029
:101F900038BD00BF102B0008302B0008F02A0008C5
:101FA000014900F0A9B800BF4D1F0008002310B57B
:101FB000044603604360836081814366C28103619C
:101FC00043618361194608225C30FFF757FE054BD9
:101FD0006362054BA362054BE362054B24622363F6
:101FE00010BD00BF21290008432900087B290008F3
:101FF0009F29000870B54A1E682555430E4605F115
:10200000740100F049F9044640B1002180E8420023
:102010000C30A06005F16802FFF730FE204670BD6D
:10202000836910B5044633BB8364C3640365124BF4
:10203000124A1B688262984204BF0123836100F048
:102040001FF86060204600F01BF8A060204600F0FA
:1020500017F80022E06004216068FFF7A7FF012263
:102060000921A068FFF7A2FF02221221E068FFF712
:102070009DFF0123A36110BDEC2A0008A11F0008E9
:10208000F8B51C4B1E68B369074613B93046FFF715
:10209000C7FF4836B4687368013B03D5336833B172
:1020A0003668F7E7B4F90C506DB16834F4E70421F1
:1020B0003846FFF79FFF30600028F1D10C233B60CA
:1020C00004462046F8BD4FF6FF73E3810123A38148
:1020D00065662560A560656025616561A56108226A
:1020E000294604F15C00FFF7C9FD6563A563A5649B
:1020F000E564E6E7EC2A00082DE9F84380468946C6
:1021000000F14804002614B93046BDE8F883A568FC
:102110006768013F01D52468F5E7AB89012B07D932
:10212000B5F90E30013303D029464046C84706436F
:102130006835EEE770B50E46B1F90E10002990B083
:1021400014461D4607DA00232B60B3891A0610D403
:102150004FF480630EE001AA00F048FC0028F2DB97
:10216000029A02F47042A2F500535A425A412A6080
:10217000EEE740230020236010B070BD8B8973B55B
:102180009D0706460C4607D504F1470323602361EB
:102190000123636102B070BD01AB6A46FFF7CAFF5D
:1021A00000990546304600F077F848B9B4F90C308C
:1021B0009A05EFD423F0030343F00203A381E3E77E
:1021C0000D4BB362A389206043F08003A381009B81
:1021D0006361019B20615BB1B4F90E10304600F0E1
:1021E00017FC28B1A38923F0030343F00103A38163
:1021F000A3891D43A581CDE7A11F000838B5054679
:10220000002945D051F8043C0C1F002BB8BFE4183E
:1022100000F020FC1F4A1368104633B96360146055
:102220002846BDE8384000F016BCA3420CD921680E
:102230006218934204BF1A685B68636004BF521857
:1022400022600460ECE713465A680AB1A242FAD948
:1022500019685818A0420BD12068014458188242CE
:102260001960DDD1106852685A6001441960D7E7DF
:1022700002D90C232B60D3E7206821188A4204BFBF
:1022800011685268626004BF091821605C60C7E78A
:1022900038BD00BF9800002070B5CD1C25F00305A7
:1022A00008350C2D38BF0C25002D064601DBA94250
:1022B00003D90C233360002070BD00F0CBFB234A10
:1022C0001468214691B9224C23681BB9304600F0AE
:1022D00017FB20602946304600F012FB431C26D134
:1022E0000C233360304600F0B6FBE4E70B685B1B61
:1022F0001AD40B2B0FD90B60CD50CC18304600F000
:10230000AAFB04F10B00231D20F00700C31A1BD009
:102310005A42E25070BD8C420DBF63684B686360E7
:10232000136018BF0C46E9E70C464968CAE7C41CAD
:1023300024F00304A04205D0211A304600F0E0FA50
:102340000130CDD02560D9E770BD00BF98000020D6
:102350009C0000209368013B002B10B4936009DAC5
:102360009469A34202DBCBB20A2B03D15DF8044B84
:10237000FFF7A4BC1368581C10601970C8B25DF850
:10238000044B7047F8B506460F461446D518AC42C4
:1023900001D1002007E03A4614F8011B3046FFF750
:1023A000D9FF431CF3D1F8BD2DE9F04F9DB00C4689
:1023B00017460393064618B183690BB9FFF730FE41
:1023C0007C4B9C4257D17468A38918075DD523695B
:1023D000002B5AD00023099320238DF82930302375
:1023E0008DF82A304FF0010BB846454615F8013BF1
:1023F000002B55D1B8EB070A0BD053463A4621467D
:102400003046FFF7BFFF013000F0C480099B534402
:10241000099398F80030002B00F0BC8000234FF0A7
:10242000FF3204930793059206938DF853301A9365
:10243000052229786048FDF7D3FE05F10108049BC9
:10244000002831D1D90644BF20228DF853201A0725
:1024500044BF2B228DF853202A782A2A2CD0079AA1
:1024600000210A20A846013598F80030303B092B9E
:102470006DD971B326E0514B9C4201D1B468A3E7FA
:102480004F4B9C4208BFF4689EE721463046FFF759
:1024900067FC00289ED04FF0FF301DB0BDE8F08FE4
:1024A000252BA7D0A846A0E7434A801A0BFA00F0D4
:1024B000184304904546BBE7039A111D1268039127
:1024C000002A01DB079204E0524243F00203079224
:1024D000049398F800302E2B10D198F801302A2B55
:1024E00008F1010137D1039B1A1D1B680392002BD1
:1024F000B8BF4FF0FF3308F102080593314D98F84B
:10250000001003222846FDF76BFE40B14023401B1C
:1025100003FA00F0049B0343049308F1010898F8C0
:10252000001029488DF82810062208F10107FDF750
:1025300057FE002834D0254B03BB039B073323F001
:10254000070308330393099B4B4409934CE700FBB3
:102550000232012186E70023059318460A258846A2
:10256000013198F80020303A092A03D9002BC5D050
:102570000590C3E705FB00200123F0E703AB0093C0
:102580002246134B04A93046AFF30080B0F1FF3F61
:102590008146D8D1A3895B063FF57DAF09987CE7DA
:1025A00003AB009322460A4B04A9304600F088F89A
:1025B000ECE700BF102B0008502B0008302B000860
:1025C000F02A0008562B00085A2B000800000000D3
:1025D000852300082DE9F04791461F468A680B695C
:1025E000DDF820809342B8BF1346C9F8003091F857
:1025F000432006460C4612B10133C9F80030236867
:10260000990642BFD9F800300233C9F80030256876
:1026100015F0060507D104F1190AE368D9F800207E
:102620009B1A9D4229DB94F843302268003318BF7F
:10263000012392062ED404F1430239463046C047A6
:10264000013021D02368E568D9F8002003F00603A3
:10265000042B08BFAD1AA36822690CBF25EAE575F3
:1026600000259342C4BF9B1AED184FF000091A349D
:102670004D451BD10020BDE8F08701235246394665
:102680003046C047013003D14FF0FF30BDE8F0873E
:102690000135C2E7E1185A1C302081F8430022447A
:1026A00094F8451082F843100233C4E70123224610
:1026B00039463046C0470130E6D009F10109D7E775
:1026C0002DE9F04317460A7E85B06E2A98460646E5
:1026D0000C460C9B01F1430E00F0BC801AD8632A13
:1026E0002ED00AD8002A00F0C880582A00F08A802C
:1026F00004F1420584F842202AE0642A01D0692AC4
:10270000F6D121681A6811F0800F23D0111D1960CD
:10271000136827E0732A00F0B48008D86F2A2AD003
:10272000702AE5D10A6842F020020A6003E0752AA7
:1027300021D0782ADCD1782284F845206E4964E0E3
:102740001A6801F14205111D1960136884F84230BE
:102750000123A3E011F0400F02F104011960D7D06A
:10276000B2F90030002B03DA2D225B4284F84320BB
:1027700062490A2217E02068196810F0800F03D020
:10278000081D18600B6806E010F0400F01F104000E
:102790001860F7D00B8859496F2A14BF0A22082203
:1027A000002084F843006568A560002DC0F29C807D
:1027B000206820F004002060002B3FD1002D40F065
:1027C00095807546082A0BD12368DA0708D5236956
:1027D00062689A42DEBF302305F8013C05F1FF35FF
:1027E000AEEB05032361CDF800803B4603AA2146EA
:1027F0003046FFF7EFFE013055D14FF0FF3005B006
:10280000BDE8F08381F845203C492268186812F041
:10281000800F00F104051D6001D0036802E0550639
:10282000FBD50388D00744BF42F0200222601BB9C9
:10283000226822F0200222601022B1E77546B3FB25
:10284000F2F002FB1033CB5C05F8013D0346002893
:10285000F5D1B7E708681A68496910F0800F04D00D
:10286000101D18601368196007E010F0400F02F1A6
:10287000040018601368F6D01980002323617546A0
:10288000B1E71A68111D19601568626800212846B1
:10289000FDF7A6FC08B1401B60606368236100235C
:1028A00084F843309FE723692A4639463046C047BB
:1028B0000130A2D023689B0707D5002504F1190930
:1028C000E368039A9B1A9D4205DBE068039B9842EC
:1028D000B8BF184693E701234A4639463046C047F9
:1028E00001308AD00135EBE7002BA7D10B7884F8B3
:1028F000423004F1420565E7722B0008612B0008A5
:1029000038B5064C0023054608462360FFF718F942
:10291000431C02D1236803B12B6038BDB85F00208F
:1029200010B50C46B1F90E1000F096F80028ABBFB8
:10293000636DA3891B1823F48053ACBF6365A38127
:1029400010BD2DE9F0411F468B89DB0505460C467D
:10295000164605D502230022B1F90E1000F068F8E2
:10296000A389B4F90E1023F48053A38132463B4669
:102970002846BDE8F04100F017B810B50C46B1F993
:102980000E1000F055F8431CA38915BF606523F4B1
:10299000805343F48053A38118BFA38110BDB1F9C4
:1029A0000E1000F013B8000038B5074C0546084675
:1029B0001146002222601A46FFF716F8431C02D186
:1029C000236803B12B6038BDB85F002038B5064CD2
:1029D0000023054608462360FFF7CCF8431C02D1CC
:1029E000236803B12B6038BDB85F002038B5074CB1
:1029F00000230546084611462360FFF7BEF8431C36
:102A000002D1236803B12B6038BD00BFB85F00203E
:102A100038B5064C0023054608462360FFF7B2F898
:102A2000431C02D1236803B12B6038BDB85F00207E
:102A300038B5074C054608461146002222601A4662
:102A4000FFF7A2F8431C02D1236803B12B6038BD05
:102A5000B85F00207047704738B5074C05460846F8
:102A60001146002222601A46FFF75CF8431C02D18F
:102A7000236803B12B6038BDB85F0020F8B500BFF4
:102A8000F8BC08BC9E467047F8B500BFF8BC08BC4F
:042A90009E467047A7
:102A9400783A2025642C20793A2025642C207A3A2F
:102AA40025640D0A0000000000000000000102037C
:102AB4000406070809000000A0860100400D030079
:102AC400801A060000350C0040420F0080841E006E
:102AD40000093D0000127A000024F40000366E0163
:102AE4000048E801006CDC02140000200000000033
:102AF40000000000000000000000000000000000D2
:102B040000000000000000000000000000000000C1
:102B140000000000000000000000000000000000B1
:102B240000000000000000000000000000000000A1
:102B34000000000000000000000000000000000091
:102B4400000000000000000000000000232D302BD6
:102B54002000686C4C00656667454647003031329A
:102B640033343536373839414243444546003031F1
:102B74003233343536373839616263646566000050
:042B8400C50100087F
:042B8800A10100089F
:102B8C0001000000100000000044004000093D005E
:102B9C001400002000000000102B0008302B00084F
:102BAC00F02A0008000000000000000000000000F7
:102BBC000000000000000000000000000000000009
:102BCC0000000000000000000000000000000000F9
:102BDC0000000000000000000000000000000000E9
:102BEC0000000000000000000000000000000000D9
:042BFC0000000000D5
:0400000508001BD5FF
:00000001FF
