:020000040800F2
:10000000008002201D2B0008BD280008BF28000822
:10001000C1280008C3280008C52800080000000007
:10002000000000000000000000000000C7280008D9
:10003000C928000800000000CB280008CD280008CF
:100040006D2B00086D2B00086D2B00086D2B000830
:100050006D2B00086D2B0008D1280008E12800084E
:100060006D2B00086D2B00086D2B00086D2B000810
:100070006D2B00086D2B00086D2B0008BD220008B9
:100080006D2B00086D2B00086D2B00086D2B0008F0
:100090006D2B00086D2B00086D2B00086D2B0008E0
:1000A0006D2B00086D2B00086D2B00086D2B0008D0
:1000B0006D2B00086D2B0008000000006D2B000860
:1000C0006D2B00086D2B00086D2B00086D2B0008B0
:1000D0006D2B00086D2B00086D2B00086D2B0008A0
:1000E0006D2B00086D2B00080000000000000000D0
:1000F0000000000000000000000000000000000000
:10010000000000006D2B0008000000006D2B0008AF
:100110006D2B0008000000006D2B0008000000009F
:100120006D2B00086D2B00086D2B00086D2B00084F
:100130006D2B00086D2B00086D2B000800000000DF
:100140006D2B00086D2B00086D2B00086D2B00082F
:100150006D2B00086D2B00086D2B00086D2B00081F
:100160006D2B00086D2B00086D2B000800000000AF
:10017000000000006D2B00080000000000000000DF
:100180006D2B00086D2B00086D2B00086D2B0008EF
:040190006D2B0008CB
:1001940010B5054C237833B9044B13B10448AFF3BD
:1001A40000800123237010BD0C000020000000001B
:1001B400C82B000808B5034B1BB103490348AFF330
:1001C400008008BD0000000010000020C82B0008BB
:1001D40053B94AB9002908BF00281CBF4FF0FF31AA
:1001E4004FF0FF3000F07AB9ADF1080C6DE904CEA0
:1001F40000F006F8DDF804E0DDE9022304B07047FE
:100204002DE9F0478C460D460446089E002B51D13B
:100214008A4217466DD9B2FA82FEBEF1000F0BD0A6
:10022400CEF1200C01FA0EF520FA0CFC02FA0EF7BE
:100234004CEA050C00FA0EF44FEA174A250CBCFBF5
:10024400FAF81FFA87F90AFB18CC45EA0C4508FBB3
:1002540009F3AB420AD9ED1908F1FF3280F023818A
:10026400AB4240F22081A8F102083D44ED1AA4B249
:10027400B5FBFAF00AFB105544EA054400FB09F902
:10028400A14509D9E41900F1FF3380F00A81A145A1
:1002940040F2078102383C44A4EB090440EA0840D8
:1002A4000021002E61D024FA0EF400233460736020
:1002B400BDE8F0878B4207D9002E54D0002186E890
:1002C40021000846BDE8F087B3FA83F1002940F025
:1002D4008E80AB4202D3824200F2FA80841A65EB2C
:1002E40003050120AC46002E3FD086E81010BDE87F
:1002F400F08712B90127B7FBF2F7B7FA87FEBEF110
:10030400000F34D1EB1B3A0C1FFA87FC0121B3FB1D
:10031400F2F8250C02FB183345EA03450CFB08F3FD
:10032400AB4207D9ED1908F1FF3002D2AB4200F21B
:10033400D1808046ED1AA3B2B5FBF2F002FB105552
:1003440043EA05440CFB00FCA44507D9E41900F179
:10035400FF3302D2A44500F2B8801846A4EB0C0483
:1003640040EA08409DE731463046BDE8F087CEF1CB
:10037400200405FA0EF307FA0EF720FA04F83A0CF3
:1003840025FA04F448EA0308B4FBF2F14FEA1845ED
:1003940002FB11441FFA87FC45EA044501FB0CF3F8
:1003A400AB4200FA0EF409D9ED1901F1FF3080F0E7
:1003B4008A80AB4240F2878002393D44EB1A1FFA2F
:1003C40088F5B3FBF2F002FB103345EA034500FB6A
:1003D4000CF3AB4207D9ED1900F1FF386FD2AB42F1
:1003E4006DD902383D44EB1A40EA01418FE7C1F16F
:1003F400200722FA07F88B4005FA01F448EA0303C0
:1004040020FA07FE4FEA134CFD404EEA040EB5FBFA
:10041400FCF94FEA1E440CFB19551FFA83F844EA11
:10042400054509FB08F4AC4202FA01F200FA01FAAC
:1004340008D9ED1809F1FF3043D2AC4241D9A9F1F2
:1004440002091D442D1B1FFA8EFEB5FBFCF00CFBAC
:1004540010554EEA054400FB08F8A04507D9E418F6
:1004640000F1FF3529D2A04527D902381C4440EABF
:100474000940A4EB0804A0FB02894C45C6464D463E
:1004840015D312D056B1BAEB0E0364EB050404FA8B
:1004940007F7CB401F43CC40376074600021BDE8B0
:1004A400F0871846F8E69046E0E6C245EAD2B8EB93
:1004B400020E69EB03050138E4E72846D7E7404616
:1004C40091E78146BEE7014678E702383C4445E7B8
:1004D400084608E7A8F102083D442BE7704700BF2F
:1004E40038B50F4B0546186808B9012038BD0D4AC8
:1004F4004FF47A73B3FBF0F31068B0FBF3F000F041
:1005040071FB04460028F0D10F2DEED8024629468F
:100514004FF0FF3000F024FB034B20461D6038BD34
:1005240000000020080000200400002010B5032073
:1005340000F004FB0020FFF7D3FF044618B902F0D3
:10054400A3F9204610BD0124FBE70000034A044937
:10055400136809680B441360704700BF5C010020F6
:1005640000000020014B1868704700BF5C010020A8
:1005740038B50446FFF7F6FF631C1CBF054B1B6828
:10058400054618BFE418FFF7EDFF401B8442FAD874
:1005940038BD00BF0000002030B5CC0D04F00404C9
:1005A4001430C1F30451235807258D4023EA050371
:1005B40002FA01F11943215030BD8068C0F3800074
:1005C4007047000037B500230193044600286ED01D
:1005D400856D25B901F07EFFE56584F854502068E7
:1005E4008368990065D48368DA0069D58368DB0081
:1005F40074D50021FFF7E1FFA36D13F0100FA36D75
:1006040052D1002850D123F4817343F002032068AF
:10061400A3658368DD076BD5E568636B94F82020D8
:100624002B43A5682B43657E012A43EA453343EAFD
:10063400024302BF626A02F1FF3243EA4243A26A02
:1006440022B1E56A02F470722A431343C568414A31
:100654002A401343C360FFF7B0FF23689A68120768
:1006640052D52269012A05BF186BE2691A6B02F19F
:10067400FF3206BF20F00F00024322F00F021A637C
:10068400A36D23F0030343F00103A365084603B0FD
:1006940030BD019B013B0193019B002BF9D1A5E7E0
:1006A4001A6922F0010253E043F01003A36501210B
:1006B400ECE7836823F0204323F03F03836092E751
:1006C4008368254A23F0104323F03F0343F080530B
:1006D4008360224B1B68B3FBF2F3DCE7A36D43F0AA
:1006E4001003A365E36D43F00103E365012181E792
:1006F4001B4B9B68DB078FD41A4A6568936823F405
:100704007C132B43936087E70028AAD194F8302008
:10071400257ED868520042EA8532E56C20F4804098
:100724002A4320F006000243DA6094F83820012AB4
:10073400B6D1256CE26B18692A43656C42F001025C
:100744002A43A56C20F4FF602A4320F004000243EE
:100754001A6186E707C0F0FF400D0300080000207F
:100764000000045000030450F7B50023019390F8EF
:100774005430012B05460C4600F05681012380F8C5
:1007840054300068FFF719FF002840F047814B6898
:10079400052B08D8023B032B3AD8DFE803F00232DA
:1007A40034360C236360626828682368910901F079
:1007B4000C0100F1300702F01F02CE594FF01F0E5A
:1007C400C3F3846393400EFA02F226EA020213434F
:1007D400CB51FFF7F2FE034628688268160740F102
:1007E400258128688368D90740F14C812168C14B71
:1007F400194240F0C5800020002385F8543003B02E
:10080400F0BD1223CEE71823CCE74FF48073C9E779
:100814000623C7E72168FFF7BFFE2A68536923F060
:10082400004313E1196E196EC2F31206C1F3846119
:10083400002E3ED1C2F384628A4202BF1A6E22F0B5
:1008440000421A665A6E22685E6EC2F31207C6F33D
:10085400846600F10C018FBBC2F38467BE4240F092
:100864005F815A6E22F000425A6622688368836868
:10087400C2F3120700F10806C3F3846357BBC2F343
:100884008462934240F05381336823F00043336021
:10089400C3682368C268C3F31200C2F3846220BB36
:1008A400C3F38463934202BF0B6823F000430B60DD
:1008B40097E792FAA2F2B2FA82F2BDE792FAA2F7AD
:1008C400B7FA87F7BE42CCD003F168069F6E9B6EE1
:1008D400C3F3846392FAA2F2B2FA82F29A42D3D0B8
:1008E400C368C2682368C2F3846293FAA3F3B3FAB9
:1008F40083F3D7E793FAA3F2B2FA82F2013202F059
:100904001F02092A10D993FAA3F2B2FA82F2013231
:10091400920602F0F84693FAA3F1B1FA81F101319B
:1009240001F01F02012117E093FAA3F6B6FA86F646
:100934000136B60606F0F84693FAA3F1B1FA81F14E
:10094400013101F01F020121C1E093FAA3F1B1FAD0
:1009540081F1C3E006F0F846914041EA060257B936
:100964009B0E013303F01F0303EB43011E390905FA
:1009740041F00071B8E093FAA3F3B3FA83F3F0E71C
:100984005D4B5E4A9868914200F0E0741DD102020A
:100994003FF531AF29685A4A91427FF42CAF9A68E7
:1009A40022F0E072224342F400029A60554B564A08
:1009B4001B68B3FBF2F20C2353430193019B002BFE
:1009C4003FF419AF019B013BF7E7504A914211D123
:1009D40010F080707FF40FAF2968A2F1F7429142C2
:1009E4007FF409AF9A6822F0E072224342F08072E9
:1009F4009A6001E7464A91427FF4FDAE10F480000C
:100A04007FF4F9AE29683E4A91427FF4F4AE9A68C5
:100A140022F0E072224342F48002E9E7AA6D42F038
:100A24002002AA651846E7E60220E8E6002B7FF4D8
:100A3400D8AEA268B2F1004F7FF4ECAE1A4621683A
:100A4400FFF7AAFD2A68536943F0004353612669FE
:100A54002B682268D968042E03F160003FF4E2AEEB
:100A6400C1F3C1035900636950F8267002F0F842DB
:100A740042F000428B401343264A3A40134340F865
:100A84002630AEE6E6682368234AD0F8B01006F0B4
:100A9400180EC3F3120722FA0EF21A4021EA0701D4
:100AA4000A43C0F8B0201D4A96427FF49FAE002F3F
:100AB4007FF420AF9E0E013606F01F02092A4FF084
:100AC40001014FEA86663FF645AF06F0F8469140CD
:100AD40041EA0602002F7FF438AF990E013101F08C
:100AE4001F0101EB410109051143A268FFF754FD01
:100AF4007CE600BF0000088000030450000052C7D9
:100B04000000045008000020400D0300000084CBC6
:100B14000100008000F0FF03FFFF070000007F409A
:100B240003F168069F6E9B6EC3F38463A7E6C368F4
:100B3400C2682368C2F38462B2E600BF074AD3687E
:100B440023F4E0631B041B0C43F0BF63000243F473
:100B5400003300F4E0600343D360704700ED00E02D
:100B6400174B30B5DC68C4F30224C4F10703251D18
:100B7400042B28BF0423062D4FF0010505FA03F3C7
:100B840003F1FF338CBF033C00241940A14005FA54
:100B940004F4013C2240002842EA01024FEA021216
:100BA400ADBF00F1604000F00F00064B00F561405E
:100BB400B5BFD2B2D2B21A5480F8002330BD00BF00
:100BC40000ED00E014ED00E0002808DB42090123F9
:100BD40000F01F0003FA00F0014B43F822007047B5
:100BE40000E100E00138B0F1807F0AD2064B074AE9
:100BF4005860F02182F823100020072298601A60C0
:100C040070470120704700BF10E000E000ED00E0F5
:100C14002DE9F04F85B00B68DFF884815E4A0193BB
:100C24004FF003090023019CDC4002D105B0BDE86C
:100C3400F08F012404FA03FC019C14EA0C0500F073
:100C4400A0804C6824F0100E0EF1FF36012E4FEAFE
:100C5400430612D8876809FA06FA27EA0A0ACF680F
:100C6400B74047EA0A078760476827EA0C0CC4F3D1
:100C740000179F4047EA0C074760C76809FA06FC5B
:100C84006FEA0C0C07EA0C0A8F68B74047EA0A07B8
:100C9400BEF1020FC76016D14FEAD30A00EB8A0AED
:100CA40003F0070BDAF820704FEA8B0B4FF00F0EAE
:100CB4000EFA0BFE27EA0E0E0F6907FA0BF747EA46
:100CC4000E07CAF8207007680CEA070C04F0030743
:100CD40007FA06F646EA0C060660E60051D5D8F88F
:100CE400606046F00106C8F86060D8F8606023F0E0
:100CF400030707F1804706F0010607F580370396DE
:100D040003F0030C039EBE684FEA8C0C4FF00F0EE9
:100D14000EFA0CFEB0F1904F26EA0E0E33D01F4EA1
:100D2400B04232D006F58066B04230D006F5806617
:100D3400B0422ED006F58066B04214BF07260426C2
:100D440006FA0CF646EA0E06BE601668EF4314F483
:100D5400803F0CBF3E402E431660566814F4003F9B
:100D64000CBF3E402E435660966814F4801F0CBF9F
:100D74003E402E439660D668A40254BF3E402E43A4
:100D8400D66001334FE70026DAE70126D8E70226CA
:100D9400D6E70326D4E700BF00040140000400485E
:100DA400001002400369194214BF0120002070475B
:100DB4000AB18161704781627047704708B5044B7E
:100DC4005969014202D05861FFF7F7FF08BD00BF1F
:100DD4000004014010B5044600284AD090F8413080
:100DE40003F0FF021BB980F8402001F099FC242392
:100DF40084F841302368E1681A6822F001021A601D
:100E0400626822F070621A619A68012922F4004231
:100E14009A60A26824D142F400429A605A686169D7
:100E240042F0007242F400425A60DA6822F400424E
:100E3400DA6022690A43A16942EA0122DA60216A7E
:100E4400E2690A431A601A6842F001021A6000203B
:100E54002023606484F84130206384F8420010BD8C
:100E640042F4044202299A6004BF4FF400625A60BB
:100E7400D4E7012010BD90F84120D2B2202A10B549
:100E84001DD190F84030012B19D0242380F8413033
:100E940003681C6824F001041C601C6824F480545A
:100EA4001C601C6821431960196841F00101196034
:100EB400002380F8412080F84030184610BD0220FD
:100EC40010BD10B590F84140E4B2202C1CD190F82C
:100ED4004030012B18D0242380F8413003681A686D
:100EE40022F001021A601A6822F4706242EA0121B7
:100EF40019601A6842F001021A60002380F8414028
:100F040080F84030184610BD022010BD0B4A13680B
:100F140023F0070343F002031360094B1A69012805
:100F240042F004021A6105D130BF1A6922F00402AA
:100F34001A61704740BF20BF20BFF6E70070004031
:100F440000ED00E0224B9A68D96812F00C0205D03B
:100F54000C2A15D101F00301012918D119681D4883
:100F6400090755BFD3F894101968C1F30321C1F3DD
:100F7400031150F821004AB30C2A09D0002070470D
:100F8400042A22D0082A144818BF002070470020E1
:100F9400DA6802F00302022A15D00F49032A08BFB7
:100FA4000846DA68D968DB68C3F34163C1F30621F4
:100FB400C2F302120133484301325B00B0FBF2F08A
:100FC400B0FBF3F070470548EBE70448704700BFF7
:100FD40000100240FC2B000800127A000024F400E8
:100FE400054B064A9B68C3F30223D35C044A10688A
:100FF40003F01F03D840704700100240F12B000893
:1010040008000020054B064A9B68C3F3C223D35C47
:10101400044A106803F01F03D840704700100240D0
:10102400F12B0008080000200268C169F8B50446E5
:10103400836800691568034360690343AF480B4341
:101044002840034313605368E06823F44053034388
:101054005360AB4BA0699A421CBF236A1843936840
:1010640023F4306303439360A64B9A4218D103F5EB
:101074005843A54AD3F8883003F00303B1F5004F71
:10108400D35C40F02381082B77D8DFE813F000010C
:10109400B300E20076001C0176007600760036008C
:1010A4009A4B9A4207D103F5E633994AD3F888302C
:1010B40003F00C03E2E7974B9A4223D103F5E433A0
:1010C400D3F8883003F03003102B00F0F9800BD8EC
:1010D400002B00F0D980B1F5004F4FF001024FF022
:1010E400000300F0DE8091E0202B00F0AF80302B75
:1010F400F1D1B1F5004F40F0A1806068430803F5D9
:101104008033ACE0844B9A421CD103F5E233D3F82C
:10111400883003F0C003402B00F0AF8006D8002BCA
:1011240000F0A080764B9A42D5D126E0802B00F0C7
:101134008A80C02BF6D1724B9A42DAD14FF4004028
:10114400082315E06E4B9A42C5D103F5C833D3F892
:10115400883003F44063B3F5806F00F08E80DED9ED
:10116400B3F5006F6FD0B3F5406FE3E76B4802232C
:10117400626802EB4201814205D901220023236601
:1011840063661046F8BDB0EB023FF6D8082B2ED8A4
:10119400DFE803F0052D1C2D242D2D2D2700FFF74E
:1011A4001FFF62684FF4807156080027E1FB006757
:1011B400002330463946FFF70BF80022584BA0F5C0
:1011C40040719942D9D82368D860D7E75548550863
:1011D40000230021401941F10001ECE7FFF7B2FEC2
:1011E400DFE750080021002310F50000F3E7012297
:1011F4000020E3E7FFF706FF4BE0FFF7F1FE62682C
:1012040000EB5203B3FBF2F39BB20022A3F11000F4
:101214004FF6EF718842B0D82168CB60AEE7FFF794
:10122400F1FEECE76068430803F5740303F510531B
:10123400B3FBF0F3E8E7FFF785FEE0E760684308F7
:1012440003F50043F4E72E4B9A428FD0B1F5004FDB
:10125400E8D16068430803F1F47303F59043B3FBEA
:10126400F0F31CE0264B9A420ED1FFF7B9FE00239F
:1012740000287FF47DAF024680E7214B9A421FD1BC
:10128400FFF760FE0423F3E7B1F5004FB5D1FFF794
:10129400A7FE61684A0802EB4003B3FBF1F39BB27B
:1012A4000022A3F110004FF6EF7188423FF665AFBC
:1012B40023F00F012068C3F342030B43C3605DE7CF
:1012C400B1F5004FB7D1FFF73DFEE2E7082B3FF63B
:1012D40054AF01A252F823F0FF11000823120008B2
:1012E400291200087F1100083B1200087F11000832
:1012F4007F1100087F11000841120008F369FFEF15
:101304000080004000380140E02B00080044004009
:10131400E42B000800480040004C00400024F40086
:10132400FFFC0F00000024F4436ADA0710B506D569
:101334000168846A4A6822F4003222434A609C07A6
:1013440006D50168C46A4A6822F4803222434A609E
:10135400590706D50168046B4A6822F480222243A7
:101364004A601A0706D50168446B4A6822F40042B1
:1013740022434A60DC0606D50168846B8A6822F43D
:10138400805222438A60990606D50168C46B8A6834
:1013940022F4005222438A605A060FD50168046C75
:1013A4004A6822F480122243B4F5801F4A6005D1B2
:1013B4004A68446C22F4C00222434A601B0606D5E4
:1013C4000268816C536823F400230B43536010BDFF
:1013D4002DE9F041069D04460F46164698462168BD
:1013E400CA6937EA02030CBF01220022B24202D0CA
:1013F4000020BDE8F081681CF2D0FFF7B3F8A0EB41
:10140400080085422068036800D37DB923F4D073B3
:101414000360836823F00103836020236367A36769
:10142400002384F870300320BDE8F0815A07D6D534
:10143400C3691B05D3D54FF400630362036823F427
:10144400D0730360836823F0010383602023636700
:10145400A367E367E4E773B504460026C667FFF7AE
:1014640081F823681B681A07054615D423681B688E
:101474005B070AD56FF07E43009300222B464FF49E
:1014840080012046FFF7A4FF90B920230020636762
:1014940084F87000A3670CE06FF07E43009332463B
:1014A40003464FF400112046FFF792FF0028DDD0D9
:1014B400032002B070BD10B5044640B3436F1BB99E
:1014C40080F8703001F0F6FA226824236367136809
:1014D40023F0010313602046FFF7A6FD012816D070
:1014E400636A13B12046FFF71FFF23685A6822F48A
:1014F40090425A609A6822F02A029A601A6842F06E
:10150400010220461A60BDE81040FFF7A4BF012085
:1015140010BD2DE9F0430A6892FAA2F44FF0010ECF
:10152400B4FA84F403250F2732FA04F30DD14B687F
:10153400013B012B06D84368C96823EA02034A43E6
:101544001A4342600020BDE8F0830EFA04F313400E
:1015540065D0D1F80480D0F8009093FAA3FCBCFACB
:101564008CFC93FAA3F6B6FA86F64FEA4C0C05FA0D
:101574000CFC760029EA0C0C08FA06F64CEA06067E
:10158400066008F1FF36012E16D8866893FAA3FC8C
:10159400BCFA8CFC93FAA3F94FEA4C0C05FA0CFC48
:1015A40026EA0C0CB9FA89F98E684FEA490906FA59
:1015B40009F64CEA06068660C66893FAA3FCBCFAF0
:1015C4008CFC93FAA3F94FEA4C0C05FA0CFC26EABE
:1015D4000C0CB9FA89F90E694FEA490906FA09F6B9
:1015E4004CEA0606B8F1020FC66018D1FF2BD1F8F9
:1015F40014C016D8D0F8208093FAA3F6B6FA86F66B
:1016040093FAA3F3B3FA83F3B60007FA06F69B0042
:1016140028EA06060CFA03FC46EA0C0606620134C4
:1016240082E7D0F824801B0A93FAA3F6B6FA86F66A
:1016340093FAA3F3B3FA83F3B60007FA06F69B0012
:1016440028EA06060CFA03F333434362E7E7000093
:101654001D4A0368904210B505D0B0F1804F02D006
:101664001A4CA0420CD14C6823F07003904243EA18
:1016740004030CD0B0F1804F09D0144A904206D034
:10168400134A904203D002F58062904203D1CA68A3
:1016940023F44073134303608B68C3620B88836233
:1016A400094B984207D003F5A053984203D003F5A1
:1016B4008063984201D10B7C0363436943F00103C7
:1016C4004361002010BD00BF002C01400004004015
:1016D40000400140B1F5807F30B500F0B58005D8F9
:1016E40001293BD0102973D0012030BDB1F5803FD2
:1016F40000F0E580B1F5801F00F00E81B1F5805F48
:10170400F2D1036A156823F480530362036A4468C0
:10171400C16921F0807121F4E64141EA052115698E
:1017240023F4005343EA0533556823F4805343EA12
:101734000533904DA84207D005F5A055A84203D023
:1017440005F58065A84204D1956924F4804444EAEF
:101754008514D2684460C161026436E0036A156886
:1017640023F001030362036A4168846924F480342A
:1017740024F073042C43156923F002032B435568AA
:1017840023F001032B437B4DA84207D005F5A05558
:10179400A84203D005F58065A84212D1556923F00B
:1017A400080343EA8503956823F0040343EA8503A9
:1017B400956921F480712943D56921F4007141EAC6
:1017C4004501D2684160846142630362002030BDF8
:1017D400036A156823F010030362036A416884698D
:1017E40024F0807424F4E64444EA0524156923F0C3
:1017F400200343EA0513556823F0100343EA051355
:101804005C4DA84207D005F5A055A84203D005F5C4
:101814008065A84213D1556923F0800343EA8513F8
:10182400956823F0400343EA8513956921F48061A8
:1018340041EA8501D56921F4006141EAC501D26814
:10184400416084618263C0E7036A156823F480738E
:101854000362036A4168C46924F4803424F0730485
:101864002C43156923F4007343EA0523556823F4D4
:10187400807343EA05233F4DA84207D005F5A055E0
:10188400A84203D005F58065A84213D1556923F415
:10189400006343EA8523956823F4806343EA852340
:1018A400956921F4805141EA0511D56921F400516B
:1018B40041EA4511D2684160C461C26385E7036AA5
:1018C400146823F480330362036A416D21F4803188
:1018D40021F070010C43116923F4003343EA0143FE
:1018E400516823F4803343EA01432249884207D0F4
:1018F40001F5A051884203D001F58061884206D1E8
:101904004168956921F4803141EA052141604465CB
:10191400D268816D826558E7036A146823F48013E2
:101924000362036A416D21F0807121F4E04141EAD0
:101934000424116923F4001343EA0153516823F486
:10194400801343EA01530B49884207D001F5A051A3
:10195400884203D001F58061884206D141689569C7
:1019640021F4802141EA85214160D2684465C26541
:101974002BE700BF002C0140014B1860704700BFEB
:1019840008000020F0B5184A00EB40001318165C5C
:101994005D789F78043907224FF08040032445FA8C
:1019A40002F313F0010FC36A18BF5B00B3FBF4F337
:1019B40041F8043F46FA02F313F0010FC36A18BF5B
:1019C4005B00B3FBF4F30B6247FA02F313F0010F6D
:1019D400C36A18BF5B0012F1FF32B3FBF4F30B646C
:1019E400DDD20120F0BD00BF2E0000200020704792
:1019F40038B51E4B1E4C18700546C02200212046E7
:101A040001F0D8F8012D08BF4FF080434FF40031A6
:101A140002BFDB6A5B082360164B1A6822F02002BF
:101A24001A60DC605A68120C120442F028025A60F0
:101A3400114A51604FF4802151601A6822F0040267
:101A44001A601A6842F002021A601A6842F001022F
:101A54001A604FF0804301201A6A42F001021A62B0
:101A64001A6842F001021A6038BD00BF2C00002041
:101A740094000020580002400000024070B53F4A24
:101A84001378022B10D14FF08042136A23F0010324
:101A9400136202F500325832136823F00103136015
:101AA400374B00221A7070BD012B48D1002863D037
:101AB4004FF080410B6A23F001030B6201F5003102
:101AC40058310B6823F001030B60002313702D4A77
:101AD4002C4D13602C68202C3BD80CB1002832D13B
:101AE400294E20463146FFF74DFF002C44D10120FA
:101AF40006F160012860FFF745FF244B1A6842F0A5
:101B040020021A60DE605A68120C120442F030029D
:101B14005A601F4A4FF4003151604FF480215160E4
:101B24001A6842F004021A601A6842F001021A604C
:101B34004FF08042136A43F00103136270BD114AEF
:101B440013680133C4E720461249BDE87040FFF72B
:101B540019BF88B94FF080420220136A23F00103B1
:101B6400136202F500325832136823F00103136044
:101B7400BDE87040FFF73CBF70BD00BF2C000020E3
:101B84002D0000202800002094000020580002406E
:101B940000000240F4000020014B1878704700BF99
:101BA400910000205E4B5F489A6DF0B542F001024F
:101BB4009A659A6D97B002F001020292029ADA6C69
:101BC40042F00102DA64DA6C02F001020192019A35
:101BD4009A6C42F001029A649B6C03F00103009337
:101BE400009B03684FF4702292FAA2F20421B2FA25
:101BF40082F201FA02F223F47023134303604A4B86
:101C04004A4F1A684A4E22F4804222F0100242F0EF
:101C140010021A601A6822F440521A601A6842F0DC
:101C240020021A601A6822F040021A601A6842F010
:101C340080021A601A6822F4407242F400721A6038
:101C44001A6822F4406242F400621A60394A9A60C7
:101C54001A6842F002021A601A680A431A60F868A5
:101C6400C0F30220FFF7C2FE00014FF08044C0B26F
:101C74004FF08053002586F81C0303A933604FF00E
:101C8400804026230593ADF80C5004950695FFF784
:101C9400DFFCA36943F00803A3610EAA60230121BA
:101CA40020460E930F95109511951295FFF712FD8E
:101CB400A36923F00403A361636823F070036360E2
:101CC400A36823F08003A3602023089302230993CD
:101CD40008A901234FF090400D930A950B950C959C
:101CE400FFF717FCE36A03225B00B3FBF2F3013B4B
:101CF4006363236A43F001032362E36843F40073DC
:101D0400E360F868C0F30220FFF770FE0001C0B280
:101D14004FF4004386F80F03336017B0F0BD00BFE3
:101D240000100240A80002405800024000ED00E00C
:101D340000E100E034000040202898BF00EB4000A0
:101D440010B59FBF044C2154001942709ABF837090
:101D54000120002010BD00BF2E00002070B500231C
:101D640005462124B0FBF4F000EB40101A46FF2195
:101D7400281AFFF7E1FF6E1CB6FBF4F303EB4310E4
:101D840000231A46FF21301AFFF7D6FFAE1CB6FB1C
:101D9400F4F303EB431000231A46FF21301AFFF734
:101DA400CBFFEE1CFF22B6FBF4F303EB431011460A
:101DB4000023301AFFF7C0FF2E1DFF22B6FBF4F3F9
:101DC40003EB431011460023301AFFF7B5FF6E1DD5
:101DD400FF22B6FBF4F303EB431011460023301A41
:101DE400FFF7AAFFAE1DFF22B6FBF4F303EB43108B
:101DF40011460023301AFFF79FFFEE1DB6FBF4F3E4
:101E040003EB4310FF2200230F21301AFFF794FF46
:101E140005F10806B6FBF4F303EB4310FF2200239D
:101E24000F21301AFFF788FF05F10906B6FBF4F31A
:101E340003EB4310FF2200230F21301AFFF77CFF2E
:101E440005F10A06B6FBF4F303EB4310002319462D
:101E5400FF22301AFFF770FF05F10B06B6FBF4F30F
:101E640003EB431000231946FF22301AFFF764FFE7
:101E740005F10C06B6FBF4F303EB431000231946FB
:101E8400FF22301AFFF758FF05F10D06B6FBF4F3F5
:101E940003EB4310FF231A460021301AFFF74CFFCF
:101EA40005F10E06B6FBF4F303EB4310FF231A46C9
:101EB4000021301AFFF740FF05F10F06B6FBF4F3DB
:101EC40003EB4310FF231A460021301AFFF734FFB7
:101ED40005F11006B6FBF4F303EB43100F22FF23C6
:101EE4000021301AFFF728FF05F11106B6FBF4F3C1
:101EF40003EB43100F22FF230021301AFFF71CFFCE
:101F040005F11206B6FBF4F303EB43100F22FF2393
:101F14000021301AFFF710FF05F113060022B6FB6B
:101F2400F4F303EB43101146FF23301AFFF704FFC9
:101F340005F114060022B6FBF4F303EB431011463B
:101F4400FF23301AFFF7F8FE05F115060022B6FB51
:101F5400F4F303EB43101146FF23301AFFF7ECFEB2
:101F640005F11606B6FBF4F303EB43100022FF233E
:101F74000821301AFFF7E0FE05F11706B6FBF4F36B
:101F840003EB43100022FF230821301AFFF7D4FE8D
:101F940005F11806B6FBF4F303EB43100022FF230C
:101FA4000821301AFFF7C8FE05F11906B6FBF4F351
:101FB40003EB4310FF2319460022301AFFF7BCFE3F
:101FC40005F11A06B6FBF4F303EB4310FF2319469D
:101FD4000022301AFFF7B0FE05F11B06B6FBF4F33E
:101FE40003EB4310FF2319460022301AFFF7A4FE27
:101FF40005F11C06B6FBF4F303EB431000220F2398
:10200400FF21301AFFF798FE05F11D06B6FBF4F325
:1020140003EB431000220F23FF21301AFFF78CFE3D
:1020240005F11E06B6FBF4F303EB431000220F2365
:10203400FF21301AFFF780FE05F11F06B6FBF4F30B
:1020440003EB431000220F23FF21301AFFF774FE25
:1020540005F12000B0FBF4F404EB4414001B0F233F
:102064000022FF21BDE87040FFF766BE30B5054D84
:1020740000235855EC180333632B6170A270F8D118
:10208400012030BD2E00002070B5094B1A78064699
:102094001D4652B9012420461C70FFF7A9FC16B155
:1020A4002B78002BFCD1012070BD002070BD00BF37
:1020B4002D00002010B50024002320461A46FF21DD
:1020C4000134FFF739FE212CF6D10120BDE8104080
:1020D400FFF7DABF10B5002400222046FF23114683
:1020E4000134FFF729FE212CF6D10120BDE8104070
:1020F400FFF7CABF10B5002400232046FF2219466B
:102104000134FFF719FE212CF6D10120BDE810405F
:10211400FFF7BABF10B50024FF2320461A4600215A
:102124000134FFF709FE212CF6D10120BDE810404F
:10213400FFF7AABF10B50024FF232046002219464A
:102144000134FFF7F9FD212CF6D10120BDE8104040
:10215400FFF79ABF10B50024204600231022FF2168
:102164000134FFF7E9FD212CF6D10120BDE8104030
:10217400FFF78ABF10B50024FF2220460023114632
:102184000134FFF7D9FD212CF6D10120BDE8104020
:10219400FFF77ABF10B50024FF2320461A461946DC
:1021A4000134FFF7C9FD212CF6D10120BDE8104010
:1021B400FFF76ABF10B50024002320461A461946CB
:1021C4000134FFF7B9FD212CF6D10120BDE8104000
:1021D400FFF75ABF10B51C4C20B9FFF78BFF012342
:1021E400237010BD012803D1FFF794FF0223F7E702
:1021F400022803D1FFF76EFF0323F1E7032803D17D
:10220400FFF798FF0423EBE7042803D1FFF752FFFD
:102214000523E5E7052803D1FFF79CFF0623DFE745
:10222400062803D1FFF7A6FF0723D9E7072803D120
:10223400FFF7B0FF0823D3E7082801D10923CFE72C
:10224400FFF7B8FF0023CBE79100002038B5002545
:102254000024E3B21A4600212846FFF76DFD012051
:10226400FFF712FF07340120FEF782F9852CF0D125
:102274000135212DECD138BD38B520257F24E3B2BA
:102284001A4600212846FFF757FD0120FFF7FCFE00
:10229400073C0120FEF76CF9A31DF0D115F1FF35C1
:1022A400ECD2002211461046FFF7E0FE0120BDE803
:1022B4003840FFF7E9BE0000094B1A68510305D501
:1022C4004FF480225A600020FFF7D8BB1A689203AB
:1022D40004D54FF400325A600120F5E7704700BF7F
:1022E40000000240444A136823F0070343F001034B
:1022F40010B51360136803F00703012B01D000F03D
:10230400C1FA3E4A3E4C136823F4C06343F400739D
:102314001360236843F00103236023689907FCD505
:10232400236843F008032360236823F0F00343F099
:1023340060032360636823F47F436360E268314B86
:10234400134043F4A05343F00103E360E36843F014
:102354008073E360236843F08073236023689A01E9
:10236400FCD5E36823F0730343F00103E3602369BE
:1023740023F0C06323F4FE4343F4805323612369B1
:1023840043F080732361236843F0806323602368F0
:102394001B01FCD5A36843F00303A360A36803F007
:1023A4000C030C2BFAD1A368174823F0F003A360A5
:1023B400A36823F4E063A360A36823F46053A360D9
:1023C400FFF7DAFA0020FEF78BF808B100F05AFAAA
:1023D400D4F888300D4A23F00C03C4F8883013680D
:1023E40023F440331360D4F8883023F0405343F08F
:1023F4008053C4F8883010BD0020024000700040B3
:10240400001002408C80FFF9005A620288100240DA
:1024140008B5002210214FF09040FEF7C9FC00F0EF
:1024240019F80120FEF772FDFFF75CFF00F09EF83B
:1024340000F010F8012210214FF09040BDE8084050
:10244400FEF7B6BC01224FF400510148FEF7B0BCC0
:1024540000080048FFF7F6BF7FB518220021684640
:1024640000F0A8FB1848194B0360042200234261C2
:10247400012243608360C360036103764376C261D3
:1024840080F8203042628362C36280F83030436354
:1024940080F83830FEF796F808B100F0F3F90C4AEA
:1024A400094806238DE80C007F2200230392694625
:1024B4000422029304920593FEF756F908B100F042
:1024C400E1F907B05DF804FB60010020000004504E
:1024D4000800900C10B5044688B01422002103A80B
:1024E40000F068FB2268114B9A421DD103F170433E
:1024F400A3F5F83303A9DA6C0D4842F40052DA6408
:10250400DA6C02F400520192019ADA6C42F004028D
:10251400DA64DB6C03F004030293029B0423039349
:102524000B230493FEF774FB08B010BD00000450A5
:10253400000800480A4B9A6C42F001029A649B6CB2
:1025440082B003F001030193019B064BDB68064B49
:10255400002283F80F234FF400421A6002B0704740
:102564000010024000ED00E000E100E0F0B51422AC
:102574008BB00DEB0200002100F01CFB4C4B4D4EC8
:10258400DA6C42F00402DA64DA6C02F004020092BB
:10259400009ADA6C42F08002DA64DA6C02F08002AB
:1025A4000192019ADA6C42F00102DA64DA6C02F008
:1025B40001020292029ADA6C42F00202DA64DA6CE4
:1025C40002F002020392039ADA6C42F00802DA641F
:1025D400DB6C03F008030493304600224FF40051EF
:1025E400049BFEF7E5FB002210214FF09040FEF71C
:1025F400DFFB00244FF40053012705A930460325CF
:102604000593069707940894FEF702FB4DF6F873BA
:1026140005A93046059306950794FEF7F9FA0B23AE
:1026240005A92548059306950794FEF7F1FA234B6F
:10263400069305A902234FF0904007930595FEF7F2
:10264400E7FA102305A94FF09040059306970794E5
:102654000894FEF7DDFA49F6C07305A94FF09040DF
:10266400059306950794FEF7D3FA4FF6F77305A979
:102674001348059306950794FEF7CAFA042305A99F
:102684001048059306950794FEF7C2FA22462146A0
:102694000620FEF765FA0620FEF796FA2246214642
:1026A4000720FEF75DFA0720FEF78EFA0BB0F0BDA7
:1026B4000010024000080048001C004800001110EF
:1026C40000040048000C004808B51248124B134996
:1026D400012280E80A0000238360C2600361436131
:1026E4008361C3610362FEF775FB08B100F0CAF8A9
:1026F40000210848FEF7BFFB08B100F0C3F8002131
:102704000448FEF7DEFB18B1BDE8084000F0BAB893
:1027140008BD00BFC8010020BB7C7000005C004005
:1027240010B5044688B01422002103A800F042FA30
:102734002268124B9A421FD1114C1248E36C43F0A9
:102744000403E364E36C03F004030193019B12228A
:1027540003230393049206930122042303A90793FA
:102764000592FEF755FAA36D43F40003A365A36D28
:1027740003F400030293029B08B010BD005C004008
:1027840000100240000800482DE9F843FDF7CEFE92
:10279400FFF7A8FDFFF7EAFEFFF7CCFEFFF794FF73
:1027A40000F0C4F800F068F9FFF756FE012210218A
:1027B4004FF09040FEF7FCFAFFF74CFE6420FDF763
:1027C400D7FEFFF7EFF9002211461046FFF74EFC43
:1027D4000120FFF759FC284FFFF738FD0024B846C5
:1027E4004FF001093B78ABBBFFF7D6F908280FD1AE
:1027F400FFF730FE2046FFF7B1FA0120FFF744FC53
:1028040001343220FDF7B4FEB4F57A7F88BF00248A
:102814000120FDF7ADFEE5E72B6801332B60FDF7E2
:10282400A7FE01214FF09040FEF7BCFA0128F3D037
:10283400FFF710FE2B68114EB3F57A7F0CD986F89A
:102844000090FFF719FDFFF7E3FD00232B6088F8E4
:102854000030C9E70A4DE4E7337833B1FFF7FAFDF6
:10286400FFF7F4FC00233370EFE7FFF7F3FDFFF706
:1028740093F9FFF7AFFCF5E758010020140200209C
:1028840054010020704700000A4B1A6E42F0010206
:102894001A661A6E82B002F001020092009A9A6DD2
:1028A40042F080529A659B6D03F080530193019B23
:1028B40002B07047001002407047FEE7FEE7FEE7F3
:1028C400FEE7704770477047FDF740BE024B01209A
:1028D4001870FEF773BA00BF580100200220FEF7FB
:1028E4006DBA00000F49D1F8883043F47003C1F881
:1028F40088300D4B1A68002042F001021A6098607B
:102904001A6822F0A85222F410221A604FF480525E
:10291400DA601A6822F480221A6098614FF000632A
:102924008B60704700ED00E000100240F0B597B0F6
:1029340020271422002103A800F03CF94B4E3A460C
:1029440000210EA800F036F9182200210DEB070033
:1029540000F030F9B36D464843F00103B365B36D3D
:1029640003F001030293029B03684FF4702292FA6E
:10297400A2F20421B2FA82F201FA02F223F47023E1
:10298400134303603B4B1A6822F4804222F0100286
:102994001A601A6822F440521A601A6822F020025F
:1029A4001A601A6822F040021A601A6842F0800223
:1029B4001A601A6822F4407242F400721A601A68AB
:1029C40022F440624FF0804442F4006200251A6011
:1029D40003A94FF08040ADF80C5004950595069579
:1029E400FEF736FE236823F080032360A36943F0D7
:1029F4000803A3610EAA6023012120460E930F95BC
:102A0400109511951295FEF765FEA36923F0040352
:102A1400A361A36823F00803A360A36823F480439D
:102A2400A360A36823F43F43A360636823F07003A7
:102A34006360A36823F08003A360F36C43F0010395
:102A4400F364F36C089703F001030193019B0A9567
:102A5400022309930DEB070101234FF090400B95DE
:102A64000C950D93FEF755FD17B0F0BD0010024014
:102A7400A80002405800024008B50C480C4B4FF423
:102A8400E13E80E808400C2200238360C3600361B8
:102A940042618361C36103624362FEF70CFD18B1B6
:102AA400BDE80840FFF7EEBE08BD00BF18020020D5
:102AB4000044004010B5044688B01422002103A845
:102AC40000F078F82268134B9A4220D103F5E633DC
:102AD40003A99A6D42F400329A659A6D02F40032A9
:102AE4000192019ADA6C42F00102DA64DB6C03F0C1
:102AF40001030293029B0C230393022304930323F5
:102B040006934FF0904007230793FEF781F808B02F
:102B140010BD00BF00440040DFF834D0002103E0C2
:102B24000C4B5B58435004310B480C4B42189A42EF
:102B3400F6D30B4A02E0002342F8043B094B9A42C5
:102B4400F9D3FFF7CFFE00F011F8FFF71DFEFEE703
:102B5400008002203C2C0008000000200C00002013
:102B64000C00002098020020FEE7000070B50D4E16
:102B74000D4CA41BA4100025A54209D10B4E0C4CEE
:102B840000F020F8A41BA4100025A54205D170BDB7
:102B940056F8253098470135EEE756F82530984722
:102BA4000135F2E7342C0008342C0008342C0008DA
:102BB400382C000802440346934200D1704703F8BE
:102BC400011BF9E7F8B500BFF8BC08BC9E46704786
:0C2BD400F8B500BFF8BC08BC9E46704776
:102BE0000104020800101010041010100210101040
:102BF000080000000001020304000000A08601009C
:102C0000400D0300801A060000350C0040420F0002
:102C100080841E0000093D0000127A000024F400A8
:0C2C200000366E010048E801006CDC0288
:082C2C00D8D5FF7F0100000074
:042C3400B9010008DA
:042C380095010008FA
:0C2C3C00010000001000000000093D0035
:0400000508002B1DA7
:00000001FF
