:020000040800F2
:1000000000800220B5500008794D00087B4D0008A3
:100010007D4D00087F4D0008814D00080000000064
:10002000000000000000000000000000834D0008F8
:10003000854D000800000000874D0008894D00082C
:100040000551000805510008055100080551000838
:100050000551000805510008055100080551000828
:100060000551000805510008055100080551000818
:100070000551000805510008055100080551000808
:1000800005510008055100080551000805510008F8
:1000900005510008055100080551000805510008E8
:1000A00005510008055100080551000805510008D8
:1000B0000551000805510008000000000551000826
:1000C00005510008055100080551000805510008B8
:1000D00005510008055100088D4D00088F4D00089E
:1000E0000551000805510008000000000000000054
:1000F0000000000000000000000000000000000000
:100100000000000005510008000000000551000833
:100110000551000800000000055100080000000023
:100120000551000805510008055100080551000857
:1001300005510008055100080551000800000000A5
:100140000551000805510008055100080551000837
:100150000551000805510008055100080551000827
:100160000551000805510008055100080000000075
:100170000000000005510008000000000000000021
:1001800005510008055100080551000805510008F7
:04019000055100080D
:1001940010B5054C237833B9044B13B10448AFF3BD
:1001A40000800123237010BD100000200000000017
:1001B4006051000808B5034B1BB103490348AFF372
:1001C400008008BD000000001400002060510008F9
:1001D40053B94AB9002908BF00281CBF4FF0FF31AA
:1001E4004FF0FF3000F07AB9ADF1080C6DE904CEA0
:1001F40000F006F8DDF804E0DDE9022304B07047FE
:100204002DE9F0478C460D460446089E002B51D13B
:100214008A4217466DD9B2FA82FEBEF1000F0BD0A6
:10022400CEF1200C01FA0EF520FA0CFC02FA0EF7BE
:100234004CEA050C00FA0EF44FEA174A250CBCFBF5
:10024400FAF81FFA87F90AFB18CC45EA0C4508FBB3
:1002540009F3AB420AD9ED1908F1FF3280F023818A
:10026400AB4240F22081A8F102083D44ED1AA4B249
:10027400B5FBFAF00AFB105544EA054400FB09F902
:10028400A14509D9E41900F1FF3380F00A81A145A1
:1002940040F2078102383C44A4EB090440EA0840D8
:1002A4000021002E61D024FA0EF400233460736020
:1002B400BDE8F0878B4207D9002E54D0002186E890
:1002C40021000846BDE8F087B3FA83F1002940F025
:1002D4008E80AB4202D3824200F2FA80841A65EB2C
:1002E40003050120AC46002E3FD086E81010BDE87F
:1002F400F08712B90127B7FBF2F7B7FA87FEBEF110
:10030400000F34D1EB1B3A0C1FFA87FC0121B3FB1D
:10031400F2F8250C02FB183345EA03450CFB08F3FD
:10032400AB4207D9ED1908F1FF3002D2AB4200F21B
:10033400D1808046ED1AA3B2B5FBF2F002FB105552
:1003440043EA05440CFB00FCA44507D9E41900F179
:10035400FF3302D2A44500F2B8801846A4EB0C0483
:1003640040EA08409DE731463046BDE8F087CEF1CB
:10037400200405FA0EF307FA0EF720FA04F83A0CF3
:1003840025FA04F448EA0308B4FBF2F14FEA1845ED
:1003940002FB11441FFA87FC45EA044501FB0CF3F8
:1003A400AB4200FA0EF409D9ED1901F1FF3080F0E7
:1003B4008A80AB4240F2878002393D44EB1A1FFA2F
:1003C40088F5B3FBF2F002FB103345EA034500FB6A
:1003D4000CF3AB4207D9ED1900F1FF386FD2AB42F1
:1003E4006DD902383D44EB1A40EA01418FE7C1F16F
:1003F400200722FA07F88B4005FA01F448EA0303C0
:1004040020FA07FE4FEA134CFD404EEA040EB5FBFA
:10041400FCF94FEA1E440CFB19551FFA83F844EA11
:10042400054509FB08F4AC4202FA01F200FA01FAAC
:1004340008D9ED1809F1FF3043D2AC4241D9A9F1F2
:1004440002091D442D1B1FFA8EFEB5FBFCF00CFBAC
:1004540010554EEA054400FB08F8A04507D9E418F6
:1004640000F1FF3529D2A04527D902381C4440EABF
:100474000940A4EB0804A0FB02894C45C6464D463E
:1004840015D312D056B1BAEB0E0364EB050404FA8B
:1004940007F7CB401F43CC40376074600021BDE8B0
:1004A400F0871846F8E69046E0E6C245EAD2B8EB93
:1004B400020E69EB03050138E4E72846D7E7404616
:1004C40091E78146BEE7014678E702383C4445E7B8
:1004D400084608E7A8F102083D442BE7704700BF2F
:1004E40038B50F4B0546186808B9012038BD0D4AC8
:1004F4004FF47A73B3FBF0F31068B0FBF3F000F041
:1005040063FB04460028F0D10F2DEED8024629469D
:100514004FF0FF3000F024FB034B20461D6038BD34
:10052400000000200C0000200400002010B503206F
:1005340000F004FB0020FFF7D3FF044618B904F0D1
:1005440001FC204610BD0124FBE70000034A0449D6
:10055400136809680B441360704700BF380000201B
:1005640000000020014B1868704700BF38000020CD
:1005740038B50446FFF7F6FF631C1CBF054B1B6828
:10058400054618BFE418FFF7EDFF401B8442FAD874
:1005940038BD00BF0000002030B5CC0D04F00404C9
:1005A4001430C1F30451235807258D4023EA050371
:1005B40002FA01F11943215030BD8068C0F3800074
:1005C4007047000037B500230193044600286ED01D
:1005D400856D25B903F0AEFEE56584F854502068B6
:1005E4008368990065D48368DA0069D58368DB0081
:1005F40074D50021FFF7E1FFA36D13F0100FA36D75
:1006040052D1002850D123F4817343F002032068AF
:10061400A3658368DD076BD5E568636B94F82020D8
:100624002B43A5682B43657E012A43EA453343EAFD
:10063400024302BF626A02F1FF3243EA4243A26A02
:1006440022B1E56A02F470722A431343C568414A31
:100654002A401343C360FFF7B0FF23689A68120768
:1006640052D52269012A05BF186BE2691A6B02F19F
:10067400FF3206BF20F00F00024322F00F021A637C
:10068400A36D23F0030343F00103A365084603B0FD
:1006940030BD019B013B0193019B002BF9D1A5E7E0
:1006A4001A6922F0010253E043F01003A36501210B
:1006B400ECE7836823F0204323F03F03836092E751
:1006C4008368254A23F0104323F03F0343F080530B
:1006D4008360224B1B68B3FBF2F3DCE7A36D43F0AA
:1006E4001003A365E36D43F00103E365012181E792
:1006F4001B4B9B68DB078FD41A4A6568936823F405
:100704007C132B43936087E70028AAD194F8302008
:10071400257ED868520042EA8532E56C20F4804098
:100724002A4320F006000243DA6094F83820012AB4
:10073400B6D1256CE26B18692A43656C42F001025C
:100744002A43A56C20F4FF602A4320F004000243EE
:100754001A6186E707C0F0FF400D03000C0000207B
:100764000000045000030450F7B50023019390F8EF
:100774005430012B05460C4600F05681012380F8C5
:1007840054300068FFF719FF002840F047814B6898
:10079400052B08D8023B032B3AD8DFE803F00232DA
:1007A40034360C236360626828682368910901F079
:1007B4000C0100F1300702F01F02CE594FF01F0E5A
:1007C400C3F3846393400EFA02F226EA020213434F
:1007D400CB51FFF7F2FE034628688268160740F102
:1007E400258128688368D90740F14C812168C14B71
:1007F400194240F0C5800020002385F8543003B02E
:10080400F0BD1223CEE71823CCE74FF48073C9E779
:100814000623C7E72168FFF7BFFE2A68536923F060
:10082400004313E1196E196EC2F31206C1F3846119
:10083400002E3ED1C2F384628A4202BF1A6E22F0B5
:1008440000421A665A6E22685E6EC2F31207C6F33D
:10085400846600F10C018FBBC2F38467BE4240F092
:100864005F815A6E22F000425A6622688368836868
:10087400C2F3120700F10806C3F3846357BBC2F343
:100884008462934240F05381336823F00043336021
:10089400C3682368C268C3F31200C2F3846220BB36
:1008A400C3F38463934202BF0B6823F000430B60DD
:1008B40097E792FAA2F2B2FA82F2BDE792FAA2F7AD
:1008C400B7FA87F7BE42CCD003F168069F6E9B6EE1
:1008D400C3F3846392FAA2F2B2FA82F29A42D3D0B8
:1008E400C368C2682368C2F3846293FAA3F3B3FAB9
:1008F40083F3D7E793FAA3F2B2FA82F2013202F059
:100904001F02092A10D993FAA3F2B2FA82F2013231
:10091400920602F0F84693FAA3F1B1FA81F101319B
:1009240001F01F02012117E093FAA3F6B6FA86F646
:100934000136B60606F0F84693FAA3F1B1FA81F14E
:10094400013101F01F020121C1E093FAA3F1B1FAD0
:1009540081F1C3E006F0F846914041EA060257B936
:100964009B0E013303F01F0303EB43011E390905FA
:1009740041F00071B8E093FAA3F3B3FA83F3F0E71C
:100984005D4B5E4A9868914200F0E0741DD102020A
:100994003FF531AF29685A4A91427FF42CAF9A68E7
:1009A40022F0E072224342F400029A60554B564A08
:1009B4001B68B3FBF2F20C2353430193019B002BFE
:1009C4003FF419AF019B013BF7E7504A914211D123
:1009D40010F080707FF40FAF2968A2F1F7429142C2
:1009E4007FF409AF9A6822F0E072224342F08072E9
:1009F4009A6001E7464A91427FF4FDAE10F480000C
:100A04007FF4F9AE29683E4A91427FF4F4AE9A68C5
:100A140022F0E072224342F48002E9E7AA6D42F038
:100A24002002AA651846E7E60220E8E6002B7FF4D8
:100A3400D8AEA268B2F1004F7FF4ECAE1A4621683A
:100A4400FFF7AAFD2A68536943F0004353612669FE
:100A54002B682268D968042E03F160003FF4E2AEEB
:100A6400C1F3C1035900636950F8267002F0F842DB
:100A740042F000428B401343264A3A40134340F865
:100A84002630AEE6E6682368234AD0F8B01006F0B4
:100A9400180EC3F3120722FA0EF21A4021EA0701D4
:100AA4000A43C0F8B0201D4A96427FF49FAE002F3F
:100AB4007FF420AF9E0E013606F01F02092A4FF084
:100AC40001014FEA86663FF645AF06F0F8469140CD
:100AD40041EA0602002F7FF438AF990E013101F08C
:100AE4001F0101EB410109051143A268FFF754FD01
:100AF4007CE600BF0000088000030450000052C7D9
:100B0400000004500C000020400D0300000084CBC2
:100B14000100008000F0FF03FFFF070000007F409A
:100B240003F168069F6E9B6EC3F38463A7E6C368F4
:100B3400C2682368C2F38462B2E600BF074AD3687E
:100B440023F4E0631B041B0C43F0BF63000243F473
:100B5400003300F4E0600343D360704700ED00E02D
:100B6400174B30B5DC68C4F30224C4F10703251D18
:100B7400042B28BF0423062D4FF0010505FA03F3C7
:100B840003F1FF338CBF033C00241940A14005FA54
:100B940004F4013C2240002842EA01024FEA021216
:100BA400ADBF00F1604000F00F00064B00F561405E
:100BB400B5BFD2B2D2B21A5480F8002330BD00BF00
:100BC40000ED00E014ED00E00138B0F1807F0AD2BE
:100BD400064B074A5860F02182F8231000200722B0
:100BE40098601A6070470120704700BF10E000E071
:100BF40000ED00E010B5044608B9012010BD437FA4
:100C040003F0FF0213B9027703F030FC0223637789
:100C14002379E3B92368134A5A619A6822F01802C7
:100C24009A6062792368D2B94FF0FF321A619A68E8
:100C3400616922F060020A439A609A68A16922F00D
:100C440080020A439A6001236377002010BDE268A2
:100C5400A168204600F008F80028E2D0CDE7226918
:100C6400E4E700BFB71DC10410B51F2313F1FF3320
:100C740006D321FA03F4E407F8D5082A14D009D8D6
:100C840072B900684161836823F018031A438260D3
:100C9400002010BD102A05D0182A01D1062BF0D946
:100CA400012010BD072BFAE70F2BF8E72DE9F04FD1
:100CB40085B00B68DFF884815E4A01934FF0030925
:100CC4000023019CDC4002D105B0BDE8F08F012473
:100CD40004FA03FC019C14EA0C0500F0A0804C68A3
:100CE40024F0100E0EF1FF36012E4FEA430612D8FF
:100CF400876809FA06FA27EA0A0ACF68B74047EA7A
:100D04000A078760476827EA0C0CC4F300179F4062
:100D140047EA0C074760C76809FA06FC6FEA0C0C3F
:100D240007EA0C0A8F68B74047EA0A07BEF1020FC8
:100D3400C76016D14FEAD30A00EB8A0A03F0070B07
:100D4400DAF820704FEA8B0B4FF00F0E0EFA0BFE01
:100D540027EA0E0E0F6907FA0BF747EA0E07CAF8DF
:100D6400207007680CEA070C04F0030707FA06F67C
:100D740046EA0C060660E60051D5D8F8606046F0F5
:100D84000106C8F86060D8F8606023F0030707F133
:100D9400804706F0010607F58037039603F0030C3D
:100DA400039EBE684FEA8C0C4FF00F0E0EFA0CFE39
:100DB400B0F1904F26EA0E0E33D01F4EB04232D01F
:100DC40006F58066B04230D006F58066B0422ED07B
:100DD40006F58066B04214BF0726042606FA0CF610
:100DE40046EA0E06BE601668EF4314F4803F0CBF5B
:100DF4003E402E431660566814F4003F0CBF3E403C
:100E04002E435660966814F4801F0CBF3E402E4358
:100E14009660D668A40254BF3E402E43D660013388
:100E24004FE70026DAE70126D8E70226D6E70326AD
:100E3400D4E700BF00040140000400480010024051
:100E44000369194214BF01200020704710B50446FD
:100E540000284AD090F8413003F0FF021BB980F813
:100E6400402003F081FC242384F841302368E168A6
:100E74001A6822F001021A60626822F070621A6134
:100E84009A68012922F400429A60A26824D142F4AB
:100E940000429A605A68616942F0007242F400426A
:100EA4005A60DA6822F40042DA6022690A43A169CE
:100EB40042EA0122DA60216AE2690A431A601A6886
:100EC40042F001021A6000202023606484F841305B
:100ED400206384F8420010BD42F4044202299A605F
:100EE40004BF4FF400625A60D4E7012010BD90F8AB
:100EF4004120D2B2202A10B51DD190F84030012BE8
:100F040019D0242380F8413003681C6824F00104BC
:100F14001C601C6824F480541C601C682143196004
:100F2400196841F001011960002380F8412080F81C
:100F34004030184610BD022010BD10B590F8414055
:100F4400E4B2202C1CD190F84030012B18D024237B
:100F540080F8413003681A6822F001021A601A68A6
:100F640022F4706242EA012119601A6842F0010217
:100F74001A60002380F8414080F84030184610BDC4
:100F8400022010BD38B5044600B303684CF6CC42C9
:100F94001A6045F255521A6042685A6082689A6033
:100FA400FFF7E0FA05462368D86840B9E268196992
:100FB40091420ABF4AF6AA221A611A6038BDFFF7A5
:100FC400D1FA401B3028EED9032038BD012038BDAA
:100FD400F8B5044600284BD090F8363003F0FF02F1
:100FE4001BB980F8352003F077FC66682068A56A91
:100FF400022384F83630012EC26802D0B5F5000F02
:1010040001D122F01E0261691A4F4FF6FF73994213
:101014001CBF22F4604222F0C0021740A26846EAD4
:101024000203226A1343626A13432B43012E43EAE9
:10103400070302D0B5F5000F03D1E26825692A43FE
:1010440013434FF6FF72914204D0A2691143E2693F
:1010540011430B43C360084B984208BF226BE36AF9
:1010640008BF13430362012384F836300020F8BD1F
:101074000120F8BDF8F119FF007C0040024A136812
:1010840043F480731360704700700040024B18688B
:1010940000F4C060704700BF00700040174B1A682E
:1010A400B0F5007F02F4C0621CD1B2F5007F15D008
:1010B4001A6822F4C06242F400721A60104A11687D
:1010C40032224A430F49B2FBF1F219460132586900
:1010D400400500D522B94B695B050DD4002070474B
:1010E400013AF4E7B2F5806F1FBF1A6822F4C062B8
:1010F40042F480621A60F1E70320704700700040F8
:101104000C00002040420F0037B51E4DAB6DDA00D5
:10111400044618D5FFF7BAFFB0F5007F23D1802C21
:1011240029D9A02C8CBF02200120174A136823F070
:10113400070303431360136803F00703181A18BF67
:10114400012003B030BDAB6D43F08053AB65AB6D94
:1011540003F080530193019BFFF798FFAB6D23F0DD
:101164008053AB65D8E7802C07D808D0A4F170036E
:1011740058425841D9E70020D7E70320D5E7022099
:10118400D3E700BF0010024000200240224B9A68BF
:10119400D96812F00C0205D00C2A15D101F0030114
:1011A400012918D119681D48090755BFD3F89410AF
:1011B4001968C1F30321C1F3031150F821004AB3A4
:1011C4000C2A09D000207047042A22D0082A144887
:1011D40018BF002070470020DA6802F00302022AD8
:1011E40015D00F49032A08BF0846DA68D968DB68B6
:1011F400C3F34163C1F30621C2F30212013348432E
:1012040001325B00B0FBF2F0B0FBF3F0704705482D
:10121400EBE70448704700BF00100240B8510008D3
:1012240000127A000024F4002DE9F743054608B9BA
:10123400012047E09F4C0368A668E768DB0606F0D8
:101244000C0607F0030775D51EB10C2E54D1012FDF
:1012540052D12368980702D5AB69002BE8D02368E4
:10126400286A190756BFD4F8943023681B0903F081
:10127400F003834229D2FFF747FF0028D8D123681F
:1012840043F00803236023682A6A23F0F00313431E
:1012940023606368EA6923F47F4343EA02236360BB
:1012A400FFF774FFA368844AC3F30313D35C03F00A
:1012B4001F03D840814B1860814B1868FFF710F961
:1012C400002837D003B0BDE8F083236843F0080357
:1012D4002360236823F0F003034323606368EA690F
:1012E40023F47F4343EA02236360002ED8D1FFF73F
:1012F4000BFF0028D4D09BE7AB69002B3AD02368BE
:1013040043F001032360FFF72DF9804623689A0711
:1013140028D5236843F00803236023682A6A23F04E
:10132400F003134323606368EA6923F47F4343EAC9
:10133400022363602B68D8072DD42B6899076BD4DC
:101344002B68180700F1A0802B68590700F1CE80A4
:101354002B68980600F13781AB6A002B40F05D8161
:101364000020AFE7FFF7FEF8A0EB08000228CDD974
:101374000320A7E7236823F001032360FFF7F2F8B3
:10138400804623689B07D5D5FFF7ECF8A0EB08004F
:101394000228F6D9ECE7082E03D00C2E08D1032F2F
:1013A40006D123689A03C8D56B68002BC5D13FE7E3
:1013B4006B68B3F5803F10D1236843F48033236016
:1013C400FFF7D0F8804623689B03B6D4FFF7CAF82A
:1013D400A0EB08006428F6D9CAE7B3F5A02F04D11E
:1013E400236843F480232360E6E7226822F48032F2
:1013F4002260226822F480222260002BE0D1FFF7D1
:10140400B1F880462368980397D5FFF7ABF8A0EBB3
:1014140008006428F6D9ABE7042E03D00C2E10D1B3
:10142400022F0ED12368590503D5EB68002B3FF436
:10143400FFAE63682A6923F0FE4343EA02636360F4
:101444007EE7EB687BB1236843F480732360FFF786
:1014540089F8074623685A05EBD4FFF783F8C01BC5
:101464000228F7D984E7236823F480732360FFF705
:1014740079F8074623685B057FF562AFFFF772F8DA
:10148400C01B0228F6D973E76B69DBB1D4F894303A
:1014940043F00103C4F89430FFF764F80746D4F826
:1014A40094309A073FF550AFFFF75CF8C01B022851
:1014B400F5D95DE700100240A05100080C0000209F
:1014C40004000020D4F8943023F00103C4F89430CD
:1014D400FFF748F80746D4F894309B077FF534AFFC
:1014E400FFF740F8C01B0228F5D941E7A36DDF00E0
:1014F40029D4A36D43F08053A365A36D03F08053F7
:101504000193019B4FF001089A4F3B68D8051DD504
:10151400AB68012B2BD1D4F8903043F00103C4F80D
:101524009030FFF71FF841F288390746D4F890301D
:101534009A0742D5B8F1000F3FF40AAFA36D23F028
:101544008053A36504E74FF00008DDE73B6843F4EC
:1015540080733B60FFF706F881463B68D905D7D412
:10156400FFF700F8A0EB09000228F6D900E7052BE5
:1015740006D1D4F8903043F00403C4F89030CAE79D
:10158400D4F8902022F00102C4F89020D4F89020DE
:1015940022F00402C4F89020002BC2D1FEF7E2FF2F
:1015A40041F288390746D4F890309B07C2D5FEF73C
:1015B400D9FFC01B4845F6D9DAE6FEF7D3FFC01BB6
:1015C4004845B3D9D4E66B6A9BB1D4F8983043F05C
:1015D4000103C4F89830FEF7C5FF0746D4F89830E5
:1015E40099073FF5B9AEFEF7BDFFC01B0228F5D938
:1015F400BEE6D4F8983023F00103C4F89830FEF71F
:10160400B1FF0746D4F898309A077FF5A5AEFEF7E8
:10161400A9FFC01B0228F5D9AAE6022B40F0888056
:10162400E368EA6A03F00301914222D1296B03F0D3
:1016340070020139B2EB011F1BD1696B03F4FE4246
:10164400B2EB012F15D1A96B03F07842B2EBC16F55
:101654000FD1EA6B520803F4C001013AB1EB425FC7
:1016640007D12A6C520803F0C063013AB3EB426F0E
:1016740045D00C2E3FF4DCAD23685B013FF5D8ADBB
:10168400236823F080732360FEF76CFF064623680B
:101694009F012ED4E268384B1340EA6A13436A6B05
:1016A40043EA0223AA6B43EAC2632A6B013A43EA80
:1016B4000213EA6B5208013A43EA42532A6C520875
:1016C400013A43EA4263E360236843F08073236092
:1016D400E36843F08073E360FEF744FF0546236844
:1016E4009E013FF53DAEFEF73DFF401B0228F6D9B3
:1016F4003EE6FEF737FF801B0228C8D938E6236888
:1017040098013FF52DAE236843F080732360E368AE
:1017140043F08073E360FEF725FF054623689901D3
:101724003FF51EAEFEF71EFF401B0228F6D91FE64A
:101734000C2E3FF47DAD236823F08073236023686F
:101744001A015EBFE36823F00303E360E36823F058
:10175400887323F48033E360FEF704FF05462368AF
:101764009B017FF5FDADFEF7FDFE401B0228F6D977
:10177400FEE500BF007000408C809D012DE9F04122
:101784000E46044610B90120BDE8F081414A1368B1
:1017940003F007038B422AD32368D90732D4216884
:1017A4008A075CD43B4A136803F007039E425ED366
:1017B40011F0040F384D65D10B0706D5AB682269CB
:1017C40023F4605343EAC203AB60FFF7DFFCAB686A
:1017D400324AC3F30313BDE8F041D35C03F01F03A3
:1017E400D8402F4B18602F4B1868FEF779BE13684A
:1017F40023F007030B431360136803F007039942B4
:10180400C1D1C9E76268244D032A2B681BD113F0A8
:10181400007FB8D0AB6823F003031343AB60FEF73B
:10182400A1FE41F288380746AB68626803F00C03F6
:10183400B3EB820FB3D0FEF795FEC01B4045F3D93E
:101844000320BDE8F081022A02D113F4003FE0E74F
:1018540012B913F0020FDCE713F4806FD9E70E4AD4
:10186400A068936823F0F003034393609AE7136836
:1018740023F0070333431360136803F007039E4206
:1018840081D195E7AB68E26823F4E0631343AB606E
:1018940092E700BF0020024000100240A05100085F
:1018A4000C00002004000020054B064A9B68C3F38B
:1018B4000223D35C044A106803F01F03D840704726
:1018C40000100240B05100080C000020054B064AED
:1018D4009B68C3F3C223D35C044A106803F01F035C
:1018E400D840704700100240B05100080C0000209E
:1018F400F8B5444BDA6812F0030F05460E461C4651
:10190400006839D0DA6802F0030282424BD1002A1F
:1019140049D0DB686A68C3F302130133934242D1AE
:10192400236823F080632360FEF71CFE07462368C8
:101934001A0141D4AF68002E45D0012E4FD122693F
:10194400286922F4C002400822F4FE42013842EA27
:10195400072242EA40522261236843F080632360F5
:10196400FEF700FE064623681B0145D52369AA69D4
:10197400134323610020F8BD022810D0032814D09B
:10198400012810D11B689F07F5D5E3686A6823F026
:101994007303013A184340EA0210E060C0E71B6891
:1019A40013F4806FF1D10120F8BD1A689103ECD4CF
:1019B4001B6813F4802FF5E7FEF7D4FDC01B022843
:1019C400B5D90320F8BD2269E96822F07842C90636
:1019D40041EA072322F4FE4213432361BCE723694F
:1019E400686923F0C063400823F4FE43013843EAE6
:1019F400072343EA4063F0E7FEF7B4FD801B0228A7
:101A0400B1D9DEE7001002402DE9F743056815F46B
:101A1400006504460ED0C16CB1F5000F53D0B1F58A
:101A2400400F55D000295ED10430FFF761FF054611
:101A340000284DD023689E0363D5B84EB36DD800FB
:101A440040F160810027DFF8D882D8F8003043F4F1
:101A54008073C8F80030FEF785FD8146D8F8003061
:101A6400D90542D5002D47D1D6F8903013F44073F0
:101A740014D0626E934211D0D6F89030D6F89020EC
:101A840042F48032C6F89020D6F8902023F44073B4
:101A940022F48032C6F89020C6F89030DA0709D5CF
:101AA400FEF760FD41F288398046D6F890309B07F6
:101AB40040F1FF80D6F89030626E23F440731343F4
:101AC400C6F8903018E0954AD36843F48033D36065
:101AD400924AE16CD2F8883023F440030B43C2F8F5
:101AE40088300025A6E70125A4E7FEF73BFDA0EB1F
:101AF40009000228B2D903251FB1B36D23F0805326
:101B0400B3652368DF0708D58449206AD1F88820A3
:101B140022F003020243C1F888209E0708D57F49BA
:101B2400606AD1F8882022F00C020243C1F88820B0
:101B3400580708D57949A06AD1F8882022F03002E4
:101B44000243C1F88820190708D57449E06AD1F81E
:101B5400882022F0C0020243C1F888209A0608D5E2
:101B64006E49206BD1F8882022F440620243C1F808
:101B740088209F0508D56949606CD1F8882022F433
:101B840040220243C1F888205E0508D56349A06C51
:101B9400D1F8882022F440120243C1F88820580664
:101BA40008D55E49606BD1F8882022F44052024384
:101BB400C1F88820190608D55849A06BD1F88820A7
:101BC40022F440420243C1F88820DA0508D553497B
:101BD400E06BD1F8882022F440320243C1F8882017
:101BE400DF0208D54D49206CD1F89C2022F0030275
:101BF4000243C1F89C209E040FD5484A216DD2F8B7
:101C0400883023F040630B43B1F1006FC2F8883091
:101C140057D1D36843F48013D360236818030FD5D6
:101C24003E4A616DD2F8883023F040630B43B1F132
:101C3400006FC2F888304FD1D36843F48013D36067
:101C4400236859030FD5354AA16DD2F8883023F0A3
:101C540040630B43B1F1006FC2F8883047D1D368B9
:101C640043F48013D36023685A0412D52B49E26DE0
:101C7400D1F8883023F040531343B2F1805FC1F8A8
:101C8400883006D10221201DFFF732FE002818BF3C
:101C940005462368DB0308D5204A216ED2F8883034
:101CA40023F000430B43C2F88830284603B0BDE854
:101CB400F083FEF757FCA0EB080048457FF6F5AE2D
:101CC40019E7B1F1806FA8D10121201DFFF710FEA3
:101CD400002818BF0546A0E7B1F1806FB0D10121FB
:101CE400201DFFF705FE002818BF0546A8E7B1F13F
:101CF400806FB8D10121201DFFF7FAFD002818BF1D
:101D04000546B0E7B36D43F08053B365B36D03F09C
:101D140080530193019B012795E600BF0010024008
:101D240000700040026838B5D36823F0A003D36084
:101D34000446FEF717FC05462368DB689B0601D5BD
:101D4400002038BDFEF70EFC401BB0F57A7FF3D9B6
:101D5400032038BDF8B50368DC6814F04004054678
:101D640018D14FF0FF32DA60FEF7FCFB032706467A
:101D74002B68DB685B0601D4032C01D12046F8BD37
:101D8400FEF7F0FB801BB0F57A7F84BF85F82170E5
:101D94000324EDE70024F1E738B50F4CE36823F0A2
:101DA4008003E360A3689B06054606D4FFF7BAFFE9
:101DB40088B1032085F8210038BDA36823F02003EF
:101DC400A360FFF7AFFF10B1032085F82100A368DB
:101DD40043F02003A36038BD0028004038B5044612
:101DE400002840D090F8213003F0FF021BB980F89E
:101DF400202002F079FE022384F821302368CA22CD
:101E04005A6253225A622046FFF7A4FF00282BD1BE
:101E1400236820699A6822F4E00222F040029A6062
:101E2400626899680243A06902430A439A60E268BF
:101E34001A611A69A16842EA01421A612046FFF751
:101E4400ABFF88B923686569DA6C22F00302DA64AF
:101E5400E269D96C2A430A43DA64FF225A620123F5
:101E640084F8213038BD012038BD0023092803D867
:101E740040EA0310C0B270470A380133C0B2F5E734
:101E8400F8B590F82030012B05460E4617464FF062
:101E9400020352D080F821300122036880F8202008
:101EA400CA225A6253225A62FFF754FF68BB2B6856
:101EB40030787478B1789B6897BB13F0400308BFFF
:101EC400F370FFF7D2FF02462046FFF7CEFF044629
:101ED4000846FFF7CAFFF37840EA835040EA02401D
:101EE40040EA04202B6800F07F3020F0FE401860A8
:101EF4009A68306922F480229A60F26899680243F1
:101F04000A439A602846FFF747FF2B68FF225A626C
:101F140010B9012385F82130002385F82030F8BD5D
:101F240013F040034FEA042408BFF37044EA00406E
:101F3400F478084340EA8450D4E71846F8BDF8B56D
:101F440090F82030012B05464FF0020043D00123C6
:101F540085F8203085F821004B78C8788E780C7885
:101F640092BBDA0603D523F010030A334B70FFF754
:101F74007CFF07464878FFF778FF02463046FFF7B4
:101F840074FF40EA443040EA074040EA02242B68E8
:101F9400CA225A6253225A622846FFF7DBFE40B92E
:101FA4002B6824F07F4424F0C0045C602846FFF7CB
:101FB400F3FE2B68FF225A6210B9012385F8213001
:101FC400002385F82030F8BD1B0243EA004030436B
:101FD40040EA4434DBE7F8BD90F82030012B2DE9CA
:101FE400F04704464FF002005ED0012384F820300D
:101FF400236884F82100087891F801908D7891F88D
:1020040024800E6A4F699B68002A4FD113F0400365
:1020140008BFCB70FFF729FF82464846FFF725FF2C
:1020240002462846FFF721FF81464046FFF71DFF81
:10203400CD783E4346EA855545EA090545EA0A4511
:1020440045EA022545EA0065CB694E681E432368CC
:10205400CA225A6253225A628A6AB2F5807F9A6807
:1020640046D122F480729A60DA68D2B262F4C07205
:10207400DA609A6822F480529A60FEF773FA804616
:102084002368DF6817F0010721D0DD615E649A6878
:1020940042F480729A602368FF225A62002001236E
:1020A40084F8213084F82000BDE8F08713F0400361
:1020B40046EA070608BFCB70354345EA0045C878B1
:1020C40045EA092545EA805545EA0865BCE7FEF777
:1020D40049FAA0EB0800B0F57A7FD1D92368FF2232
:1020E40003205A6284F8210084F82070BDE8F08748
:1020F40022F400729A60DA68D2B262F42072DA6072
:102104009A6822F400529A60FEF72CFA80462368FB
:10211400DF6817F0020705D01D629E649A6842F4D6
:102124000072B7E7FEF71EFAA0EB0800B0F57A7F5D
:10213400EDD9D3E72DE9F04389B005460E46FEF705
:1021440011FA00238146082128680093019301F0C5
:1021540029FE044640BB296D2868090401F032FFBA
:10216400044608BB4FF0FF33029308230393302344
:102174000493022305930690012302A92868079378
:1021840001F0FDFD286801F04EFF044660B90746E2
:1021940040F22A482868436B13EA080F436B07D0C0
:1021A400190718D508248463204609B0BDE8F083D4
:1021B4009B0207D501F0B9FD08AB03EB8703013798
:1021C40043F8200CFEF7CEF9A0EB09000130E1D171
:1021D4004FF00044E8E7436B9A0701D50224E2E795
:1021E400436B9B0601D52024DDE740F23A53836319
:1021F400019B1BBA3360009B1BBA7360D4E70000D9
:102204002DE9F04F87B004460D4616469946DDF891
:102214004080FEF7A7F907462DB9A36B43F000638E
:10222400A363012010E094F83400C0B2012840F008
:10223400E480E26D06EB090300219342A16306D911
:10224400A36B43F00073A36307B0BDE8F08F0323CF
:1022540084F83430636C2068012B4FF0FF33009313
:102264004FEA492301934FF09003C16202934FF068
:10227400010A4FF000034FF0020B694618BF7602C3
:10228400CDF80CB00493CDF814A001F078FDD1453D
:1022940012D9C4F830B03146206801F0B3FD90B1D2
:1022A4002368584A9A63A36B1843A0630120002350
:1022B40084F834002363C7E7C4F830A031462068AB
:1022C40001F088FDEBE7DDF804A02068436B13F40C
:1022D400957F436B17D0DE0509D5B9F1010F06D9F7
:1022E400636C032B03D001F0D5FD0028D8D12368FB
:1022F400596B11F0080135D0424A9A63A36B43F03D
:102304000803A363D2E71B0419D5BAF1000F16D052
:102314002E1D05F1240B206801F007FD030A06F8C1
:10232400040C06F8033C030C000E06F8023C06F805
:10233400010C04365E45EED12035AAF1200AFEF7E1
:1023440011F9C01B4045C0D323682E4A9A63A36B7E
:1023540043F00043A363012384F834300023236350
:10236400032071E75A6B12F002020AD0254A9A63DD
:10237400A36B012043F00203A36384F834002163B8
:1023840062E7596B89060AD51E499963A36B01203C
:1023940043F02003A36384F83400226354E72E1D22
:1023A4000AF1040A2068436B9B0207D440F23A53B3
:1023B4008363012384F83430002045E7AAEB060345
:1023C400DD42F3D001F0B1FC030A06F8040C06F870
:1023D400033C030C000E06F8023C06F8010CFEF761
:1023E400C1F8C01B804506F10406DBD82368054A02
:1023F4009A63A36B43F0004383E7A36B43F000535A
:102404000EE700BFFF0540002DE9F04788B0044601
:102414000E4691461F46FEF7A5F880462EB9A36BDB
:1024240043F00063A363012010E094F83400C0B2C9
:10243400012840F0AC80E26D09EB070300219342D0
:10244400A16306D9A36B43F00073A36308B0BDE88E
:10245400F087032384F83430636C2068012B4FF039
:10246400FF3302934FEA472303934FF090030493FF
:102474004FF00003C1620593069302A94FF00103D4
:1024840018BF4FEA4929079301F079FC012F12D9AB
:10249400202323634946206801F0E4FC90B12368BB
:1024A4003D4A9A63A36B1843A0630120002384F878
:1024B40034002363CAE7102323634946206801F0EC
:1024C400B9FCEBE7039D2068436B13F48D7F436BEA
:1024D40016D0DB0508D5012F06D9636C032B03D076
:1024E40001F0D8FC0028DAD12368596B11F00801F7
:1024F40028D0294A9A63A36B43F00803A363D4E763
:102504005A040CD55DB106F1200A56F8043B206844
:10251400019301A901F00CFCB245F6D1203DFEF770
:1025240021F8109BA0EB08009842CCD323681A4AE8
:102534009A63A36BA363012384F8343000232363D9
:10254400032083E75A6B12F002020AD0124A9A63FC
:10255400A36B012043F00203A36384F834002163D6
:1025640074E7586B10F010000AD00B499963A36B01
:10257400012043F01003A36384F83400226365E769
:1025840040F23A529A63012384F834305EE7A36B35
:1025940043F0005346E700BFFF054000436E9A0F27
:1025A4000A70C3F383624A70C3F301628A70C3F38F
:1025B4000742CA70C3F30722DBB20A714B71836E00
:1025C4001A0DCA80C3F303420A72C3F3C0324A72BB
:1025D400C3F380328A72C3F34032CA72C3F3003247
:1025E4000A7300224A73426C10B5002A6BD1C26E82
:1025F40040F6FC7404EA830343EA92730B61C2F36A
:10260400C2630B75C2F302634B75C2F342538B75FD
:10261400C2F38243C2F3C232CB750A760B690A7ED7
:1026240002F0070202320133934043650A7A02F052
:102634000F040122A2408265520A5343C3654FF43A
:1026440000730366C36EC3F380324A76C3F3C612C3
:1026540003F07F038A76CB76036FDA0F0A77C3F32E
:1026640041724A77C3F382628A77C3F38352CA778B
:10267400C3F3405281F820200020C3F3004281F8C4
:10268400210081F82220C3F3C03281F82320C3F350
:10269400803281F82420C3F3403281F82520C3F32B
:1026A400003281F82620C3F3812281F82720C3F366
:1026B4000122C3F3460381F8282081F8293001233D
:1026C40081F82A3010BD012A0FD1B0F86E201B0406
:1026D40003F47C1313430B610B6901339B024365C1
:1026E400C3654FF400738365ABE70368054A9A63D7
:1026F400836B43F080538363012380F8343018469E
:1027040010BD00BFFF0540002DE9F04198B0002343
:102714000793089309930A930B9376230C930AABBC
:10272400044693E807008DE8070007AB0ECB20684A
:1027340001F0E0FA20B10125284618B0BDE8F08187
:102744002068436823F48073436001F0F6FA00289C
:10275400F1D123685A6842F480725A600690184690
:1027640001F0CAFB0546002840F08980206801F08A
:10277400EBFB30B1A564206801F0BEFB18B105463F
:102784007DE00123A364A36C012B70D04FF6FE7689
:10279400DFF8988100213746069BB34276D9069B21
:1027A400BB4200F2B78015F080454FF0010318BF1B
:1027B4001D4665642068ADF8163001F0C6FA00289D
:1027C40000F0AB80636C032B19D0206801F043FC4C
:1027D40000287AD10146206801F0CEFA042160670E
:1027E400206801F0C9FA0821A067206801F0C4FA42
:1027F4000C21E067206801F0BFFAC4F88000636C24
:10280400032B5BD1636C032B66D10421206801F098
:10281400B3FA000DE0640DA92046FFF7BFFE05469C
:1028240000287DD1226D03461204206801F04CFB80
:1028340000284AD104F1100393E807008DE807004B
:10284400231D0ECB206801F055FA4FF40071206867
:1028540001F0A8FA00283FF46FAF2368324A9A6364
:10286400A36B01251843A06384F8345064E7002166
:10287400206801F0A7FB002888D04FF08055012381
:1028840084F83430A26B1543A56354E7002986D13C
:10289400206801F097FB05460028F0D141462068E6
:1028A40001F0A8FB0028E8D12946206801F064FA69
:1028B400069B013305460693C10F6DE70DF1160122
:1028C400206801F0F3FB00289CD0012584F83450E3
:1028D400A16B0843A0632FE7BDF81610216520689B
:1028E400090401F0CDFB0028EFD10146206801F076
:1028F40043FA04216066206801F03EFA0821A066CC
:10290400206801F039FA0C21E066206801F034FAFD
:1029140020677AE74FF08075B1E74FF08060D4E725
:102924004FF08050D1E700BFFF054000000010C108
:1029340010B5044608B9012010BD90F8343003F0F6
:10294400FF0213B9027702F057F9032384F83430F5
:102954002046FFF7D9FE0028EDD10123A0632063B0
:1029640084F8343010BD436C0B60836C4B60C36CD3
:102974008B60036DCB60436D0B61836D4B61C36DE5
:102984008B61036ECB6100207047000070B5032398
:1029940080F83430436C032B8AB004460D4602D0D1
:1029A400B1F5805F03D1A36B43F0805364E0B1F5CC
:1029B400006F3BD1002100680491059101F0DCF91E
:1029C40080012ED404A92046FFF7B4FB60B9059B0F
:1029D400590328D5216D2068090401F0F3FA18B9C8
:1029E4000221206801F0E2FBA36B1843A063A66BED
:1029F400002E43D023682C4A9A6301264FF40071B9
:102A0400206801F0CFF930B12368274A9A63A36B99
:102A14001843A06301260123304684F834300AB0F9
:102A240070BD2846E0E74FF08060DDE709BB006831
:102A34000491059101F0A0F9820114D404A920465F
:102A4400FFF778FB60B9059BDB030FD5216D206888
:102A5400090401F0B7FA18B90146206801F0A6FB91
:102A6400A16B0843C2E74FF40060F9E74FF08060C0
:102A7400F6E7836B43F00063A363B8E763680493EA
:102A8400A3680593E368069363690893A3690993AC
:102A940007950AAB13E907008DE8070004AB0ECBDA
:102AA400206801F027F9A9E7FF054000016D10B582
:102AB40009040446006801F049FB014628B920686E
:102AC40001F05AF9C0F3432010BDA36B1943A1636D
:102AD4000020F7E770B5044600284AD0002383623B
:102AE40090F85D3003F0FF021BB980F85C2002F01F
:102AF400F5F80223216884F85D300B68E26823F05E
:102B04004003B2F5E06F0B604FF000032ED9184676
:102B1400B2F5706F18BFA362236B2BB9B2F5E06FE7
:102B24008CBF022301232363A6686368A56933432A
:102B34002669334366693343E6693343266A33437C
:102B4400A66A334305F4007633430B60636A1A4381
:102B5400636B2D0C1A4305F004052A430243012339
:102B640000204A60206684F85D3070BD4FF48050C8
:102B7400D0E7012070BD0000036A23F00103036263
:102B8400036A70B5456882690C6822F4803222F0C9
:102B9400730222438C6823F002032343124CA042A5
:102BA40006D0124EB04203D006F58066B04214D16E
:102BB400CE6823F008033343A04223F0040306D075
:102BC4000A4CA04203D004F58064A04205D14C69AC
:102BD4008E6925F4407534432543456082614A6813
:102BE4004263036270BD00BF002C014000400140FD
:102BF400036A23F480730362036A426870B5C4698C
:102C04000D6824F4803424F073042C438D6823F479
:102C1400007343EA05230F4DA8420ED1CD6823F477
:102C2400006343EA052323F480634D698E6922F42B
:102C34004052354342EA051205E0074DA842F4D05C
:102C4400064DA842F1D042604A68C461C26303627F
:102C540070BD00BF002C0140004001400044014011
:102C6400036A23F480530362026A30B54468C3697B
:102C74000D6823F0807323F4E64343EA05238D684B
:102C840022F4005242EA05320A4DA84207D005F563
:102C9400A055A84203D005F58065A84204D14D692A
:102CA40024F4804444EA85144460C3614B6803649B
:102CB400026230BD002C0140036A23F480330362B6
:102CC400026A30B54468436D0D6823F4803323F001
:102CD40070032B438D6822F4003242EA05420B4D07
:102CE400A84207D005F5A055A84203D005F5806594
:102CF400A84204D14D6924F4803444EA0524446094
:102D040043654B688365026230BD00BF002C0140FF
:102D1400036A23F480130362026A30B54468436D86
:102D24000D6823F0807323F4E04343EA05238D68A0
:102D340022F4001242EA05520A4DA84207D005F5D2
:102D4400A055A84203D005F58065A84204D14D6979
:102D540024F4802444EA8524446043654B68C365B5
:102D6400026230BD002C0140704700001D4A036818
:102D7400904210B505D0B0F1804F02D01A4CA04259
:102D84000CD14C6823F07003904243EA04030CD046
:102D9400B0F1804F09D0144A904206D0134A9042B1
:102DA40003D002F58062904203D1CA6823F44073D1
:102DB40013434A6923F08003134303608B68C3629F
:102DC4000B688362074B984207D003F5A0539842DF
:102DD40003D003F58063984201D10B690363012397
:102DE400436110BD002C014000040040004001403C
:102DF40010B50446A0B190F83D3003F0FF021BB9B2
:102E040080F83C2002F030F8022384F83D3020683A
:102E1400211DFFF7ABFF012384F83D30002010BDD6
:102E2400012010BD10B50446A0B190F83D3003F068
:102E3400FF021BB980F83C20FFF796FF022384F8B9
:102E44003D302068211DFFF791FF012384F83D30B8
:102E5400002010BD012010BD036A23F0100303629B
:102E6400036A426870B584690D6824F0807424F4A0
:102E7400E64444EA05248D6823F0200343EA05135D
:102E84000E4DA8420ED1CD6823F0800343EA05130A
:102E940023F040034D698E6922F44062354342EACF
:102EA400850205E0064DA842F4D0064DA842F1D0B3
:102EB40042604A6884618263036270BD002C0140F1
:102EC400004001400044014090F83C30012B10B513
:102ED40004464FF0020010D00123082A84F83C3045
:102EE40084F83D001CD009D892B1042A14D00123DF
:102EF400002084F83D3084F83C0010BD102A13D023
:102F0400142A15D00C2AF2D12068FFF7A9FEEEE7A7
:102F14002068FFF731FEEAE72068FFF79DFFE6E748
:102F24002068FFF765FEE2E72068FFF7C5FEDEE7ED
:102F34002068FFF7EDFEDAE710B584680A4324F44D
:102F44007F4442EA03232343836010BD90F83C305E
:102F5400012B70B504464FF0020017D084F83D00F1
:102F64002068012384F83C308268414B134083601D
:102F74000B68402B65D015D8102B0CD007D853B153
:102F84000123002084F83D3084F83C0070BD202BE0
:102F940001D0302BF4D1826843F0070322F0700291
:102FA40013431AE0602B34D019D8502BE8D14A6867
:102FB400CE68016A056A25F001050562836921F07E
:102FC4000A0123F0F00343EA06130A438361026211
:102FD400836823F0700343F057038360D0E7702BBA
:102FE4000CD0B3F5005FCBD1CB684A688968FFF792
:102FF400A3FF2268936843F4804308E0CB684A68DF
:103004008968FFF799FF2268936843F07703936018
:10301400B6E74D68CE68016A21F010010162826949
:10302400036A22F4704223F0A00343EA051342EA40
:10303400063282610362836823F0700343F06703FE
:10304400CBE74A68CE68016A056A25F00105056286
:10305400836921F00A0123F0F00343EA06130A43CB
:1030640083610262836823F0700343F04703B4E78B
:103074008800FEFF90F83C30012B70B54FF002033E
:103084002BD080F83D30164D03680122AB4280F806
:103094003C205A6808BF4E689C6804BF22F4700242
:1030A40032430E6822F070023243AB425A6009D0B8
:1030B400B3F1804F06D00B4A934203D002F59E32FF
:1030C400934204D1896824F080020A439A60012360
:1030D40080F83D30002380F83C30184670BD00BFB6
:1030E400002C0140000400400268C169F8B50446A0
:1030F400836800691568034360690343AF480B4361
:103104002840034313605368E06823F440530343A7
:103114005360AB4BA0699A421CBF236A184393685F
:1031240023F4306303439360A64B9A4218D103F50A
:103134005843A54AD3F8883003F00303B1F5004F90
:10314400D35C40F02381082B77D8DFE813F000012B
:10315400B300E20076001C017600760076003600AB
:103164009A4B9A4207D103F5E633994AD3F888304B
:1031740003F00C03E2E7974B9A4223D103F5E433BF
:10318400D3F8883003F03003102B00F0F9800BD80B
:10319400002B00F0D980B1F5004F4FF001024FF041
:1031A400000300F0DE8091E0202B00F0AF80302B94
:1031B400F1D1B1F5004F40F0A1806068430803F5F8
:1031C4008033ACE0844B9A421CD103F5E233D3F84C
:1031D400883003F0C003402B00F0AF8006D8002BEA
:1031E40000F0A080764B9A42D5D126E0802B00F0E7
:1031F4008A80C02BF6D1724B9A42DAD14FF4004048
:10320400082315E06E4B9A42C5D103F5C833D3F8B1
:10321400883003F44063B3F5806F00F08E80DED90C
:10322400B3F5006F6FD0B3F5406FE3E76B4802234B
:10323400626802EB4201814205D901220023236620
:1032440063661046F8BDB0EB023FF6D8082B2ED8C3
:10325400DFE803F0052D1C2D242D2D2D2700FEF76E
:1032640023FB62684FF4807156080027E1FB006776
:10327400002330463946FCF7ABFF0022584BA0F53B
:1032840040719942D9D82368D860D7E75548550882
:1032940000230021401941F10001ECE7FDF776FF1E
:1032A400DFE750080021002310F50000F3E70122B6
:1032B4000020E3E7FEF70AFB4BE0FEF7F5FA62684D
:1032C40000EB5203B3FBF2F39BB20022A3F1100014
:1032D4004FF6EF718842B0D82168CB60AEE7FEF7B5
:1032E400F5FAECE76068430803F5740303F510533B
:1032F400B3FBF0F3E8E7FDF749FFE0E76068430854
:1033040003F50043F4E72E4B9A428FD0B1F5004FFA
:10331400E8D16068430803F1F47303F59043B3FB09
:10332400F0F31CE0264B9A420ED1FEF7BDFA0023BF
:1033340000287FF47DAF024680E7214B9A421FD1DB
:10334400FDF724FF0423F3E7B1F5004FB5D1FEF7F1
:10335400ABFA61684A0802EB4003B3FBF1F39BB29A
:103364000022A3F110004FF6EF7188423FF665AFDB
:1033740023F00F012068C3F342030B43C3605DE7EE
:10338400B1F5004FB7D1FDF701FFE2E7082B3FF697
:1033940054AF01A252F823F0BF320008E332000810
:1033A400E93200083F320008FB3200083F320008CF
:1033B4003F3200083F32000801330008F369FFEF91
:1033C400008000400038014078510008004400406B
:1033D4007C51000800480040004C00400024F400E8
:1033E400FFFC0F00000024F4436ADA0710B506D589
:1033F4000168846A4A6822F4003222434A609C07C6
:1034040006D50168C46A4A6822F4803222434A60BD
:10341400590706D50168046B4A6822F480222243C6
:103424004A601A0706D50168446B4A6822F40042D0
:1034340022434A60DC0606D50168846B8A6822F45C
:10344400805222438A60990606D50168C46B8A6853
:1034540022F4005222438A605A060FD50168046C94
:103464004A6822F480122243B4F5801F4A6005D1D1
:103474004A68446C22F4C00222434A601B0606D503
:103484000268816C536823F400230B43536010BD1E
:103494002DE9F041069D04460F46164698462168DC
:1034A400CA6937EA02030CBF01220022B24202D0E9
:1034B4000020BDE8F081681CF2D0FDF753F8A0EBC2
:1034C400080085422068036800D37DB923F4D073D3
:1034D4000360836823F00103836020236367A36789
:1034E400002384F870300320BDE8F0815A07D6D554
:1034F400C3691B05D3D54FF400630362036823F447
:10350400D0730360836823F001038360202363671F
:10351400A367E367E4E773B504460026C667FDF7CF
:1035240021F823681B681A07054615D423681B680D
:103534005B070AD56FF07E43009300222B464FF4BD
:1035440080012046FFF7A4FF90B920230020636781
:1035540084F87000A3670CE06FF07E43009332465A
:1035640003464FF400112046FFF792FF0028DDD0F8
:10357400032002B070BD10B5044640B3436F1BB9BD
:1035840080F8703001F062FD2268242363671368B9
:1035940023F0010313602046FFF7A6FD012816D08F
:1035A400636A13B12046FFF71FFF23685A6822F4A9
:1035B40090425A609A6822F02A029A601A6842F08D
:1035C400010220461A60BDE81040FFF7A4BF0120A5
:1035D40010BD00000146007A0B6810B5002800F009
:1035E4008280002B49D04A7A012A29D003D3022AA7
:1035F4002FD0012008E0454A506820EA03005060BB
:1036040010681843106000208A7A6AB1022A24D014
:10361400032A2BD0012A2DD13C4AD46824EA03047E
:10362400D4609468234393604B68002B6DD04A7A2E
:10363400012A3ED023D3022A44D040F0040026E0DD
:10364400324A106820EA0300106050681843506042
:10365400D9E72E4A10681843F6E72C4A946824EAFE
:1036640003049460D4682343D360DDE7274A946855
:103674001C43F6E740F00200D6E71846D4E7234A95
:10368400546A24EA03045462146A1C4314628A7A56
:10369400002A3AD0022A19D0032A20D0012A33D191
:1036A4001A4AD16A21EA0301D162916A0B439362F7
:1036B40010BD164A146A24EA03041462546A1C43B3
:1036C4005462E4E7114A146A1C43F6E70F4A916A0C
:1036D40021EA03019162D16A0B43D36210BD0B4A04
:1036E400916A1943F6E7094A1468DB431C401460E5
:1036F4005468234053604B68146ADB431C401462D3
:10370400516A0B40536210BD012010BD00040140FA
:103714002DE9F0430A6892FAA2F44FF0010EB4FACC
:1037240084F403250F2732FA04F30DD14B68013BCF
:10373400012B06D84368C96823EA02034A431A43A3
:1037440042600020BDE8F0830EFA04F3134065D014
:10375400D1F80480D0F8009093FAA3FCBCFA8CFC56
:1037640093FAA3F6B6FA86F64FEA4C0C05FA0CFC6B
:10377400760029EA0C0C08FA06F64CEA06060660FE
:1037840008F1FF36012E16D8866893FAA3FCBCFA1A
:103794008CFC93FAA3F94FEA4C0C05FA0CFC26EACC
:1037A4000C0CB9FA89F98E684FEA490906FA09F648
:1037B4004CEA06068660C66893FAA3FCBCFA8CFC45
:1037C40093FAA3F94FEA4C0C05FA0CFC26EA0C0C0C
:1037D400B9FA89F90E694FEA490906FA09F64CEA79
:1037E4000606B8F1020FC66018D1FF2BD1F814C039
:1037F40016D8D0F8208093FAA3F6B6FA86F693FA90
:10380400A3F3B3FA83F3B60007FA06F69B0028EA9B
:1038140006060CFA03FC46EA0C060662013482E74B
:10382400D0F824801B0A93FAA3F6B6FA86F693FA24
:10383400A3F3B3FA83F3B60007FA06F69B0028EA6B
:1038440006060CFA03F333434362E7E7024B1868B6
:10385400C0F38020704700BF00100240024BD3F831
:103864009000C0F34000704700100240024B1868FB
:10387400C0F3C000704700BF00100240034B044A6D
:103884009B68C3F30313D35CD84070470010024015
:10389400A0510008034B044A9B68C3F30223D35C82
:1038A400D840704700100240B0510008034B044A4E
:1038B4009B68C3F3C223D35CD84070470010024016
:1038C400B05100081E4AD36803F00303022B10B55D
:1038D40034D0032B0BD01B49FFF7C8FF0446F0B9C3
:1038E400FFF7C4FFB0B1136851F8240000E0164894
:1038F400D468D168D368C4F30212C3F341630132BC
:103904000133B0FBF2F0C1F3062250435B00B0FB7D
:10391400F3F010BDD2F89440C4F30324E4E7FFF7B6
:10392400A5FF28B11368C3F3031351F82300DFE79D
:10393400D2F894301B0903F0F003F6E70348D7E705
:1039440000100240B851000800127A000024F4006C
:103954001B4A936803F00C0310B50C2B0ED8DFE858
:1039640003F00D0D0D0D2D0D0D0D070D0D0D0900A1
:10397400144810BDBDE81040FFF7A4BFFFF776FF61
:10398400114C014658B9FFF771FF18B1136854F888
:10399400210010BDD2F89410C1F30321F7E7FFF71B
:1039A40065FF28B11368C3F3031354F8230010BD53
:1039B400D2F894301B0903F0F003F6E7034810BD76
:1039C4000010024000127A00B85100080024F400EC
:1039D400032808B522D1394B394AD3F8883003F08B
:1039E400030343F44033934209D0B3F1031F5DD082
:1039F400013A93420AD1BDE80840FFF7A9BFFFF797
:103A040025FF08B9002008BD2E4808BDFFF7A0FF18
:103A1400FFF734FFBDE80840FFF748BF0C2827D163
:103A2400264BD3F8883003F00C0343F44023A3F56A
:103A340040230C2BE6D801A252F823F0953A000853
:103A4400093A0008093A0008093A0008FB39000855
:103A5400093A0008093A0008093A0008033A00083C
:103A6400093A0008093A0008093A0008B13A00087E
:103A74003028C7D1114B144AD3F8883003F03003EF
:103A840043F440139342B6D00AD8B3F5401FB9D1DA
:103A9400FFF75EFFFFF7F2FEBDE80840FFF7FABE4E
:103AA4000A4A9342ABD0B3F1301FABD1FFF7D6FE35
:103AB4000028A7D04FF4004008BD00BF001002400A
:103AC400020003000024F400100030002000300045
:103AD400C02808B501D0002008BD164B164AD3F8FB
:103AE400883003F0C00343F44003934218D00AD84B
:103AF400B3F5400FEFD1FFF72BFFFFF7BFFEBDE893
:103B04000840FFF7C7BE0D4A93420DD0B3F1C01F62
:103B1400E1D1FFF7A3FE0028DDD04FF4004008BD3B
:103B2400BDE80840FFF714BFFFF790FE0028D2D08D
:103B3400034808BD001002404000C0008000C000DF
:103B44000024F400124B4FF4FA521B68B3FBF2F258
:103B540041F28833534313F1FF3315D3426B12F010
:103B6400450FF8D01205F6D4436B5B0703D5042345
:103B7400836318467047436B13F0010301D001239C
:103B8400F6E7C5228263F4E74FF00043F1E700BF94
:103B94000C0000200F4B4FF4FA521B68B3FBF2F2F7
:103BA40041F28833534313F1FF330FD3426B12F0C6
:103BB400450FF8D01205F6D4436B13F0040315BF78
:103BC4000423C52283638263184670474FF0004084
:103BD400704700BF0C000020444B10B51B684FF425
:103BE400FA54B3FBF4F35A43002A4AD0436B13F05C
:103BF400450F08D01C0506D4436B5B0705D5042389
:103C04008363184610BD013AEEE7436BDC0703D526
:103C140001238363012010BDC52383630369DBB2E1
:103C24009942F7D143693248184000285CD0002BF0
:103C34002ADB5A002BD49C002BD4D9002BD41A0194
:103C44002CD45C012DD4D9012ED41A022FD45C02B9
:103C540030D4990231D4DA0232D45C0333D49903D8
:103C640034D4DA0335D41C0436D4590437D49A0432
:103C740038D413F0080F0CBF4FF480304FF4000019
:103C840010BD4FF0004010BD4FF0007010BD40203B
:103C940010BD802010BD4FF4807010BD4FF4007033
:103CA40010BD4FF4806010BD4FF4006010BD4FF4A0
:103CB400805010BD4FF4005010BD4FF4804010BD33
:103CC4004FF4004010BD4FF4003010BD4FF480207D
:103CD40010BD4FF4002010BD4FF4801010BD4FF400
:103CE400001010BD4FF4800010BD00BF0C00002078
:103CF40008E0FFFD84B010B503AC84E80E00049B1B
:103D040042680B4305990B4306990B4307990B43F0
:103D14000899BDE8104022F4FD420B4322F07F02D3
:103D24001343436004B000207047D0F8800070470C
:103D34000B68C0F880300020704708B50323036087
:103D44000220FCF715FC002008BD006800F0030009
:103D540070470B6810B583608C684B68C268234356
:103D6400CC680969234322F47F620B4322F00F02DB
:103D74001343C360002010BD1430405870470B68D3
:103D840010B543624B688362CC688B68C26A234374
:103D94000C69496923430B4322F0F7021343C362BE
:103DA400002010BD30B587B040230393002305469F
:103DB40001911024049301A94FF4806305930294A4
:103DC400FFF7C7FF41F2883221462846FFF704FF78
:103DD40007B030BD30B587B04023039300230546B8
:103DE40001911124049301A94FF480630593029473
:103DF400FFF7AFFF41F2883221462846FFF7ECFE79
:103E040007B030BD30B587B0402303930023054687
:103E140001911224049301A94FF480630593029441
:103E2400FFF797FF41F2883221462846FFF7D4FE78
:103E340007B030BD30B587B0402303930023054657
:103E440001911824049301A94FF48063059302940B
:103E5400FFF77FFF41F2883221462846FFF7BCFE78
:103E640007B030BD30B587B0402303930023054627
:103E740001911924049301A94FF4806305930294DA
:103E8400FFF767FF41F2883221462846FFF7A4FE78
:103E940007B030BD30B587B00023054601930C242C
:103EA4004022049301A94FF4806303920593029482
:103EB400FFF74FFF034A21462846FFF78DFE07B060
:103EC40030BD00BF00E1F50530B587B04023039352
:103ED400002305460724049301A94FF4806301924B
:103EE40005930294FFF735FF41F2883221462846B4
:103EF400FFF772FE07B030BD10B586B00023019302
:103F040002930393049301A94FF480630593044639
:103F1400FFF71FFF0B4B4FF4FA521B68B3FBF2F28F
:103F240041F28833534313F1FF3307D3626B120614
:103F3400F9D5C523A363002006B010BD4FF000409F
:103F4400FAE700BF0C00002010B586B04FF4D5731B
:103F5400019308230293402303930023049301A9AC
:103F64004FF4806305930446FFF7F3FE144B4FF4BC
:103F7400FA521B68B3FBF2F241F28833534313F154
:103F8400FF331AD3626B12F0450FF8D01205F6D442
:103F9400636B5B0703D50420A06306B010BD626B9E
:103FA40012F0010201D00120F6E7606B10F040002E
:103FB400F3D04023A3631046EFE74FF00040ECE753
:103FC4000C00002030B587B040230393002305463E
:103FD40001913724049301A94FF48063059302945B
:103FE400FFF7B7FE41F2883221462846FFF7F4FD79
:103FF40007B030BD10B586B02923029341F00041CB
:104004004023039341F48011002304460191049357
:1040140001A94FF480630593FFF79BFE2046FFF749
:10402400B9FD06B010BD30B587B000230546019335
:1040340033244022049301A94FF48063039205932F
:104044000294FFF786FE41F2883221462846FFF7A4
:10405400C3FD07B030BD10B586B00023022204466C
:10406400019302920493C0224FF4806301A9039246
:104074000593FFF76EFE2046FFF764FD06B010BD02
:1040840010B586B009230293C0230393002304468A
:104094000191049301A94FF480630593FFF759FE3E
:1040A4002046FFF74FFD06B010BD000030B587B0C5
:1040B4000023032201930292049340224FF480636D
:1040C4000D4601A9039205930446FFF742FE1E4BD9
:1040D4004FF4FA521B68B3FBF2F241F288335343B4
:1040E40013F1FF3328D3626B12F0450FF8D0120599
:1040F400F6D4636B580703D50420A06307B030BD22
:10410400636BD90701D50120F7E72369DBB2032BE1
:1041140015D1C523A363636913F4604002D11B0C5A
:104124002B80EBE75A040CD413F4004F0CBF4FF46C
:1041340080304FF48050E1E74FF00040DEE701208B
:10414400DCE74FF40050D9E70C00002030B587B00D
:10415400402303930023054601910D24049301A9F0
:104164004FF4806305930294FFF7F3FD41F2883224
:1041740021462846FFF730FD07B030BD30B587B083
:10418400402303930023054601910624049301A9C7
:104194004FF4806305930294FFF7DBFD41F288320C
:1041A40021462846FFF718FD07B030BDFFF7E6BFEC
:1041B40038B50368DB0704460D4617D5012038BD22
:1041C400254B9C4201D10C202CE0244B9C4201D174
:1041D400302027E0224B9C42F0D1C020FFF778FC2E
:1041E40022E00344B3FBF2F39BB232E0EA686B686B
:1041F400016813432A691343AA691343194A0A40FD
:10420400134303604368AA6823F440531343436091
:1042140083686A6923F4407313438360124B9842A2
:10422400CED10320FFF7D4FB0028C7D02A68002A88
:10423400C4D0AB69B3F5004F4FEA5203D1D103EBBD
:104244004003B3FBF2F34FF6F0721A40C3F3420398
:104254001343E360002038BD0044004000480040A0
:10426400004C0040F369FFEF0038014030B50F4BBC
:104274005D7A05F0FF04B5B95D7A5C555D7A03EBB0
:1042840085056860587A184402725A7AD2B2501C72
:10429400C0B258723A2330324B702F230A708B709D
:1042A400CC70204630BD012030BD00BF2C00002062
:1042B4000022FFF7DBBF00007FB51822002168460B
:1042C40000F044FF1848194B0360042200234261A4
:1042D400012243608360C360036103764376C26155
:1042E40080F8203042628362C36280F830304363D6
:1042F40080F83830FCF766F908B100F093FB0C4AFB
:10430400094806238DE80C007F22002303926946A6
:104314000422029304920593FCF726FA08B100F0F4
:1043240081FB07B05DF804FB3C0000200000045052
:104334001000C01010B5044688B01422002103A850
:1043440000F004FF2268114B9A421DD103F170431F
:10435400A3F5F83303A9DA6C0D4842F40052DA6489
:10436400DA6C02F400520192019ADA6C42F004020F
:10437400DA64DB6C03F004030293029B09230393C6
:104384000B230493FCF792FC08B010BD000004500A
:104394000008004807B5009313460A46014604483E
:1043A400FDF72EFF003018BF012003B05DF804FBB9
:1043B4008006002007B5009313460A4601460448C8
:1043C400FEF722F8003018BF012003B05DF804FBAB
:1043D4008006002008B50348FEF768FB043818BFC0
:1043E400012008BD8006002001460148FEF7BBBA43
:1043F4008006002007B501238DF8073000F058F837
:1044040008B98DF807009DF8070003B05DF804FBB8
:1044140008B5FFF7EFFF01280CD10748FEF788FA2B
:1044240048B94FF400610448FEF7B0FA003018BFF1
:10443400012008BD022008BD80060020094808B5F7
:10444400094B0360002303714371436183610123BA
:104454000362FCF7CFFB18B1BDE8084000F0E2BAF4
:1044640008BD00BFA4000020003002400268084BD1
:104474009A4282B00AD1A3F500539A6C42F4805256
:104484009A649B6C03F480530193019B02B07047C0
:104494000030024008B503490348FFF709FF034B06
:1044A400187008BDC90000208C510008C800002005
:1044B40008B580214FF09040FCF7C2FCB0FA80F0C0
:1044C400400908BD054BDA6C0243DA64DB6C82B048
:1044D40018400190019B02B0704700BF00100240D9
:1044E40010B5C26891FAA1F3B3FA83F303245B0015
:1044F40004FA03F322EA030391FAA1F1C36010BDA5
:1045040010B5026891FAA1F3B3FA83F303245B00B4
:1045140004FA03F322EA030391FAA1F1036010BD44
:104524002DE9F04300248BB01822214604A80194FD
:104534000294039400F00AFE0420FFF7C3FF8020D6
:10454400FFF7C0FF0120FFF7BDFF0220FFF7BAFF0E
:104554000820FFF7B7FF4FF090463D4F3D4842F229
:10456400C60349F6701941F2270883620125C6F88B
:10457400289004A9C7F82880049305950694079405
:104584000894FFF7C5F8822304A9304604930594E0
:104594000894FFF7BDF804A93046CDF810900595AE
:1045A400069407940894FFF7B3F804A93846CDF8A5
:1045B40010800595069407940894FFF7A9F808233A
:1045C400049304A90323244805930894FFF7A0F84F
:1045D40022498A680F2322F00F0293FAA3F08A601B
:1045E400CA6893FAA3F3B3FA83F322F00F0205FA2D
:1045F40003F31343CB6001A802238DF80E304FF070
:104604001008019502948DF80C508DF80D40FEF7BA
:10461400E1FF01A8CDF8048002948DF80C508DF8C8
:104624000D408DF80E50FEF7D5FF29463046FFF7B2
:1046340057FF41463846FFF753FF29463046FFF7F8
:104644005FFF41463846FFF75BFF0BB0BDE8F083E0
:104654000004004800080048001C00480000014015
:1046640008B51248124B1349012280E80A000023BE
:104674008360C260036143618361C3610362FCF7C9
:10468400E5FB08B100F0CEF900210848FCF72FFC47
:1046940008B100F0C7F900210448FCF74EFC18B13A
:1046A400BDE8084000F0BEB908BD00BF7C0500208D
:1046B400BB7C70000054004008B51248124B1349EB
:1046C400012280E80A0000238360C2600361436121
:1046D4008361C3610362FCF7B9FB08B100F0A2F97E
:1046E40000210848FCF703FC08B100F09BF9002105
:1046F4000448FCF722FC18B1BDE8084000F092B968
:1047040008BD00BFC8050020BB7C700000580040F5
:1047140008B51248124B1349012280E80A0000230D
:104724008360C260036143618361C3610362FCF718
:104734008DFB08B100F076F900210848FCF7D7FB9F
:1047440008B100F06FF900210448FCF7F6FB18B13A
:10475400BDE8084000F066B908BD00BF3005002080
:10476400BB7C70000084004010B504468CB0142259
:10477400002107A800F0EAFC2368394A934223D1B8
:10478400384C3948E36C43F00203E364E36C03F010
:1047940002030193019B4FF4407307931223089380
:1047A4000123099303230A9307A904230B93FCF71A
:1047B4007DFAA36D43F40013A365A36D03F4001302
:1047C4000293029B0CB010BD284A934222D1254C7F
:1047D4002548E36C43F00203E364E36C03F0020353
:1047E4000393039B4FF4406307931223089301231D
:1047F400099303230A9307A904230B93FCF756FA9E
:10480400A36D43F48003A365A36D03F480030493B1
:10481400049BD7E7164A9342D4D1124C1248E36C56
:1048240043F00203E364E36C03F002030593059B86
:10483400C0230793122308930123099303230A93A4
:1048440007A905230B93FCF731FAE36D43F0020348
:10485400E365E36D03F002030693069BB2E700BF32
:10486400005400400010024000040048005800407A
:10487400008400400848094A08B5002380E80C0079
:1048840040F6FF73C3608360FCF77CFB18B1BDE89E
:10489400084000F0C7B808BD1406002000300040EE
:1048A4000B4808B50B4B03604FF6FF7200234360BF
:1048B40083604261036243628362C3620363FCF701
:1048C40087FB18B1BDE8084000F0ACB808BD00BFD4
:1048D40024060020009400400268084B9A4282B0EB
:1048E4000AD103F5BE33DA6D42F02002DA65DB6DDE
:1048F40003F020030193019B02B070470094004031
:104904002DE9F043B1B04422002105A800F01EFCBB
:1049140014220021684600F019FC0021682216A820
:1049240000F014FCFCF7AAFB294AD2F8903023F0DB
:104934001803C2F890300D2301260225032705939E
:104944004FF008094FF480334FF0070805A80024FE
:10495400069307960A960F9510971196CDF84890EE
:10496400CDF84C8014951595FCF75EFC31460F2369
:1049740068468DE88800029403940494FCF7FEFED4
:10498400144B16934FF080532D934FF480732F9351
:104994004FF080632B9316A84FF088731D931E94D9
:1049A4001F9420942394249426942894179718965B
:1049B400CDF86490CDF868801B951C95FDF724F81C
:1049C4004FF40070FCF76AFB31B0BDE8F08300BF20
:1049D40000100240C7441A0008B5FBF7A7FDFFF713
:1049E4008FFFFFF79DFDFFF729FDFFF743FF00F061
:1049F4004FF900F04DFA00F069FA00F0C7FAFFF73A
:104A04005BFCFFF72DFEFFF757FEFFF781FE00F07A
:104A14000BF800F0E1F8FFF73DFDFFF741FF00F070
:104A2400D9F9FEE77047000010B592B000241422B3
:104A3400002102A800F08AFB2C22214607A8019439
:104A440000F084FB2648274B046180E818007F238C
:104A54008360FF23C36044618461C461FDF7BEF9D0
:104A640008B1FFF7DFFF012202A91D488DF80840B5
:104A74008DF809408DF80A4005940694FDF700FA74
:104A840008B1FFF7CFFF0122002401A914488DF8D3
:104A940004208DF805208DF806208DF80740FDF7D9
:104AA4004EFA08B1FFF7BEFF01224FF4807307A945
:104AB4000B488DF81C408DF81D408DF81E4008945D
:104AC4000A940B940C940E940F948DF84020119337
:104AD400FDF782FA08B1FFF7A5FF12B010BD00BFC1
:104AE4005C060020002800400268054B9A4201BF82
:104AF400044AD2F8903043F40043C2F8903070472F
:104B0400002800400010024010B5064C0123237019
:104B1400FFF760FC234618B9227802F0FE022270E7
:104B2400187810BD0800002010B5054C012323702F
:104B3400FFF76EFC10B9FFF7E7FF2070207810BD77
:104B440008000020FFF7E0BF08B5084611461A46E2
:104B54004FF0FF33FFF71EFC20B9FFF73BFC0028A2
:104B6400FBD108BD012008BD10B5124B1B78DB0733
:104B740088B014461BD4032903D8DFE801F01005DC
:104B84000B12042008B010BD6846FFF72DFC069BED
:104B9400236004E06846FFF727FC079B238000207E
:104BA400F0E76846FFF720FC079B5B0AF0E7032069
:104BB400E8E700BF0800002008B5084611461A4679
:104BC4004FF0FF33FFF7F6FB20B9FFF703FC002893
:104BD400FBD108BD012008BD054B064A1A6000221E
:104BE4005A609A60DA601A615A619A61704700BF2C
:104BF400800600200028014070B5044688B01422C5
:104C0400002103A800F0A2FA22681E4B9A4236D172
:104C140003F568430C241A6E1B4842F480621A663A
:104C24001A6E02F480620092009ADA6C42F0040276
:104C3400DA64DA6C02F004020192019ADA6C42F04E
:104C44000802DA64DB6C079403F008030293029B06
:104C540002264FF4F85303250DEB04010393049645
:104C64000695FCF723F8042303930DEB04010023BA
:104C740006480496059306950794FCF717F808B0C0
:104C840070BD00BF0028014000080048000C004827
:104C94001048114908B54FF4E0624FF4827380E87C
:104CA4000A00C26000234FF4007283600361436111
:104CB4008261C36103624362836207220363082340
:104CC400C2624363FDF706FF18B1BDE80840FFF771
:104CD400A9BE08BD040700200038004010B50446F2
:104CE40088B01422002103A800F030FA2268134B84
:104CF4009A4220D103F5EC3303A99A6D104842F48B
:104D040080429A659A6D02F480420192019ADA6CAB
:104D140042F00202DA64DB6C03F002030293029BAA
:104D24004FF4604303930223049303230693052360
:104D34000793FBF7BBFF08B010BD00BF003800406D
:104D4400000400480A4B1A6E42F001021A661A6EF9
:104D540082B002F001020092009A9A6D42F08052F1
:104D64009A659B6D03F080530193019B02B07047D9
:104D7400001002407047FEE7FEE7FEE7FEE77047DB
:104D840070477047FBF7E2BB704770470F49D1F893
:104D9400883043F47003C1F888300D4B1A68002042
:104DA40042F001021A6098601A6822F0A85222F4B4
:104DB40010221A604FF48052DA601A6822F48022BA
:104DC4001A6098614FF000638B60704700ED00E05B
:104DD4000010024010B58EB01022002103A8002458
:104DE40000F0B4F91C2221460DEB0200009401945A
:104DF400029400F0ABF91B484FF0804380E81800A0
:104E04008460C46004618461FDF7F2FF08B1FFF7B8
:104E140009FE4FF4805303A912480393FEF796F852
:104E240008B1FFF7FFFD0F48FDF7FCFF08B1FFF7DE
:104E3400F9FD002469460B4800940294FEF71AF920
:104E440008B1FFF7EFFD002207A90648079408946C
:104E540009940B94FEF738F808B1FFF7E3FD0EB0A0
:104E640010BD00BF680700200368B3F1804F82B013
:104E74000AD103F504339A6D42F001029A659B6DE1
:104E840003F001030193019B02B0704700207047B7
:104E940008B50C480C4B4FF4E13E80E808400C2266
:104EA40000238360C360036142618361C361036261
:104EB4004362FEF760FB18B1BDE80840FFF7B2BDDE
:104EC40008BD00BFA80700200038014010B590B00D
:104ED4001C22002109A800F039F91822002103A896
:104EE40000F034F9254B9A6D42F400329A659A6DBC
:104EF40002F400320292029ADA6C42F00102DA649D
:104F0400DB6C03F001030193019B02230C24049343
:104F140003230DEB040105934FF090400723039402
:104F24000893FEF7F5FB164BD868C0F30220FFF791
:104F3400ADFF144B00014022C0B283F826035A602F
:104F44000D94114C4FF4E133099309A90023204631
:104F54000A930B930C930E930F93FFF729F963684D
:104F640023F490436360A36823F02A03A3602368B7
:104F740043F00103236010B010BD00BF00100240D5
:104F840000ED00E000E100E00044004010B590B006
:104F94001C22002109A800F0D9F81822002103A836
:104FA40000F0D4F8244B25489A6D254C42F4802215
:104FB4009A659A6D02F480220292029ADA6C42F0A7
:104FC4000402DA64DB6C03F004030193019B3023D5
:104FD400039302230493032303A90593072308934C
:104FE400FEF796FB174BD868C0F30220FFF74EFF7D
:104FF400154B0001C0B2802283F827035A604FF496
:10500400E13309930C22002309A920460A930B9348
:105014000C930E930F930D92FFF7CAF8636823F471
:1050240090436360A36823F02A03A360236843F0DA
:105034000103236010B010BD0010024000080048B6
:105044000048004000ED00E000E100E010B5044637
:1050540088B01422002103A800F078F82268134BCA
:105064009A4221D103F5584303A91A6E42F48042AF
:105074001A661A6E02F480420192019ADA6C42F0C6
:105084000102DA64DB6C03F001030293029B4FF428
:10509400C063039302230493032306934FF09040C9
:1050A40007230793FBF702FE08B010BD0038014048
:1050B400DFF834D0002103E00C4B5B58435004313B
:1050C4000B480C4B42189A42F6D30B4A02E00023D9
:1050D40042F8043B094B9A42F9D3FFF757FE00F01C
:1050E40011F8FFF779FCFEE700800220F851000870
:1050F40000000020100000201000002028080020DC
:10510400FEE7000070B50D4E0D4CA41BA410002545
:10511400A54209D10B4E0C4C00F020F8A41BA4109E
:105124000025A54205D170BD56F8253098470135B4
:10513400EEE756F8253098470135F2E7F0510008BC
:10514400F0510008F0510008F451000802440346ED
:10515400934200D1704703F8011BF9E7F8B500BF8B
:10516400F8BC08BC9E467047F8B500BFF8BC08BC44
:045174009E4670479C
:105178000104020800101010041010100210101082
:10518800080000002D4B0008494B00084D4B000853
:10519800BD4B00086D4B0008000000000000000037
:1051A80001020304060708090000000001020304C5
:1051B800A0860100400D0300801A060000350C008F
:1051C80040420F0080841E0000093D0000127A0052
:1051D8000024F40000366E010048E801006CDC028F
:0851E8001CB0FF7F0100000074
:0451F000B9010008F9
:0451F4009501000819
:1051F80001000000100000000100000000093D004F
:04000005080050B5EA
:00000001FF
