:020000040800F2
:10000000008002206D1D0008FD1B0008FF1B00087A
:10001000011C0008031C0008051C0008000000006B
:10002000000000000000000000000000071C0008A5
:10003000091C0008000000000B1C00080D1C000833
:10004000BD1D0008BD1D0008BD1D0008BD1D000828
:10005000BD1D0008BD1D0008BD1D0008BD1D000818
:10006000BD1D0008BD1D0008BD1D0008BD1D000808
:10007000BD1D0008BD1D0008BD1D0008BD1D0008F8
:10008000BD1D0008BD1D0008BD1D0008BD1D0008E8
:10009000BD1D0008BD1D0008BD1D0008BD1D0008D8
:1000A000BD1D0008BD1D0008BD1D0008BD1D0008C8
:1000B000BD1D0008BD1D000800000000BD1D00089A
:1000C000BD1D0008BD1D0008BD1D0008BD1D0008A8
:1000D000BD1D0008BD1D0008BD1D0008BD1D000898
:1000E000BD1D0008BD1D000800000000000000004C
:1000F0000000000000000000000000000000000000
:1001000000000000BD1D000800000000BD1D00082B
:10011000BD1D000800000000BD1D0008000000001B
:10012000BD1D0008BD1D0008BD1D0008BD1D000847
:10013000BD1D0008BD1D0008BD1D00080000000019
:10014000BD1D0008BD1D0008BD1D0008BD1D000827
:10015000BD1D0008BD1D0008BD1D0008BD1D000817
:10016000BD1D0008BD1D0008BD1D000800000000E9
:1001700000000000BD1D000800000000000000009D
:10018000BD1D0008BD1D0008BD1D0008BD1D0008E7
:04019000BD1D000889
:1001940010B5054C237833B9044B13B10448AFF3BD
:1001A40000800123237010BD0C000020000000001B
:1001B400181E000808B5034B1BB103490348AFF3ED
:1001C400008008BD0000000010000020181E000878
:1001D40053B94AB9002908BF00281CBF4FF0FF31AA
:1001E4004FF0FF3000F07AB9ADF1080C6DE904CEA0
:1001F40000F006F8DDF804E0DDE9022304B07047FE
:100204002DE9F0478C460D460446089E002B51D13B
:100214008A4217466DD9B2FA82FEBEF1000F0BD0A6
:10022400CEF1200C01FA0EF520FA0CFC02FA0EF7BE
:100234004CEA050C00FA0EF44FEA174A250CBCFBF5
:10024400FAF81FFA87F90AFB18CC45EA0C4508FBB3
:1002540009F3AB420AD9ED1908F1FF3280F023818A
:10026400AB4240F22081A8F102083D44ED1AA4B249
:10027400B5FBFAF00AFB105544EA054400FB09F902
:10028400A14509D9E41900F1FF3380F00A81A145A1
:1002940040F2078102383C44A4EB090440EA0840D8
:1002A4000021002E61D024FA0EF400233460736020
:1002B400BDE8F0878B4207D9002E54D0002186E890
:1002C40021000846BDE8F087B3FA83F1002940F025
:1002D4008E80AB4202D3824200F2FA80841A65EB2C
:1002E40003050120AC46002E3FD086E81010BDE87F
:1002F400F08712B90127B7FBF2F7B7FA87FEBEF110
:10030400000F34D1EB1B3A0C1FFA87FC0121B3FB1D
:10031400F2F8250C02FB183345EA03450CFB08F3FD
:10032400AB4207D9ED1908F1FF3002D2AB4200F21B
:10033400D1808046ED1AA3B2B5FBF2F002FB105552
:1003440043EA05440CFB00FCA44507D9E41900F179
:10035400FF3302D2A44500F2B8801846A4EB0C0483
:1003640040EA08409DE731463046BDE8F087CEF1CB
:10037400200405FA0EF307FA0EF720FA04F83A0CF3
:1003840025FA04F448EA0308B4FBF2F14FEA1845ED
:1003940002FB11441FFA87FC45EA044501FB0CF3F8
:1003A400AB4200FA0EF409D9ED1901F1FF3080F0E7
:1003B4008A80AB4240F2878002393D44EB1A1FFA2F
:1003C40088F5B3FBF2F002FB103345EA034500FB6A
:1003D4000CF3AB4207D9ED1900F1FF386FD2AB42F1
:1003E4006DD902383D44EB1A40EA01418FE7C1F16F
:1003F400200722FA07F88B4005FA01F448EA0303C0
:1004040020FA07FE4FEA134CFD404EEA040EB5FBFA
:10041400FCF94FEA1E440CFB19551FFA83F844EA11
:10042400054509FB08F4AC4202FA01F200FA01FAAC
:1004340008D9ED1809F1FF3043D2AC4241D9A9F1F2
:1004440002091D442D1B1FFA8EFEB5FBFCF00CFBAC
:1004540010554EEA054400FB08F8A04507D9E418F6
:1004640000F1FF3529D2A04527D902381C4440EABF
:100474000940A4EB0804A0FB02894C45C6464D463E
:1004840015D312D056B1BAEB0E0364EB050404FA8B
:1004940007F7CB401F43CC40376074600021BDE8B0
:1004A400F0871846F8E69046E0E6C245EAD2B8EB93
:1004B400020E69EB03050138E4E72846D7E7404616
:1004C40091E78146BEE7014678E702383C4445E7B8
:1004D400084608E7A8F102083D442BE7704700BF2F
:1004E40038B50F4B0546186808B9012038BD0D4AC8
:1004F4004FF47A73B3FBF0F31068B0FBF3F000F041
:100504007DF804460028F0D10F2DEED80246294686
:100514004FF0FF3000F03EF8034B20461D6038BD1D
:1005240000000020080000200400002010B5032073
:1005340000F01EF80020FFF7D3FF044618B901F0BD
:1005440043FB204610BD0124FBE70000034A044995
:10055400136809680B441360704700BF280000202B
:1005640000000020014B1868704700BF28000020DD
:10057400074AD36823F4E0631B041B0C43F0BF63F6
:10058400000243F4003300F4E0600343D360704797
:1005940000ED00E0174B30B5DC68C4F30224C4F16D
:1005A4000703251D042B28BF0423062D4FF0010546
:1005B40005FA03F303F1FF338CBF033C0024194015
:1005C400A14005FA04F4013C2240002842EA010259
:1005D4004FEA0212ADBF00F1604000F00F00064B7D
:1005E40000F56140B5BFD2B2D2B21A5480F80023EC
:1005F40030BD00BF00ED00E014ED00E00138B0F1C3
:10060400807F0AD2064B074A5860F02182F82310F3
:100614000020072298601A6070470120704700BFCD
:1006240010E000E000ED00E02DE9F04F85B00B682C
:10063400DFF884815E4A01934FF003090023019C93
:10064400DC4002D105B0BDE8F08F012404FA03FCBC
:10065400019C14EA0C0500F0A0804C6824F0100EF4
:100664000EF1FF36012E4FEA430612D8876809FAC5
:1006740006FA27EA0A0ACF68B74047EA0A078760FA
:10068400476827EA0C0CC4F300179F4047EA0C079D
:100694004760C76809FA06FC6FEA0C0C07EA0C0A03
:1006A4008F68B74047EA0A07BEF1020FC76016D148
:1006B4004FEAD30A00EB8A0A03F0070BDAF820703A
:1006C4004FEA8B0B4FF00F0E0EFA0BFE27EA0E0EBD
:1006D4000F6907FA0BF747EA0E07CAF82070076894
:1006E4000CEA070C04F0030707FA06F646EA0C06C0
:1006F4000660E60051D5D8F8606046F00106C8F8F7
:100704006060D8F8606023F0030707F1804706F0C3
:10071400010607F58037039603F0030C039EBE68B9
:100724004FEA8C0C4FF00F0E0EFA0CFEB0F1904F06
:1007340026EA0E0E33D01F4EB04232D006F5806644
:10074400B04230D006F58066B0422ED006F5806601
:10075400B04214BF0726042606FA0CF646EA0E0633
:10076400BE601668EF4314F4803F0CBF3E402E4336
:100774001660566814F4003F0CBF3E402E4356608A
:10078400966814F4801F0CBF3E402E439660D668D2
:10079400A40254BF3E402E43D66001334FE70026E7
:1007A400DAE70126D8E70226D6E70326D4E700BF16
:1007B4000004014000040048001002400AB18161B5
:1007C4007047816270470000024B186800F4C060F3
:1007D400704700BF00700040174B1A68B0F5007FE7
:1007E40002F4C0621CD1B2F5007F15D01A6822F45D
:1007F400C06242F400721A60104A116832224A43FD
:100804000F49B2FBF1F2194601325869400500D58F
:1008140022B94B695B050DD400207047013AF4E717
:10082400B2F5806F1FBF1A6822F4C06242F480627E
:100834001A60F1E7032070470070004008000020B0
:1008440040420F0037B51E4DAB6DDA00044618D593
:10085400FFF7BAFFB0F5007F23D1802C29D9A02C53
:100864008CBF02200120174A136823F007030343B7
:100874001360136803F00703181A18BF012003B0AC
:1008840030BDAB6D43F08053AB65AB6D03F080536B
:100894000193019BFFF798FFAB6D23F08053AB6589
:1008A400D8E7802C07D808D0A4F1700358425841E7
:1008B400D9E70020D7E70320D5E70220D3E700BF1C
:1008C4000010024000200240224B9A68D96812F0BE
:1008D4000C0205D00C2A15D101F00301012918D10D
:1008E40019681D48090755BFD3F894101968C1F356
:1008F4000321C1F3031150F821004AB30C2A09D093
:1009040000207047042A22D0082A144818BF002067
:1009140070470020DA6802F00302022A15D00F495A
:10092400032A08BF0846DA68D968DB68C3F3416361
:10093400C1F30621C2F302120133484301325B00C2
:10094400B0FBF2F0B0FBF3F070470548EBE7044866
:10095400704700BF001002405C1E000800127A00BD
:100964000024F4002DE9F743054608B9012047E0C7
:100974009F4C0368A668E768DB0606F00C0607F0E0
:10098400030775D51EB10C2E54D1012F52D1236803
:10099400980702D5AB69002BE8D02368286A1907A9
:1009A40056BFD4F8943023681B0903F0F003834244
:1009B40029D2FFF747FF0028D8D1236843F0080362
:1009C400236023682A6A23F0F003134323606368D7
:1009D400EA6923F47F4343EA02236360FFF774FF69
:1009E400A368844AC3F30313D35C03F01F03D84002
:1009F400814B1860814B1868FFF772FD002837D0CF
:100A040003B0BDE8F083236843F008032360236840
:100A140023F0F003034323606368EA6923F47F430C
:100A240043EA02236360002ED8D1FFF70BFF0028AE
:100A3400D4D09BE7AB69002B3AD0236843F0010381
:100A44002360FFF78FFD804623689A0728D5236823
:100A540043F00803236023682A6A23F0F003134356
:100A640023606368EA6923F47F4343EA02236360F3
:100A74002B68D8072DD42B6899076BD42B681807DB
:100A840000F1A0802B68590700F1CE802B689806EE
:100A940000F13781AB6A002B40F05D810020AFE7A5
:100AA400FFF760FDA0EB08000228CDD90320A7E7DB
:100AB400236823F001032360FFF754FD8046236875
:100AC4009B07D5D5FFF74EFDA0EB08000228F6D909
:100AD400ECE7082E03D00C2E08D1032F06D123688F
:100AE4009A03C8D56B68002BC5D13FE76B68B3F593
:100AF400803F10D1236843F480332360FFF732FD35
:100B0400804623689B03B6D4FFF72CFDA0EB0800B6
:100B14006428F6D9CAE7B3F5A02F04D1236843F4B7
:100B240080232360E6E7226822F480322260226870
:100B340022F480222260002BE0D1FFF713FD8046CF
:100B44002368980397D5FFF70DFDA0EB08006428F0
:100B5400F6D9ABE7042E03D00C2E10D1022F0ED100
:100B64002368590503D5EB68002B3FF4FFAE636897
:100B74002A6923F0FE4343EA026363607EE7EB687D
:100B84007BB1236843F480732360FFF7EBFC0746D3
:100B940023685A05EBD4FFF7E5FCC01B0228F7D9FC
:100BA40084E7236823F480732360FFF7DBFC0746A4
:100BB40023685B057FF562AFFFF7D4FCC01B0228F6
:100BC400F6D973E76B69DBB1D4F8943043F00103D1
:100BD400C4F89430FFF7C6FC0746D4F894309A075B
:100BE4003FF550AFFFF7BEFCC01B0228F5D95DE707
:100BF40000100240411E00080800002004000020EC
:100C0400D4F8943023F00103C4F89430FFF7AAFC1D
:100C14000746D4F894309B077FF534AFFFF7A2FC66
:100C2400C01B0228F5D941E7A36DDF0029D4A36DC9
:100C340043F08053A365A36D03F080530193019B9C
:100C44004FF001089A4F3B68D8051DD5AB68012BBE
:100C54002BD1D4F8903043F00103C4F89030FFF75F
:100C640081FC41F288390746D4F890309A0742D57E
:100C7400B8F1000F3FF40AAFA36D23F08053A365CE
:100C840004E74FF00008DDE73B6843F480733B6002
:100C9400FFF768FC81463B68D905D7D4FFF762FCAF
:100CA400A0EB09000228F6D900E7052B06D1D4F8F9
:100CB400903043F00403C4F89030CAE7D4F890208D
:100CC40022F00102C4F89020D4F8902022F004020B
:100CD400C4F89020002BC2D1FFF744FC41F28839BC
:100CE4000746D4F890309B07C2D5FFF73BFCC01BE6
:100CF4004845F6D9DAE6FFF735FCC01B4845B3D9B9
:100D0400D4E66B6A9BB1D4F8983043F00103C4F87D
:100D14009830FFF727FC0746D4F8983099073FF539
:100D2400B9AEFFF71FFCC01B0228F5D9BEE6D4F804
:100D3400983023F00103C4F89830FFF713FC0746FA
:100D4400D4F898309A077FF5A5AEFFF70BFCC01BCB
:100D54000228F5D9AAE6022B40F08880E368EA6A03
:100D640003F00301914222D1296B03F0700201398F
:100D7400B2EB011F1BD1696B03F4FE42B2EB012FEE
:100D840015D1A96B03F07842B2EBC16F0FD1EA6BB6
:100D9400520803F4C001013AB1EB425F07D12A6C57
:100DA400520803F0C063013AB3EB426F45D00C2EF6
:100DB4003FF4DCAD23685B013FF5D8AD236823F035
:100DC40080732360FFF7CEFB064623689F012ED471
:100DD400E268384B1340EA6A13436A6B43EA02231E
:100DE400AA6B43EAC2632A6B013A43EA0213EA6B31
:100DF4005208013A43EA42532A6C5208013A43EA40
:100E04004263E360236843F080732360E36843F044
:100E14008073E360FFF7A6FB054623689E013FF558
:100E24003DAEFFF79FFB401B0228F6D93EE6FFF7D5
:100E340099FB801B0228C8D938E6236898013FF53E
:100E44002DAE236843F080732360E36843F080731E
:100E5400E360FFF787FB0546236899013FF51EAE63
:100E6400FFF780FB401B0228F6D91FE60C2E3FF447
:100E74007DAD236823F08073236023681A015EBF6D
:100E8400E36823F00303E360E36823F0887323F447
:100E94008033E360FFF766FB054623689B017FF51B
:100EA400FDADFFF75FFB401B0228F6D9FEE500BF4E
:100EB400007000408C809D012DE9F0410E460446EF
:100EC40010B90120BDE8F081414A136803F007031B
:100ED4008B422AD32368D90732D421688A075CD489
:100EE4003B4A136803F007039E425ED311F0040FDC
:100EF400384D65D10B0706D5AB68226923F46053DE
:100F040043EAC203AB60FFF7DFFCAB68324AC3F3CA
:100F14000313BDE8F041D35C03F01F03D8402F4B0B
:100F240018602F4B1868FFF7DBBA136823F0070328
:100F34000B431360136803F007039942C1D1C9E757
:100F44006268244D032A2B681BD113F0007FB8D0AC
:100F5400AB6823F003031343AB60FFF703FB41F2D9
:100F640088380746AB68626803F00C03B3EB820F62
:100F7400B3D0FFF7F7FAC01B4045F3D90320BDE80F
:100F8400F081022A02D113F4003FE0E712B913F012
:100F9400020FDCE713F4806FD9E70E4AA068936868
:100FA40023F0F003034393609AE7136823F00703E5
:100FB40033431360136803F007039E4281D195E71E
:100FC400AB68E26823F4E0631343AB6092E700BFCD
:100FD4000020024000100240411E000808000020CA
:100FE40004000020054B064A9B68C3F30223D35C2C
:100FF400044A106803F01F03D840704700100240F1
:10100400511E000808000020054B064A9B68C3F3E4
:10101400C223D35C044A106803F01F03D84070470E
:1010240000100240511E000808000020F8B5444B8F
:10103400DA6812F0030F05460E461C46006839D0E4
:10104400DA6802F0030282424BD1002A49D0DB68FD
:101054006A68C3F302130133934242D1236823F035
:1010640080632360FFF77EFA074623681A0141D4A0
:10107400AF68002E45D0012E4FD12269286922F491
:10108400C002400822F4FE42013842EA072242EA42
:1010940040522261236843F080632360FFF762FAC1
:1010A400064623681B0145D52369AA6913432361B6
:1010B4000020F8BD022810D0032814D0012810D134
:1010C4001B689F07F5D5E3686A6823F07303013A48
:1010D400184340EA0210E060C0E71B6813F4806F15
:1010E400F1D10120F8BD1A689103ECD41B6813F404
:1010F400802FF5E7FFF736FAC01B0228B5D9032085
:10110400F8BD2269E96822F07842C90641EA07235A
:1011140022F4FE4213432361BCE72369686923F088
:10112400C063400823F4FE43013843EA072343EA3B
:101134004063F0E7FFF716FA801B0228B1D9DEE717
:10114400001002402DE9F743056815F400650446D4
:101154000ED0C16CB1F5000F53D0B1F5400F55D08E
:1011640000295ED10430FFF761FF054600284DD009
:1011740023689E0363D5B84EB36DD80040F16081F7
:101184000027DFF8D882D8F8003043F48073C8F819
:101194000030FFF7E7F98146D8F80030D90542D589
:1011A400002D47D1D6F8903013F4407314D0626EFA
:1011B400934211D0D6F89030D6F8902042F4803281
:1011C400C6F89020D6F8902023F4407322F480329D
:1011D400C6F89020C6F89030DA0709D5FFF7C2F9AF
:1011E40041F288398046D6F890309B0740F1FF8061
:1011F400D6F89030626E23F440731343C6F89030EF
:1012040018E0954AD36843F48033D360924AE16C82
:10121400D2F8883023F440030B43C2F88830002509
:10122400A6E70125A4E7FFF79DF9A0EB0900022832
:10123400B2D903251FB1B36D23F08053B36523687E
:10124400DF0708D58449206AD1F8882022F00302F8
:101254000243C1F888209E0708D57F49606AD1F807
:10126400882022F00C020243C1F88820580708D5D0
:101274007949A06AD1F8882022F030020243C1F8EB
:101284008820190708D57449E06AD1F8882022F02B
:10129400C0020243C1F888209A0608D56E49206B23
:1012A400D1F8882022F440620243C1F888209F05C7
:1012B40008D56949606CD1F8882022F440220243A1
:1012C400C1F888205E0508D56349A06CD1F8882050
:1012D40022F440120243C1F88820580608D55E491A
:1012E400606BD1F8882022F440520243C1F8882070
:1012F400190608D55849A06BD1F8882022F4404239
:101304000243C1F88820DA0508D55349E06BD1F8C7
:10131400882022F440320243C1F88820DF0208D535
:101324004D49206CD1F89C2022F003020243C1F8FD
:101334009C209E040FD5484A216DD2F8883023F0B2
:1013440040630B43B1F1006FC2F8883057D1D368C2
:1013540043F48013D360236818030FD53E4A616DAC
:10136400D2F8883023F040630B43B1F1006FC2F828
:1013740088304FD1D36843F48013D3602368590372
:101384000FD5354AA16DD2F8883023F040630B4362
:10139400B1F1006FC2F8883047D1D36843F48013A9
:1013A400D36023685A0412D52B49E26DD1F88830F2
:1013B40023F040531343B2F1805FC1F8883006D163
:1013C4000221201DFFF732FE002818BF05462368BE
:1013D400DB0308D5204A216ED2F8883023F000437D
:1013E4000B43C2F88830284603B0BDE8F083FFF70A
:1013F400B9F8A0EB080048457FF6F5AE19E7B1F15E
:10140400806FA8D10121201DFFF710FE002818BF0E
:101414000546A0E7B1F1806FB0D10121201DFFF78F
:1014240005FE002818BF0546A8E7B1F1806FB8D1C2
:101434000121201DFFF7FAFD002818BF0546B0E77B
:10144400B36D43F08053B365B36D03F080530193E0
:10145400019B012795E600BF001002400070004088
:1014640070B5044600284AD00023836290F85D30AA
:1014740003F0FF021BB980F85C2000F071FB02232B
:10148400216884F85D300B68E26823F04003B2F50C
:10149400E06F0B604FF000032ED91846B2F5706F61
:1014A40018BFA362236B2BB9B2F5E06F8CBF022384
:1014B40001232363A6686368A5693343266933431C
:1014C40066693343E6693343266A3343A66A334382
:1014D40005F4007633430B60636A1A43636B2D0C87
:1014E4001A4305F004052A430243012300204A60FD
:1014F400206684F85D3070BD4FF48050D0E7012041
:1015040070BD00000268C169F8B5044683680069CB
:101514001568034360690343AF480B432840034302
:1015240013605368E06823F4405303435360AB4BA8
:10153400A0699A421CBF236A1843936823F430635A
:1015440003439360A64B9A4218D103F55843A54A26
:10155400D3F8883003F00303B1F5004FD35C40F0B7
:101564002381082B77D8DFE813F00001B300E200F1
:1015740076001C0176007600760036009A4B9A427B
:1015840007D103F5E633994AD3F8883003F00C0306
:10159400E2E7974B9A4223D103F5E433D3F888303A
:1015A40003F03003102B00F0F9800BD8002B00F06F
:1015B400D980B1F5004F4FF001024FF0000300F065
:1015C400DE8091E0202B00F0AF80302BF1D1B1F51B
:1015D400004F40F0A1806068430803F58033ACE01D
:1015E400844B9A421CD103F5E233D3F8883003F0DC
:1015F400C003402B00F0AF8006D8002B00F0A08081
:10160400764B9A42D5D126E0802B00F08A80C02BFD
:10161400F6D1724B9A42DAD14FF40040082315E018
:101624006E4B9A42C5D103F5C833D3F8883003F41E
:101634004063B3F5806F00F08E80DED9B3F5006FA0
:101644006FD0B3F5406FE3E76B480223626802EBA7
:101654004201814205D901220023236663661046B4
:10166400F8BDB0EB023FF6D8082B2ED8DFE803F024
:10167400052D1C2D242D2D2D2700FFF7B3FC6268AA
:101684004FF4807156080027E1FB006700233046C1
:101694003946FEF79DFD0022584BA0F54071994252
:1016A400D9D82368D860D7E75548550800230021C6
:1016B400401941F10001ECE7FFF706F9DFE75008B4
:1016C4000021002310F50000F3E701220020E3E7E6
:1016D400FFF79AFC4BE0FFF785FC626800EB5203CE
:1016E400B3FBF2F39BB20022A3F110004FF6EF71AB
:1016F4008842B0D82168CB60AEE7FFF785FCECE701
:101704006068430803F5740303F51053B3FBF0F367
:10171400E8E7FFF7D9F8E0E76068430803F500431A
:10172400F4E72E4B9A428FD0B1F5004FE8D16068B0
:10173400430803F1F47303F59043B3FBF0F31CE0A7
:10174400264B9A420ED1FFF74DFC002300287FF46C
:101754007DAF024680E7214B9A421FD1FFF7B4F8D0
:101764000423F3E7B1F5004FB5D1FFF73BFC616803
:101774004A0802EB4003B3FBF1F39BB20022A3F14E
:1017840010004FF6EF7188423FF665AF23F00F016A
:101794002068C3F342030B43C3605DE7B1F5004F18
:1017A400B7D1FFF791F8E2E7082B3FF654AF01A257
:1017B40052F823F0DB160008FF160008051700088E
:1017C4005B160008171700085B1600085B16000874
:1017D4005B1600081D170008F369FFEF0080004046
:1017E40000380140301E000800440040341E000848
:1017F40000480040004C00400024F400FFFC0F00AF
:10180400000024F4436ADA0710B506D50168846A37
:101814004A6822F4003222434A609C0706D50168D4
:10182400C46A4A6822F4803222434A60590706D5C2
:101834000168046B4A6822F4802222434A601A0732
:1018440006D50168446B4A6822F4004222434A6088
:10185400DC0606D50168846B8A6822F48052224330
:101864008A60990606D50168C46B8A6822F400521E
:1018740022438A605A060FD50168046C4A6822F430
:1018840080122243B4F5801F4A6005D14A68446C33
:1018940022F4C00222434A601B0606D50268816C0A
:1018A400536823F400230B43536010BD2DE9F0412A
:1018B400069D04460F46164698462168CA6937EACB
:1018C40002030CBF01220022B24202D00020BDE874
:1018D400F081681CF2D0FEF745FEA0EB08008542BB
:1018E4002068036800D37DB923F4D0730360836850
:1018F40023F00103836020236367A367002384F834
:1019040070300320BDE8F0815A07D6D5C3691B05A2
:10191400D3D54FF400630362036823F4D0730360E8
:10192400836823F00103836020236367A367E3676D
:10193400E4E773B504460026C667FEF713FE236882
:101944001B681A07054615D423681B685B070AD56C
:101954006FF07E43009300222B464FF48001204613
:10196400FFF7A4FF90B920230020636784F8700078
:10197400A3670CE06FF07E430093324603464FF4B6
:1019840000112046FFF792FF0028DDD0032002B0AB
:1019940070BD10B5044640B3436F1BB980F8703076
:1019A40000F094F9226824236367136823F0010389
:1019B40013602046FFF7A6FD012816D0636A13B111
:1019C4002046FFF71FFF23685A6822F490425A60AA
:1019D4009A6822F02A029A601A6842F001022046AC
:1019E4001A60BDE81040FFF7A4BF012010BD00003D
:1019F400F0B589B01422002103A800F003FA214BAA
:101A0400214FDA6C214D42F00402DA64DA6C02F000
:101A140004020092009ADA6C42F00102DA64DA6C91
:101A240002F001020192019ADA6C42F00202DA64D5
:101A3400DB6C03F002030293384600224FF400519A
:101A4400029BFEF7BBFE002228464FF48051FEF7AE
:101A5400B5FE00244FF40053012603A9384603932E
:101A6400049605940694FEF7DFFD4FF4805303A912
:101A740028460393049605940694FEF7D5FD09B011
:101A8400F0BD00BF001002400008004800040048F8
:101A940010B5B0B04422002105A800F0B3F9142217
:101AA4000021684600F0AEF96822002116A800F073
:101AB400A9F910230593012300240B9305A860239F
:101AC4000D93FEF74FFF21460F2368468DE818005B
:101AD400029403940494FFF7EFF9032316A81693D2
:101AE4001E941F94FFF72EFB4FF40070FEF774FE54
:101AF40030B010BD08B5FEF719FDFFF7C9FFFFF7B9
:101B040077FF00F007F800F0C3F800F0A3F8FEE751
:101B1400704700001048114908B54FF482724FF421
:101B240080634FF4407E80E80E4000234FF400723F
:101B3400036143618261C36103624362836207227A
:101B440003630823C2624363FFF78AFC18B1BDE84C
:101B54000840FFF7DDBF08BD2C000020003800401E
:101B640010B5044688B01422002103A800F04AF9F5
:101B74002268134B9A4220D103F5EC3303A99A6DE2
:101B8400104842F480429A659A6D02F480420192B0
:101B9400019ADA6C42F00202DA64DB6C03F00203AD
:101BA4000293029B4FF4C043039302230493032341
:101BB400069305230793FEF737FD08B010BD00BF59
:101BC40000380040000400480A4B1A6E42F001023B
:101BD4001A661A6E82B002F001020092009A9A6D9F
:101BE40042F080529A659B6D03F080530193019BF0
:101BF40002B07047001002407047FEE7FEE7FEE7C0
:101C0400FEE7704770477047FEF7A0BC0F49D1F854
:101C1400883043F47003C1F888300D4B1A680020F3
:101C240042F001021A6098601A6822F0A85222F465
:101C340010221A604FF48052DA601A6822F480226B
:101C44001A6098614FF000638B60704700ED00E00C
:101C54000010024008B50C480C4B4FF4E13E80E8FC
:101C640008400C2200238360C360036142618361E6
:101C7400C36103624362FFF78CFE18B1BDE80840FC
:101C8400FFF746BF08BD00BF9000002000380140A8
:101C940008B50C480C4B4FF4E13E80E808400C2298
:101CA40000238360C360036142618361C361036293
:101CB4004362FFF76EFE18B1BDE80840FFF728BF86
:101CC40008BD00BF100100200044004010B51422DC
:101CD4008AB0044600210DEB020000F093F823685B
:101CE4001E4A934222D11E4B1A6E42F480421A6657
:101CF4001A6E02F480420192019ADA6C42F00102F7
:101D0400DA64DB6C03F001030293029B4FF4C063BB
:101D14000593022306930323089305A907234FF091
:101D240090400993FEF780FC0AB010BD0D4A93421F
:101D3400FAD10B4B9A6D42F400329A659A6D02F413
:101D440000320392039ADA6C42F00102DA64DB6C2B
:101D540003F001030493049B0C23D9E700380140EA
:101D64000010024000440040DFF834D0002103E0BA
:101D74000C4B5B58435004310B480C4B42189A42AD
:101D8400F6D30B4A02E0002342F8043B094B9A4283
:101D9400F9D3FFF73BFF00F011F8FFF7ABFEFEE7C6
:101DA400008002209C1E0008000000200C0000207F
:101DB4000C00002090010020FEE7000070B50D4EDD
:101DC4000D4CA41BA4100025A54209D10B4E0C4CAC
:101DD40000F020F8A41BA4100025A54205D170BD75
:101DE40056F8253098470135EEE756F825309847E0
:101DF4000135F2E7941E0008941E0008941E0008A2
:101E0400981E000802440346934200D1704703F829
:101E1400011BF9E7F8B500BFF8BC08BC9E46704743
:0C1E2400F8B500BFF8BC08BC9E46704733
:101E300001040208001010100410101002101010FD
:101E4000080000000000000000010203040607086B
:101E5000090000000001020304000000A086010048
:101E6000400D0300801A060000350C0040420F00B0
:101E700080841E0000093D0000127A000024F40056
:0C1E800000366E010048E801006CDC0236
:081E8C0078E3FF7F0100000074
:041E9400B901000888
:041E980095010008A8
:0C1E9C00010000001000000000093D00E3
:0400000508001D6D65
:00000001FF
