:020000040800F2
:1000000000800220717200085967000867670008C5
:100010006D6700087367000879670008000000003A
:100020000000000000000000000000007F670008E2
:100030008D670008000000009B670008A9670008A2
:10004000C1720008C1720008C1720008C1720008C4
:10005000C1720008C1720008B5670008C1720008CB
:10006000C1720008C1720008C1720008C1720008A4
:10007000C1720008C1720008C1720008555A000818
:10008000C1720008C1720008C1720008C172000884
:10009000C1720008C1720008C1720008C36700087D
:1000A000C1720008C1720008C1720008C172000864
:1000B000C1720008C172000800000000C17200088F
:1000C000C1720008C1720008C1720008C172000844
:1000D000C1720008C1720008DD670008C172000823
:1000E000C1720008C172000800000000000000009A
:1000F0000000000000000000000000000000000000
:1001000000000000C172000800000000C172000879
:10011000C172000800000000C17200080000000069
:10012000C1720008C1720008C1720008C1720008E3
:10013000C1720008C1720008C1720008000000000E
:10014000C1720008C1720008C1720008C1720008C3
:10015000C1720008C1720008C1720008C1720008B3
:10016000C1720008C1720008C172000800000000DE
:1001700000000000C1720008000000000000000044
:10018000C1720008C1720008C1720008C172000883
:04019000C172000830
:1001980010B5054C237833B9044B13B10448AFF3B9
:1001A80000800123237010BD100000200000000013
:1001B8002874000808B5034B1BB103490348AFF383
:1001C800008008BD0000000014000020287400080A
:1001D80010F8012B11F8013B012A28BF9A42F7D0E9
:1001E800D01A704781F0004102E000BF83F000435D
:1001F80030B54FEA41044FEA430594EA050F08BFBA
:1002080090EA020F1FBF54EA000C55EA020C7FEA7D
:10021800645C7FEA655C00F0E2804FEA5454D4EBFA
:100228005555B8BF6D420CDD2C4480EA020281EAC4
:10023800030382EA000083EA010180EA020281EAFC
:100248000303362D88BF30BD11F0004F4FEA01314E
:100258004FF4801C4CEA113102D0404261EB41015D
:1002680013F0004F4FEA03334CEA133302D05242E3
:1002780063EB430394EA050F00F0A780A4F101049F
:10028800D5F1200E0DDB02FA0EFC22FA05F28018D9
:1002980041F1000103FA0EF2801843FA05F35941BF
:1002A8000EE0A5F120050EF1200E012A03FA0EFC3E
:1002B80028BF4CF0020C43FA05F3C01851EBE37168
:1002C80001F0004507D54FF0000EDCF1000C7EEB85
:1002D80000006EEB0101B1F5801F1BD3B1F5001FC3
:1002E8000CD349085FEA30004FEA3C0C04F10104E2
:1002F8004FEA445212F5800F80F09A80BCF1004F0B
:1003080008BF5FEA500C50F1000041EB045141EA8C
:10031800050130BD5FEA4C0C404141EB010111F48D
:10032800801FA4F10104E9D191F0000F04BF014638
:100338000020B1FA81F308BF2033A3F10B03B3F116
:1003480020020CDA0C3208DD02F1140CC2F10C02A6
:1003580001FA0CF021FA02F10CE002F11402D8BF04
:10036800C2F1200C01FA02F120FA0CFCDCBF41EAD0
:100378000C019040E41AA2BF01EB0451294330BD9F
:100388006FEA04041F3C1CDA0C340EDC04F114047C
:10039800C4F1200220FA04F001FA02F340EA030053
:1003A80021FA04F345EA030130BDC4F10C04C4F199
:1003B800200220FA02F001FA04F340EA0300294679
:1003C80030BD21FA04F0294630BD94F0000F83F4C3
:1003D800801306BF81F480110134013D4EE77FEAA6
:1003E800645C18BF7FEA655C29D094EA050F08BFF2
:1003F80090EA020F05D054EA000C04BF19461046D3
:1004080030BD91EA030F1EBF0021002030BD5FEA16
:10041800545C05D14000494128BF41F0004130BD3E
:1004280014F580043CBF01F5801130BD01F0004592
:1004380045F0FE4141F470014FF0000030BD7FEA05
:10044800645C1ABF194610467FEA655C1CBF0B4600
:10045800024650EA013406BF52EA033591EA030F17
:1004680041F4002130BD00BF90F0000F04BF00210F
:10047800704730B54FF4806404F132044FF0000542
:100488004FF0000150E700BF90F0000F04BF0021BB
:10049800704730B54FF4806404F1320410F0004521
:1004A80048BF40424FF000013EE700BF42004FEA1C
:1004B800E2014FEA31014FEA02701FBF12F07F4399
:1004C80093F07F4F81F06051704792F0000F14BF96
:1004D80093F07F4F704730B54FF4607401F00045DA
:1004E80021F0004120E700BF50EA010208BF704731
:1004F80030B54FF000050AE050EA010208BF704726
:1005080030B511F0004502D5404261EB41014FF48E
:10051800806404F132045FEA915C3FF4DCAE4FF092
:1005280003025FEADC0C18BF03325FEADC0C18BF79
:10053800033202EBDC02C2F1200300FA03FC20FACA
:1005480002F001FA03FE40EA0E0021FA02F1144417
:10055800C1E600BF4FF0FF3C06E000BF4FF0010CC2
:1005680002E000BF4FF0010C4DF804CD4FEA410CFA
:100578007FEA6C5C4FEA430C18BF7FEA6C5C1BD0C7
:1005880001B050EA410C0CBF52EA430C91EA030F48
:1005980002BF90EA020F0020704710F1000F91EAA5
:1005A800030F58BF994208BF90422CBFD8176FEA73
:1005B800E37040F0010070474FEA410C7FEA6C5C41
:1005C80002D150EA013C07D14FEA430C7FEA6C5C48
:1005D800D6D152EA033CD3D05DF8040B704700BF74
:1005E8008446104662468C461946634600E000BFC2
:1005F80001B5FFF7B7FF002848BF10F1000F01BD94
:100608004DF808EDFFF7F4FF0CBF012000205DF85E
:1006180008FB00BF4DF808EDFFF7EAFF34BF0120E3
:1006280000205DF808FB00BF4DF808EDFFF7E0FF7C
:1006380094BF012000205DF808FB00BF4DF808EDCD
:10064800FFF7CEFF94BF012000205DF808FB00BF34
:100658004DF808EDFFF7C4FF34BF012000205DF816
:1006680008FB00BF4A0011D212F5001211D20DD5B5
:100678006FF47873B3EB62520ED44FEAC12343F0A0
:10068800004343EA505323FA02F070474FF000004A
:10069800704750EA013002D14FF0FF3070474FF0F9
:1006A8000000704753B94AB9002908BF00281CBF89
:1006B8004FF0FF314FF0FF3000F07AB9ADF1080C80
:1006C8006DE904CE00F006F8DDF804E0DDE9022368
:1006D80004B070472DE9F0478C460D460446089E45
:1006E800002B51D18A4217466DD9B2FA82FEBEF16B
:1006F800000F0BD0CEF1200C01FA0EF520FA0CFCFD
:1007080002FA0EF74CEA050C00FA0EF44FEA174A03
:10071800250CBCFBFAF81FFA87F90AFB18CC45EA46
:100728000C4508FB09F3AB420AD9ED1908F1FF3271
:1007380080F02381AB4240F22081A8F102083D44B9
:10074800ED1AA4B2B5FBFAF00AFB105544EA0544C9
:1007580000FB09F9A14509D9E41900F1FF3380F03C
:100768000A81A14540F2078102383C44A4EB090400
:1007780040EA08400021002E61D024FA0EF400233C
:1007880034607360BDE8F0878B4207D9002E54D0DF
:10079800002186E821000846BDE8F087B3FA83F116
:1007A800002940F08E80AB4202D3824200F2FA80E8
:1007B800841A65EB03050120AC46002E3FD086E87D
:1007C8001010BDE8F08712B90127B7FBF2F7B7FAA6
:1007D80087FEBEF1000F34D1EB1B3A0C1FFA87FCE1
:1007E8000121B3FBF2F8250C02FB183345EA034557
:1007F8000CFB08F3AB4207D9ED1908F1FF3002D220
:10080800AB4200F2D1808046ED1AA3B2B5FBF2F0FC
:1008180002FB105543EA05440CFB00FCA44507D92C
:10082800E41900F1FF3302D2A44500F2B88018465B
:10083800A4EB0C0440EA08409DE731463046BDE889
:10084800F087CEF1200405FA0EF307FA0EF720FA26
:1008580004F83A0C25FA04F448EA0308B4FBF2F168
:100868004FEA184502FB11441FFA87FC45EA044584
:1008780001FB0CF3AB4200FA0EF409D9ED1901F1B2
:10088800FF3080F08A80AB4240F2878002393D44D5
:10089800EB1A1FFA88F5B3FBF2F002FB103345EAB6
:1008A800034500FB0CF3AB4207D9ED1900F1FF3803
:1008B8006FD2AB426DD902383D44EB1A40EA014190
:1008C8008FE7C1F1200722FA07F88B4005FA01F4F7
:1008D80048EA030320FA07FE4FEA134CFD404EEAAC
:1008E800040EB5FBFCF94FEA1E440CFB19551FFA20
:1008F80083F844EA054509FB08F4AC4202FA01F220
:1009080000FA01FA08D9ED1809F1FF3043D2AC42D8
:1009180041D9A9F102091D442D1B1FFA8EFEB5FB12
:10092800FCF00CFB10554EEA054400FB08F8A04506
:1009380007D9E41800F1FF3529D2A04527D9023894
:100948001C4440EA0940A4EB0804A0FB02894C457A
:10095800C6464D4615D312D056B1BAEB0E0364EB1A
:10096800050404FA07F7CB401F43CC403760746096
:100978000021BDE8F0871846F8E69046E0E6C24553
:10098800EAD2B8EB020E69EB03050138E4E7284622
:10099800D7E7404691E78146BEE7014678E7023847
:1009A8003C4445E7084608E7A8F102083D442BE720
:1009B800704700BF80B582B000AF0023FB710320F1
:1009C80001F048FA002000F00DF80346002B02D091
:1009D8000123FB7101E005F097FEFB791846083703
:1009E800BD4680BD80B584B000AF78600023FB733E
:1009F800164B1B68002B22D0154B1A68134B1B682B
:100A08004FF47A71B1FBF3F3B2FBF3F3184601F03C
:100A180056FA0346002B0FD17B680F2B09D800220A
:100A280079684FF0FF3001F020FA0A4A7B681360BA
:100A380007E00123FB7304E00123FB7301E00123BA
:100A4800FB73FB7B18461037BD4680BD04000020B1
:100A58000C0000200000002080B400AF054B1A688D
:100A6800054B1B681344034A136000BFBD465DF87D
:100A7800047B7047200200200400002080B400AFEF
:100A8800034B1B681846BD465DF8047B704700BFE2
:100A98002002002080B584B000AF7860FFF7EEFF39
:100AA800B8607B68FB60FB68B3F1FF3F04D0094B7B
:100AB8001B68FA681344FB6000BFFFF7DFFF0246BC
:100AC800BB68D21AFB689A42F7D300BF1037BD46FD
:100AD80080BD00BF0400002080B483B000AF786000
:100AE80039607B689B6823F47C123B681A437B68F7
:100AF8009A6000BF0C37BD465DF8047B704780B430
:100B080083B000AF786039607B689B6823F0E0723F
:100B18003B681A437B689A6000BF0C37BD465DF896
:100B2800047B704780B483B000AF78607B689B68B3
:100B380003F0E07318460C37BD465DF8047B704738
:100B480090B484B000AFF860B9607A603B60FB682D
:100B580060331A46BB689B0013441C462268084B46
:100B680013407A6802F0F8413A680A43134343F0A5
:100B78000043236000BF1037BD4690BC704700BFDC
:100B880000F0FF0390B482B000AF786039607B68F2
:100B980060331A463B689B0013441C46236803F0E5
:100BA800F84318460837BD4690BC704790B484B0E7
:100BB80000AFF860B9607A60FB6860331A46BB68BA
:100BC8009B0013441C46236823F000427B681343B0
:100BD800236000BF1037BD4690BC704780B483B017
:100BE80000AF786039607B685B6923F000423B683E
:100BF8001A437B685A6100BF0C37BD465DF8047B19
:100C0800704780B483B000AF78607B68DB6803F41A
:100C18004063002B01D1012300E0002318460C3764
:100C2800BD465DF8047B704790B484B000AFF860AF
:100C3800B9607A60FB6830331A46BB681B0A9B00B0
:100C480003F00C0313441C462268BB6803F01F031F
:100C58001F2101FA03F3DB431A407B689B0E03F064
:100C68001F01BB6803F01F0301FA03F3134323605A
:100C780000BF1037BD4690BC704790B484B000AF39
:100C8800F860B9607A60FB6814331A46BB685B0E7B
:100C98009B0003F0040313441C462268BB681B0D29
:100CA80003F01F03072101FA03F3DB431A40BB6873
:100CB8001B0D03F01F03796801FA03F31343236044
:100CC80000BF1037BD4690BC7047000080B485B0A7
:100CD80000AFF860B9607A60FB68D3F8B020BB68F1
:100CE800C3F31203DB431A407B6803F01803084977
:100CF800D940BB680B40C3F312031A43FB68C3F81F
:100D0800B02000BF1437BD465DF8047B704700BFB4
:100D1800FFFF070080B483B000AF78607B689B68F2
:100D280023F0204323F03F037A68936000BF0C3719
:100D3800BD465DF8047B704780B483B000AF78602F
:100D48007B689B6803F00053B3F1005F01D1012376
:100D580000E0002318460C37BD465DF8047B704759
:100D680080B483B000AF78607B689B6823F0104341
:100D780023F03F0343F080527B689A6000BF0C3732
:100D8800BD465DF8047B704780B483B000AF7860DF
:100D98007B689B6803F08053B3F1805F01D1012326
:100DA80000E0002318460C37BD465DF8047B704709
:100DB80080B483B000AF78607B689B6823F0004301
:100DC80023F03F0343F001027B689A6000BF0C37B1
:100DD800BD465DF8047B704780B483B000AF78608F
:100DE8007B689B6823F0004323F03F0343F0020233
:100DF8007B689A6000BF0C37BD465DF8047B70477E
:100E080080B483B000AF78607B689B6803F001030F
:100E1800012B01D1012300E0002318460C37BD4601
:100E28005DF8047B704780B483B000AF78607B685E
:100E38009B6803F00203022B01D1012300E0002389
:100E480018460C37BD465DF8047B704780B483B004
:100E580000AF78607B689B6823F0004323F03F0372
:100E680043F004027B689A6000BF0C37BD465DF80A
:100E7800047B704780B483B000AF78607B689B6860
:100E880003F00403042B01D1012300E000231846DA
:100E98000C37BD465DF8047B704780B483B000AF63
:100EA80078607B689B6803F00803082B01D1012355
:100EB80000E0002318460C37BD465DF8047B7047F8
:100EC80080B588B000AF78600023FB770023BB6053
:100ED8007B68002B01D101232DE17B681B69002B66
:100EE8007B689B6D002B09D1786804F0D9FE7B687C
:100EF8000022DA657B68002283F854207B681B682F
:100F08001846FFF719FF0346002B04D07B681B68BF
:100F18001846FFF7FFFE7B681B681846FFF734FF8B
:100F28000346002B13D17B681B681846FFF718FF90
:100F3800834B1B689B09834AA2FB03239B09BB6065
:100F480002E0BB68013BBB60BB68002BF9D17B6842
:100F58001B681846FFF718FF0346002B0DD17B6866
:100F68009B6D43F010027B689A657B68DB6D43F0EC
:100F780001027B68DA650123FB777B681B681846EA
:100F8800FFF778FF78617B689B6D03F01003002BF7
:100F980040F0C8807B69002B40F0C4807B689B6D63
:100FA80023F4817343F002027B689A657B681B68AF
:100FB8001846FFF725FF0346002B0BD16248FFF7C1
:100FC8001FFF0346002B05D17B685B6819465F4805
:100FD800FFF782FD7B685B7E5A037B685B6B1A4375
:100FE8007B68DB681A437B689B681A437B6893F8C5
:100FF80020301B041343BB617B6893F82030012B1E
:1010080006D17B685B6A013B5B04BA691343BB6129
:101018007B689B6A002B09D07B689B6A03F470721B
:101028007B68DB6A1343BA691343BB617B681A6840
:101038007B681B68D968464B0B40B9690B43D36082
:101048007B681B681846FFF715FF38617B681B68CB
:101058001846FFF722FFF8603B69002B40D1FB6878
:10106800002B3DD17B68DA6C7B681B7E9B031A439F
:101078007B6893F830305B001343BB617B681A6868
:101088007B681B68DB6823F4804323F00603B96997
:101098000B43D3607B6893F83830012B18D17B68F9
:1010A8001A687B681B681B6923F4FF6323F0040339
:1010B8007968C86B7968096C08437968496C084392
:1010C8007968896C01430B4343F00103136107E01E
:1010D8007B681B687A681268126922F001021A613B
:1010E8007B681B69012B0CD17B681B687A681268C6
:1010F800126B22F00F017A68D269013A0A431A6327
:1011080007E07B681B687A681268126B22F00F028E
:101118001A637B689B6D23F0030343F001027B682D
:101128009A6507E07B689B6D43F010027B689A65BF
:101138000123FB77FB7F18462037BD4680BD00BFE3
:101148000C000020632D3E050000045000030450ED
:1011580007C0F0FF80B584B000AF78607B681B687B
:101168001846FFF787FE0346002B4FD17B6893F89C
:101178005430012B01D102234BE07B68012283F814
:101188005420786800F058FC0346FB73FB7B002B67
:1011980037D17B689B6D23F4706323F0010343F41C
:1011A80080727B689A657B689B6D03F48053B3F506
:1011B800805F06D17B68DB6D23F006027B68DA6509
:1011C80002E07B680022DA657B681B681C221A60D3
:1011D8007B68002283F854207B681B68DB6803F077
:1011E8000073002B07D07B689B6D23F4405343F4B6
:1011F80080527B689A657B681B681846FFF726FE55
:1012080006E07B68002283F8542001E00223FB7388
:10121800FB7B18461037BD4680BD80B586B000AF51
:10122800786039607B685B69082B02D108237B6191
:1012380010E07B681B68DB6803F00103002B07D014
:101248007B689B6D43F020027B689A65012368E008
:1012580004237B61FFF712FC38611AE03B68B3F1A5
:10126800FF3F16D0FFF70AFC02463B69D21A3B68DB
:101278009A4202D83B68002B0BD17B689B6D43F0E8
:1012880004027B689A657B68002283F85420032354
:1012980047E07B681B681A687B691340002BDDD028
:1012A8007B689B6D43F400727B689A657B681B685A
:1012B8001846FFF7A6FC0346002B1CD07B685B7E14
:1012C800002B18D17B681B681B6803F00803082BE8
:1012D80011D17B689B6D23F480727B689A657B686B
:1012E8009B6D03F48053002B05D17B689B6D43F005
:1012F80001027B689A657B681B68DB68FB607B6919
:10130800082B04D17B681B6808221A6008E0FB6878
:1013180003F48043002B03D17B681B680C221A60FE
:10132800002318461837BD4680BD80B483B000AF8F
:1013380078607B681B681B6C18460C37BD465DF8E7
:10134800047B704780B5A6B000AF78603960002391
:1013580087F897300023BB607B6893F85430012BE3
:1013680001D1022352E37B68012283F854207B6871
:101378001B681846FFF77EFD0346002B40F03783B5
:101388003B685B68052B24D83B685B68023B032BF2
:101398001BD801A252F823F0B1130008B9130008B2
:1013A800C1130008C91300083B680C225A6010E0FA
:1013B8003B6812225A600CE03B6818225A6008E029
:1013C8003B684FF480725A6003E03B6806225A601B
:1013D80000BF7B6818683B6859683B681B681A46F9
:1013E800FFF722FC7B681B681846FFF743FDC7F828
:1013F80090007B681B681846FFF74FFDC7F88C0004
:10140800D7F89030002B40F06381D7F88C30002B50
:1014180040F05E813B689B68B3F1004F0FD17B6859
:1014280018683B681B6800221946FFF726FC7B6892
:101438001B684FF000411846FFF7D0FB0EE07B68B1
:1014480018683B6819683B689B681A46FFF715FCE3
:101458007B681B6800211846FFF7C0FB3B685A6988
:101468007B681B68DB68DB0803F003035B0002FA98
:1014780003F3C7F888303B681B69042B0AD07B68E4
:1014880018683B6819693B681A68D7F88830FFF70D
:1014980057FB1DE17B681B6800211846FFF772FBAC
:1014A8000346C3F31203002B0AD17B681B68002193
:1014B8001846FFF767FB03469B0E03F01F0212E076
:1014C8007B681B6800211846FFF75CFB0346C7F8DA
:1014D8008030D7F8803093FAA3F3FB67FB6FB3FA39
:1014E80083F3DBB21A463B681B68C3F31203002B75
:1014F80005D13B681B689B0E03F01F030AE03B689D
:101508001B68BB67BB6F93FAA3F37B677B6FB3FA68
:1015180083F3DBB29A4206D17B681B680022002164
:101528001846FFF743FB7B681B6801211846FFF745
:1015380029FB0346C3F31203002B0AD17B681B68FF
:1015480001211846FFF71EFB03469B0E03F01F02FE
:1015580010E07B681B6801211846FFF713FB034660
:101568003B673B6F93FAA3F3FB66FB6EB3FA83F317
:10157800DBB21A463B681B68C3F31203002B05D184
:101588003B681B689B0E03F01F030AE03B681B685F
:10159800BB66BB6E93FAA3F37B667B6EB3FA83F3E9
:1015A800DBB29A4206D17B681B68002201211846EB
:1015B800FFF7FCFA7B681B6802211846FFF7E2FA7E
:1015C8000346C3F31203002B0AD17B681B68022170
:1015D8001846FFF7D7FA03469B0E03F01F0210E0E8
:1015E8007B681B6802211846FFF7CCFA03463B6666
:1015F8003B6E93FAA3F3FB65FB6DB3FA83F3DBB29F
:101608001A463B681B68C3F31203002B05D13B68DD
:101618001B689B0E03F01F030AE03B681B68BB6551
:10162800BB6D93FAA3F37B657B6DB3FA83F3DBB2EF
:101638009A4206D17B681B68002202211846FFF7F0
:10164800B5FA7B681B6803211846FFF79BFA034627
:10165800C3F31203002B0AD17B681B6803211846C9
:10166800FFF790FA03469B0E03F01F0210E07B6819
:101678001B6803211846FFF785FA03463B653B6D57
:1016880093FAA3F3FB64FB6CB3FA83F3DBB21A4659
:101698003B681B68C3F31203002B05D13B681B682A
:1016A8009B0E03F01F030AE03B681B68BB64BB6C1E
:1016B80093FAA3F37B647B6CB3FA83F3DBB29A42AD
:1016C80006D17B681B68002203211846FFF76EFAD3
:1016D8007B681B681846FFF793FB0346002B40F016
:1016E8000C817B6818683B6819683B68DB681A4698
:1016F800FFF7ECFA3B68DB68A84A934240F0FD80AC
:101708007B6818683B681B68C3F31203002B0BD176
:101718003B681B689B0E013303F01F03092B94BF22
:1017280001230023DBB212E03B681B683B643B6C7F
:1017380093FAA3F3FB63FB6BB3FA83F3DBB20133D6
:1017480003F01F03092B94BF01230023DBB2002BF6
:1017580064D03B681B68C3F31203002B07D13B68B6
:101768001B689B0E01339B0603F0F8420EE03B68B2
:101778001B68BB63BB6B93FAA3F37B637B6BB3FA06
:1017880083F3DBB201339B0603F0F8423B681B6826
:10179800C3F31203002B09D13B681B689B0E01336E
:1017A80003F01F03012101FA03F310E03B681B68F3
:1017B8003B633B6B93FAA3F3FB62FB6AB3FA83F3D5
:1017C800DBB2013303F01F03012101FA03F342EAFC
:1017D80003013B681B68C3F31203002B0AD13B6863
:1017E8001B689B0E013303F01F0213465B00134472
:1017F8001B0511E03B681B68BB62BB6A93FAA3F345
:101808007B627B6AB3FA83F3DBB2013303F01F0216
:1018180013465B0013441B050B4369E03B681B68D8
:10182800C3F31203002B07D13B681B689B0E0133DF
:101838009B0603F0F8420EE03B681B683B623B6A7C
:1018480093FAA3F3FB61FB69B3FA83F3DBB20133C9
:101858009B0603F0F8423B681B68C3F31203002B96
:1018680009D13B681B689B0E013303F01F0301215C
:1018780001FA03F310E03B681B68BB61BB6993FA8C
:10188800A3F37B617B69B3FA83F3DBB2013303F023
:101898001F03012101FA03F342EA03013B681B68B5
:1018A800C3F31203002B0DD13B681B689B0E013359
:1018B80003F01F0213465B0013441E3B1B0543F055
:1018C800007314E03B681B683B613B6993FAA3F320
:1018D800FB60FB68B3FA83F3DBB2013303F01F024A
:1018E80013465B0013441E3B1B0543F000730B4378
:1018F8003A6892681946FFF7C0F93B681A68284B9E
:101908001340002B7CD02748FFF70CF9C7F8840058
:101918003B681B68244A934226D1D7F8843003F4E5
:101928000003002B20D17B681B68204A934267D1B3
:10193800D7F8843043F4000319461A48FFF7DFF854
:101948001B4B1B689B091B4AA2FB03239A091346DE
:101958005B0013449B00BB6002E0BB68013BBB60BB
:10196800BB68002BF9D14BE03B681B68124A9342D5
:1019780024D1D7F8843003F08073002B1ED17B6804
:101988001B680A4A93423BD1D7F8843043F08073EE
:1019980019460448FFF7B3F832E000BF00007F4063
:1019A8000000088000030450000052C700000450E3
:1019B8000C000020632D3E05000084CB3B681B68AB
:1019C800144A93421CD1D7F8843003F48003002BC7
:1019D80016D17B681B68104A934211D1D7F884301E
:1019E80043F4800319460D48FFF789F808E07B683F
:1019F8009B6D43F020027B689A65012387F8973036
:101A08007B68002283F8542097F897301846983757
:101A1800BD4680BD01000080000004500003045052
:101A280080B483B000AF78607B689B6D18460C3734
:101A3800BD465DF8047B704780B584B000AF786020
:101A48007B681B681846FFF7DBF90346002B46D175
:101A58007B681B689A68244B1340002B0DD07B6869
:101A68009B6D43F010027B689A657B68DB6D43F0E1
:101A780001027B68DA65012332E07B681B6818463F
:101A8800FFF796F9FEF7FAFFF86021E07B681B681C
:101A98001846FFF7B5F90346002B04D17B681B688D
:101AA8001846FFF785F9FEF7E9FF0246FB68D31AE7
:101AB800022B0DD97B689B6D43F010027B689A65F9
:101AC8007B68DB6D43F001027B68DA65012307E080
:101AD8007B681B681B6803F00103012BD6D1002328
:101AE80018461037BD4680BD3F00008080B584B0E1
:101AF80000AF78607B681B681846FFF794F9F860B8
:101B08007B681B681846FFF77BF90346002B40D01B
:101B1800FB68002B3DD17B681B689B6803F00D03B5
:101B2800012B0CD17B681B681846FFF755F97B68B9
:101B38001B6803221A60FEF7A1FFB86022E07B68E9
:101B48009B6D43F010027B689A657B68DB6D43F000
:101B580001027B68DA6501231CE0FEF78FFF02466D
:101B6800BB68D31A022B0DD97B689B6D43F010021A
:101B78007B689A657B68DB6D43F001027B68DA65F8
:101B8800012307E07B681B689B6803F00103002BB7
:101B9800E3D1002318461037BD4680BD80B483B01A
:101BA80000AF786039607B689B6823F0404323F07E
:101BB8003F033A6802F08042134343F000427B68D7
:101BC8009A6000BF0C37BD465DF8047B704780B44F
:101BD80083B000AF78607B689B6803F00043B3F183
:101BE800004F01D1012300E0002318460C37BD4601
:101BF8005DF8047B704780B584B000AF78603960C9
:101C08000023BB607B6893F85430012B01D1022379
:101C18004DE07B68012283F854207868FFF766FF5F
:101C28000346FB73FB7B002B36D17B689B6D23F44B
:101C3800885323F0020343F002027B689A657B68AD
:101C48001B6839681846FFF7A9FF14E0BB68013321
:101C5800BB60BB68B3F5912F0DD37B689B6D23F0F8
:101C6800120343F010027B689A657B68002283F8B0
:101C7800542001231BE07B681B681846FFF7A7FF69
:101C88000346002BE2D17B689B6D23F0030343F0EE
:101C980001027B689A6505E07B689B6D43F0100242
:101CA8007B689A657B68002283F85420FB7B184682
:101CB8001037BD4680BD000080B485B000AF7860A5
:101CC8007B6803F00703FB600C4BDB68BB60BA68FA
:101CD8004FF6FF031340BB60FB681A02BB6813434F
:101CE80043F0BF6343F40033BB60044ABB68D3606E
:101CF80000BF1437BD465DF8047B704700ED00E077
:101D080080B400AF044BDB681B0A03F007031846D6
:101D1800BD465DF8047B704700ED00E080B483B0F9
:101D280000AF0346FB7197F90730002B0BDB09491D
:101D380097F907305B09FA7902F01F02012000FACF
:101D480002F241F8232000BF0C37BD465DF8047B42
:101D5800704700BF00E100E080B483B000AF0346E5
:101D68003960FB7197F90730002B0ADB0D4997F9A9
:101D780007303A68D2B21201D2B20B4483F800237A
:101D88000AE00949FB7903F00F03043B3A68D2B231
:101D98001201D2B20B441A7600BF0C37BD465DF86B
:101DA800047B704700E100E000ED00E080B489B0FA
:101DB80000AFF860B9607A60FB6803F00703FB6165
:101DC800FB69C3F10703042B28BF0423BB61FB692C
:101DD8000433062B02D9FB69033B00E000237B6137
:101DE8000122BB6902FA03F35A1EBB681A407B69D9
:101DF8009A4001217B6901FA03F3591E7B680B4065
:101E0800134318462437BD465DF8047B704700002D
:101E180080B582B000AF78607B68013BB3F1807F0A
:101E280001D301230FE00A4A7B68013B53600F216D
:101E38004FF0FF30FFF790FF054B00229A60044BEC
:101E480007221A60002318460837BD4680BD00BF28
:101E580010E000E080B582B000AF78607868FFF7E6
:101E68002BFF00BF0837BD4680BD80B586B000AFE8
:101E78000346B9607A60FB7300237B61FFF740FF7C
:101E880078617A68B9687869FFF790FF024697F930
:101E98000F3011461846FFF75FFF00BF1837BD46E1
:101EA80080BD80B582B000AF0346FB7197F907305B
:101EB8001846FFF733FF00BF0837BD4680BD80B521
:101EC80082B000AF78607868FFF7A2FF0346184633
:101ED8000837BD4680BD000080B487B000AF786089
:101EE800396000237B6154E13B681A6801217B69F2
:101EF80001FA03F31340FB60FB68002B00F04681F6
:101F08003B685B68012B0BD03B685B68022B07D0F2
:101F18003B685B68112B03D03B685B68122B30D1A0
:101F28007B689B683B617B695B00032202FA03F3D1
:101F3800DB433A6913403B613B68DA687B695B00C5
:101F480002FA03F33A6913433B617B683A699A6082
:101F58007B685B683B6101227B6902FA03F3DB4320
:101F68003A6913403B613B685B681B0903F0010257
:101F78007B6902FA03F33A6913433B617B683A6968
:101F88005A607B68DB683B617B695B00032202FA6D
:101F980003F3DB433A6913403B613B689A687B690A
:101FA8005B0002FA03F33A6913433B617B683A69C1
:101FB800DA603B685B68022B03D03B685B68122BD6
:101FC80023D17B69DA087B68083253F822303B61F9
:101FD8007B6903F007039B000F2202FA03F3DB433C
:101FE8003A6913403B613B681A697B6903F0070350
:101FF8009B0002FA03F33A6913433B617B69DA08F1
:102008007B680832396943F822107B681B683B619A
:102018007B695B00032202FA03F3DB433A6913404E
:102028003B613B685B6803F003027B695B0002FA73
:1020380003F33A6913433B617B683A691A603B686A
:102048005B6803F08053002B00F0A080584A584B7F
:102058001B6E43F001031366554B1B6E03F001031F
:10206800BB60BB68534A7B699B08023352F8233034
:102078003B617B6903F003039B000F2202FA03F321
:10208800DB433A6913403B617B68B3F1904F19D049
:102098007B68494A934213D07B68484A93420DD0E3
:1020A8007B68474A934207D07B68464A934201D1EE
:1020B800042308E0072306E0032304E0022302E0E8
:1020C800012300E000237A6902F0030292009340A2
:1020D8003A6913433B6137497B699B0802333A6984
:1020E80041F82320384B1B683B61FB68DB433A69A6
:1020F80013403B613B685B6803F48033002B03D0DB
:102108003A69FB6813433B612F4A3B6913602E4BC6
:102118005B683B61FB68DB433A6913403B613B68A2
:102128005B6803F40033002B03D03A69FB68134360
:102138003B61254A3B695360234B9B683B61FB68C5
:10214800DB433A6913403B613B685B6803F48013E7
:10215800002B03D03A69FB6813433B611A4A3B6979
:102168009360194BDB683B61FB68DB433A691340BA
:102178003B613B685B6803F40013002B03D03A69AA
:10218800FB6813433B61104A3B69D3607B690133A9
:102198007B613B681A687B6922FA03F3002B7FF4A2
:1021A800A3AE00BF1C37BD465DF8047B704700BF77
:1021B80000100240000001400004004800080048E8
:1021C800000C0048001000480004014080B485B0AD
:1021D80000AF78600B467B807B681A697B88134068
:1021E800002B02D00123FB7301E00023FB73FB7B70
:1021F80018461437BD465DF8047B704780B483B039
:1022080000AF78600B467B8013467B707B78002B91
:1022180003D07A887B689A6102E07A887B689A6240
:1022280000BF0C37BD465DF8047B704780B483B0AF
:1022380000AF78600B467B807B685A697B881340C7
:10224800002B03D07A887B689A6202E07A887B68E0
:102258009A6100BF0C37BD465DF8047B70470000EB
:1022680080B582B000AF0346FB80084B5A69FB88F3
:102278001340002B06D0054AFB885361FB8818469B
:1022880004F0AEFA00BF0837BD4680BD0004014027
:1022980080B489B000AF0023FB610023BB613D4BD4
:1022A8009B6803F00C033B613A4BDB6803F00303C4
:1022B800FB603B69002B05D03B690C2B21D1FB68E7
:1022C800012B1ED1334B1B6803F00803002B07D1E9
:1022D800304BD3F894301B0A03F00F03FB6105E081
:1022E8002C4B1B681B0903F00F03FB612A4AFB698F
:1022F80052F82330FB613B69002B0DD1FB69BB61B0
:102308000AE03B69042B02D1244BBB6104E03B6922
:10231800082B01D1224BBB613B690C2B33D11D4BE0
:10232800DB6803F00303BB60BB68022B02D0032BFE
:1023380003D005E0194B7B6105E0194B7B6102E096
:10234800FB697B6100BF134BDB681B0903F00703C4
:1023580001337B600F4BDB681B0A03F07F037A694C
:1023680002FB03F27B68B2FBF3F37B61094BDB688A
:102378005B0E03F0030301335B003B607A693B6843
:10238800B2FBF3F3BB61BB6918462437BD465DF861
:10239800047B704700100240EC7400080024F4002D
:1023A80000127A0080B400AF034B1B681846BD4684
:1023B8005DF8047B704700BF0C00002080B500AFBB
:1023C800FFF7F0FF0146064B9B681B0A03F0070363
:1023D800044AD35C03F01F0321FA03F3184680BDB7
:1023E80000100240E474000880B500AFFFF7DAFF80
:1023F8000146064B9B68DB0A03F00703044AD35CDB
:1024080003F01F0321FA03F3184680BD00100240B1
:10241800E474000880B582B000AF78607B68002B58
:1024280001D1012340E07B685B6F002B06D17B68FC
:10243800002283F87020786804F0D2FE7B6824229A
:102448005A677B681B687A681268126822F0010272
:102458001A60786800F02CF80346012B01D101239B
:1024680022E07B685B6A002B02D0786800F052FBA0
:102478007B681B687A681268526822F490425A6036
:102488007B681B687A681268926822F02A029A6050
:102498007B681B687A681268126842F001021A6049
:1024A800786800F0D9FB034618460837BD4680BD5A
:1024B8002DE9B0438AB000AF78600023FB610023A8
:1024C800FB7600237B617B689A687B681B691A43EB
:1024D8007B685B691A437B68DB6913437B627B68B3
:1024E8001A687B681B681968AF4B0B40796A0B4305
:1024F80013607B681B687A681268526822F440513E
:102508007A68D2680A435A607B689B697B627B68F9
:102518001B68A64A934204D07B681B6A7A6A1343F5
:102528007B627B681B687A681268926822F4306163
:102538007A6A0A439A607B681B689D4A934226D14F
:102548009C4BD3F8883003F00303032B1AD801A25D
:1025580052F823F06D2500087D2500087525000830
:1025680085250008012387F82330D6E0022387F861
:102578002330D2E0042387F82330CEE0082387F8FD
:102588002330CAE0102387F8233000BFC5E07B68FA
:102598001B68894A934238D1864BD3F8883003F0B8
:1025A8000C030C2B2CD801A252F823F0E9250008C3
:1025B800092600080926000809260008F925000848
:1025C800092600080926000809260008F125000840
:1025D800092600080926000809260008012600081F
:1025E800002387F8233098E0022387F8233094E00B
:1025F800042387F8233090E0082387F823308CE001
:10260800102387F8233000BF87E07B681B686B4A7C
:10261800934225D1674BD3F8883003F03003102B51
:1026280011D0102B02D8002B05D014E0202B06D097
:10263800302B0CD00FE0002387F823306DE0022305
:1026480087F8233069E0042387F8233065E00823FE
:1026580087F8233061E0102387F8233000BF5CE05F
:102668007B681B68564A934225D1524BD3F8883071
:1026780003F0C003402B11D0402B02D8002B05D00B
:1026880014E0802B06D0C02B0CD00FE0002387F875
:10269800233042E0022387F823303EE0042387F802
:1026A80023303AE0082387F8233036E0102387F8F0
:1026B800233000BF31E07B681B683C4A934229D134
:1026C8003C4BD3F8883003F44063B3F5806F14D0E3
:1026D800B3F5806F02D8002B07D016E0B3F5006F72
:1026E80007D0B3F5406F0CD00FE0002387F82330F4
:1026F80013E0022387F823300FE0042387F8233000
:102708000BE0082387F8233007E0102387F82330ED
:1027180000BF02E0102387F823307B681B68234A38
:10272800934240F0EE8097F82330082B23D801A27B
:1027380052F823F0612700087F270008692700085E
:102748007F2700086F2700087F2700087F270008D9
:102758007F27000877270008FFF730FE78610DE033
:10276800184B7B610AE0FFF793FD786106E04FF4B0
:1027780000437B6102E00123FB7600BF7B69002BED
:1027880000F0BC817B685A6813465B001A447B6979
:102798009A4205D87B685B681A037B699A4213D210
:1027A8000123FB76AAE100BFF369FFEF0080004038
:1027B800003801400010024000440040004800403A
:1027C800004C00400024F40097F82330082B00F256
:1027D800858001A252F823F005280008E5280008A2
:1027E80047280008E52800087B280008E528000895
:1027F800E5280008E5280008BB280008FFF7DEFDEB
:1028080038613B694FF000044FEA042949EA13692B
:102818004FEA03287B685B685B084FF0000418EBFD
:10282800030049EB04017B685B684FF000041A461B
:102838002346FDF737FF03460C46FB6151E07B68F2
:102848005B685B084FF00004AA494FF0000213EBE5
:10285800010844EB0209404649467B685B684FF033
:1028680000041A462346FDF71DFF03460C46FB618C
:1028780037E0FFF70DFD38613B691A464FF000035A
:102888001D0245EA126514027B685B685B081A46FC
:102898004FF00003A01845EB03017B685B684FF01D
:1028A80000041A462346FDF7FDFE03460C46FB616D
:1028B80017E07B685B685B084FF0000413F50000C5
:1028C80044F100017B685B684FF000041A46234618
:1028D800FDF7E8FE03460C46FB6102E00123FB76A8
:1028E80000BFFB69B3F5407F08D3FB69B3F5801FD0
:1028F80004D27B681B68FA69DA60FFE00123FB7683
:10290800FCE07B68DB69B3F5004F40F0838097F803
:102918002330082B5ED801A252F823F04929000879
:102928006929000889290008DD290008A529000867
:10293800DD290008DD290008DD290008C52900086F
:10294800FFF73CFD38613B695A007B685B685B08B0
:102958001A447B685B68B2FBF3F39BB2FB613CE013
:10296800FFF742FD38613B695A007B685B685B088A
:102978001A447B685B68B2FBF3F39BB2FB612CE003
:102988007B685B685B0803F1F47303F590437A682E
:102998005268B3FBF2F39BB2FB611EE0FFF778FCD1
:1029A80038613B695A007B685B685B081A447B683E
:1029B8005B68B2FBF3F39BB2FB610EE07B685B687C
:1029C8005B0803F580327B685B68B2FBF3F39BB26C
:1029D800FB6102E00123FB7600BFFB690F2B16D9D0
:1029E800FB69B3F5803F12D2FB699BB223F00F035A
:1029F800FB81FB695B089BB203F007039AB2FB8972
:102A08001343FB817B681B68FA89DA6076E001234F
:102A1800FB7673E097F82330082B5CD801A252F8B4
:102A280023F000BF512A00086F2A00088D2A0008E9
:102A3800DF2A0008A92A0008DF2A0008DF2A000880
:102A4800DF2A0008C72A0008FFF7B8FC38617B684E
:102A58005B685A083B691A447B685B68B2FBF3F30E
:102A68009BB2FB613AE0FFF7BFFC38617B685B68AB
:102A78005A083B691A447B685B68B2FBF3F39BB264
:102A8800FB612BE07B685B685B0803F5740303F567
:102A980010537A685268B3FBF2F39BB2FB611DE0F6
:102AA800FFF7F6FB38617B685B685A083B691A4494
:102AB8007B685B68B2FBF3F39BB2FB610EE07B685B
:102AC8005B685B0803F500427B685B68B2FBF3F365
:102AD8009BB2FB6102E00123FB7600BFFB690F2B71
:102AE8000AD9FB69B3F5803F06D27B681B68FA698F
:102AF800DA6003E0000024F40123FB767B680022FF
:102B08001A667B6800225A66FB7E18462837BD463F
:102B1800BDE8B08380B483B000AF78607B685B6A3F
:102B280003F00103002B0AD07B681B687A681268DF
:102B3800526822F400317A68926A0A435A607B68C4
:102B48005B6A03F00203002B0AD07B681B687A6873
:102B58001268526822F480317A68D26A0A435A604D
:102B68007B685B6A03F00403002B0AD07B681B6850
:102B78007A681268526822F480217A68126B0A43D4
:102B88005A607B685B6A03F00803002B0AD07B68F5
:102B98001B687A681268526822F400417A68526B9E
:102BA8000A435A607B685B6A03F01003002B0AD063
:102BB8007B681B687A681268926822F480517A6888
:102BC800926B0A439A607B685B6A03F02003002BD0
:102BD8000AD07B681B687A681268926822F40051F0
:102BE8007A68D26B0A439A607B685B6A03F0400399
:102BF800002B1AD07B681B687A681268526822F426
:102C080080117A68126C0A435A607B681B6CB3F5B2
:102C1800801F0AD17B681B687A681268526822F4A0
:102C2800C0017A68526C0A435A607B685B6A03F099
:102C38008003002B0AD07B681B687A681268526888
:102C480022F400217A68926C0A435A6000BF0C375C
:102C5800BD465DF8047B704780B586B002AF7860EA
:102C68007B680022DA67FDF709FFF8607B681B685C
:102C78001B6803F00803082B0ED16FF07E43009306
:102C8800FB6800224FF40011786800F02AF8034628
:102C9800002B01D0032320E07B681B681B6803F02E
:102CA8000403042B0ED16FF07E430093FB680022CF
:102CB8004FF48001786800F014F80346002B01D027
:102CC80003230AE07B6820225A677B6820229A67E0
:102CD8007B68002283F87020002318461037BD4611
:102CE80080BD80B584B000AFF860B9603B60134622
:102CF800FB715DE0BB69B3F1FF3F59D0FDF7BEFE44
:102D080002463B68D21ABB699A4202D8BB69002BBB
:102D18001BD1FB681B68FA681268126822F4D0722B
:102D28001A60FB681B68FA681268926822F0010250
:102D38009A60FB6820225A67FB6820229A67FB6822
:102D4800002283F87020032342E0FB681B681B689D
:102D580003F00403002B2BD0FB681B68DB6903F42A
:102D68000063B3F5006F23D1FB681B684FF4006262
:102D78001A62FB681B68FA681268126822F4D0723B
:102D88001A60FB681B68FA681268926822F00102F0
:102D98009A60FB6820225A67FB6820229A67FB68C2
:102DA8002022DA67FB68002283F8702003230FE0F3
:102DB800FB681B68DA69BB681A40BB689A420CBF9B
:102DC80001230023DBB21A46FB799A4292D00023F2
:102DD80018461037BD4680BD80B489B000AFF86092
:102DE800B9607A60FB681A68BB687B617B6993FA93
:102DF800A3F33B613B69B3FA83F3DBB25B000321C6
:102E080001FA03F3DB431A40BB68FB61FB6993FAE1
:102E1800A3F3BB61BB69B3FA83F3DBB25B007968E8
:102E280001FA03F31A43FB681A6000BF2437BD4652
:102E38005DF8047B704780B485B000AFF860B96076
:102E48007A60FB685A68BB68DB431A40BB687968DC
:102E580001FB03F31A43FB685A6000BF1437BD46F1
:102E68005DF8047B704780B489B000AFF860B96042
:102E78007A60FB689A68BB687B617B6993FAA3F305
:102E88003B613B69B3FA83F3DBB25B00032101FAD0
:102E980003F3DB431A40BB68FB61FB6993FAA3F3B6
:102EA800BB61BB69B3FA83F3DBB25B00796801FAF3
:102EB80003F31A43FB689A6000BF2437BD465DF8E8
:102EC800047B704780B489B000AFF860B9607A605D
:102ED800FB68DA68BB687B617B6993FAA3F33B61A3
:102EE8003B69B3FA83F3DBB25B00032101FA03F316
:102EF800DB431A40BB68FB61FB6993FAA3F3BB6130
:102F0800BB69B3FA83F3DBB25B00796801FA03F3B8
:102F18001A43FB68DA6000BF2437BD465DF8047BBE
:102F2800704780B489B000AFF860B9607A60FB6818
:102F38001A6ABB687B617B6993FAA3F33B613B69BF
:102F4800B3FA83F3DBB29B000F2101FA03F3DB43EF
:102F58001A40BB68FB61FB6993FAA3F3BB61BB69C9
:102F6800B3FA83F3DBB29B00796801FA03F31A43DF
:102F7800FB681A6200BF2437BD465DF8047B7047C2
:102F880080B489B000AFF860B9607A60FB685A6AAB
:102F9800BB681B0A7B617B6993FAA3F33B613B69BE
:102FA800B3FA83F3DBB29B000F2101FA03F3DB438F
:102FB8001A40BB681B0AFB61FB6993FAA3F3BB6168
:102FC800BB69B3FA83F3DBB29B00796801FA03F3B8
:102FD8001A43FB685A6200BF2437BD465DF8047B7C
:102FE800704780B586B000AF786039603B681B6871
:102FF800FB60FB6893FAA3F3BB60BB68B3FA83F387
:10300800DBB27B6140E03B681A6801217B6901FA09
:1030180003F313403B613B69002B32D03B685B688C
:103028001A4639697868FFF7D7FE3B685B68012B59
:1030380003D03B685B68022B06D13B689B681A4645
:1030480039697868FFF70FFF3B681B691A463969C9
:103058007868FFF737FF3B685B68022B11D13B6943
:10306800FF2B07D83B685B691A4639697868FFF710
:1030780058FF06E03B685B691A4639697868FFF7CC
:103088007FFF7B6901337B613B681A687B6922FAA1
:1030980003F3002BB7D13B685B68012B03D03B6877
:1030A8005B68022B07D13B6819683B68DB681A46E6
:1030B8007868FFF7C0FE002318461837BD4680BD64
:1030C80080B400AF074B1B6803F48063B3F5806FCF
:1030D80001D1012300E000231846BD465DF8047BBA
:1030E800704700BF0010024080B400AF074BD3F810
:1030F800903003F00203022B01D1012300E00023EA
:103108001846BD465DF8047B704700BF00100240BA
:1031180080B400AF064B1B6803F00803082B01D1ED
:10312800012300E000231846BD465DF8047B704784
:103138000010024080B400AF044B1B6803F0F0039A
:103148001846BD465DF8047B704700BF001002407A
:1031580080B400AF044BD3F8943003F4706318467E
:10316800BD465DF8047B70470010024080B400AF94
:10317800044B9B6803F00C031846BD465DF8047BBE
:10318800704700BF0010024080B400AF044B9B683A
:1031980003F0F0031846BD465DF8047B704700BF96
:1031A8000010024080B400AF044B9B6803F4E06356
:1031B8001846BD465DF8047B704700BF001002400A
:1031C80080B400AF044B9B6803F460531846BD46B7
:1031D8005DF8047B704700BF0010024080B483B0E4
:1031E80000AF7860064BD3F888207B681A407B686C
:1031F8001B04134318460C37BD465DF8047B704723
:103208000010024080B483B000AF7860064BD3F85A
:1032180088207B681A407B681B04134318460C37C8
:10322800BD465DF8047B70470010024080B400AFD3
:10323800044BDB6803F003031846BD465DF8047BC6
:10324800704700BF0010024080B400AF044BDB6839
:103258001B0A03F07F031846BD465DF8047B7047E0
:103268000010024080B400AF044BDB6803F0C06379
:103278001846BD465DF8047B704700BF0010024049
:1032880080B400AF044BDB6803F070031846BD46FA
:103298005DF8047B704700BF0010024080B584B021
:1032A80000AF78600023FB607B68032B37D1786818
:1032B800FFF794FF0346A3F54033032B00F2B280D7
:1032C80001A252F823F000BF0F330008E1320008D2
:1032D800E9320008FB32000800F00CF9F860B0E0B1
:1032E800FFF7EEFE0346002B00F09E80574BFB6075
:1032F8009AE0FFF7F9FE0346002B00F097804FF4A1
:103308000043FB6092E000F0F5F80346184600F031
:1033180081F90346184600F0A7F9F86091E07B6848
:103328000C2B46D17868FFF759FF0346A3F54023D5
:103338000C2B7DD801A252F823F000BFA33300085C
:103348003934000839340008393400087933000862
:10335800393400083934000839340008813300084A
:10336800393400083934000839340008913300082A
:1033780000F0C0F8F86064E0FFF7A2FE0346002BF7
:1033880058D0324BFB6055E0FFF7AEFE0346002BEA
:1033980052D04FF40043FB604EE000F0ABF8034618
:1033A800184600F037F90346184600F049F9F86066
:1033B80047E07B68302B44D17868FFF70FFF03465E
:1033C800234A93420DD0224A934203D8B3F5401FB3
:1033D8001CD036E01F4A934207D0B3F1301F0CD0FF
:1033E8002FE000F087F8F8602BE0FFF769FE03464E
:1033F800002B23D0154BFB6020E0FFF775FE03463A
:10340800002B1DD04FF40043FB6019E000F072F868
:103418000346184600F0FEF80346184600F010F977
:10342800F8600EE000BF0CE000BF0AE000BF08E053
:1034380000BF06E000BF04E000BF02E000BF00E0FC
:1034480000BFFB6818461037BD4680BD0024F40055
:10345800100030002000300080B584B000AF7860E4
:103468000023FB607B68C02B38D17868FFF7CAFE61
:1034780003461D4A93420DD01B4A934203D8B3F525
:10348800400F1CD02AE0194A934207D0B3F1C01F5D
:103498000CD023E000F02EF8F8601FE0FFF710FED4
:1034A8000346002B17D0124BFB6014E0FFF71CFEFD
:1034B8000346002B11D04FF40043FB600DE000F0F1
:1034C80019F80346184600F0A5F80346184600F018
:1034D800B7F8F86002E000BF00E000BFFB681846DC
:1034E8001037BD4680BD00BF4000C0008000C0004E
:1034F8000024F40080B582B000AFFFF737FE034622
:103508000C2B51D801A252F823F000BF493500080E
:10351800B1350008B1350008B13500089D350008FF
:10352800B1350008B1350008B1350008A3350008E9
:10353800B1350008B1350008B1350008A9350008D3
:10354800FFF7E6FD0346002B11D1FFF7E1FD034627
:10355800002B04D0FFF7EEFD03461B0A03E0FFF73C
:10356800F7FD03461B0A284A52F8233010E0FFF7FC
:10357800CFFD0346002B04D0FFF7DCFD03461B09F3
:1035880003E0FFF7E5FD03461B091F4A52F8233005
:103598007B6033E01D4B7B6030E01D4B7B602DE092
:1035A80000F076F8786029E0FFF7B2FD0346002BBB
:1035B80011D1FFF7ADFD0346002B04D0FFF7BAFD8C
:1035C80003461B0A03E0FFF7C3FD03461B0A0E4A26
:1035D80052F8233010E0FFF79BFD0346002B04D080
:1035E800FFF7A8FD03461B0903E0FFF7B1FD0346FB
:1035F8001B09054A52F823307B6000BF7B681846D8
:103608000837BD4680BD00BFEC7400080024F400F4
:1036180000127A0080B582B000AF7860FFF7B4FD81
:1036280003461B0903F00F03044AD35C1A467B6860
:10363800D34018460837BD4680BD00BFD474000883
:1036480080B582B000AF7860FFF7ACFD03461B0A77
:10365800044AD35C1A467B68D34018460837BD46EF
:1036680080BD00BFE474000880B582B000AF786008
:10367800FFF7A6FD0346DB0A044AD35C1A467B68BB
:10368800D34018460837BD4680BD00BFE474000823
:1036980090B583B000AFFFF7C9FD38603B68022BD7
:1036A8002DD0032B2ED0012B2FD1FFF731FD034650
:1036B800002B11D1FFF72CFD0346002B04D0FFF798
:1036C80039FD03461B0A03E0FFF742FD03461B0AC8
:1036D8002F4A52F8233010E0FFF71AFD0346002B5B
:1036E80004D0FFF727FD03461B0903E0FFF730FD71
:1036F80003461B09264A52F823307B602FE0254BEE
:103708007B602CE0244B7B6029E0FFF701FD03463A
:10371800002B11D1FFF7FCFC0346002B04D0FFF768
:1037280009FD03461B0A03E0FFF712FD03461B0AC7
:10373800174A52F8233010E0FFF7EAFC0346002B43
:1037480004D0FFF7F7FC03461B0903E0FFF700FD71
:1037580003461B090E4A52F823307B6000BFFFF76F
:103768008FFD03461B0901337A68B2FBF3F4FFF7B8
:103778006BFD034603FB04F4FFF774FD03465B0E81
:1037880001335B00B4FBF3F318460C37BD4690BD1C
:10379800EC7400080024F40000127A0080B483B0AE
:1037A80000AF786039607B683A689A6200BF0C376E
:1037B800BD465DF8047B704780B483B000AF786085
:1037C80039607B683A68DA6200BF0C37BD465DF83D
:1037D800047B704780B483B000AF786039607B6841
:1037E8003A681A6300BF0C37BD465DF8047B704722
:1037F80080B483B000AF786039607B683A685A63F8
:1038080000BF0C37BD465DF8047B704780B483B0B9
:1038180000AF786039607B683A689A6300BF0C37FC
:10382800BD465DF8047B704780B483B000AF786014
:1038380039607B683A68DA6300BF0C37BD465DF8CB
:10384800047B704780B483B000AF786039607B68D0
:103858003A681A6400BF0C37BD465DF8047B7047B0
:1038680080B483B000AF786039607B689B6D7B68FB
:103878003A689A6500BF0C37BD465DF8047B70470F
:1038880080B483B000AF786039607B683A68DA65E5
:1038980000BF0C37BD465DF8047B704780B483B029
:1038A80000AF78607B685B6943F001027B685A610E
:1038B80000BF0C37BD465DF8047B704780B584B007
:1038C80000AF786039607B681B68FB607B682B4AB7
:1038D800934207D07B68B3F1804F03D07B68284AB6
:1038E800934206D1FB6823F070023B685B68134380
:1038F800FB607B68214A93420FD07B68B3F1804F0D
:103908000BD07B681E4A934207D07B681D4A9342BE
:1039180003D07B681C4A934206D1FB6823F44072AB
:103928003B68DB681343FB607B68FA681A603B6896
:103938009B6819467868FFF73FFF3B681B88194664
:103948007868FFF72BFF7B680C4A934207D07B68A7
:103958000C4A934203D07B680B4A934205D13B68DB
:103968001B7C19467868FFF735FF7868FFF796FFE4
:10397800002318461037BD4680BD00BF002C01400B
:1039880000040040004001400044014080B586B07A
:1039980000AFF860B9607A600123FB75BB68B3F5C6
:1039A800807F1FD0B3F5807F04D8012B0CD0102B5B
:1039B80011D033E0B3F5803F22D0B3F5801F26D075
:1039C800B3F5805F15D029E07968F86800F02CF825
:1039D8000346FB7522E07968F86800F099F8034619
:1039E800FB751BE07968F86800F00AF90346FB7577
:1039F80014E07968F86800F07BF90346FB750DE080
:103A08007968F86800F0D4F90346FB7506E0796830
:103A1800F86800F025FA0346FB7500BFFB7D1846E1
:103A28001837BD4680BD000080B586B000AF78600D
:103A380039607B681B6A23F001027B681A627B6825
:103A48001B6A7B617B685B683B617B689B69FB6089
:103A5800FB6823F00303FB60FB6823F4803323F047
:103A680070033A6812681343FB607B6923F0020213
:103A78003B681B6913437B617B6923F001023B6848
:103A88005B6813437B617B681E4A934207D07B685F
:103A98001D4A934203D07B681C4A93421ED17B691E
:103AA80023F008023B685B699B0013437B617B69D9
:103AB80023F004023B689B689B0013437B613B69CE
:103AC80023F480723B689B6913433B613B6923F491
:103AD80000723B68DB695B0013433B617B683A69B2
:103AE8005A607B68FA689A613B68DB6819467868AF
:103AF800FFF77EFE7B687A691A620023184618373A
:103B0800BD4680BD002C01400040014000440140FA
:103B180080B586B000AF786039607B681B6A23F097
:103B280010027B681A627B681B6A7B617B685B6832
:103B38003B617B689B69FB60FB6823F44073FB6017
:103B4800FB6823F0807323F4E0433A68126812029A
:103B58001343FB607B6923F020023B681B691B0150
:103B680013437B617B6923F010023B685B681B0190
:103B780013437B617B681F4A934207D07B681E4AC8
:103B8800934203D07B681D4A93421FD17B6923F07F
:103B980080023B685B699B0113437B617B6923F06F
:103BA80040023B689B689B0113437B613B6923F49C
:103BB80080623B689B699B0013433B613B6923F42C
:103BC80000623B68DB69DB0013433B617B683A6951
:103BD8005A607B68FA689A613B68DB6819467868BE
:103BE800FFF714FE7B687A691A62002318461837B3
:103BF800BD4680BD002C014000400140004401400A
:103C080080B586B000AF786039607B681B6A23F4A2
:103C180080727B681A627B681B6A7B617B685B6861
:103C28003B617B68DB69FB60FB6823F00303FB6097
:103C3800FB6823F4803323F070033A681268134357
:103C4800FB607B6923F400723B681B691B0213430A
:103C58007B617B6923F480723B685B681B021343BA
:103C68007B617B681F4A934207D07B681E4A934258
:103C780003D07B681D4A93421FD17B6923F40062FD
:103C88003B685B699B0213437B617B6923F4806219
:103C98003B689B689B0213437B613B6923F480521A
:103CA8003B689B691B0113433B613B6923F400524A
:103CB8003B68DB695B0113433B617B683A695A6087
:103CC8007B68FA68DA613B68DB6819467868FFF751
:103CD800ABFD7B687A691A62002318461837BD461F
:103CE80080BD00BF002C014000400140004401405D
:103CF80080B586B000AF786039607B681B6A23F4B2
:103D080080527B681A627B681B6A3B617B685B68D0
:103D18007B617B68DB69FB60FB6823F44073FB60B5
:103D2800FB6823F0807323F4E0433A6812681202B8
:103D38001343FB603B6923F400523B681B691B0378
:103D480013433B613B6923F480523B685B681B0368
:103D580013433B617B68134A934207D07B68124A3E
:103D6800934203D07B68114A934207D17B6923F4BD
:103D780080423B689B699B0113437B617B687A693E
:103D88005A607B68FA68DA613B68DB6819467868CC
:103D9800FFF758FD7B683A691A62002318461837FE
:103DA800BD4680BD002C0140004001400044014058
:103DB80080B584B000AF786039607B681B6A23F4F3
:103DC80080327B681A627B681B6AFB607B685B6D6C
:103DD800BB60BB6823F4803323F070033A68126831
:103DE8001343BB60FB6823F400323B681B691B0468
:103DF8001343FB60FB6823F480323B685B681B0459
:103E08001343FB607B68134A934207D07B68124ACE
:103E1800934203D07B68114A934209D17B685B685F
:103E280023F480323B689B691B021A437B685A6003
:103E38007B68BA685A653B68DB6819467868FFF79B
:103E48000FFD7B68FA681A62002318461037BD46D2
:103E580080BD00BF002C01400040014000440140EB
:103E680080B584B000AF786039607B681B6A23F442
:103E780080127B681A627B681B6AFB607B685B6DDB
:103E8800BB60BB6823F0807323F4E0433A68126890
:103E980012021343BB60FB6823F400123B681B69E2
:103EA8001B051343FB60FB6823F480123B685B68C7
:103EB8001B051343FB607B68124A934207D07B685B
:103EC800114A934203D07B68104A934209D17B6818
:103ED8005B6823F480223B689B699B021A437B68DA
:103EE8005A607B68BA685A653B68DB681946786827
:103EF800FFF7C6FC7B68FA681A6200231846103779
:103F0800BD4680BD002C01400040014000440140F6
:103F180080B483B000AF78607B681B6803F001034E
:103F2800012B01D1012300E0002318460C37BD46C0
:103F38005DF8047B704780B483B000AF7860396067
:103F48007B685B6823F440523B681A437B685A607D
:103F580000BF0C37BD465DF8047B704780B483B062
:103F680000AF786039607B689B6823F440723B68D7
:103F78001A437B689A6000BF0C37BD465DF8047B26
:103F8800704790B486B000AFF860B9607A603B6063
:103F98007B68B3F5004F16D1BB685A003B685B08D5
:103FA8001A443B68B2FBF3F39BB27B617B694FF623
:103FB800F0741C407B695B089BB203F007031C4349
:103FC800FB68DC600AE03B685A08BB681A443B6837
:103FD800B2FBF3F39BB21A46FB68DA6000BF1837EE
:103FE800BD4690BC7047000080B584B000AF7860D3
:103FF80039600123FB730023BB607868FFF788FFF3
:104008000346002B51D17B681A682A4B13403A6843
:1040180051683A68D26811433A68126911433A689C
:1040280092690A431A437B681A603B689B68194681
:104038007868FFF780FF3B685B6919467868FFF787
:104048008DFF7B681C4A934204D10320FFF726F9B1
:10405800B86019E07B68194A934204D10C20FFF735
:104068001DF9B86010E07B68154A934204D13020EE
:10407800FFF714F9B86007E07B68124A934203D14E
:10408800C020FFF7E9F9B860BB68002B0DD03B688A
:104098001B68002B09D00023FB733B689A693B68B7
:1040A8001B68B9687868FFF76CFFFB7B1846103708
:1040B800BD4680BDF369FFEF003801400044004071
:1040C80000480040004C004080B483B000AF7860E6
:1040D800044A7B68136000BF0C37BD465DF8047B5B
:1040E800704700BF0C00002080B500AF012280217E
:1040F8000248FEF783F800BF80BD00BF00040048F7
:1041080080B500AF002280210248FEF777F800BF93
:1041180080BD00BF0004004880B500AFFFF7E4FF92
:104128000A20FCF7B7FC7F210848FDF764FD034629
:10413800002B07D10548FDF70DF80346002B01D1E8
:10414800002300E00123184680BD00BF4402002080
:1041580080B582B000AF0023FB800A210C48FDF730
:104168005CF80B48FDF75CFC034603F40073B3F5F9
:10417800007F08D10648FDF7D8F803469BB2FB80BC
:10418800FB889BB200E0002318460837BD4680BD77
:104198004402002080B588B000AF324BBB61FFF706
:1041A800D7FF034607EE903AF8EE677AC7ED057A2F
:1041B8002D4B3B612D4BFB6097ED057AD7ED067AC9
:1041C80067EE277AC7ED027A97ED057AD7ED037A7D
:1041D800B4EEE77AF1EE10FA02D5FB687B610AE0EB
:1041E80097ED057AD7ED047AB4EEE77AF1EE10FA96
:1041F80001DD3B697B6197ED027AD7ED037A77EEB3
:10420800677A9FED1B7A67EE876A97ED047AD7ED98
:10421800037A37EE677AC6EE877AFCEEE77AC7ED5F
:10422800017A3B79FB77FB7F632B0AD997ED027AFA
:10423800D7ED037AB4EEE77AF1EE10FA01DD6423E4
:10424800FB7797ED027AD7ED037AB4EEE77AF1EED1
:1042580010FA01D50023FB77FB7F18462037BD46AF
:1042680080BD00BFB98B3B3F00002F4500A00D4526
:104278000000C84280B400AF044BDB681B0A03F09F
:1042880007031846BD465DF8047B704700ED00E063
:1042980080B483B000AF0346FB7197F90730002B59
:1042A8000BDB094997F907305B09FA7902F01F021D
:1042B800012000FA02F241F8232000BF0C37BD4666
:1042C8005DF8047B704700BF00E100E080B483B074
:1042D80000AF03463960FB7197F90730002B0ADB02
:1042E8000D4997F907303A68D2B21201D2B20B449D
:1042F80083F800230AE00949FB7903F00F03043B24
:104308003A68D2B21201D2B20B441A7600BF0C3707
:10431800BD465DF8047B704700E100E000ED00E079
:1043280080B489B000AFF860B9607A60FB6803F0C8
:104338000703FB61FB69C3F10703042B28BF0423B0
:10434800BB61FB690433062B02D9FB69033B00E020
:1043580000237B610122BB6902FA03F35A1EBB6882
:104368001A407B699A4001217B6901FA03F3591EBF
:104378007B680B40134318462437BD465DF8047B21
:104388007047000080B485B000AF786039607B6802
:10439800FB600C4A3B6813441B781A46FB681344BD
:1043A8001946084A3B6813441B781A46FB681344AD
:1043B8001B6843F001030B6000BF1437BD465DF86E
:1043C800047B7047B474000880B485B000AF78608F
:1043D80039607B68FB600C4A3B6813441B781A46BB
:1043E800FB6813441946084A3B6813441B781A466D
:1043F800FB6813441B6823F001030B6000BF1437EC
:10440800BD465DF8047B7047B474000880B487B07B
:1044180000AFF860B9607A60FB687B610E4ABB68E0
:1044280013441B781A467B69134419460A4ABB6829
:1044380013441B781A467B6913441B6823F4804392
:1044480023F010037A6813430B6000BF1C37BD4686
:104458005DF8047B704700BFB474000880B487B06F
:1044680000AFF860B9607A60FB687B610D4ABB6891
:1044780013441B781A467B6913441946094ABB68DA
:1044880013441B781A467B6913441B6823F02002E7
:104498007B6813430B6000BF1C37BD465DF8047B87
:1044A800704700BFB474000880B487B000AFF860EC
:1044B800B9607A60FB687B610D4ABB6813441B785E
:1044C8001A467B6913441946094ABB6813441B788A
:1044D8001A467B6913441B6823F040027B68134328
:1044E8000B6000BF1C37BD465DF8047B704700BFFA
:1044F800B474000880B487B000AFF860B9607A601F
:10450800FB687B610D4ABB6813441B781A467B69BC
:1045180013441946094ABB6813441B781A467B6939
:1045280013441B6823F080027B6813430B6000BFB1
:104538001C37BD465DF8047B704700BFB4740008A3
:1045480080B487B000AFF860B9607A60FB687B61BF
:104558000D4ABB6813441B781A467B6913441946F5
:10456800094ABB6813441B781A467B6913441B68C5
:1045780023F440727B6813430B6000BF1C37BD46B1
:104588005DF8047B704700BFB474000880B487B03E
:1045980000AFF860B9607A60FB687B610D4ABB6860
:1045A80013441B781A467B6913441946094ABB68A9
:1045B80013441B781A467B6913441B6823F4406232
:1045C8007B6813430B6000BF1C37BD465DF8047B56
:1045D800704700BFB474000880B487B000AFF860BB
:1045E800B9607A60FB687B610D4ABB6813441B782D
:1045F8001A467B6913441946094ABB6813441B7859
:104608001A467B6913441B6823F440527B681343A2
:104618000B6000BF1C37BD465DF8047B704700BFC8
:10462800B474000880B487B000AFF860B9607A60ED
:10463800FB687B610D4ABB6813441B781A467B698B
:1046480013441946094ABB6813441B781A467B6908
:1046580013445B681B0C1B047A6813434B6000BF50
:104668001C37BD465DF8047B704700BFB474000872
:1046780080B487B000AFF860B9607A60FB687B618E
:10468800074ABB6813441B781A467B6913441A46C9
:104698007B68D36000BF1C37BD465DF8047B70475C
:1046A800B474000880B487B000AFF860B9607A606D
:1046B800FB687B61074ABB6813441B781A467B6911
:1046C80013441A467B68936000BF1C37BD465DF8EB
:1046D800047B7047B474000880B487B000AFF860FA
:1046E800B9607A60FB68A8331846FB68A8331A6873
:1046F800BB689B000F2101FA03F3DB431A40BB6838
:104708009B000F2101FA03F37B617B6993FAA3F302
:104718003B613B69B3FA83F3DBB219467B688B4094
:104728001343036000BF1C37BD465DF8047B704728
:1047380080B483B000AF78607B681B6803F40033F3
:10474800B3F5003F01D1012300E0002318460C37E0
:10475800BD465DF8047B704780B483B000AF7860D5
:104768007B681B6803F48023B3F5802F01D10123F4
:1047780000E0002318460C37BD465DF8047B7047FF
:1047880080B483B000AF78607B684FF400325A6021
:1047980000BF0C37BD465DF8047B704780B483B01A
:1047A80000AF78607B684FF480225A6000BF0C37F6
:1047B800BD465DF8047B704780B485B000AF786073
:1047C80039607B68FB600C4A3B6813441B781A46C7
:1047D800FB6813441946084A3B6813441B781A4679
:1047E800FB6813441B6843F002030B6000BF1437D7
:1047F800BD465DF8047B7047B474000880B485B08A
:1048080000AF786039607B68FB600C4A3B681344F2
:104818001B781A46FB6813441946084A3B68134438
:104828001B781A46FB6813441B6843F004030B60AB
:1048380000BF1437BD465DF8047B7047B4740008A8
:1048480080B485B000AF786039607B68FB600C4A43
:104858003B6813441B781A46FB6813441946084AF8
:104868003B6813441B781A46FB6813441B6823F003
:1048780004030B6000BF1437BD465DF8047B704726
:10488800B474000880B485B000AF78600849084B5C
:104898009A6C7B6813438B64054B9A6C7B68134056
:1048A800FB60FB6800BF1437BD465DF8047B7047AA
:1048B8000010024080B485B000AF78600849084B0A
:1048C800DA6C7B681343CB64054BDA6C7B68134066
:1048D800FB60FB6800BF1437BD465DF8047B70477A
:1048E8000010024080B485B000AF78600849084BDA
:1048F8009A6D7B6813438B65054B9A6D7B681340F3
:10490800FB60FB6800BF1437BD465DF8047B704749
:104918000010024080B483B000AF78607B681B68E9
:1049280043F001027B681A6000BF0C37BD465DF892
:10493800047B704780B483B000AF78607B68DB6A23
:1049480018460C37BD465DF8047B704780B483B0C9
:1049580000AF786039607B681A6A3B681A437B68E5
:104968001A6200BF0C37BD465DF8047B704780B4FF
:1049780083B000AF786039607B681A6A3B68DB43B4
:104988001A407B681A6200BF0C37BD465DF8047B8D
:1049980070470000B0B483B000AF786039603B68FE
:1049A800012B28D03B68042B23D03B68102B1ED04A
:1049B8003B68402B19D03B68B3F5807F13D03B6828
:1049C800B3F5806F0DD03B68B3F5805F07D03B68C7
:1049D800B3F5803F01D107230EE008230CE006233E
:1049E8000AE0052308E0042306E0032304E0022389
:1049F80002E0012300E000231D467B6818331A46B5
:104A08002946094B5B5C13441C4622682946074B20
:104A18005B5C194604238B40DB431340236000BFD3
:104A28000C37BD46B0BC7047BC740008C874000899
:104A3800B0B483B000AF786039603B68012B28D0F0
:104A48003B68042B23D03B68102B1ED03B68402BBF
:104A580019D03B68B3F5807F13D03B68B3F5806FFE
:104A68000DD03B68B3F5805F07D03B68B3F5803F56
:104A780001D107230EE008230CE006230AE00523F2
:104A880008E0042306E0032304E0022302E00123F4
:104A980000E000231D467B6818331A462946094B57
:104AA8005B5C13441C4622682946074B5B5C19462D
:104AB80008238B401343236000BF0C37BD46B0BCAE
:104AC800704700BFBC740008C874000880B483B085
:104AD80000AF786039607B683A685A6300BF0C376A
:104AE800BD465DF8047B704780B483B000AF786042
:104AF80039607B685B6823F070023B681A437B6807
:104B08005A6000BF0C37BD465DF8047B704780B41F
:104B180083B000AF78607B689B6823F080027B6875
:104B28009A6000BF0C37BD465DF8047B704780B4BF
:104B380083B000AF78607B68DB6843F400727B6801
:104B4800DA6000BF0C37BD465DF8047B7047000093
:104B580080B483B000AF0346FB71044AFB7913703D
:104B680000BF0C37BD465DF8047B70470800002085
:104B780080B400AF034B1B781846BD465DF8047B34
:104B8800704700BF0800002080B483B000AF034620
:104B9800FB71044AFB79137000BF0C37BD465DF802
:104BA800047B70470900002080B400AF034B1B78DA
:104BB8001846BD465DF8047B704700BF0900002019
:104BC80080B5B2B000AF3B46C8220021184602F0BB
:104BD80099FB3B46184600F0A9FF3B468649184614
:104BE800FBF7F6FA0346002B03D10420FFF7B0FFCA
:104BF800FDE03B4681491846FBF7EAFA0346002BDD
:104C080003D10020FFF7A4FFF1E03B467C4918469A
:104C1800FBF7DEFA0346002B03D10220FFF798FFCB
:104C2800E5E03B4677491846FBF7D2FA0346002BE6
:104C380003D10720FFF78CFFD9E03B46724918469D
:104C4800FBF7C6FA0346002B03D10120FFF780FFCC
:104C5800CDE03B466D491846FBF7BAFA0346002BF0
:104C680003D10620FFF774FFC1E03B4668491846A8
:104C7800FBF7AEFA0346002B03D10520FFF768FFC8
:104C8800B5E03B4663491846FBF7A2FA0346002BFA
:104C980003D10320FFF75CFFA9E03B465E491846B5
:104CA800FBF796FA0346002B03D10820FFF750FFC5
:104CB8009DE03B4659491846FBF78AFA0346002B04
:104CC80003D10920FFF744FF91E03B4654491846B9
:104CD800FBF77EFA0346002B03D10A20FFF738FFC3
:104CE80085E03B464F491846FBF772FA0346002B0E
:104CF80006D14D4B01221A700B20FFF729FF76E0F1
:104D08003B464A491846FBF763FA0346002B0FD186
:104D18001020FFF739FFFFF72BFF0346082B04D0BD
:104D2800FFF726FF0346092B61D100F0BFF95EE0CB
:104D38003B463F491846FBF74BFA0346002B0FD179
:104D48000820FFF721FFFFF713FF0346082B04D0C5
:104D5800FFF70EFF0346092B49D100F0A7F946E0FB
:104D68003B4634491846FBF733FA0346002B0FD16C
:104D78000420FFF709FFFFF7FBFE0346082B04D0CA
:104D8800FFF7F6FE0346092B31D100F08FF92EE02C
:104D98003B4629491846FBF71BFA0346002B0FD15F
:104DA8000220FFF7F1FEFFF7E3FE0346082B04D0CD
:104DB800FFF7DEFE0346092B19D100F077F916E05C
:104DC8003B461E491846FBF703FA0346002B0ED153
:104DD8000120FFF7D9FEFFF7CBFE0346082B04D0CE
:104DE800FFF7C6FE0346092B01D100F05FF900BFAB
:104DF800C837BD4680BD00BF407400084474000831
:104E08004C740008547400085C740008647400084A
:104E18006C740008747400087C74000888740008B6
:104E2800947400089C7400081E020020A0740008F6
:104E3800A4740008A8740008AC740008B0740008D2
:104E480080B582B000AFFFF7BBFEFFF791FE0346C7
:104E5800FB71FB79002B05D10022FF21002000F017
:104E680045F83DE0FB79012B05D1FF22FF21002009
:104E780000F03CF834E0FB79022B05D1FF22002139
:104E8800002000F033F82BE0FB79032B05D1FF223B
:104E98000021FF2000F02AF822E0FB79042B05D13D
:104EA80000220021FF2000F021F819E0FB79052BF2
:104EB80005D100222F21FF2000F018F810E0FB791F
:104EC800062B05D10022FF21FF2000F00FF807E094
:104ED800FB79072B04D1FF22FF21FF2000F006F801
:104EE80000F04CF800BF0837BD4680BD80B483B0E1
:104EF80000AF0346FB710B46BB7113467B71074A33
:104F0800FB791370054ABB795370044A7B79937017
:104F180000BF0C37BD465DF8047B704724020020B3
:104F280080B582B000AF0346FB71FB79102B03D12B
:104F38000820FFF729FE1AE0FB79082B03D104208B
:104F4800FFF722FE13E0FB79042B03D10220FFF7C1
:104F58001BFE0CE0FB79022B03D10120FFF714FEA6
:104F680005E0FB79012B02D11020FFF70DFE00F0C0
:104F780005F800BF0837BD4680BD000090B583B076
:104F880000AFFFF711FE0346FB702D4B1A78FB7834
:104F9800B2FBF3F3DBB21846FBF776FA03460C468E
:104FA80044EC103B02F0B8F954EC103B184621468B
:104FB800FBF758FB0346BB70214B5A78FB78B2FBD2
:104FC800F3F3DBB21846FBF75FFA03460C4644ECF2
:104FD800103B02F0A1F954EC103B18462146FBF7B0
:104FE80041FB03467B70164B9A78FB78B2FBF3F3D0
:104FF800DBB21846FBF748FA03460C4644EC103B74
:1050080002F08AF954EC103B18462146FBF72AFBBC
:1050180003463B7000237B6008E078683B787A7829
:10502800B97800F0F9FA7B6801337B607B68092B5B
:10503800F3DD012000F066FB00BF0C37BD4690BDD4
:105048002402002080B582B000AF0346FB71FB79D3
:10505800502B05D9FF2200210020FFF747FF1FE052
:10506800FB793C2B05D9FF22FF210020FFF73EFFEB
:1050780016E0FB79282B05D90022FF210020FFF735
:1050880035FF0DE0FB79142B05D90022FF21FF2005
:10509800FFF72CFF04E000220021FF20FFF726FF86
:1050A800FFF76CFF00BF0837BD4680BD80B400AF76
:1050B8001D4B00225A701C4B04225A711A4B0122B4
:1050C800DA70194BFF221A70174B00221A71164B0F
:1050D80000229A70154B04225A70144B00225A7100
:1050E800124B0122DA70114BFF221A700F4B00226B
:1050F8001A710E4B00229A700D4B00225A700C4BFD
:1051080004225A710A4B0122DA70094BFF221A70E5
:10511800074B00221A71064B00229A7000BFBD4649
:105128005DF8047B704700BF280200203802002089
:105138003002002090B583B000AFFFF735FD03467D
:105148001A46F02393FBF2F31846FBF79DF9034642
:105158000C4644EC103B02F0DFF854EC103B1846C8
:105168002146FBF77FFA0346DBB25B08FB71FFF7CA
:105178001BFD03461A46F02393FBF2F31846FBF790
:1051880083F903460C4644EC103B02F0C5F854EC96
:10519800103B18462146FBF765FA0346DBB29B082D
:1051A800BB71FFF701FD03461A46F02393FBF2F3A8
:1051B8001846FBF769F903460C4644EC103B02F02D
:1051C800ABF854EC103B18462146FBF74BFA034664
:1051D800DBB29B087B712D4BDB78012B0ED12B4B5F
:1051E8009B780133DAB2294B9A70284B9B78BA79AD
:1051F8009A423FD8254B0222DA703BE0234BDB78FA
:10520800022B10D1214B9B78013BDAB21F4B9A70CD
:105218001E4B9B78042B2DD81C4B0422DA701B4B99
:1052280001225A7126E0194B5B79012B0ED1174BDD
:105238001B790133DAB2154B1A71144B1B797A7941
:105248009A4217D8114B02225A7113E00F4B5B791F
:10525800022B0FD10D4B1B79013BDAB20B4B1A71A4
:105268000A4B1B79042B05D8084B04225A71074BAB
:105278000122DA70054B9978044B1A79FB791846A4
:1052880000F006F800BF0C37BD4690BD280200208C
:1052980080B584B000AF0346FB710B46BB71134663
:1052A8007B710023FB6008E0F8687B79BA79F979AB
:1052B80000F0B2F9FB680133FB60FB68092BF3DDF2
:1052C800012000F01FFA00BF1037BD4680BD000066
:1052D80090B583B000AFFFF767FC03461A46F0238A
:1052E80093FBF2F31846FBF7CFF803460C4644EC61
:1052F800103B02F011F854EC103B18462146FBF71E
:10530800B1F90346DBB29B08FB71FFF74DFC03467E
:105318001A46F02393FBF2F31846FBF7B5F8034659
:105328000C4644EC103B01F0F7FF54EC103B1846D8
:105338002146FBF797F90346DBB29B08BB71FFF7E1
:1053480033FC03461A46F02393FBF2F31846FBF7A7
:105358009BF803460C4644EC103B01F0DDFF54EC8F
:10536800103B18462146FBF77DF90346DBB25B0884
:105378007B712D4BDB78012B0ED12B4B9B780133A6
:10538800DAB2294B9A70284B9B78BA799A423FD85F
:10539800254B0222DA703BE0234BDB78022B10D13D
:1053A800214B9B78013BDAB21F4B9A701E4B9B78BE
:1053B800042B2DD81C4B0422DA701B4B01225A7087
:1053C80026E0194B5B78012B0ED1174B1B78013364
:1053D800DAB2154B1A70144B1B78FA799A4217D81F
:1053E800114B02225A7013E00F4B5B78022B0FD13E
:1053F8000D4B1B78013BDAB20B4B1A700A4B1B782A
:10540800042B05D8084B04225A70074B0122DA7086
:10541800054B1878044B9B787A791946FFF738FFC3
:1054280000BF0C37BD4690BD3802002080B582B061
:1054380000AF00237B6019E000233B6010E0786830
:105448003B68DAB23B68DBB2002100F0E5F80120E6
:1054580000F058F90120FBF71DFB3B6802333B6065
:105468003B687E2BEBDD7B6801337B607B68092B17
:10547800E2DD00BF0837BD4680BD000080B594B0AE
:1054880000AF0120FFF72EFA0120FFF713FA0120E1
:10549800FFF7F8F9042204215C48FFF71DF91022F0
:1054A80004215A48FEF7B2FF002204215748FFF7AB
:1054B80093F8202204215548FEF7D0FF002204214A
:1054C8005248FEF7F1FF802204215048FFF712F8F6
:1054D8004FF4007204214D48FFF732F84FF4006290
:1054E80004214A48FFF752F8494A04214748FFF780
:1054F800D9F804214548FFF75FF904214348FFF72D
:105508007DF9FEF7B7FE0346002200211846FEF794
:1055180007FF034619461C20FEF7D8FE1C20FEF79D
:10552800B7FE0023BB8700233B642F237B64002343
:10553800BB6407F13C0319464FF08040FEF7BEF903
:1055480001214FF08040FFF773FA6023FB610023CD
:105558003B6200237B620023BB620023FB6207F1EE
:105568001C031A4601214FF08040FEF70FFA012173
:105578004FF08040FFF70EFA00214FF08040FFF710
:10558800B3FA4FF08040FFF7C2FA4FF400437B6054
:105598000223BB600023FB6000233B6100237B6187
:1055A8000123BB613B1D19464FF09040FDF719FDE3
:1055B8004FF08040FFF7BEF903465B00154AA2FB97
:1055C80003235B08013B19464FF08040FFF77EFA42
:1055D80001214FF08040FFF7B9F94FF08040FFF705
:1055E800A6FAFEF747FE0346002200211846FEF7FA
:1055F80097FE034619460F20FEF768FE0F20FEF7B8
:1056080047FE00BF5037BD4680BD00BF00000240C6
:1056180034000040ABAAAAAA80B483B000AF786077
:10562800084611461A460346FB700B46BB701346E4
:105638007B707B68092B18D87A6813465B00134483
:105648000D49FA78CA547A6813465B00134401334B
:105658000949BA78CA547A6813465B00134402337E
:1056680005497A78CA54012300E0002318460C370C
:10567800BD465DF8047B70472C00002080B485B0DF
:1056880000AF0346FB710B46BB7113467B710023C9
:10569800FB6019E0FA6813465B0013440F49FA7976
:1056A800CA54FA6813465B00134401330B49BA79AC
:1056B800CA54FA6813465B001344023307497A79DF
:1056C800CA54FB680133FB60FB68092BE2D901234C
:1056D80018461437BD465DF8047B70472C0000203F
:1056E80080B400AF064B1B78DBB2002B0CBF012344
:1056F8000023DBB21846BD465DF8047B704700BF47
:105708000D01002080B582B000AF0346FB710D4B40
:105718001B78DBB2002B01D000230FE0094B0122DC
:105728001A70012000F046F9FB79002B05D000BF64
:10573800FFF7D6FF0346002BFAD001231846083797
:10574800BD4680BD0D01002080B485B000AF7860F3
:1057580039607B68092B7DD80023FB6075E0FB6806
:105768009B003A68D1187A6813465B0013440133EA
:105778003C4AD35C1A46FB68C3F1070342FA03F3B9
:1057880003F00103002B08D04FF08043DB6A5B0075
:10579800354AA2FB03235B0806E04FF08043DB6A2F
:1057A800314AA2FB03235B080B60FB6808339B00AC
:1057B8003A68D1187A6813465B001344294AD35CC7
:1057C8001A46FB68C3F1070342FA03F303F0010327
:1057D800002B08D04FF08043DB6A5B00224AA2FB13
:1057E80003235B0806E04FF08043DB6A1E4AA2FBF6
:1057F80003235B080B60FB6810339B003A68D118E1
:105808007A6813465B0013440233164AD35C1A467F
:10581800FB68C3F1070342FA03F303F00103002B0B
:1058280008D04FF08043DB6A5B000F4AA2FB0323DA
:105838005B0806E04FF08043DB6A0B4AA2FB0323B8
:105848005B080B60FB680133FB60FB68072B86D99C
:10585800012300E0002318461437BD465DF8047B99
:10586800704700BF2C000020ABAAAAAA80B582B05E
:1058780000AF0346FB71FB79002B14BF0123002303
:10588800DBB2FB71454B1B78022B0CD101214FF089
:105898008040FFF76CF804214148FEF795FD414B25
:1058A80000221A7077E03D4B1B78012B12D1FB794F
:1058B800002B6FD001214FF08040FFF758F80421EA
:1058C8003748FEF781FD354B00221A70364B00220F
:1058D8001A6004E0344B1B680133334A1360324BBF
:1058E8001B68092B46D8304B1B68002B02D0FB796C
:1058F800002B06D12C4B1B682C491846FFF724FFB8
:1059080005E0294B1B682A491846FFF71DFF264B5F
:105918001B68002B3FD1244B1B680133224A1360BC
:10592800214B1B6822491846FFF70EFF202204214D
:105938001B48FEF793FD1D4B1A4604211848FEF735
:1059480097FE302204211648FEF76CFE1448FEF735
:1059580017FF1348FEF722FF04211148FEF74EFFF8
:1059680004210F48FEF70EFD01214FF08040FEF79D
:10597800EDFF10E0FB79002B0DD001214FF08040A6
:10598800FEF7F5FF04210648FEF71EFD022000F091
:1059980011F800E000BF0837BD4680BD0C010020AB
:1059A800000002400D010020100100204C000020E2
:1059B800AC00002080B582B000AF0346FB71204ADE
:1059C800FB791370C02200211E4801F09BFCFB7973
:1059D800012B05D14FF08043DB6A5B08194A13603D
:1059E800002204211848FEF739FD164B1A460421F7
:1059F8001548FEF73DFE282204211348FEF712FE43
:105A08001148FEF7BDFE1048FEF7C8FE04210E48F7
:105A1800FEF716FF04210C48FEF7CEFE04210A48C3
:105A2800FEF7B0FC01214FF08040FEF78FFF4FF0EA
:105A38008040FEF76FFF012318460837BD4680BD3A
:105A48000C0100204C0000200000024080B500AF8F
:105A58000D48FEF781FE0346002B06D00A48FEF7E4
:105A68009DFE0020FFF702FF0BE00748FEF760FEEF
:105A78000346002B05D00448FEF782FE0120FFF7FD
:105A8800F5FE00BF80BD00BF0000024080B500AF3A
:105A9800012208210248FCF7B1FB00BF80BD00BF0E
:105AA8000008004880B500AF002208210248FCF732
:105AB800A5FB00BF80BD00BF0008004880B483B0CC
:105AC80000AF164BDB6903F02003202B20D1134BCA
